{
	"data": {
		"bytecode": {
			"linkReferences": {},
			"object": "6101606040526040518060400160405280600c81526020017f41524d595f564f55434845520000000000000000000000000000000000000000815250600a90816100499190610870565b506040518060400160405280600181526020017f3100000000000000000000000000000000000000000000000000000000000000815250600b908161008e9190610870565b5034801561009a575f80fd5b50604051615b93380380615b9383398181016040528101906100bc919061099d565b600a80546100c99061069a565b80601f01602080910402602001604051908101604052809291908181526020018280546100f59061069a565b80156101405780601f1061011757610100808354040283529160200191610140565b820191905f5260205f20905b81548152906001019060200180831161012357829003601f168201915b5050505050600b80546101529061069a565b80601f016020809104026020016040519081016040528092919081815260200182805461017e9061069a565b80156101c95780601f106101a0576101008083540402835291602001916101c9565b820191905f5260205f20905b8154815290600101906020018083116101ac57829003601f168201915b5050505050826040518060400160405280600c81526020017f4f6e636861696e2041726d7900000000000000000000000000000000000000008152506040518060400160405280600481526020017f41726d7900000000000000000000000000000000000000000000000000000000815250815f90816102499190610870565b5080600190816102599190610870565b5050505f60075f6101000a81548160ff0219169083151502179055505f73ffffffffffffffffffffffffffffffffffffffff168173ffffffffffffffffffffffffffffffffffffffff16036102e5575f6040517f1e4fbdf70000000000000000000000000000000000000000000000000000000081526004016102dc91906109d7565b60405180910390fd5b6102f48161045c60201b60201c565b5061030960088361052160201b90919060201c565b610120818152505061032560098261052160201b90919060201c565b6101408181525050818051906020012060e08181525050808051906020012061010081815250504660a0818152505061036261056e60201b60201c565b608081815250503073ffffffffffffffffffffffffffffffffffffffff1660c08173ffffffffffffffffffffffffffffffffffffffff168152505050505f600c81905550611388600d81905550669536c708910000600e81905550666a94d74f430000600f819055505f60165f6101000a81548160ff0219169083151502179055505f601660016101000a81548160ff0219169083151502179055506107084261040c9190610a1d565b601081905550667c5850872380006011819055505f601660026101000a81548160ff021916908315150217905550610708426104489190610a1d565b601281905550601960138190555050610be1565b5f600760019054906101000a900473ffffffffffffffffffffffffffffffffffffffff16905081600760016101000a81548173ffffffffffffffffffffffffffffffffffffffff021916908373ffffffffffffffffffffffffffffffffffffffff1602179055508173ffffffffffffffffffffffffffffffffffffffff168173ffffffffffffffffffffffffffffffffffffffff167f8be0079c531659141344cd1fd0a4f28419497f9722a3daafe3b4186f6b6457e060405160405180910390a35050565b5f6020835110156105425761053b836105c860201b60201c565b9050610568565b826105528361062d60201b60201c565b5f0190816105609190610870565b5060ff5f1b90505b92915050565b5f7f8b73c3c69bb8fe3d512ecc4cf759cc79239f7b179b0ffacaa9a75d522b39400f60e0516101005146306040516020016105ad959493929190610a77565b60405160208183030381529060405280519060200120905090565b5f80829050601f8151111561061457826040517f305a27a900000000000000000000000000000000000000000000000000000000815260040161060b9190610b2e565b60405180910390fd5b80518161062090610b7b565b5f1c175f1b915050919050565b5f819050919050565b5f81519050919050565b7f4e487b71000000000000000000000000000000000000000000000000000000005f52604160045260245ffd5b7f4e487b71000000000000000000000000000000000000000000000000000000005f52602260045260245ffd5b5f60028204905060018216806106b157607f821691505b6020821081036106c4576106c361066d565b5b50919050565b5f819050815f5260205f209050919050565b5f6020601f8301049050919050565b5f82821b905092915050565b5f600883026107267fffffffffffffffffffffffffffffffffffffffffffffffffffffffffffffffff826106eb565b61073086836106eb565b95508019841693508086168417925050509392505050565b5f819050919050565b5f819050919050565b5f61077461076f61076a84610748565b610751565b610748565b9050919050565b5f819050919050565b61078d8361075a565b6107a16107998261077b565b8484546106f7565b825550505050565b5f90565b6107b56107a9565b6107c0818484610784565b505050565b5b818110156107e3576107d85f826107ad565b6001810190506107c6565b5050565b601f821115610828576107f9816106ca565b610802846106dc565b81016020851015610811578190505b61082561081d856106dc565b8301826107c5565b50505b505050565b5f82821c905092915050565b5f6108485f198460080261082d565b1980831691505092915050565b5f6108608383610839565b9150826002028217905092915050565b61087982610636565b67ffffffffffffffff81111561089257610891610640565b5b61089c825461069a565b6108a78282856107e7565b5f60209050601f8311600181146108d8575f84156108c6578287015190505b6108d08582610855565b865550610937565b601f1984166108e6866106ca565b5f5b8281101561090d578489015182556001820191506020850194506020810190506108e8565b8683101561092a5784890151610926601f891682610839565b8355505b6001600288020188555050505b505050505050565b5f80fd5b5f73ffffffffffffffffffffffffffffffffffffffff82169050919050565b5f61096c82610943565b9050919050565b61097c81610962565b8114610986575f80fd5b50565b5f8151905061099781610973565b92915050565b5f602082840312156109b2576109b161093f565b5b5f6109bf84828501610989565b91505092915050565b6109d181610962565b82525050565b5f6020820190506109ea5f8301846109c8565b92915050565b7f4e487b71000000000000000000000000000000000000000000000000000000005f52601160045260245ffd5b5f610a2782610748565b9150610a3283610748565b9250828201905080821115610a4a57610a496109f0565b5b92915050565b5f819050919050565b610a6281610a50565b82525050565b610a7181610748565b82525050565b5f60a082019050610a8a5f830188610a59565b610a976020830187610a59565b610aa46040830186610a59565b610ab16060830185610a68565b610abe60808301846109c8565b9695505050505050565b5f82825260208201905092915050565b8281835e5f83830152505050565b5f601f19601f8301169050919050565b5f610b0082610636565b610b0a8185610ac8565b9350610b1a818560208601610ad8565b610b2381610ae6565b840191505092915050565b5f6020820190508181035f830152610b468184610af6565b905092915050565b5f81519050919050565b5f819050602082019050919050565b5f610b728251610a50565b80915050919050565b5f610b8582610b4e565b82610b8f84610b58565b9050610b9a81610b67565b92506020821015610bda57610bd57fffffffffffffffffffffffffffffffffffffffffffffffffffffffffffffffff836020036008026106eb565b831692505b5050919050565b60805160a05160c05160e051610100516101205161014051614f61610c325f395f6120ec01525f6120b101525f61305601525f61303501525f61297d01525f6129d301525f6129fc0152614f615ff3fe60806040526004361061034f575f3560e01c80636770ec83116101c5578063a29e2223116100f6578063cb98652d11610094578063dba660621161006e578063dba6606214610b85578063dc53fd9214610baf578063e985e9c514610bd9578063f2fde38b14610c155761034f565b8063cb98652d14610b17578063cd64154a14610b41578063d7192b9a14610b5d5761034f565b8063afe206d4116100d0578063afe206d414610a87578063b88d4fde14610a9d578063badc664314610ac5578063c87b56dd14610adb5761034f565b8063a29e222314610a0b578063a9c0a63114610a35578063ae0614f114610a5f5761034f565b8063849084d3116101635780638da5cb5b1161013d5780638da5cb5b1461096557806395d89b411461098f578063a22cb465146109b9578063a2309ff8146109e15761034f565b8063849084d3146108cf57806384b0196e1461090b5780638a333b501461093b5761034f565b8063728917d41161019f578063728917d41461083757806372f9efcf146108615780638143c2611461087d5780638456cb59146108b95761034f565b80636770ec83146107bb57806370a08231146107e5578063715018a6146108215761034f565b80633f1cdbdf1161029f5780634a7634961161023d57806351cff8d91161021757806351cff8d9146107055780635c975abb1461072d5780635d82cf6e146107575780636352211e1461077f5761034f565b80634a7634961461069d5780634ee95582146106c55780635145ae2a146106db5761034f565b806342842e0e1161027957806342842e0e146105e957806342966c681461061157806348c04722146106395780634a2eb4b7146106755761034f565b80633f1cdbdf1461056f5780633f4ba83a146105ab5780633fa9d0e4146105c15761034f565b8063197348b71161030c57806327c7dde7116102e657806327c7dde7146104d75780632f4f52ed14610501578063345c911b146105295780633d016e59146105455761034f565b8063197348b71461044957806323b872dd146104735780632747fa191461049b5761034f565b806301ffc9a714610353578063064608e21461038f57806306fdde03146103a5578063081812fc146103cf578063095ea7b31461040b57806316d1534a14610433575b5f80fd5b34801561035e575f80fd5b5061037960048036038101906103749190613758565b610c3d565b604051610386919061379d565b60405180910390f35b34801561039a575f80fd5b506103a3610c4e565b005b3480156103b0575f80fd5b506103b9610c6c565b6040516103c69190613826565b60405180910390f35b3480156103da575f80fd5b506103f560048036038101906103f09190613879565b610cfb565b60405161040291906138e3565b60405180910390f35b348015610416575f80fd5b50610431600480360381019061042c9190613926565b610d16565b005b34801561043e575f80fd5b50610447610d2c565b005b348015610454575f80fd5b5061045d610d4a565b60405161046a9190613973565b60405180910390f35b34801561047e575f80fd5b506104996004803603810190610494919061398c565b610d50565b005b3480156104a6575f80fd5b506104c160048036038101906104bc9190613b4f565b610e4f565b6040516104ce919061379d565b60405180910390f35b3480156104e2575f80fd5b506104eb610e65565b6040516104f8919061379d565b60405180910390f35b34801561050c575f80fd5b5061052760048036038101906105229190613879565b610e77565b005b610543600480360381019061053e9190613c59565b610e89565b005b348015610550575f80fd5b506105596110fb565b6040516105669190613973565b60405180910390f35b34801561057a575f80fd5b5061059560048036038101906105909190613879565b611101565b6040516105a2919061379d565b60405180910390f35b3480156105b6575f80fd5b506105bf61111e565b005b3480156105cc575f80fd5b506105e760048036038101906105e29190613cf5565b611130565b005b3480156105f4575f80fd5b5061060f600480360381019061060a919061398c565b611142565b005b34801561061c575f80fd5b5061063760048036038101906106329190613879565b611161565b005b348015610644575f80fd5b5061065f600480360381019061065a9190613b4f565b611177565b60405161066c919061379d565b60405180910390f35b348015610680575f80fd5b5061069b60048036038101906106969190613cf5565b61118d565b005b3480156106a8575f80fd5b506106c360048036038101906106be9190613879565b61119f565b005b3480156106d0575f80fd5b506106d96111b1565b005b3480156106e6575f80fd5b506106ef6111e5565b6040516106fc919061379d565b60405180910390f35b348015610710575f80fd5b5061072b60048036038101906107269190613d20565b6111f8565b005b348015610738575f80fd5b506107416112ac565b60405161074e919061379d565b60405180910390f35b348015610762575f80fd5b5061077d60048036038101906107789190613879565b6112c1565b005b34801561078a575f80fd5b506107a560048036038101906107a09190613879565b6112d3565b6040516107b291906138e3565b60405180910390f35b3480156107c6575f80fd5b506107cf6112e4565b6040516107dc9190613973565b60405180910390f35b3480156107f0575f80fd5b5061080b60048036038101906108069190613d20565b6112ea565b6040516108189190613973565b60405180910390f35b34801561082c575f80fd5b506108356113a0565b005b348015610842575f80fd5b5061084b6113b3565b604051610858919061379d565b60405180910390f35b61087b60048036038101906108769190613c59565b6113c6565b005b348015610888575f80fd5b506108a3600480360381019061089e9190613d20565b61152c565b6040516108b09190613973565b60405180910390f35b3480156108c4575f80fd5b506108cd611541565b005b3480156108da575f80fd5b506108f560048036038101906108f09190613d6d565b611553565b60405161090291906138e3565b60405180910390f35b348015610916575f80fd5b5061091f61164e565b6040516109329796959493929190613eb4565b60405180910390f35b348015610946575f80fd5b5061094f6116f3565b60405161095c9190613973565b60405180910390f35b348015610970575f80fd5b506109796116f9565b60405161098691906138e3565b60405180910390f35b34801561099a575f80fd5b506109a3611722565b6040516109b09190613826565b60405180910390f35b3480156109c4575f80fd5b506109df60048036038101906109da9190613f60565b6117b2565b005b3480156109ec575f80fd5b506109f56117c8565b604051610a029190613973565b60405180910390f35b348015610a16575f80fd5b50610a1f6117ce565b604051610a2c9190613f9e565b60405180910390f35b348015610a40575f80fd5b50610a496117d4565b604051610a569190613f9e565b60405180910390f35b348015610a6a575f80fd5b50610a856004803603810190610a809190613879565b6117da565b005b348015610a92575f80fd5b50610a9b6117ec565b005b348015610aa8575f80fd5b50610ac36004803603810190610abe9190614055565b61181e565b005b348015610ad0575f80fd5b50610ad9611843565b005b348015610ae6575f80fd5b50610b016004803603810190610afc9190613879565b611877565b604051610b0e9190613826565b60405180910390f35b348015610b22575f80fd5b50610b2b611889565b604051610b389190613973565b60405180910390f35b610b5b6004803603810190610b569190613d6d565b61188f565b005b348015610b68575f80fd5b50610b836004803603810190610b7e9190614273565b611a1e565b005b348015610b90575f80fd5b50610b99611ad1565b604051610ba69190613973565b60405180910390f35b348015610bba575f80fd5b50610bc3611ad7565b604051610bd09190613973565b60405180910390f35b348015610be4575f80fd5b50610bff6004803603810190610bfa91906142fb565b611add565b604051610c0c919061379d565b60405180910390f35b348015610c20575f80fd5b50610c3b6004803603810190610c369190613d20565b611b6b565b005b5f610c4782611bef565b9050919050565b610c56611c4f565b61070842610c649190614366565b601281905550565b60605f8054610c7a906143c6565b80601f0160208091040260200160405190810160405280929190818152602001828054610ca6906143c6565b8015610cf15780601f10610cc857610100808354040283529160200191610cf1565b820191905f5260205f20905b815481529060010190602001808311610cd457829003601f168201915b5050505050905090565b5f610d0582611cd6565b50610d0f82611d5c565b9050919050565b610d288282610d23611d95565b611d9c565b5050565b610d34611c4f565b61070842610d429190614366565b601081905550565b60115481565b5f73ffffffffffffffffffffffffffffffffffffffff168273ffffffffffffffffffffffffffffffffffffffff1603610dc0575f6040517f64a0ae92000000000000000000000000000000000000000000000000000000008152600401610db791906138e3565b60405180910390fd5b5f610dd38383610dce611d95565b611dae565b90508373ffffffffffffffffffffffffffffffffffffffff168173ffffffffffffffffffffffffffffffffffffffff1614610e49578382826040517f64283d7b000000000000000000000000000000000000000000000000000000008152600401610e40939291906143f6565b60405180910390fd5b50505050565b5f610e5d8360155484611dc3565b905092915050565b60165f9054906101000a900460ff1681565b610e7f611c4f565b8060118190555050565b34601154811015610ecf576040517f08c379a0000000000000000000000000000000000000000000000000000000008152600401610ec690614475565b60405180910390fd5b426012541015610f14576040517f08c379a0000000000000000000000000000000000000000000000000000000008152600401610f0b906144dd565b60405180910390fd5b8185610f468282604051602001610f2b9190614540565b60405160208183030381529060405280519060200120610e4f565b610f85576040517f08c379a0000000000000000000000000000000000000000000000000000000008152600401610f7c906145a4565b60405180910390fd5b60011515601660029054906101000a900460ff16151514610fdb576040517f08c379a0000000000000000000000000000000000000000000000000000000008152600401610fd29061460c565b60405180910390fd5b60135460185f8973ffffffffffffffffffffffffffffffffffffffff1673ffffffffffffffffffffffffffffffffffffffff1681526020019081526020015f20541061105c576040517f08c379a000000000000000000000000000000000000000000000000000000000815260040161105390614674565b60405180910390fd5b611067878787611dd9565b600160185f8973ffffffffffffffffffffffffffffffffffffffff1673ffffffffffffffffffffffffffffffffffffffff1681526020019081526020015f20546110b19190614366565b60185f8973ffffffffffffffffffffffffffffffffffffffff1673ffffffffffffffffffffffffffffffffffffffff1681526020019081526020015f208190555050505050505050565b600f5481565b6017602052805f5260405f205f915054906101000a900460ff1681565b611126611c4f565b61112e611edd565b565b611138611c4f565b8060148190555050565b61115c83838360405180602001604052805f81525061181e565b505050565b6111735f8261116e611d95565b611dae565b5050565b5f6111858360145484611dc3565b905092915050565b611195611c4f565b8060158190555050565b6111a7611c4f565b8060138190555050565b6111b9611c4f565b601660019054906101000a900460ff1615601660016101000a81548160ff021916908315150217905550565b601660029054906101000a900460ff1681565b611200611c4f565b5f8173ffffffffffffffffffffffffffffffffffffffff1647604051611225906146bf565b5f6040518083038185875af1925050503d805f811461125f576040519150601f19603f3d011682016040523d82523d5f602084013e611264565b606091505b50509050806112a8576040517f08c379a000000000000000000000000000000000000000000000000000000000815260040161129f9061471d565b60405180910390fd5b5050565b5f60075f9054906101000a900460ff16905090565b6112c9611c4f565b80600e8190555050565b5f6112dd82611cd6565b9050919050565b60125481565b5f8073ffffffffffffffffffffffffffffffffffffffff168273ffffffffffffffffffffffffffffffffffffffff160361135b575f6040517f89c62b6400000000000000000000000000000000000000000000000000000000815260040161135291906138e3565b60405180910390fd5b60035f8373ffffffffffffffffffffffffffffffffffffffff1673ffffffffffffffffffffffffffffffffffffffff1681526020019081526020015f20549050919050565b6113a8611c4f565b6113b15f611f3e565b565b601660019054906101000a900460ff1681565b34600f5481101561140c576040517f08c379a000000000000000000000000000000000000000000000000000000000815260040161140390614475565b60405180910390fd5b426010541015611451576040517f08c379a0000000000000000000000000000000000000000000000000000000008152600401611448906144dd565b60405180910390fd5b818561148382826040516020016114689190614540565b60405160208183030381529060405280519060200120611177565b6114c2576040517f08c379a00000000000000000000000000000000000000000000000000000000081526004016114b9906145a4565b60405180910390fd5b60011515601660019054906101000a900460ff16151514611518576040517f08c379a000000000000000000000000000000000000000000000000000000000815260040161150f9061460c565b60405180910390fd5b611523878787611dd9565b50505050505050565b6018602052805f5260405f205f915090505481565b611549611c4f565b611551612003565b565b5f806115e47fca92cb474272e545b104dc1faa0041f6d99a43378edc034c480b298174032815845f01602081019061158b9190613d20565b85602001358680604001906115a09190614747565b6040516115ae9291906147cd565b60405180910390206040516020016115c994939291906147e5565b60405160208183030381529060405280519060200120612065565b90505f611642828580606001906115fb9190614828565b8080601f0160208091040260200160405190810160405280939291908181526020018383808284375f81840152601f19601f8201169050808301925050505050505061207e565b90508092505050919050565b5f6060805f805f606061165f6120a8565b6116676120e3565b46305f801b5f67ffffffffffffffff811115611686576116856139e0565b5b6040519080825280602002602001820160405280156116b45781602001602082028036833780820191505090505b507f0f00000000000000000000000000000000000000000000000000000000000000959493929190965096509650965096509650965090919293949596565b600d5481565b5f600760019054906101000a900473ffffffffffffffffffffffffffffffffffffffff16905090565b606060018054611731906143c6565b80601f016020809104026020016040519081016040528092919081815260200182805461175d906143c6565b80156117a85780601f1061177f576101008083540402835291602001916117a8565b820191905f5260205f20905b81548152906001019060200180831161178b57829003601f168201915b5050505050905090565b6117c46117bd611d95565b838361211e565b5050565b600c5481565b60155481565b60145481565b6117e2611c4f565b80600f8190555050565b6117f4611c4f565b60165f9054906101000a900460ff161560165f6101000a81548160ff021916908315150217905550565b611829848484610d50565b61183d611834611d95565b85858585612287565b50505050565b61184b611c4f565b601660029054906101000a900460ff1615601660026101000a81548160ff021916908315150217905550565b606061188282612433565b9050919050565b60135481565b6001151560165f9054906101000a900460ff161515146118e4576040517f08c379a00000000000000000000000000000000000000000000000000000000081526004016118db9061460c565b60405180910390fd5b34600e5481101561192a576040517f08c379a000000000000000000000000000000000000000000000000000000000815260040161192190614475565b60405180910390fd5b8161193481611553565b73ffffffffffffffffffffffffffffffffffffffff166119526116f9565b73ffffffffffffffffffffffffffffffffffffffff16146119a8576040517f08c379a000000000000000000000000000000000000000000000000000000000815260040161199f906148d4565b60405180910390fd5b611a19835f0160208101906119bd9190613d20565b84602001358580604001906119d29190614747565b8080601f0160208091040260200160405190810160405280939291908181526020018383808284375f81840152601f19601f82011690508083019250505050505050611dd9565b505050565b611a26611c4f565b8051825114611a6a576040517f08c379a0000000000000000000000000000000000000000000000000000000008152600401611a619061493c565b60405180910390fd5b5f5b8251811015611acb575f838281518110611a8957611a8861495a565b5b602002602001015190505f838381518110611aa757611aa661495a565b5b60200260200101519050611abc868383611dd9565b50508080600101915050611a6c565b50505050565b60105481565b600e5481565b5f60055f8473ffffffffffffffffffffffffffffffffffffffff1673ffffffffffffffffffffffffffffffffffffffff1681526020019081526020015f205f8373ffffffffffffffffffffffffffffffffffffffff1673ffffffffffffffffffffffffffffffffffffffff1681526020019081526020015f205f9054906101000a900460ff16905092915050565b611b73611c4f565b5f73ffffffffffffffffffffffffffffffffffffffff168173ffffffffffffffffffffffffffffffffffffffff1603611be3575f6040517f1e4fbdf7000000000000000000000000000000000000000000000000000000008152600401611bda91906138e3565b60405180910390fd5b611bec81611f3e565b50565b5f634906490660e01b7bffffffffffffffffffffffffffffffffffffffffffffffffffffffff1916827bffffffffffffffffffffffffffffffffffffffffffffffffffffffff19161480611c485750611c478261253e565b5b9050919050565b611c57611d95565b73ffffffffffffffffffffffffffffffffffffffff16611c756116f9565b73ffffffffffffffffffffffffffffffffffffffff1614611cd457611c98611d95565b6040517f118cdaa7000000000000000000000000000000000000000000000000000000008152600401611ccb91906138e3565b60405180910390fd5b565b5f80611ce18361261f565b90505f73ffffffffffffffffffffffffffffffffffffffff168173ffffffffffffffffffffffffffffffffffffffff1603611d5357826040517f7e273289000000000000000000000000000000000000000000000000000000008152600401611d4a9190613973565b60405180910390fd5b80915050919050565b5f60045f8381526020019081526020015f205f9054906101000a900473ffffffffffffffffffffffffffffffffffffffff169050919050565b5f33905090565b611da98383836001612658565b505050565b5f611dba848484612817565b90509392505050565b5f82611dcf8584612834565b1490509392505050565b600d54600c541115611e20576040517f08c379a0000000000000000000000000000000000000000000000000000000008152600401611e17906149d1565b60405180910390fd5b816001151560175f8381526020019081526020015f205f9054906101000a900460ff16151503611e85576040517f08c379a0000000000000000000000000000000000000000000000000000000008152600401611e7c90614a39565b60405180910390fd5b6001600c54611e949190614366565b600c81905550600160175f8581526020019081526020015f205f6101000a81548160ff021916908315150217905550611ecd8484612882565b611ed7838361289f565b50505050565b611ee56128f9565b5f60075f6101000a81548160ff0219169083151502179055507f5db9ee0a495bf2e6ff9c91a7834c1ba4fdd244a5e8aa4e537bd38aeae4b073aa611f27611d95565b604051611f3491906138e3565b60405180910390a1565b5f600760019054906101000a900473ffffffffffffffffffffffffffffffffffffffff16905081600760016101000a81548173ffffffffffffffffffffffffffffffffffffffff021916908373ffffffffffffffffffffffffffffffffffffffff1602179055508173ffffffffffffffffffffffffffffffffffffffff168173ffffffffffffffffffffffffffffffffffffffff167f8be0079c531659141344cd1fd0a4f28419497f9722a3daafe3b4186f6b6457e060405160405180910390a35050565b61200b612939565b600160075f6101000a81548160ff0219169083151502179055507f62e78cea01bee320cd4e420270b5ea74000d11b0c9f74754ebdbfc544b05a25861204e611d95565b60405161205b91906138e3565b60405180910390a1565b5f61207761207161297a565b83612a30565b9050919050565b5f805f8061208c8686612a70565b92509250925061209c8282612ac5565b82935050505092915050565b60606120de60087f0000000000000000000000000000000000000000000000000000000000000000612c2790919063ffffffff16565b905090565b606061211960097f0000000000000000000000000000000000000000000000000000000000000000612c2790919063ffffffff16565b905090565b5f73ffffffffffffffffffffffffffffffffffffffff168273ffffffffffffffffffffffffffffffffffffffff160361218e57816040517f5b08ba1800000000000000000000000000000000000000000000000000000000815260040161218591906138e3565b60405180910390fd5b8060055f8573ffffffffffffffffffffffffffffffffffffffff1673ffffffffffffffffffffffffffffffffffffffff1681526020019081526020015f205f8473ffffffffffffffffffffffffffffffffffffffff1673ffffffffffffffffffffffffffffffffffffffff1681526020019081526020015f205f6101000a81548160ff0219169083151502179055508173ffffffffffffffffffffffffffffffffffffffff168373ffffffffffffffffffffffffffffffffffffffff167f17307eab39ab6107e8899845ad3d59bd9653f200f220920489ca2b5937696c318360405161227a919061379d565b60405180910390a3505050565b5f8373ffffffffffffffffffffffffffffffffffffffff163b111561242c578273ffffffffffffffffffffffffffffffffffffffff1663150b7a02868685856040518563ffffffff1660e01b81526004016122e59493929190614aa9565b6020604051808303815f875af192505050801561232057506040513d601f19601f8201168201806040525081019061231d9190614b07565b60015b6123a1573d805f811461234e576040519150601f19603f3d011682016040523d82523d5f602084013e612353565b606091505b505f81510361239957836040517f64a0ae9200000000000000000000000000000000000000000000000000000000815260040161239091906138e3565b60405180910390fd5b805181602001fd5b63150b7a0260e01b7bffffffffffffffffffffffffffffffffffffffffffffffffffffffff1916817bffffffffffffffffffffffffffffffffffffffffffffffffffffffff19161461242a57836040517f64a0ae9200000000000000000000000000000000000000000000000000000000815260040161242191906138e3565b60405180910390fd5b505b5050505050565b606061243e82611cd6565b505f60065f8481526020019081526020015f20805461245c906143c6565b80601f0160208091040260200160405190810160405280929190818152602001828054612488906143c6565b80156124d35780601f106124aa576101008083540402835291602001916124d3565b820191905f5260205f20905b8154815290600101906020018083116124b657829003601f168201915b505050505090505f6124e3612cd4565b90505f8151036124f7578192505050612539565b5f8251111561252b578082604051602001612513929190614b6c565b60405160208183030381529060405292505050612539565b61253484612cea565b925050505b919050565b5f7f80ac58cd000000000000000000000000000000000000000000000000000000007bffffffffffffffffffffffffffffffffffffffffffffffffffffffff1916827bffffffffffffffffffffffffffffffffffffffffffffffffffffffff1916148061260857507f5b5e139f000000000000000000000000000000000000000000000000000000007bffffffffffffffffffffffffffffffffffffffffffffffffffffffff1916827bffffffffffffffffffffffffffffffffffffffffffffffffffffffff1916145b80612618575061261782612d50565b5b9050919050565b5f60025f8381526020019081526020015f205f9054906101000a900473ffffffffffffffffffffffffffffffffffffffff169050919050565b808061269057505f73ffffffffffffffffffffffffffffffffffffffff168273ffffffffffffffffffffffffffffffffffffffff1614155b156127c2575f61269f84611cd6565b90505f73ffffffffffffffffffffffffffffffffffffffff168373ffffffffffffffffffffffffffffffffffffffff161415801561270957508273ffffffffffffffffffffffffffffffffffffffff168173ffffffffffffffffffffffffffffffffffffffff1614155b801561271c575061271a8184611add565b155b1561275e57826040517fa9fbf51f00000000000000000000000000000000000000000000000000000000815260040161275591906138e3565b60405180910390fd5b81156127c057838573ffffffffffffffffffffffffffffffffffffffff168273ffffffffffffffffffffffffffffffffffffffff167f8c5be1e5ebec7d5bd14f71427d1e84f3dd0314c0f7b2291e5b200ac8c7c3b92560405160405180910390a45b505b8360045f8581526020019081526020015f205f6101000a81548173ffffffffffffffffffffffffffffffffffffffff021916908373ffffffffffffffffffffffffffffffffffffffff16021790555050505050565b5f612820612939565b61282b848484612db9565b90509392505050565b5f808290505f5b8451811015612877576128688286838151811061285b5761285a61495a565b5b6020026020010151612fc4565b9150808060010191505061283b565b508091505092915050565b61289b828260405180602001604052805f815250612fee565b5050565b8060065f8481526020019081526020015f2090816128bd9190614d2c565b507ff8e1a15aba9398e019f0b49df1a4fde98ee17ae345cb5f6b5e2c27f5033e8ce7826040516128ed9190613973565b60405180910390a15050565b6129016112ac565b612937576040517f8dfc202b00000000000000000000000000000000000000000000000000000000815260040160405180910390fd5b565b6129416112ac565b15612978576040517fd93c066500000000000000000000000000000000000000000000000000000000815260040160405180910390fd5b565b5f7f000000000000000000000000000000000000000000000000000000000000000073ffffffffffffffffffffffffffffffffffffffff163073ffffffffffffffffffffffffffffffffffffffff161480156129f557507f000000000000000000000000000000000000000000000000000000000000000046145b15612a22577f00000000000000000000000000000000000000000000000000000000000000009050612a2d565b612a2a613011565b90505b90565b5f6040517f190100000000000000000000000000000000000000000000000000000000000081528360028201528260228201526042812091505092915050565b5f805f6041845103612ab0575f805f602087015192506040870151915060608701515f1a9050612aa2888285856130a6565b955095509550505050612abe565b5f600285515f1b9250925092505b9250925092565b5f6003811115612ad857612ad7614dfb565b5b826003811115612aeb57612aea614dfb565b5b0315612c235760016003811115612b0557612b04614dfb565b5b826003811115612b1857612b17614dfb565b5b03612b4f576040517ff645eedf00000000000000000000000000000000000000000000000000000000815260040160405180910390fd5b60026003811115612b6357612b62614dfb565b5b826003811115612b7657612b75614dfb565b5b03612bba57805f1c6040517ffce698f7000000000000000000000000000000000000000000000000000000008152600401612bb19190613973565b60405180910390fd5b600380811115612bcd57612bcc614dfb565b5b826003811115612be057612bdf614dfb565b5b03612c2257806040517fd78bce0c000000000000000000000000000000000000000000000000000000008152600401612c199190613f9e565b60405180910390fd5b5b5050565b606060ff5f1b8314612c4357612c3c8361318d565b9050612cce565b818054612c4f906143c6565b80601f0160208091040260200160405190810160405280929190818152602001828054612c7b906143c6565b8015612cc65780601f10612c9d57610100808354040283529160200191612cc6565b820191905f5260205f20905b815481529060010190602001808311612ca957829003601f168201915b505050505090505b92915050565b606060405180602001604052805f815250905090565b6060612cf582611cd6565b505f612cff612cd4565b90505f815111612d1d5760405180602001604052805f815250612d48565b80612d27846131ff565b604051602001612d38929190614b6c565b6040516020818303038152906040525b915050919050565b5f7f01ffc9a7000000000000000000000000000000000000000000000000000000007bffffffffffffffffffffffffffffffffffffffffffffffffffffffff1916827bffffffffffffffffffffffffffffffffffffffffffffffffffffffff1916149050919050565b5f80612dc48461261f565b90505f73ffffffffffffffffffffffffffffffffffffffff168373ffffffffffffffffffffffffffffffffffffffff1614612e0557612e048184866132c9565b5b5f73ffffffffffffffffffffffffffffffffffffffff168173ffffffffffffffffffffffffffffffffffffffff1614612e9057612e445f855f80612658565b600160035f8373ffffffffffffffffffffffffffffffffffffffff1673ffffffffffffffffffffffffffffffffffffffff1681526020019081526020015f205f82825403925050819055505b5f73ffffffffffffffffffffffffffffffffffffffff168573ffffffffffffffffffffffffffffffffffffffff1614612f0f57600160035f8773ffffffffffffffffffffffffffffffffffffffff1673ffffffffffffffffffffffffffffffffffffffff1681526020019081526020015f205f82825401925050819055505b8460025f8681526020019081526020015f205f6101000a81548173ffffffffffffffffffffffffffffffffffffffff021916908373ffffffffffffffffffffffffffffffffffffffff160217905550838573ffffffffffffffffffffffffffffffffffffffff168273ffffffffffffffffffffffffffffffffffffffff167fddf252ad1be2c89b69c2b068fc378daa952ba7f163c4a11628f55a4df523b3ef60405160405180910390a4809150509392505050565b5f818310612fdb57612fd6828461338c565b612fe6565b612fe5838361338c565b5b905092915050565b612ff883836133a0565b61300c613003611d95565b5f858585612287565b505050565b5f7f8b73c3c69bb8fe3d512ecc4cf759cc79239f7b179b0ffacaa9a75d522b39400f7f00000000000000000000000000000000000000000000000000000000000000007f0000000000000000000000000000000000000000000000000000000000000000463060405160200161308b959493929190614e28565b60405160208183030381529060405280519060200120905090565b5f805f7f7fffffffffffffffffffffffffffffff5d576e7357a4501ddfe92f46681b20a0845f1c11156130e2575f600385925092509250613183565b5f6001888888886040515f81526020016040526040516131059493929190614e94565b6020604051602081039080840390855afa158015613125573d5f803e3d5ffd5b5050506020604051035190505f73ffffffffffffffffffffffffffffffffffffffff168173ffffffffffffffffffffffffffffffffffffffff1603613176575f60015f801b93509350935050613183565b805f805f1b935093509350505b9450945094915050565b60605f61319983613493565b90505f602067ffffffffffffffff8111156131b7576131b66139e0565b5b6040519080825280601f01601f1916602001820160405280156131e95781602001600182028036833780820191505090505b5090508181528360208201528092505050919050565b60605f600161320d846134e1565b0190505f8167ffffffffffffffff81111561322b5761322a6139e0565b5b6040519080825280601f01601f19166020018201604052801561325d5781602001600182028036833780820191505090505b5090505f82602001820190505b6001156132be578080600190039150507f3031323334353637383961626364656600000000000000000000000000000000600a86061a8153600a85816132b3576132b2614ed7565b5b0494505f850361326a575b819350505050919050565b6132d4838383613632565b613387575f73ffffffffffffffffffffffffffffffffffffffff168373ffffffffffffffffffffffffffffffffffffffff160361334857806040517f7e27328900000000000000000000000000000000000000000000000000000000815260040161333f9190613973565b60405180910390fd5b81816040517f177e802f00000000000000000000000000000000000000000000000000000000815260040161337e929190614f04565b60405180910390fd5b505050565b5f825f528160205260405f20905092915050565b5f73ffffffffffffffffffffffffffffffffffffffff168273ffffffffffffffffffffffffffffffffffffffff1603613410575f6040517f64a0ae9200000000000000000000000000000000000000000000000000000000815260040161340791906138e3565b60405180910390fd5b5f61341c83835f611dae565b90505f73ffffffffffffffffffffffffffffffffffffffff168173ffffffffffffffffffffffffffffffffffffffff161461348e575f6040517f73c6ac6e00000000000000000000000000000000000000000000000000000000815260040161348591906138e3565b60405180910390fd5b505050565b5f8060ff835f1c169050601f8111156134d8576040517fb3512b0c00000000000000000000000000000000000000000000000000000000815260040160405180910390fd5b80915050919050565b5f805f90507a184f03e93ff9f4daa797ed6e38ed64bf6a1f010000000000000000831061353d577a184f03e93ff9f4daa797ed6e38ed64bf6a1f010000000000000000838161353357613532614ed7565b5b0492506040810190505b6d04ee2d6d415b85acef8100000000831061357a576d04ee2d6d415b85acef810000000083816135705761356f614ed7565b5b0492506020810190505b662386f26fc1000083106135a957662386f26fc10000838161359f5761359e614ed7565b5b0492506010810190505b6305f5e10083106135d2576305f5e10083816135c8576135c7614ed7565b5b0492506008810190505b61271083106135f75761271083816135ed576135ec614ed7565b5b0492506004810190505b6064831061361a57606483816136105761360f614ed7565b5b0492506002810190505b600a8310613629576001810190505b80915050919050565b5f8073ffffffffffffffffffffffffffffffffffffffff168373ffffffffffffffffffffffffffffffffffffffff16141580156136e957508273ffffffffffffffffffffffffffffffffffffffff168473ffffffffffffffffffffffffffffffffffffffff1614806136aa57506136a98484611add565b5b806136e857508273ffffffffffffffffffffffffffffffffffffffff166136d083611d5c565b73ffffffffffffffffffffffffffffffffffffffff16145b5b90509392505050565b5f604051905090565b5f80fd5b5f80fd5b5f7fffffffff0000000000000000000000000000000000000000000000000000000082169050919050565b61373781613703565b8114613741575f80fd5b50565b5f813590506137528161372e565b92915050565b5f6020828403121561376d5761376c6136fb565b5b5f61377a84828501613744565b91505092915050565b5f8115159050919050565b61379781613783565b82525050565b5f6020820190506137b05f83018461378e565b92915050565b5f81519050919050565b5f82825260208201905092915050565b8281835e5f83830152505050565b5f601f19601f8301169050919050565b5f6137f8826137b6565b61380281856137c0565b93506138128185602086016137d0565b61381b816137de565b840191505092915050565b5f6020820190508181035f83015261383e81846137ee565b905092915050565b5f819050919050565b61385881613846565b8114613862575f80fd5b50565b5f813590506138738161384f565b92915050565b5f6020828403121561388e5761388d6136fb565b5b5f61389b84828501613865565b91505092915050565b5f73ffffffffffffffffffffffffffffffffffffffff82169050919050565b5f6138cd826138a4565b9050919050565b6138dd816138c3565b82525050565b5f6020820190506138f65f8301846138d4565b92915050565b613905816138c3565b811461390f575f80fd5b50565b5f81359050613920816138fc565b92915050565b5f806040838503121561393c5761393b6136fb565b5b5f61394985828601613912565b925050602061395a85828601613865565b9150509250929050565b61396d81613846565b82525050565b5f6020820190506139865f830184613964565b92915050565b5f805f606084860312156139a3576139a26136fb565b5b5f6139b086828701613912565b93505060206139c186828701613912565b92505060406139d286828701613865565b9150509250925092565b5f80fd5b7f4e487b71000000000000000000000000000000000000000000000000000000005f52604160045260245ffd5b613a16826137de565b810181811067ffffffffffffffff82111715613a3557613a346139e0565b5b80604052505050565b5f613a476136f2565b9050613a538282613a0d565b919050565b5f67ffffffffffffffff821115613a7257613a716139e0565b5b602082029050602081019050919050565b5f80fd5b5f819050919050565b613a9981613a87565b8114613aa3575f80fd5b50565b5f81359050613ab481613a90565b92915050565b5f613acc613ac784613a58565b613a3e565b90508083825260208201905060208402830185811115613aef57613aee613a83565b5b835b81811015613b185780613b048882613aa6565b845260208401935050602081019050613af1565b5050509392505050565b5f82601f830112613b3657613b356139dc565b5b8135613b46848260208601613aba565b91505092915050565b5f8060408385031215613b6557613b646136fb565b5b5f83013567ffffffffffffffff811115613b8257613b816136ff565b5b613b8e85828601613b22565b9250506020613b9f85828601613aa6565b9150509250929050565b5f80fd5b5f67ffffffffffffffff821115613bc757613bc66139e0565b5b613bd0826137de565b9050602081019050919050565b828183375f83830152505050565b5f613bfd613bf884613bad565b613a3e565b905082815260208101848484011115613c1957613c18613ba9565b5b613c24848285613bdd565b509392505050565b5f82601f830112613c4057613c3f6139dc565b5b8135613c50848260208601613beb565b91505092915050565b5f805f8060808587031215613c7157613c706136fb565b5b5f613c7e87828801613912565b9450506020613c8f87828801613865565b935050604085013567ffffffffffffffff811115613cb057613caf6136ff565b5b613cbc87828801613c2c565b925050606085013567ffffffffffffffff811115613cdd57613cdc6136ff565b5b613ce987828801613b22565b91505092959194509250565b5f60208284031215613d0a57613d096136fb565b5b5f613d1784828501613aa6565b91505092915050565b5f60208284031215613d3557613d346136fb565b5b5f613d4284828501613912565b91505092915050565b5f80fd5b5f60808284031215613d6457613d63613d4b565b5b81905092915050565b5f60208284031215613d8257613d816136fb565b5b5f82013567ffffffffffffffff811115613d9f57613d9e6136ff565b5b613dab84828501613d4f565b91505092915050565b5f7fff0000000000000000000000000000000000000000000000000000000000000082169050919050565b613de881613db4565b82525050565b613df781613a87565b82525050565b5f81519050919050565b5f82825260208201905092915050565b5f819050602082019050919050565b613e2f81613846565b82525050565b5f613e408383613e26565b60208301905092915050565b5f602082019050919050565b5f613e6282613dfd565b613e6c8185613e07565b9350613e7783613e17565b805f5b83811015613ea7578151613e8e8882613e35565b9750613e9983613e4c565b925050600181019050613e7a565b5085935050505092915050565b5f60e082019050613ec75f83018a613ddf565b8181036020830152613ed981896137ee565b90508181036040830152613eed81886137ee565b9050613efc6060830187613964565b613f0960808301866138d4565b613f1660a0830185613dee565b81810360c0830152613f288184613e58565b905098975050505050505050565b613f3f81613783565b8114613f49575f80fd5b50565b5f81359050613f5a81613f36565b92915050565b5f8060408385031215613f7657613f756136fb565b5b5f613f8385828601613912565b9250506020613f9485828601613f4c565b9150509250929050565b5f602082019050613fb15f830184613dee565b92915050565b5f67ffffffffffffffff821115613fd157613fd06139e0565b5b613fda826137de565b9050602081019050919050565b5f613ff9613ff484613fb7565b613a3e565b90508281526020810184848401111561401557614014613ba9565b5b614020848285613bdd565b509392505050565b5f82601f83011261403c5761403b6139dc565b5b813561404c848260208601613fe7565b91505092915050565b5f805f806080858703121561406d5761406c6136fb565b5b5f61407a87828801613912565b945050602061408b87828801613912565b935050604061409c87828801613865565b925050606085013567ffffffffffffffff8111156140bd576140bc6136ff565b5b6140c987828801614028565b91505092959194509250565b5f67ffffffffffffffff8211156140ef576140ee6139e0565b5b602082029050602081019050919050565b5f61411261410d846140d5565b613a3e565b9050808382526020820190506020840283018581111561413557614134613a83565b5b835b8181101561415e578061414a8882613865565b845260208401935050602081019050614137565b5050509392505050565b5f82601f83011261417c5761417b6139dc565b5b813561418c848260208601614100565b91505092915050565b5f67ffffffffffffffff8211156141af576141ae6139e0565b5b602082029050602081019050919050565b5f6141d26141cd84614195565b613a3e565b905080838252602082019050602084028301858111156141f5576141f4613a83565b5b835b8181101561423c57803567ffffffffffffffff81111561421a576142196139dc565b5b8086016142278982613c2c565b855260208501945050506020810190506141f7565b5050509392505050565b5f82601f83011261425a576142596139dc565b5b813561426a8482602086016141c0565b91505092915050565b5f805f6060848603121561428a576142896136fb565b5b5f61429786828701613912565b935050602084013567ffffffffffffffff8111156142b8576142b76136ff565b5b6142c486828701614168565b925050604084013567ffffffffffffffff8111156142e5576142e46136ff565b5b6142f186828701614246565b9150509250925092565b5f8060408385031215614311576143106136fb565b5b5f61431e85828601613912565b925050602061432f85828601613912565b9150509250929050565b7f4e487b71000000000000000000000000000000000000000000000000000000005f52601160045260245ffd5b5f61437082613846565b915061437b83613846565b925082820190508082111561439357614392614339565b5b92915050565b7f4e487b71000000000000000000000000000000000000000000000000000000005f52602260045260245ffd5b5f60028204905060018216806143dd57607f821691505b6020821081036143f0576143ef614399565b5b50919050565b5f6060820190506144095f8301866138d4565b6144166020830185613964565b61442360408301846138d4565b949350505050565b7f4e6f7420656e6f756768206574686572000000000000000000000000000000005f82015250565b5f61445f6010836137c0565b915061446a8261442b565b602082019050919050565b5f6020820190508181035f83015261448c81614453565b9050919050565b7f4d696e74696e6720706861736520656e6465642e0000000000000000000000005f82015250565b5f6144c76014836137c0565b91506144d282614493565b602082019050919050565b5f6020820190508181035f8301526144f4816144bb565b9050919050565b5f8160601b9050919050565b5f614511826144fb565b9050919050565b5f61452282614507565b9050919050565b61453a614535826138c3565b614518565b82525050565b5f61454b8284614529565b60148201915081905092915050565b7f4e6f7420612070617274206f6620416c6c6f776c6973740000000000000000005f82015250565b5f61458e6017836137c0565b91506145998261455a565b602082019050919050565b5f6020820190508181035f8301526145bb81614582565b9050919050565b7f7075626c6963206d696e74206e6f74206c6976652079657400000000000000005f82015250565b5f6145f66018836137c0565b9150614601826145c2565b602082019050919050565b5f6020820190508181035f830152614623816145ea565b9050919050565b7f6d6178696d756d206e6674206d696e7420726561636865642e000000000000005f82015250565b5f61465e6019836137c0565b91506146698261462a565b602082019050919050565b5f6020820190508181035f83015261468b81614652565b9050919050565b5f81905092915050565b50565b5f6146aa5f83614692565b91506146b58261469c565b5f82019050919050565b5f6146c98261469f565b9150819050919050565b7f5472616e73666572206661696c656400000000000000000000000000000000005f82015250565b5f614707600f836137c0565b9150614712826146d3565b602082019050919050565b5f6020820190508181035f830152614734816146fb565b9050919050565b5f80fd5b5f80fd5b5f80fd5b5f80833560016020038436030381126147635761476261473b565b5b80840192508235915067ffffffffffffffff8211156147855761478461473f565b5b6020830192506001820236038313156147a1576147a0614743565b5b509250929050565b5f6147b48385614692565b93506147c1838584613bdd565b82840190509392505050565b5f6147d98284866147a9565b91508190509392505050565b5f6080820190506147f85f830187613dee565b61480560208301866138d4565b6148126040830185613964565b61481f6060830184613dee565b95945050505050565b5f80833560016020038436030381126148445761484361473b565b5b80840192508235915067ffffffffffffffff8211156148665761486561473f565b5b60208301925060018202360383131561488257614881614743565b5b509250929050565b7f57726f6e67207369676e617475726500000000000000000000000000000000005f82015250565b5f6148be600f836137c0565b91506148c98261488a565b602082019050919050565b5f6020820190508181035f8301526148eb816148b2565b9050919050565b7f696e76616c696420696e707574000000000000000000000000000000000000005f82015250565b5f614926600d836137c0565b9150614931826148f2565b602082019050919050565b5f6020820190508181035f8301526149538161491a565b9050919050565b7f4e487b71000000000000000000000000000000000000000000000000000000005f52603260045260245ffd5b7f6e667420737570706c79207265616368656400000000000000000000000000005f82015250565b5f6149bb6012836137c0565b91506149c682614987565b602082019050919050565b5f6020820190508181035f8301526149e8816149af565b9050919050565b7f746f6b656e20616c7265616479206d696e7465640000000000000000000000005f82015250565b5f614a236014836137c0565b9150614a2e826149ef565b602082019050919050565b5f6020820190508181035f830152614a5081614a17565b9050919050565b5f81519050919050565b5f82825260208201905092915050565b5f614a7b82614a57565b614a858185614a61565b9350614a958185602086016137d0565b614a9e816137de565b840191505092915050565b5f608082019050614abc5f8301876138d4565b614ac960208301866138d4565b614ad66040830185613964565b8181036060830152614ae88184614a71565b905095945050505050565b5f81519050614b018161372e565b92915050565b5f60208284031215614b1c57614b1b6136fb565b5b5f614b2984828501614af3565b91505092915050565b5f81905092915050565b5f614b46826137b6565b614b508185614b32565b9350614b608185602086016137d0565b80840191505092915050565b5f614b778285614b3c565b9150614b838284614b3c565b91508190509392505050565b5f819050815f5260205f209050919050565b5f6020601f8301049050919050565b5f82821b905092915050565b5f60088302614beb7fffffffffffffffffffffffffffffffffffffffffffffffffffffffffffffffff82614bb0565b614bf58683614bb0565b95508019841693508086168417925050509392505050565b5f819050919050565b5f614c30614c2b614c2684613846565b614c0d565b613846565b9050919050565b5f819050919050565b614c4983614c16565b614c5d614c5582614c37565b848454614bbc565b825550505050565b5f90565b614c71614c65565b614c7c818484614c40565b505050565b5b81811015614c9f57614c945f82614c69565b600181019050614c82565b5050565b601f821115614ce457614cb581614b8f565b614cbe84614ba1565b81016020851015614ccd578190505b614ce1614cd985614ba1565b830182614c81565b50505b505050565b5f82821c905092915050565b5f614d045f1984600802614ce9565b1980831691505092915050565b5f614d1c8383614cf5565b9150826002028217905092915050565b614d35826137b6565b67ffffffffffffffff811115614d4e57614d4d6139e0565b5b614d5882546143c6565b614d63828285614ca3565b5f60209050601f831160018114614d94575f8415614d82578287015190505b614d8c8582614d11565b865550614df3565b601f198416614da286614b8f565b5f5b82811015614dc957848901518255600182019150602085019450602081019050614da4565b86831015614de65784890151614de2601f891682614cf5565b8355505b6001600288020188555050505b505050505050565b7f4e487b71000000000000000000000000000000000000000000000000000000005f52602160045260245ffd5b5f60a082019050614e3b5f830188613dee565b614e486020830187613dee565b614e556040830186613dee565b614e626060830185613964565b614e6f60808301846138d4565b9695505050505050565b5f60ff82169050919050565b614e8e81614e79565b82525050565b5f608082019050614ea75f830187613dee565b614eb46020830186614e85565b614ec16040830185613dee565b614ece6060830184613dee565b95945050505050565b7f4e487b71000000000000000000000000000000000000000000000000000000005f52601260045260245ffd5b5f604082019050614f175f8301856138d4565b614f246020830184613964565b939250505056fea26469706673582212209135aa95949c56ac67bcba30f95a3e1c7c6c62272645b0ba05a1f46e01bf135864736f6c634300081a0033",
			"opcodes": "PUSH2 0x160 PUSH1 0x40 MSTORE PUSH1 0x40 MLOAD DUP1 PUSH1 0x40 ADD PUSH1 0x40 MSTORE DUP1 PUSH1 0xC DUP2 MSTORE PUSH1 0x20 ADD PUSH32 0x41524D595F564F55434845520000000000000000000000000000000000000000 DUP2 MSTORE POP PUSH1 0xA SWAP1 DUP2 PUSH2 0x49 SWAP2 SWAP1 PUSH2 0x870 JUMP JUMPDEST POP PUSH1 0x40 MLOAD DUP1 PUSH1 0x40 ADD PUSH1 0x40 MSTORE DUP1 PUSH1 0x1 DUP2 MSTORE PUSH1 0x20 ADD PUSH32 0x3100000000000000000000000000000000000000000000000000000000000000 DUP2 MSTORE POP PUSH1 0xB SWAP1 DUP2 PUSH2 0x8E SWAP2 SWAP1 PUSH2 0x870 JUMP JUMPDEST POP CALLVALUE DUP1 ISZERO PUSH2 0x9A JUMPI PUSH0 DUP1 REVERT JUMPDEST POP PUSH1 0x40 MLOAD PUSH2 0x5B93 CODESIZE SUB DUP1 PUSH2 0x5B93 DUP4 CODECOPY DUP2 DUP2 ADD PUSH1 0x40 MSTORE DUP2 ADD SWAP1 PUSH2 0xBC SWAP2 SWAP1 PUSH2 0x99D JUMP JUMPDEST PUSH1 0xA DUP1 SLOAD PUSH2 0xC9 SWAP1 PUSH2 0x69A JUMP JUMPDEST DUP1 PUSH1 0x1F ADD PUSH1 0x20 DUP1 SWAP2 DIV MUL PUSH1 0x20 ADD PUSH1 0x40 MLOAD SWAP1 DUP2 ADD PUSH1 0x40 MSTORE DUP1 SWAP3 SWAP2 SWAP1 DUP2 DUP2 MSTORE PUSH1 0x20 ADD DUP3 DUP1 SLOAD PUSH2 0xF5 SWAP1 PUSH2 0x69A JUMP JUMPDEST DUP1 ISZERO PUSH2 0x140 JUMPI DUP1 PUSH1 0x1F LT PUSH2 0x117 JUMPI PUSH2 0x100 DUP1 DUP4 SLOAD DIV MUL DUP4 MSTORE SWAP2 PUSH1 0x20 ADD SWAP2 PUSH2 0x140 JUMP JUMPDEST DUP3 ADD SWAP2 SWAP1 PUSH0 MSTORE PUSH1 0x20 PUSH0 KECCAK256 SWAP1 JUMPDEST DUP2 SLOAD DUP2 MSTORE SWAP1 PUSH1 0x1 ADD SWAP1 PUSH1 0x20 ADD DUP1 DUP4 GT PUSH2 0x123 JUMPI DUP3 SWAP1 SUB PUSH1 0x1F AND DUP3 ADD SWAP2 JUMPDEST POP POP POP POP POP PUSH1 0xB DUP1 SLOAD PUSH2 0x152 SWAP1 PUSH2 0x69A JUMP JUMPDEST DUP1 PUSH1 0x1F ADD PUSH1 0x20 DUP1 SWAP2 DIV MUL PUSH1 0x20 ADD PUSH1 0x40 MLOAD SWAP1 DUP2 ADD PUSH1 0x40 MSTORE DUP1 SWAP3 SWAP2 SWAP1 DUP2 DUP2 MSTORE PUSH1 0x20 ADD DUP3 DUP1 SLOAD PUSH2 0x17E SWAP1 PUSH2 0x69A JUMP JUMPDEST DUP1 ISZERO PUSH2 0x1C9 JUMPI DUP1 PUSH1 0x1F LT PUSH2 0x1A0 JUMPI PUSH2 0x100 DUP1 DUP4 SLOAD DIV MUL DUP4 MSTORE SWAP2 PUSH1 0x20 ADD SWAP2 PUSH2 0x1C9 JUMP JUMPDEST DUP3 ADD SWAP2 SWAP1 PUSH0 MSTORE PUSH1 0x20 PUSH0 KECCAK256 SWAP1 JUMPDEST DUP2 SLOAD DUP2 MSTORE SWAP1 PUSH1 0x1 ADD SWAP1 PUSH1 0x20 ADD DUP1 DUP4 GT PUSH2 0x1AC JUMPI DUP3 SWAP1 SUB PUSH1 0x1F AND DUP3 ADD SWAP2 JUMPDEST POP POP POP POP POP DUP3 PUSH1 0x40 MLOAD DUP1 PUSH1 0x40 ADD PUSH1 0x40 MSTORE DUP1 PUSH1 0xC DUP2 MSTORE PUSH1 0x20 ADD PUSH32 0x4F6E636861696E2041726D790000000000000000000000000000000000000000 DUP2 MSTORE POP PUSH1 0x40 MLOAD DUP1 PUSH1 0x40 ADD PUSH1 0x40 MSTORE DUP1 PUSH1 0x4 DUP2 MSTORE PUSH1 0x20 ADD PUSH32 0x41726D7900000000000000000000000000000000000000000000000000000000 DUP2 MSTORE POP DUP2 PUSH0 SWAP1 DUP2 PUSH2 0x249 SWAP2 SWAP1 PUSH2 0x870 JUMP JUMPDEST POP DUP1 PUSH1 0x1 SWAP1 DUP2 PUSH2 0x259 SWAP2 SWAP1 PUSH2 0x870 JUMP JUMPDEST POP POP POP PUSH0 PUSH1 0x7 PUSH0 PUSH2 0x100 EXP DUP2 SLOAD DUP2 PUSH1 0xFF MUL NOT AND SWAP1 DUP4 ISZERO ISZERO MUL OR SWAP1 SSTORE POP PUSH0 PUSH20 0xFFFFFFFFFFFFFFFFFFFFFFFFFFFFFFFFFFFFFFFF AND DUP2 PUSH20 0xFFFFFFFFFFFFFFFFFFFFFFFFFFFFFFFFFFFFFFFF AND SUB PUSH2 0x2E5 JUMPI PUSH0 PUSH1 0x40 MLOAD PUSH32 0x1E4FBDF700000000000000000000000000000000000000000000000000000000 DUP2 MSTORE PUSH1 0x4 ADD PUSH2 0x2DC SWAP2 SWAP1 PUSH2 0x9D7 JUMP JUMPDEST PUSH1 0x40 MLOAD DUP1 SWAP2 SUB SWAP1 REVERT JUMPDEST PUSH2 0x2F4 DUP2 PUSH2 0x45C PUSH1 0x20 SHL PUSH1 0x20 SHR JUMP JUMPDEST POP PUSH2 0x309 PUSH1 0x8 DUP4 PUSH2 0x521 PUSH1 0x20 SHL SWAP1 SWAP2 SWAP1 PUSH1 0x20 SHR JUMP JUMPDEST PUSH2 0x120 DUP2 DUP2 MSTORE POP POP PUSH2 0x325 PUSH1 0x9 DUP3 PUSH2 0x521 PUSH1 0x20 SHL SWAP1 SWAP2 SWAP1 PUSH1 0x20 SHR JUMP JUMPDEST PUSH2 0x140 DUP2 DUP2 MSTORE POP POP DUP2 DUP1 MLOAD SWAP1 PUSH1 0x20 ADD KECCAK256 PUSH1 0xE0 DUP2 DUP2 MSTORE POP POP DUP1 DUP1 MLOAD SWAP1 PUSH1 0x20 ADD KECCAK256 PUSH2 0x100 DUP2 DUP2 MSTORE POP POP CHAINID PUSH1 0xA0 DUP2 DUP2 MSTORE POP POP PUSH2 0x362 PUSH2 0x56E PUSH1 0x20 SHL PUSH1 0x20 SHR JUMP JUMPDEST PUSH1 0x80 DUP2 DUP2 MSTORE POP POP ADDRESS PUSH20 0xFFFFFFFFFFFFFFFFFFFFFFFFFFFFFFFFFFFFFFFF AND PUSH1 0xC0 DUP2 PUSH20 0xFFFFFFFFFFFFFFFFFFFFFFFFFFFFFFFFFFFFFFFF AND DUP2 MSTORE POP POP POP POP PUSH0 PUSH1 0xC DUP2 SWAP1 SSTORE POP PUSH2 0x1388 PUSH1 0xD DUP2 SWAP1 SSTORE POP PUSH7 0x9536C708910000 PUSH1 0xE DUP2 SWAP1 SSTORE POP PUSH7 0x6A94D74F430000 PUSH1 0xF DUP2 SWAP1 SSTORE POP PUSH0 PUSH1 0x16 PUSH0 PUSH2 0x100 EXP DUP2 SLOAD DUP2 PUSH1 0xFF MUL NOT AND SWAP1 DUP4 ISZERO ISZERO MUL OR SWAP1 SSTORE POP PUSH0 PUSH1 0x16 PUSH1 0x1 PUSH2 0x100 EXP DUP2 SLOAD DUP2 PUSH1 0xFF MUL NOT AND SWAP1 DUP4 ISZERO ISZERO MUL OR SWAP1 SSTORE POP PUSH2 0x708 TIMESTAMP PUSH2 0x40C SWAP2 SWAP1 PUSH2 0xA1D JUMP JUMPDEST PUSH1 0x10 DUP2 SWAP1 SSTORE POP PUSH7 0x7C585087238000 PUSH1 0x11 DUP2 SWAP1 SSTORE POP PUSH0 PUSH1 0x16 PUSH1 0x2 PUSH2 0x100 EXP DUP2 SLOAD DUP2 PUSH1 0xFF MUL NOT AND SWAP1 DUP4 ISZERO ISZERO MUL OR SWAP1 SSTORE POP PUSH2 0x708 TIMESTAMP PUSH2 0x448 SWAP2 SWAP1 PUSH2 0xA1D JUMP JUMPDEST PUSH1 0x12 DUP2 SWAP1 SSTORE POP PUSH1 0x19 PUSH1 0x13 DUP2 SWAP1 SSTORE POP POP PUSH2 0xBE1 JUMP JUMPDEST PUSH0 PUSH1 0x7 PUSH1 0x1 SWAP1 SLOAD SWAP1 PUSH2 0x100 EXP SWAP1 DIV PUSH20 0xFFFFFFFFFFFFFFFFFFFFFFFFFFFFFFFFFFFFFFFF AND SWAP1 POP DUP2 PUSH1 0x7 PUSH1 0x1 PUSH2 0x100 EXP DUP2 SLOAD DUP2 PUSH20 0xFFFFFFFFFFFFFFFFFFFFFFFFFFFFFFFFFFFFFFFF MUL NOT AND SWAP1 DUP4 PUSH20 0xFFFFFFFFFFFFFFFFFFFFFFFFFFFFFFFFFFFFFFFF AND MUL OR SWAP1 SSTORE POP DUP2 PUSH20 0xFFFFFFFFFFFFFFFFFFFFFFFFFFFFFFFFFFFFFFFF AND DUP2 PUSH20 0xFFFFFFFFFFFFFFFFFFFFFFFFFFFFFFFFFFFFFFFF AND PUSH32 0x8BE0079C531659141344CD1FD0A4F28419497F9722A3DAAFE3B4186F6B6457E0 PUSH1 0x40 MLOAD PUSH1 0x40 MLOAD DUP1 SWAP2 SUB SWAP1 LOG3 POP POP JUMP JUMPDEST PUSH0 PUSH1 0x20 DUP4 MLOAD LT ISZERO PUSH2 0x542 JUMPI PUSH2 0x53B DUP4 PUSH2 0x5C8 PUSH1 0x20 SHL PUSH1 0x20 SHR JUMP JUMPDEST SWAP1 POP PUSH2 0x568 JUMP JUMPDEST DUP3 PUSH2 0x552 DUP4 PUSH2 0x62D PUSH1 0x20 SHL PUSH1 0x20 SHR JUMP JUMPDEST PUSH0 ADD SWAP1 DUP2 PUSH2 0x560 SWAP2 SWAP1 PUSH2 0x870 JUMP JUMPDEST POP PUSH1 0xFF PUSH0 SHL SWAP1 POP JUMPDEST SWAP3 SWAP2 POP POP JUMP JUMPDEST PUSH0 PUSH32 0x8B73C3C69BB8FE3D512ECC4CF759CC79239F7B179B0FFACAA9A75D522B39400F PUSH1 0xE0 MLOAD PUSH2 0x100 MLOAD CHAINID ADDRESS PUSH1 0x40 MLOAD PUSH1 0x20 ADD PUSH2 0x5AD SWAP6 SWAP5 SWAP4 SWAP3 SWAP2 SWAP1 PUSH2 0xA77 JUMP JUMPDEST PUSH1 0x40 MLOAD PUSH1 0x20 DUP2 DUP4 SUB SUB DUP2 MSTORE SWAP1 PUSH1 0x40 MSTORE DUP1 MLOAD SWAP1 PUSH1 0x20 ADD KECCAK256 SWAP1 POP SWAP1 JUMP JUMPDEST PUSH0 DUP1 DUP3 SWAP1 POP PUSH1 0x1F DUP2 MLOAD GT ISZERO PUSH2 0x614 JUMPI DUP3 PUSH1 0x40 MLOAD PUSH32 0x305A27A900000000000000000000000000000000000000000000000000000000 DUP2 MSTORE PUSH1 0x4 ADD PUSH2 0x60B SWAP2 SWAP1 PUSH2 0xB2E JUMP JUMPDEST PUSH1 0x40 MLOAD DUP1 SWAP2 SUB SWAP1 REVERT JUMPDEST DUP1 MLOAD DUP2 PUSH2 0x620 SWAP1 PUSH2 0xB7B JUMP JUMPDEST PUSH0 SHR OR PUSH0 SHL SWAP2 POP POP SWAP2 SWAP1 POP JUMP JUMPDEST PUSH0 DUP2 SWAP1 POP SWAP2 SWAP1 POP JUMP JUMPDEST PUSH0 DUP2 MLOAD SWAP1 POP SWAP2 SWAP1 POP JUMP JUMPDEST PUSH32 0x4E487B7100000000000000000000000000000000000000000000000000000000 PUSH0 MSTORE PUSH1 0x41 PUSH1 0x4 MSTORE PUSH1 0x24 PUSH0 REVERT JUMPDEST PUSH32 0x4E487B7100000000000000000000000000000000000000000000000000000000 PUSH0 MSTORE PUSH1 0x22 PUSH1 0x4 MSTORE PUSH1 0x24 PUSH0 REVERT JUMPDEST PUSH0 PUSH1 0x2 DUP3 DIV SWAP1 POP PUSH1 0x1 DUP3 AND DUP1 PUSH2 0x6B1 JUMPI PUSH1 0x7F DUP3 AND SWAP2 POP JUMPDEST PUSH1 0x20 DUP3 LT DUP2 SUB PUSH2 0x6C4 JUMPI PUSH2 0x6C3 PUSH2 0x66D JUMP JUMPDEST JUMPDEST POP SWAP2 SWAP1 POP JUMP JUMPDEST PUSH0 DUP2 SWAP1 POP DUP2 PUSH0 MSTORE PUSH1 0x20 PUSH0 KECCAK256 SWAP1 POP SWAP2 SWAP1 POP JUMP JUMPDEST PUSH0 PUSH1 0x20 PUSH1 0x1F DUP4 ADD DIV SWAP1 POP SWAP2 SWAP1 POP JUMP JUMPDEST PUSH0 DUP3 DUP3 SHL SWAP1 POP SWAP3 SWAP2 POP POP JUMP JUMPDEST PUSH0 PUSH1 0x8 DUP4 MUL PUSH2 0x726 PUSH32 0xFFFFFFFFFFFFFFFFFFFFFFFFFFFFFFFFFFFFFFFFFFFFFFFFFFFFFFFFFFFFFFFF DUP3 PUSH2 0x6EB JUMP JUMPDEST PUSH2 0x730 DUP7 DUP4 PUSH2 0x6EB JUMP JUMPDEST SWAP6 POP DUP1 NOT DUP5 AND SWAP4 POP DUP1 DUP7 AND DUP5 OR SWAP3 POP POP POP SWAP4 SWAP3 POP POP POP JUMP JUMPDEST PUSH0 DUP2 SWAP1 POP SWAP2 SWAP1 POP JUMP JUMPDEST PUSH0 DUP2 SWAP1 POP SWAP2 SWAP1 POP JUMP JUMPDEST PUSH0 PUSH2 0x774 PUSH2 0x76F PUSH2 0x76A DUP5 PUSH2 0x748 JUMP JUMPDEST PUSH2 0x751 JUMP JUMPDEST PUSH2 0x748 JUMP JUMPDEST SWAP1 POP SWAP2 SWAP1 POP JUMP JUMPDEST PUSH0 DUP2 SWAP1 POP SWAP2 SWAP1 POP JUMP JUMPDEST PUSH2 0x78D DUP4 PUSH2 0x75A JUMP JUMPDEST PUSH2 0x7A1 PUSH2 0x799 DUP3 PUSH2 0x77B JUMP JUMPDEST DUP5 DUP5 SLOAD PUSH2 0x6F7 JUMP JUMPDEST DUP3 SSTORE POP POP POP POP JUMP JUMPDEST PUSH0 SWAP1 JUMP JUMPDEST PUSH2 0x7B5 PUSH2 0x7A9 JUMP JUMPDEST PUSH2 0x7C0 DUP2 DUP5 DUP5 PUSH2 0x784 JUMP JUMPDEST POP POP POP JUMP JUMPDEST JUMPDEST DUP2 DUP2 LT ISZERO PUSH2 0x7E3 JUMPI PUSH2 0x7D8 PUSH0 DUP3 PUSH2 0x7AD JUMP JUMPDEST PUSH1 0x1 DUP2 ADD SWAP1 POP PUSH2 0x7C6 JUMP JUMPDEST POP POP JUMP JUMPDEST PUSH1 0x1F DUP3 GT ISZERO PUSH2 0x828 JUMPI PUSH2 0x7F9 DUP2 PUSH2 0x6CA JUMP JUMPDEST PUSH2 0x802 DUP5 PUSH2 0x6DC JUMP JUMPDEST DUP2 ADD PUSH1 0x20 DUP6 LT ISZERO PUSH2 0x811 JUMPI DUP2 SWAP1 POP JUMPDEST PUSH2 0x825 PUSH2 0x81D DUP6 PUSH2 0x6DC JUMP JUMPDEST DUP4 ADD DUP3 PUSH2 0x7C5 JUMP JUMPDEST POP POP JUMPDEST POP POP POP JUMP JUMPDEST PUSH0 DUP3 DUP3 SHR SWAP1 POP SWAP3 SWAP2 POP POP JUMP JUMPDEST PUSH0 PUSH2 0x848 PUSH0 NOT DUP5 PUSH1 0x8 MUL PUSH2 0x82D JUMP JUMPDEST NOT DUP1 DUP4 AND SWAP2 POP POP SWAP3 SWAP2 POP POP JUMP JUMPDEST PUSH0 PUSH2 0x860 DUP4 DUP4 PUSH2 0x839 JUMP JUMPDEST SWAP2 POP DUP3 PUSH1 0x2 MUL DUP3 OR SWAP1 POP SWAP3 SWAP2 POP POP JUMP JUMPDEST PUSH2 0x879 DUP3 PUSH2 0x636 JUMP JUMPDEST PUSH8 0xFFFFFFFFFFFFFFFF DUP2 GT ISZERO PUSH2 0x892 JUMPI PUSH2 0x891 PUSH2 0x640 JUMP JUMPDEST JUMPDEST PUSH2 0x89C DUP3 SLOAD PUSH2 0x69A JUMP JUMPDEST PUSH2 0x8A7 DUP3 DUP3 DUP6 PUSH2 0x7E7 JUMP JUMPDEST PUSH0 PUSH1 0x20 SWAP1 POP PUSH1 0x1F DUP4 GT PUSH1 0x1 DUP2 EQ PUSH2 0x8D8 JUMPI PUSH0 DUP5 ISZERO PUSH2 0x8C6 JUMPI DUP3 DUP8 ADD MLOAD SWAP1 POP JUMPDEST PUSH2 0x8D0 DUP6 DUP3 PUSH2 0x855 JUMP JUMPDEST DUP7 SSTORE POP PUSH2 0x937 JUMP JUMPDEST PUSH1 0x1F NOT DUP5 AND PUSH2 0x8E6 DUP7 PUSH2 0x6CA JUMP JUMPDEST PUSH0 JUMPDEST DUP3 DUP2 LT ISZERO PUSH2 0x90D JUMPI DUP5 DUP10 ADD MLOAD DUP3 SSTORE PUSH1 0x1 DUP3 ADD SWAP2 POP PUSH1 0x20 DUP6 ADD SWAP5 POP PUSH1 0x20 DUP2 ADD SWAP1 POP PUSH2 0x8E8 JUMP JUMPDEST DUP7 DUP4 LT ISZERO PUSH2 0x92A JUMPI DUP5 DUP10 ADD MLOAD PUSH2 0x926 PUSH1 0x1F DUP10 AND DUP3 PUSH2 0x839 JUMP JUMPDEST DUP4 SSTORE POP JUMPDEST PUSH1 0x1 PUSH1 0x2 DUP9 MUL ADD DUP9 SSTORE POP POP POP JUMPDEST POP POP POP POP POP POP JUMP JUMPDEST PUSH0 DUP1 REVERT JUMPDEST PUSH0 PUSH20 0xFFFFFFFFFFFFFFFFFFFFFFFFFFFFFFFFFFFFFFFF DUP3 AND SWAP1 POP SWAP2 SWAP1 POP JUMP JUMPDEST PUSH0 PUSH2 0x96C DUP3 PUSH2 0x943 JUMP JUMPDEST SWAP1 POP SWAP2 SWAP1 POP JUMP JUMPDEST PUSH2 0x97C DUP2 PUSH2 0x962 JUMP JUMPDEST DUP2 EQ PUSH2 0x986 JUMPI PUSH0 DUP1 REVERT JUMPDEST POP JUMP JUMPDEST PUSH0 DUP2 MLOAD SWAP1 POP PUSH2 0x997 DUP2 PUSH2 0x973 JUMP JUMPDEST SWAP3 SWAP2 POP POP JUMP JUMPDEST PUSH0 PUSH1 0x20 DUP3 DUP5 SUB SLT ISZERO PUSH2 0x9B2 JUMPI PUSH2 0x9B1 PUSH2 0x93F JUMP JUMPDEST JUMPDEST PUSH0 PUSH2 0x9BF DUP5 DUP3 DUP6 ADD PUSH2 0x989 JUMP JUMPDEST SWAP2 POP POP SWAP3 SWAP2 POP POP JUMP JUMPDEST PUSH2 0x9D1 DUP2 PUSH2 0x962 JUMP JUMPDEST DUP3 MSTORE POP POP JUMP JUMPDEST PUSH0 PUSH1 0x20 DUP3 ADD SWAP1 POP PUSH2 0x9EA PUSH0 DUP4 ADD DUP5 PUSH2 0x9C8 JUMP JUMPDEST SWAP3 SWAP2 POP POP JUMP JUMPDEST PUSH32 0x4E487B7100000000000000000000000000000000000000000000000000000000 PUSH0 MSTORE PUSH1 0x11 PUSH1 0x4 MSTORE PUSH1 0x24 PUSH0 REVERT JUMPDEST PUSH0 PUSH2 0xA27 DUP3 PUSH2 0x748 JUMP JUMPDEST SWAP2 POP PUSH2 0xA32 DUP4 PUSH2 0x748 JUMP JUMPDEST SWAP3 POP DUP3 DUP3 ADD SWAP1 POP DUP1 DUP3 GT ISZERO PUSH2 0xA4A JUMPI PUSH2 0xA49 PUSH2 0x9F0 JUMP JUMPDEST JUMPDEST SWAP3 SWAP2 POP POP JUMP JUMPDEST PUSH0 DUP2 SWAP1 POP SWAP2 SWAP1 POP JUMP JUMPDEST PUSH2 0xA62 DUP2 PUSH2 0xA50 JUMP JUMPDEST DUP3 MSTORE POP POP JUMP JUMPDEST PUSH2 0xA71 DUP2 PUSH2 0x748 JUMP JUMPDEST DUP3 MSTORE POP POP JUMP JUMPDEST PUSH0 PUSH1 0xA0 DUP3 ADD SWAP1 POP PUSH2 0xA8A PUSH0 DUP4 ADD DUP9 PUSH2 0xA59 JUMP JUMPDEST PUSH2 0xA97 PUSH1 0x20 DUP4 ADD DUP8 PUSH2 0xA59 JUMP JUMPDEST PUSH2 0xAA4 PUSH1 0x40 DUP4 ADD DUP7 PUSH2 0xA59 JUMP JUMPDEST PUSH2 0xAB1 PUSH1 0x60 DUP4 ADD DUP6 PUSH2 0xA68 JUMP JUMPDEST PUSH2 0xABE PUSH1 0x80 DUP4 ADD DUP5 PUSH2 0x9C8 JUMP JUMPDEST SWAP7 SWAP6 POP POP POP POP POP POP JUMP JUMPDEST PUSH0 DUP3 DUP3 MSTORE PUSH1 0x20 DUP3 ADD SWAP1 POP SWAP3 SWAP2 POP POP JUMP JUMPDEST DUP3 DUP2 DUP4 MCOPY PUSH0 DUP4 DUP4 ADD MSTORE POP POP POP JUMP JUMPDEST PUSH0 PUSH1 0x1F NOT PUSH1 0x1F DUP4 ADD AND SWAP1 POP SWAP2 SWAP1 POP JUMP JUMPDEST PUSH0 PUSH2 0xB00 DUP3 PUSH2 0x636 JUMP JUMPDEST PUSH2 0xB0A DUP2 DUP6 PUSH2 0xAC8 JUMP JUMPDEST SWAP4 POP PUSH2 0xB1A DUP2 DUP6 PUSH1 0x20 DUP7 ADD PUSH2 0xAD8 JUMP JUMPDEST PUSH2 0xB23 DUP2 PUSH2 0xAE6 JUMP JUMPDEST DUP5 ADD SWAP2 POP POP SWAP3 SWAP2 POP POP JUMP JUMPDEST PUSH0 PUSH1 0x20 DUP3 ADD SWAP1 POP DUP2 DUP2 SUB PUSH0 DUP4 ADD MSTORE PUSH2 0xB46 DUP2 DUP5 PUSH2 0xAF6 JUMP JUMPDEST SWAP1 POP SWAP3 SWAP2 POP POP JUMP JUMPDEST PUSH0 DUP2 MLOAD SWAP1 POP SWAP2 SWAP1 POP JUMP JUMPDEST PUSH0 DUP2 SWAP1 POP PUSH1 0x20 DUP3 ADD SWAP1 POP SWAP2 SWAP1 POP JUMP JUMPDEST PUSH0 PUSH2 0xB72 DUP3 MLOAD PUSH2 0xA50 JUMP JUMPDEST DUP1 SWAP2 POP POP SWAP2 SWAP1 POP JUMP JUMPDEST PUSH0 PUSH2 0xB85 DUP3 PUSH2 0xB4E JUMP JUMPDEST DUP3 PUSH2 0xB8F DUP5 PUSH2 0xB58 JUMP JUMPDEST SWAP1 POP PUSH2 0xB9A DUP2 PUSH2 0xB67 JUMP JUMPDEST SWAP3 POP PUSH1 0x20 DUP3 LT ISZERO PUSH2 0xBDA JUMPI PUSH2 0xBD5 PUSH32 0xFFFFFFFFFFFFFFFFFFFFFFFFFFFFFFFFFFFFFFFFFFFFFFFFFFFFFFFFFFFFFFFF DUP4 PUSH1 0x20 SUB PUSH1 0x8 MUL PUSH2 0x6EB JUMP JUMPDEST DUP4 AND SWAP3 POP JUMPDEST POP POP SWAP2 SWAP1 POP JUMP JUMPDEST PUSH1 0x80 MLOAD PUSH1 0xA0 MLOAD PUSH1 0xC0 MLOAD PUSH1 0xE0 MLOAD PUSH2 0x100 MLOAD PUSH2 0x120 MLOAD PUSH2 0x140 MLOAD PUSH2 0x4F61 PUSH2 0xC32 PUSH0 CODECOPY PUSH0 PUSH2 0x20EC ADD MSTORE PUSH0 PUSH2 0x20B1 ADD MSTORE PUSH0 PUSH2 0x3056 ADD MSTORE PUSH0 PUSH2 0x3035 ADD MSTORE PUSH0 PUSH2 0x297D ADD MSTORE PUSH0 PUSH2 0x29D3 ADD MSTORE PUSH0 PUSH2 0x29FC ADD MSTORE PUSH2 0x4F61 PUSH0 RETURN INVALID PUSH1 0x80 PUSH1 0x40 MSTORE PUSH1 0x4 CALLDATASIZE LT PUSH2 0x34F JUMPI PUSH0 CALLDATALOAD PUSH1 0xE0 SHR DUP1 PUSH4 0x6770EC83 GT PUSH2 0x1C5 JUMPI DUP1 PUSH4 0xA29E2223 GT PUSH2 0xF6 JUMPI DUP1 PUSH4 0xCB98652D GT PUSH2 0x94 JUMPI DUP1 PUSH4 0xDBA66062 GT PUSH2 0x6E JUMPI DUP1 PUSH4 0xDBA66062 EQ PUSH2 0xB85 JUMPI DUP1 PUSH4 0xDC53FD92 EQ PUSH2 0xBAF JUMPI DUP1 PUSH4 0xE985E9C5 EQ PUSH2 0xBD9 JUMPI DUP1 PUSH4 0xF2FDE38B EQ PUSH2 0xC15 JUMPI PUSH2 0x34F JUMP JUMPDEST DUP1 PUSH4 0xCB98652D EQ PUSH2 0xB17 JUMPI DUP1 PUSH4 0xCD64154A EQ PUSH2 0xB41 JUMPI DUP1 PUSH4 0xD7192B9A EQ PUSH2 0xB5D JUMPI PUSH2 0x34F JUMP JUMPDEST DUP1 PUSH4 0xAFE206D4 GT PUSH2 0xD0 JUMPI DUP1 PUSH4 0xAFE206D4 EQ PUSH2 0xA87 JUMPI DUP1 PUSH4 0xB88D4FDE EQ PUSH2 0xA9D JUMPI DUP1 PUSH4 0xBADC6643 EQ PUSH2 0xAC5 JUMPI DUP1 PUSH4 0xC87B56DD EQ PUSH2 0xADB JUMPI PUSH2 0x34F JUMP JUMPDEST DUP1 PUSH4 0xA29E2223 EQ PUSH2 0xA0B JUMPI DUP1 PUSH4 0xA9C0A631 EQ PUSH2 0xA35 JUMPI DUP1 PUSH4 0xAE0614F1 EQ PUSH2 0xA5F JUMPI PUSH2 0x34F JUMP JUMPDEST DUP1 PUSH4 0x849084D3 GT PUSH2 0x163 JUMPI DUP1 PUSH4 0x8DA5CB5B GT PUSH2 0x13D JUMPI DUP1 PUSH4 0x8DA5CB5B EQ PUSH2 0x965 JUMPI DUP1 PUSH4 0x95D89B41 EQ PUSH2 0x98F JUMPI DUP1 PUSH4 0xA22CB465 EQ PUSH2 0x9B9 JUMPI DUP1 PUSH4 0xA2309FF8 EQ PUSH2 0x9E1 JUMPI PUSH2 0x34F JUMP JUMPDEST DUP1 PUSH4 0x849084D3 EQ PUSH2 0x8CF JUMPI DUP1 PUSH4 0x84B0196E EQ PUSH2 0x90B JUMPI DUP1 PUSH4 0x8A333B50 EQ PUSH2 0x93B JUMPI PUSH2 0x34F JUMP JUMPDEST DUP1 PUSH4 0x728917D4 GT PUSH2 0x19F JUMPI DUP1 PUSH4 0x728917D4 EQ PUSH2 0x837 JUMPI DUP1 PUSH4 0x72F9EFCF EQ PUSH2 0x861 JUMPI DUP1 PUSH4 0x8143C261 EQ PUSH2 0x87D JUMPI DUP1 PUSH4 0x8456CB59 EQ PUSH2 0x8B9 JUMPI PUSH2 0x34F JUMP JUMPDEST DUP1 PUSH4 0x6770EC83 EQ PUSH2 0x7BB JUMPI DUP1 PUSH4 0x70A08231 EQ PUSH2 0x7E5 JUMPI DUP1 PUSH4 0x715018A6 EQ PUSH2 0x821 JUMPI PUSH2 0x34F JUMP JUMPDEST DUP1 PUSH4 0x3F1CDBDF GT PUSH2 0x29F JUMPI DUP1 PUSH4 0x4A763496 GT PUSH2 0x23D JUMPI DUP1 PUSH4 0x51CFF8D9 GT PUSH2 0x217 JUMPI DUP1 PUSH4 0x51CFF8D9 EQ PUSH2 0x705 JUMPI DUP1 PUSH4 0x5C975ABB EQ PUSH2 0x72D JUMPI DUP1 PUSH4 0x5D82CF6E EQ PUSH2 0x757 JUMPI DUP1 PUSH4 0x6352211E EQ PUSH2 0x77F JUMPI PUSH2 0x34F JUMP JUMPDEST DUP1 PUSH4 0x4A763496 EQ PUSH2 0x69D JUMPI DUP1 PUSH4 0x4EE95582 EQ PUSH2 0x6C5 JUMPI DUP1 PUSH4 0x5145AE2A EQ PUSH2 0x6DB JUMPI PUSH2 0x34F JUMP JUMPDEST DUP1 PUSH4 0x42842E0E GT PUSH2 0x279 JUMPI DUP1 PUSH4 0x42842E0E EQ PUSH2 0x5E9 JUMPI DUP1 PUSH4 0x42966C68 EQ PUSH2 0x611 JUMPI DUP1 PUSH4 0x48C04722 EQ PUSH2 0x639 JUMPI DUP1 PUSH4 0x4A2EB4B7 EQ PUSH2 0x675 JUMPI PUSH2 0x34F JUMP JUMPDEST DUP1 PUSH4 0x3F1CDBDF EQ PUSH2 0x56F JUMPI DUP1 PUSH4 0x3F4BA83A EQ PUSH2 0x5AB JUMPI DUP1 PUSH4 0x3FA9D0E4 EQ PUSH2 0x5C1 JUMPI PUSH2 0x34F JUMP JUMPDEST DUP1 PUSH4 0x197348B7 GT PUSH2 0x30C JUMPI DUP1 PUSH4 0x27C7DDE7 GT PUSH2 0x2E6 JUMPI DUP1 PUSH4 0x27C7DDE7 EQ PUSH2 0x4D7 JUMPI DUP1 PUSH4 0x2F4F52ED EQ PUSH2 0x501 JUMPI DUP1 PUSH4 0x345C911B EQ PUSH2 0x529 JUMPI DUP1 PUSH4 0x3D016E59 EQ PUSH2 0x545 JUMPI PUSH2 0x34F JUMP JUMPDEST DUP1 PUSH4 0x197348B7 EQ PUSH2 0x449 JUMPI DUP1 PUSH4 0x23B872DD EQ PUSH2 0x473 JUMPI DUP1 PUSH4 0x2747FA19 EQ PUSH2 0x49B JUMPI PUSH2 0x34F JUMP JUMPDEST DUP1 PUSH4 0x1FFC9A7 EQ PUSH2 0x353 JUMPI DUP1 PUSH4 0x64608E2 EQ PUSH2 0x38F JUMPI DUP1 PUSH4 0x6FDDE03 EQ PUSH2 0x3A5 JUMPI DUP1 PUSH4 0x81812FC EQ PUSH2 0x3CF JUMPI DUP1 PUSH4 0x95EA7B3 EQ PUSH2 0x40B JUMPI DUP1 PUSH4 0x16D1534A EQ PUSH2 0x433 JUMPI JUMPDEST PUSH0 DUP1 REVERT JUMPDEST CALLVALUE DUP1 ISZERO PUSH2 0x35E JUMPI PUSH0 DUP1 REVERT JUMPDEST POP PUSH2 0x379 PUSH1 0x4 DUP1 CALLDATASIZE SUB DUP2 ADD SWAP1 PUSH2 0x374 SWAP2 SWAP1 PUSH2 0x3758 JUMP JUMPDEST PUSH2 0xC3D JUMP JUMPDEST PUSH1 0x40 MLOAD PUSH2 0x386 SWAP2 SWAP1 PUSH2 0x379D JUMP JUMPDEST PUSH1 0x40 MLOAD DUP1 SWAP2 SUB SWAP1 RETURN JUMPDEST CALLVALUE DUP1 ISZERO PUSH2 0x39A JUMPI PUSH0 DUP1 REVERT JUMPDEST POP PUSH2 0x3A3 PUSH2 0xC4E JUMP JUMPDEST STOP JUMPDEST CALLVALUE DUP1 ISZERO PUSH2 0x3B0 JUMPI PUSH0 DUP1 REVERT JUMPDEST POP PUSH2 0x3B9 PUSH2 0xC6C JUMP JUMPDEST PUSH1 0x40 MLOAD PUSH2 0x3C6 SWAP2 SWAP1 PUSH2 0x3826 JUMP JUMPDEST PUSH1 0x40 MLOAD DUP1 SWAP2 SUB SWAP1 RETURN JUMPDEST CALLVALUE DUP1 ISZERO PUSH2 0x3DA JUMPI PUSH0 DUP1 REVERT JUMPDEST POP PUSH2 0x3F5 PUSH1 0x4 DUP1 CALLDATASIZE SUB DUP2 ADD SWAP1 PUSH2 0x3F0 SWAP2 SWAP1 PUSH2 0x3879 JUMP JUMPDEST PUSH2 0xCFB JUMP JUMPDEST PUSH1 0x40 MLOAD PUSH2 0x402 SWAP2 SWAP1 PUSH2 0x38E3 JUMP JUMPDEST PUSH1 0x40 MLOAD DUP1 SWAP2 SUB SWAP1 RETURN JUMPDEST CALLVALUE DUP1 ISZERO PUSH2 0x416 JUMPI PUSH0 DUP1 REVERT JUMPDEST POP PUSH2 0x431 PUSH1 0x4 DUP1 CALLDATASIZE SUB DUP2 ADD SWAP1 PUSH2 0x42C SWAP2 SWAP1 PUSH2 0x3926 JUMP JUMPDEST PUSH2 0xD16 JUMP JUMPDEST STOP JUMPDEST CALLVALUE DUP1 ISZERO PUSH2 0x43E JUMPI PUSH0 DUP1 REVERT JUMPDEST POP PUSH2 0x447 PUSH2 0xD2C JUMP JUMPDEST STOP JUMPDEST CALLVALUE DUP1 ISZERO PUSH2 0x454 JUMPI PUSH0 DUP1 REVERT JUMPDEST POP PUSH2 0x45D PUSH2 0xD4A JUMP JUMPDEST PUSH1 0x40 MLOAD PUSH2 0x46A SWAP2 SWAP1 PUSH2 0x3973 JUMP JUMPDEST PUSH1 0x40 MLOAD DUP1 SWAP2 SUB SWAP1 RETURN JUMPDEST CALLVALUE DUP1 ISZERO PUSH2 0x47E JUMPI PUSH0 DUP1 REVERT JUMPDEST POP PUSH2 0x499 PUSH1 0x4 DUP1 CALLDATASIZE SUB DUP2 ADD SWAP1 PUSH2 0x494 SWAP2 SWAP1 PUSH2 0x398C JUMP JUMPDEST PUSH2 0xD50 JUMP JUMPDEST STOP JUMPDEST CALLVALUE DUP1 ISZERO PUSH2 0x4A6 JUMPI PUSH0 DUP1 REVERT JUMPDEST POP PUSH2 0x4C1 PUSH1 0x4 DUP1 CALLDATASIZE SUB DUP2 ADD SWAP1 PUSH2 0x4BC SWAP2 SWAP1 PUSH2 0x3B4F JUMP JUMPDEST PUSH2 0xE4F JUMP JUMPDEST PUSH1 0x40 MLOAD PUSH2 0x4CE SWAP2 SWAP1 PUSH2 0x379D JUMP JUMPDEST PUSH1 0x40 MLOAD DUP1 SWAP2 SUB SWAP1 RETURN JUMPDEST CALLVALUE DUP1 ISZERO PUSH2 0x4E2 JUMPI PUSH0 DUP1 REVERT JUMPDEST POP PUSH2 0x4EB PUSH2 0xE65 JUMP JUMPDEST PUSH1 0x40 MLOAD PUSH2 0x4F8 SWAP2 SWAP1 PUSH2 0x379D JUMP JUMPDEST PUSH1 0x40 MLOAD DUP1 SWAP2 SUB SWAP1 RETURN JUMPDEST CALLVALUE DUP1 ISZERO PUSH2 0x50C JUMPI PUSH0 DUP1 REVERT JUMPDEST POP PUSH2 0x527 PUSH1 0x4 DUP1 CALLDATASIZE SUB DUP2 ADD SWAP1 PUSH2 0x522 SWAP2 SWAP1 PUSH2 0x3879 JUMP JUMPDEST PUSH2 0xE77 JUMP JUMPDEST STOP JUMPDEST PUSH2 0x543 PUSH1 0x4 DUP1 CALLDATASIZE SUB DUP2 ADD SWAP1 PUSH2 0x53E SWAP2 SWAP1 PUSH2 0x3C59 JUMP JUMPDEST PUSH2 0xE89 JUMP JUMPDEST STOP JUMPDEST CALLVALUE DUP1 ISZERO PUSH2 0x550 JUMPI PUSH0 DUP1 REVERT JUMPDEST POP PUSH2 0x559 PUSH2 0x10FB JUMP JUMPDEST PUSH1 0x40 MLOAD PUSH2 0x566 SWAP2 SWAP1 PUSH2 0x3973 JUMP JUMPDEST PUSH1 0x40 MLOAD DUP1 SWAP2 SUB SWAP1 RETURN JUMPDEST CALLVALUE DUP1 ISZERO PUSH2 0x57A JUMPI PUSH0 DUP1 REVERT JUMPDEST POP PUSH2 0x595 PUSH1 0x4 DUP1 CALLDATASIZE SUB DUP2 ADD SWAP1 PUSH2 0x590 SWAP2 SWAP1 PUSH2 0x3879 JUMP JUMPDEST PUSH2 0x1101 JUMP JUMPDEST PUSH1 0x40 MLOAD PUSH2 0x5A2 SWAP2 SWAP1 PUSH2 0x379D JUMP JUMPDEST PUSH1 0x40 MLOAD DUP1 SWAP2 SUB SWAP1 RETURN JUMPDEST CALLVALUE DUP1 ISZERO PUSH2 0x5B6 JUMPI PUSH0 DUP1 REVERT JUMPDEST POP PUSH2 0x5BF PUSH2 0x111E JUMP JUMPDEST STOP JUMPDEST CALLVALUE DUP1 ISZERO PUSH2 0x5CC JUMPI PUSH0 DUP1 REVERT JUMPDEST POP PUSH2 0x5E7 PUSH1 0x4 DUP1 CALLDATASIZE SUB DUP2 ADD SWAP1 PUSH2 0x5E2 SWAP2 SWAP1 PUSH2 0x3CF5 JUMP JUMPDEST PUSH2 0x1130 JUMP JUMPDEST STOP JUMPDEST CALLVALUE DUP1 ISZERO PUSH2 0x5F4 JUMPI PUSH0 DUP1 REVERT JUMPDEST POP PUSH2 0x60F PUSH1 0x4 DUP1 CALLDATASIZE SUB DUP2 ADD SWAP1 PUSH2 0x60A SWAP2 SWAP1 PUSH2 0x398C JUMP JUMPDEST PUSH2 0x1142 JUMP JUMPDEST STOP JUMPDEST CALLVALUE DUP1 ISZERO PUSH2 0x61C JUMPI PUSH0 DUP1 REVERT JUMPDEST POP PUSH2 0x637 PUSH1 0x4 DUP1 CALLDATASIZE SUB DUP2 ADD SWAP1 PUSH2 0x632 SWAP2 SWAP1 PUSH2 0x3879 JUMP JUMPDEST PUSH2 0x1161 JUMP JUMPDEST STOP JUMPDEST CALLVALUE DUP1 ISZERO PUSH2 0x644 JUMPI PUSH0 DUP1 REVERT JUMPDEST POP PUSH2 0x65F PUSH1 0x4 DUP1 CALLDATASIZE SUB DUP2 ADD SWAP1 PUSH2 0x65A SWAP2 SWAP1 PUSH2 0x3B4F JUMP JUMPDEST PUSH2 0x1177 JUMP JUMPDEST PUSH1 0x40 MLOAD PUSH2 0x66C SWAP2 SWAP1 PUSH2 0x379D JUMP JUMPDEST PUSH1 0x40 MLOAD DUP1 SWAP2 SUB SWAP1 RETURN JUMPDEST CALLVALUE DUP1 ISZERO PUSH2 0x680 JUMPI PUSH0 DUP1 REVERT JUMPDEST POP PUSH2 0x69B PUSH1 0x4 DUP1 CALLDATASIZE SUB DUP2 ADD SWAP1 PUSH2 0x696 SWAP2 SWAP1 PUSH2 0x3CF5 JUMP JUMPDEST PUSH2 0x118D JUMP JUMPDEST STOP JUMPDEST CALLVALUE DUP1 ISZERO PUSH2 0x6A8 JUMPI PUSH0 DUP1 REVERT JUMPDEST POP PUSH2 0x6C3 PUSH1 0x4 DUP1 CALLDATASIZE SUB DUP2 ADD SWAP1 PUSH2 0x6BE SWAP2 SWAP1 PUSH2 0x3879 JUMP JUMPDEST PUSH2 0x119F JUMP JUMPDEST STOP JUMPDEST CALLVALUE DUP1 ISZERO PUSH2 0x6D0 JUMPI PUSH0 DUP1 REVERT JUMPDEST POP PUSH2 0x6D9 PUSH2 0x11B1 JUMP JUMPDEST STOP JUMPDEST CALLVALUE DUP1 ISZERO PUSH2 0x6E6 JUMPI PUSH0 DUP1 REVERT JUMPDEST POP PUSH2 0x6EF PUSH2 0x11E5 JUMP JUMPDEST PUSH1 0x40 MLOAD PUSH2 0x6FC SWAP2 SWAP1 PUSH2 0x379D JUMP JUMPDEST PUSH1 0x40 MLOAD DUP1 SWAP2 SUB SWAP1 RETURN JUMPDEST CALLVALUE DUP1 ISZERO PUSH2 0x710 JUMPI PUSH0 DUP1 REVERT JUMPDEST POP PUSH2 0x72B PUSH1 0x4 DUP1 CALLDATASIZE SUB DUP2 ADD SWAP1 PUSH2 0x726 SWAP2 SWAP1 PUSH2 0x3D20 JUMP JUMPDEST PUSH2 0x11F8 JUMP JUMPDEST STOP JUMPDEST CALLVALUE DUP1 ISZERO PUSH2 0x738 JUMPI PUSH0 DUP1 REVERT JUMPDEST POP PUSH2 0x741 PUSH2 0x12AC JUMP JUMPDEST PUSH1 0x40 MLOAD PUSH2 0x74E SWAP2 SWAP1 PUSH2 0x379D JUMP JUMPDEST PUSH1 0x40 MLOAD DUP1 SWAP2 SUB SWAP1 RETURN JUMPDEST CALLVALUE DUP1 ISZERO PUSH2 0x762 JUMPI PUSH0 DUP1 REVERT JUMPDEST POP PUSH2 0x77D PUSH1 0x4 DUP1 CALLDATASIZE SUB DUP2 ADD SWAP1 PUSH2 0x778 SWAP2 SWAP1 PUSH2 0x3879 JUMP JUMPDEST PUSH2 0x12C1 JUMP JUMPDEST STOP JUMPDEST CALLVALUE DUP1 ISZERO PUSH2 0x78A JUMPI PUSH0 DUP1 REVERT JUMPDEST POP PUSH2 0x7A5 PUSH1 0x4 DUP1 CALLDATASIZE SUB DUP2 ADD SWAP1 PUSH2 0x7A0 SWAP2 SWAP1 PUSH2 0x3879 JUMP JUMPDEST PUSH2 0x12D3 JUMP JUMPDEST PUSH1 0x40 MLOAD PUSH2 0x7B2 SWAP2 SWAP1 PUSH2 0x38E3 JUMP JUMPDEST PUSH1 0x40 MLOAD DUP1 SWAP2 SUB SWAP1 RETURN JUMPDEST CALLVALUE DUP1 ISZERO PUSH2 0x7C6 JUMPI PUSH0 DUP1 REVERT JUMPDEST POP PUSH2 0x7CF PUSH2 0x12E4 JUMP JUMPDEST PUSH1 0x40 MLOAD PUSH2 0x7DC SWAP2 SWAP1 PUSH2 0x3973 JUMP JUMPDEST PUSH1 0x40 MLOAD DUP1 SWAP2 SUB SWAP1 RETURN JUMPDEST CALLVALUE DUP1 ISZERO PUSH2 0x7F0 JUMPI PUSH0 DUP1 REVERT JUMPDEST POP PUSH2 0x80B PUSH1 0x4 DUP1 CALLDATASIZE SUB DUP2 ADD SWAP1 PUSH2 0x806 SWAP2 SWAP1 PUSH2 0x3D20 JUMP JUMPDEST PUSH2 0x12EA JUMP JUMPDEST PUSH1 0x40 MLOAD PUSH2 0x818 SWAP2 SWAP1 PUSH2 0x3973 JUMP JUMPDEST PUSH1 0x40 MLOAD DUP1 SWAP2 SUB SWAP1 RETURN JUMPDEST CALLVALUE DUP1 ISZERO PUSH2 0x82C JUMPI PUSH0 DUP1 REVERT JUMPDEST POP PUSH2 0x835 PUSH2 0x13A0 JUMP JUMPDEST STOP JUMPDEST CALLVALUE DUP1 ISZERO PUSH2 0x842 JUMPI PUSH0 DUP1 REVERT JUMPDEST POP PUSH2 0x84B PUSH2 0x13B3 JUMP JUMPDEST PUSH1 0x40 MLOAD PUSH2 0x858 SWAP2 SWAP1 PUSH2 0x379D JUMP JUMPDEST PUSH1 0x40 MLOAD DUP1 SWAP2 SUB SWAP1 RETURN JUMPDEST PUSH2 0x87B PUSH1 0x4 DUP1 CALLDATASIZE SUB DUP2 ADD SWAP1 PUSH2 0x876 SWAP2 SWAP1 PUSH2 0x3C59 JUMP JUMPDEST PUSH2 0x13C6 JUMP JUMPDEST STOP JUMPDEST CALLVALUE DUP1 ISZERO PUSH2 0x888 JUMPI PUSH0 DUP1 REVERT JUMPDEST POP PUSH2 0x8A3 PUSH1 0x4 DUP1 CALLDATASIZE SUB DUP2 ADD SWAP1 PUSH2 0x89E SWAP2 SWAP1 PUSH2 0x3D20 JUMP JUMPDEST PUSH2 0x152C JUMP JUMPDEST PUSH1 0x40 MLOAD PUSH2 0x8B0 SWAP2 SWAP1 PUSH2 0x3973 JUMP JUMPDEST PUSH1 0x40 MLOAD DUP1 SWAP2 SUB SWAP1 RETURN JUMPDEST CALLVALUE DUP1 ISZERO PUSH2 0x8C4 JUMPI PUSH0 DUP1 REVERT JUMPDEST POP PUSH2 0x8CD PUSH2 0x1541 JUMP JUMPDEST STOP JUMPDEST CALLVALUE DUP1 ISZERO PUSH2 0x8DA JUMPI PUSH0 DUP1 REVERT JUMPDEST POP PUSH2 0x8F5 PUSH1 0x4 DUP1 CALLDATASIZE SUB DUP2 ADD SWAP1 PUSH2 0x8F0 SWAP2 SWAP1 PUSH2 0x3D6D JUMP JUMPDEST PUSH2 0x1553 JUMP JUMPDEST PUSH1 0x40 MLOAD PUSH2 0x902 SWAP2 SWAP1 PUSH2 0x38E3 JUMP JUMPDEST PUSH1 0x40 MLOAD DUP1 SWAP2 SUB SWAP1 RETURN JUMPDEST CALLVALUE DUP1 ISZERO PUSH2 0x916 JUMPI PUSH0 DUP1 REVERT JUMPDEST POP PUSH2 0x91F PUSH2 0x164E JUMP JUMPDEST PUSH1 0x40 MLOAD PUSH2 0x932 SWAP8 SWAP7 SWAP6 SWAP5 SWAP4 SWAP3 SWAP2 SWAP1 PUSH2 0x3EB4 JUMP JUMPDEST PUSH1 0x40 MLOAD DUP1 SWAP2 SUB SWAP1 RETURN JUMPDEST CALLVALUE DUP1 ISZERO PUSH2 0x946 JUMPI PUSH0 DUP1 REVERT JUMPDEST POP PUSH2 0x94F PUSH2 0x16F3 JUMP JUMPDEST PUSH1 0x40 MLOAD PUSH2 0x95C SWAP2 SWAP1 PUSH2 0x3973 JUMP JUMPDEST PUSH1 0x40 MLOAD DUP1 SWAP2 SUB SWAP1 RETURN JUMPDEST CALLVALUE DUP1 ISZERO PUSH2 0x970 JUMPI PUSH0 DUP1 REVERT JUMPDEST POP PUSH2 0x979 PUSH2 0x16F9 JUMP JUMPDEST PUSH1 0x40 MLOAD PUSH2 0x986 SWAP2 SWAP1 PUSH2 0x38E3 JUMP JUMPDEST PUSH1 0x40 MLOAD DUP1 SWAP2 SUB SWAP1 RETURN JUMPDEST CALLVALUE DUP1 ISZERO PUSH2 0x99A JUMPI PUSH0 DUP1 REVERT JUMPDEST POP PUSH2 0x9A3 PUSH2 0x1722 JUMP JUMPDEST PUSH1 0x40 MLOAD PUSH2 0x9B0 SWAP2 SWAP1 PUSH2 0x3826 JUMP JUMPDEST PUSH1 0x40 MLOAD DUP1 SWAP2 SUB SWAP1 RETURN JUMPDEST CALLVALUE DUP1 ISZERO PUSH2 0x9C4 JUMPI PUSH0 DUP1 REVERT JUMPDEST POP PUSH2 0x9DF PUSH1 0x4 DUP1 CALLDATASIZE SUB DUP2 ADD SWAP1 PUSH2 0x9DA SWAP2 SWAP1 PUSH2 0x3F60 JUMP JUMPDEST PUSH2 0x17B2 JUMP JUMPDEST STOP JUMPDEST CALLVALUE DUP1 ISZERO PUSH2 0x9EC JUMPI PUSH0 DUP1 REVERT JUMPDEST POP PUSH2 0x9F5 PUSH2 0x17C8 JUMP JUMPDEST PUSH1 0x40 MLOAD PUSH2 0xA02 SWAP2 SWAP1 PUSH2 0x3973 JUMP JUMPDEST PUSH1 0x40 MLOAD DUP1 SWAP2 SUB SWAP1 RETURN JUMPDEST CALLVALUE DUP1 ISZERO PUSH2 0xA16 JUMPI PUSH0 DUP1 REVERT JUMPDEST POP PUSH2 0xA1F PUSH2 0x17CE JUMP JUMPDEST PUSH1 0x40 MLOAD PUSH2 0xA2C SWAP2 SWAP1 PUSH2 0x3F9E JUMP JUMPDEST PUSH1 0x40 MLOAD DUP1 SWAP2 SUB SWAP1 RETURN JUMPDEST CALLVALUE DUP1 ISZERO PUSH2 0xA40 JUMPI PUSH0 DUP1 REVERT JUMPDEST POP PUSH2 0xA49 PUSH2 0x17D4 JUMP JUMPDEST PUSH1 0x40 MLOAD PUSH2 0xA56 SWAP2 SWAP1 PUSH2 0x3F9E JUMP JUMPDEST PUSH1 0x40 MLOAD DUP1 SWAP2 SUB SWAP1 RETURN JUMPDEST CALLVALUE DUP1 ISZERO PUSH2 0xA6A JUMPI PUSH0 DUP1 REVERT JUMPDEST POP PUSH2 0xA85 PUSH1 0x4 DUP1 CALLDATASIZE SUB DUP2 ADD SWAP1 PUSH2 0xA80 SWAP2 SWAP1 PUSH2 0x3879 JUMP JUMPDEST PUSH2 0x17DA JUMP JUMPDEST STOP JUMPDEST CALLVALUE DUP1 ISZERO PUSH2 0xA92 JUMPI PUSH0 DUP1 REVERT JUMPDEST POP PUSH2 0xA9B PUSH2 0x17EC JUMP JUMPDEST STOP JUMPDEST CALLVALUE DUP1 ISZERO PUSH2 0xAA8 JUMPI PUSH0 DUP1 REVERT JUMPDEST POP PUSH2 0xAC3 PUSH1 0x4 DUP1 CALLDATASIZE SUB DUP2 ADD SWAP1 PUSH2 0xABE SWAP2 SWAP1 PUSH2 0x4055 JUMP JUMPDEST PUSH2 0x181E JUMP JUMPDEST STOP JUMPDEST CALLVALUE DUP1 ISZERO PUSH2 0xAD0 JUMPI PUSH0 DUP1 REVERT JUMPDEST POP PUSH2 0xAD9 PUSH2 0x1843 JUMP JUMPDEST STOP JUMPDEST CALLVALUE DUP1 ISZERO PUSH2 0xAE6 JUMPI PUSH0 DUP1 REVERT JUMPDEST POP PUSH2 0xB01 PUSH1 0x4 DUP1 CALLDATASIZE SUB DUP2 ADD SWAP1 PUSH2 0xAFC SWAP2 SWAP1 PUSH2 0x3879 JUMP JUMPDEST PUSH2 0x1877 JUMP JUMPDEST PUSH1 0x40 MLOAD PUSH2 0xB0E SWAP2 SWAP1 PUSH2 0x3826 JUMP JUMPDEST PUSH1 0x40 MLOAD DUP1 SWAP2 SUB SWAP1 RETURN JUMPDEST CALLVALUE DUP1 ISZERO PUSH2 0xB22 JUMPI PUSH0 DUP1 REVERT JUMPDEST POP PUSH2 0xB2B PUSH2 0x1889 JUMP JUMPDEST PUSH1 0x40 MLOAD PUSH2 0xB38 SWAP2 SWAP1 PUSH2 0x3973 JUMP JUMPDEST PUSH1 0x40 MLOAD DUP1 SWAP2 SUB SWAP1 RETURN JUMPDEST PUSH2 0xB5B PUSH1 0x4 DUP1 CALLDATASIZE SUB DUP2 ADD SWAP1 PUSH2 0xB56 SWAP2 SWAP1 PUSH2 0x3D6D JUMP JUMPDEST PUSH2 0x188F JUMP JUMPDEST STOP JUMPDEST CALLVALUE DUP1 ISZERO PUSH2 0xB68 JUMPI PUSH0 DUP1 REVERT JUMPDEST POP PUSH2 0xB83 PUSH1 0x4 DUP1 CALLDATASIZE SUB DUP2 ADD SWAP1 PUSH2 0xB7E SWAP2 SWAP1 PUSH2 0x4273 JUMP JUMPDEST PUSH2 0x1A1E JUMP JUMPDEST STOP JUMPDEST CALLVALUE DUP1 ISZERO PUSH2 0xB90 JUMPI PUSH0 DUP1 REVERT JUMPDEST POP PUSH2 0xB99 PUSH2 0x1AD1 JUMP JUMPDEST PUSH1 0x40 MLOAD PUSH2 0xBA6 SWAP2 SWAP1 PUSH2 0x3973 JUMP JUMPDEST PUSH1 0x40 MLOAD DUP1 SWAP2 SUB SWAP1 RETURN JUMPDEST CALLVALUE DUP1 ISZERO PUSH2 0xBBA JUMPI PUSH0 DUP1 REVERT JUMPDEST POP PUSH2 0xBC3 PUSH2 0x1AD7 JUMP JUMPDEST PUSH1 0x40 MLOAD PUSH2 0xBD0 SWAP2 SWAP1 PUSH2 0x3973 JUMP JUMPDEST PUSH1 0x40 MLOAD DUP1 SWAP2 SUB SWAP1 RETURN JUMPDEST CALLVALUE DUP1 ISZERO PUSH2 0xBE4 JUMPI PUSH0 DUP1 REVERT JUMPDEST POP PUSH2 0xBFF PUSH1 0x4 DUP1 CALLDATASIZE SUB DUP2 ADD SWAP1 PUSH2 0xBFA SWAP2 SWAP1 PUSH2 0x42FB JUMP JUMPDEST PUSH2 0x1ADD JUMP JUMPDEST PUSH1 0x40 MLOAD PUSH2 0xC0C SWAP2 SWAP1 PUSH2 0x379D JUMP JUMPDEST PUSH1 0x40 MLOAD DUP1 SWAP2 SUB SWAP1 RETURN JUMPDEST CALLVALUE DUP1 ISZERO PUSH2 0xC20 JUMPI PUSH0 DUP1 REVERT JUMPDEST POP PUSH2 0xC3B PUSH1 0x4 DUP1 CALLDATASIZE SUB DUP2 ADD SWAP1 PUSH2 0xC36 SWAP2 SWAP1 PUSH2 0x3D20 JUMP JUMPDEST PUSH2 0x1B6B JUMP JUMPDEST STOP JUMPDEST PUSH0 PUSH2 0xC47 DUP3 PUSH2 0x1BEF JUMP JUMPDEST SWAP1 POP SWAP2 SWAP1 POP JUMP JUMPDEST PUSH2 0xC56 PUSH2 0x1C4F JUMP JUMPDEST PUSH2 0x708 TIMESTAMP PUSH2 0xC64 SWAP2 SWAP1 PUSH2 0x4366 JUMP JUMPDEST PUSH1 0x12 DUP2 SWAP1 SSTORE POP JUMP JUMPDEST PUSH1 0x60 PUSH0 DUP1 SLOAD PUSH2 0xC7A SWAP1 PUSH2 0x43C6 JUMP JUMPDEST DUP1 PUSH1 0x1F ADD PUSH1 0x20 DUP1 SWAP2 DIV MUL PUSH1 0x20 ADD PUSH1 0x40 MLOAD SWAP1 DUP2 ADD PUSH1 0x40 MSTORE DUP1 SWAP3 SWAP2 SWAP1 DUP2 DUP2 MSTORE PUSH1 0x20 ADD DUP3 DUP1 SLOAD PUSH2 0xCA6 SWAP1 PUSH2 0x43C6 JUMP JUMPDEST DUP1 ISZERO PUSH2 0xCF1 JUMPI DUP1 PUSH1 0x1F LT PUSH2 0xCC8 JUMPI PUSH2 0x100 DUP1 DUP4 SLOAD DIV MUL DUP4 MSTORE SWAP2 PUSH1 0x20 ADD SWAP2 PUSH2 0xCF1 JUMP JUMPDEST DUP3 ADD SWAP2 SWAP1 PUSH0 MSTORE PUSH1 0x20 PUSH0 KECCAK256 SWAP1 JUMPDEST DUP2 SLOAD DUP2 MSTORE SWAP1 PUSH1 0x1 ADD SWAP1 PUSH1 0x20 ADD DUP1 DUP4 GT PUSH2 0xCD4 JUMPI DUP3 SWAP1 SUB PUSH1 0x1F AND DUP3 ADD SWAP2 JUMPDEST POP POP POP POP POP SWAP1 POP SWAP1 JUMP JUMPDEST PUSH0 PUSH2 0xD05 DUP3 PUSH2 0x1CD6 JUMP JUMPDEST POP PUSH2 0xD0F DUP3 PUSH2 0x1D5C JUMP JUMPDEST SWAP1 POP SWAP2 SWAP1 POP JUMP JUMPDEST PUSH2 0xD28 DUP3 DUP3 PUSH2 0xD23 PUSH2 0x1D95 JUMP JUMPDEST PUSH2 0x1D9C JUMP JUMPDEST POP POP JUMP JUMPDEST PUSH2 0xD34 PUSH2 0x1C4F JUMP JUMPDEST PUSH2 0x708 TIMESTAMP PUSH2 0xD42 SWAP2 SWAP1 PUSH2 0x4366 JUMP JUMPDEST PUSH1 0x10 DUP2 SWAP1 SSTORE POP JUMP JUMPDEST PUSH1 0x11 SLOAD DUP2 JUMP JUMPDEST PUSH0 PUSH20 0xFFFFFFFFFFFFFFFFFFFFFFFFFFFFFFFFFFFFFFFF AND DUP3 PUSH20 0xFFFFFFFFFFFFFFFFFFFFFFFFFFFFFFFFFFFFFFFF AND SUB PUSH2 0xDC0 JUMPI PUSH0 PUSH1 0x40 MLOAD PUSH32 0x64A0AE9200000000000000000000000000000000000000000000000000000000 DUP2 MSTORE PUSH1 0x4 ADD PUSH2 0xDB7 SWAP2 SWAP1 PUSH2 0x38E3 JUMP JUMPDEST PUSH1 0x40 MLOAD DUP1 SWAP2 SUB SWAP1 REVERT JUMPDEST PUSH0 PUSH2 0xDD3 DUP4 DUP4 PUSH2 0xDCE PUSH2 0x1D95 JUMP JUMPDEST PUSH2 0x1DAE JUMP JUMPDEST SWAP1 POP DUP4 PUSH20 0xFFFFFFFFFFFFFFFFFFFFFFFFFFFFFFFFFFFFFFFF AND DUP2 PUSH20 0xFFFFFFFFFFFFFFFFFFFFFFFFFFFFFFFFFFFFFFFF AND EQ PUSH2 0xE49 JUMPI DUP4 DUP3 DUP3 PUSH1 0x40 MLOAD PUSH32 0x64283D7B00000000000000000000000000000000000000000000000000000000 DUP2 MSTORE PUSH1 0x4 ADD PUSH2 0xE40 SWAP4 SWAP3 SWAP2 SWAP1 PUSH2 0x43F6 JUMP JUMPDEST PUSH1 0x40 MLOAD DUP1 SWAP2 SUB SWAP1 REVERT JUMPDEST POP POP POP POP JUMP JUMPDEST PUSH0 PUSH2 0xE5D DUP4 PUSH1 0x15 SLOAD DUP5 PUSH2 0x1DC3 JUMP JUMPDEST SWAP1 POP SWAP3 SWAP2 POP POP JUMP JUMPDEST PUSH1 0x16 PUSH0 SWAP1 SLOAD SWAP1 PUSH2 0x100 EXP SWAP1 DIV PUSH1 0xFF AND DUP2 JUMP JUMPDEST PUSH2 0xE7F PUSH2 0x1C4F JUMP JUMPDEST DUP1 PUSH1 0x11 DUP2 SWAP1 SSTORE POP POP JUMP JUMPDEST CALLVALUE PUSH1 0x11 SLOAD DUP2 LT ISZERO PUSH2 0xECF JUMPI PUSH1 0x40 MLOAD PUSH32 0x8C379A000000000000000000000000000000000000000000000000000000000 DUP2 MSTORE PUSH1 0x4 ADD PUSH2 0xEC6 SWAP1 PUSH2 0x4475 JUMP JUMPDEST PUSH1 0x40 MLOAD DUP1 SWAP2 SUB SWAP1 REVERT JUMPDEST TIMESTAMP PUSH1 0x12 SLOAD LT ISZERO PUSH2 0xF14 JUMPI PUSH1 0x40 MLOAD PUSH32 0x8C379A000000000000000000000000000000000000000000000000000000000 DUP2 MSTORE PUSH1 0x4 ADD PUSH2 0xF0B SWAP1 PUSH2 0x44DD JUMP JUMPDEST PUSH1 0x40 MLOAD DUP1 SWAP2 SUB SWAP1 REVERT JUMPDEST DUP2 DUP6 PUSH2 0xF46 DUP3 DUP3 PUSH1 0x40 MLOAD PUSH1 0x20 ADD PUSH2 0xF2B SWAP2 SWAP1 PUSH2 0x4540 JUMP JUMPDEST PUSH1 0x40 MLOAD PUSH1 0x20 DUP2 DUP4 SUB SUB DUP2 MSTORE SWAP1 PUSH1 0x40 MSTORE DUP1 MLOAD SWAP1 PUSH1 0x20 ADD KECCAK256 PUSH2 0xE4F JUMP JUMPDEST PUSH2 0xF85 JUMPI PUSH1 0x40 MLOAD PUSH32 0x8C379A000000000000000000000000000000000000000000000000000000000 DUP2 MSTORE PUSH1 0x4 ADD PUSH2 0xF7C SWAP1 PUSH2 0x45A4 JUMP JUMPDEST PUSH1 0x40 MLOAD DUP1 SWAP2 SUB SWAP1 REVERT JUMPDEST PUSH1 0x1 ISZERO ISZERO PUSH1 0x16 PUSH1 0x2 SWAP1 SLOAD SWAP1 PUSH2 0x100 EXP SWAP1 DIV PUSH1 0xFF AND ISZERO ISZERO EQ PUSH2 0xFDB JUMPI PUSH1 0x40 MLOAD PUSH32 0x8C379A000000000000000000000000000000000000000000000000000000000 DUP2 MSTORE PUSH1 0x4 ADD PUSH2 0xFD2 SWAP1 PUSH2 0x460C JUMP JUMPDEST PUSH1 0x40 MLOAD DUP1 SWAP2 SUB SWAP1 REVERT JUMPDEST PUSH1 0x13 SLOAD PUSH1 0x18 PUSH0 DUP10 PUSH20 0xFFFFFFFFFFFFFFFFFFFFFFFFFFFFFFFFFFFFFFFF AND PUSH20 0xFFFFFFFFFFFFFFFFFFFFFFFFFFFFFFFFFFFFFFFF AND DUP2 MSTORE PUSH1 0x20 ADD SWAP1 DUP2 MSTORE PUSH1 0x20 ADD PUSH0 KECCAK256 SLOAD LT PUSH2 0x105C JUMPI PUSH1 0x40 MLOAD PUSH32 0x8C379A000000000000000000000000000000000000000000000000000000000 DUP2 MSTORE PUSH1 0x4 ADD PUSH2 0x1053 SWAP1 PUSH2 0x4674 JUMP JUMPDEST PUSH1 0x40 MLOAD DUP1 SWAP2 SUB SWAP1 REVERT JUMPDEST PUSH2 0x1067 DUP8 DUP8 DUP8 PUSH2 0x1DD9 JUMP JUMPDEST PUSH1 0x1 PUSH1 0x18 PUSH0 DUP10 PUSH20 0xFFFFFFFFFFFFFFFFFFFFFFFFFFFFFFFFFFFFFFFF AND PUSH20 0xFFFFFFFFFFFFFFFFFFFFFFFFFFFFFFFFFFFFFFFF AND DUP2 MSTORE PUSH1 0x20 ADD SWAP1 DUP2 MSTORE PUSH1 0x20 ADD PUSH0 KECCAK256 SLOAD PUSH2 0x10B1 SWAP2 SWAP1 PUSH2 0x4366 JUMP JUMPDEST PUSH1 0x18 PUSH0 DUP10 PUSH20 0xFFFFFFFFFFFFFFFFFFFFFFFFFFFFFFFFFFFFFFFF AND PUSH20 0xFFFFFFFFFFFFFFFFFFFFFFFFFFFFFFFFFFFFFFFF AND DUP2 MSTORE PUSH1 0x20 ADD SWAP1 DUP2 MSTORE PUSH1 0x20 ADD PUSH0 KECCAK256 DUP2 SWAP1 SSTORE POP POP POP POP POP POP POP POP JUMP JUMPDEST PUSH1 0xF SLOAD DUP2 JUMP JUMPDEST PUSH1 0x17 PUSH1 0x20 MSTORE DUP1 PUSH0 MSTORE PUSH1 0x40 PUSH0 KECCAK256 PUSH0 SWAP2 POP SLOAD SWAP1 PUSH2 0x100 EXP SWAP1 DIV PUSH1 0xFF AND DUP2 JUMP JUMPDEST PUSH2 0x1126 PUSH2 0x1C4F JUMP JUMPDEST PUSH2 0x112E PUSH2 0x1EDD JUMP JUMPDEST JUMP JUMPDEST PUSH2 0x1138 PUSH2 0x1C4F JUMP JUMPDEST DUP1 PUSH1 0x14 DUP2 SWAP1 SSTORE POP POP JUMP JUMPDEST PUSH2 0x115C DUP4 DUP4 DUP4 PUSH1 0x40 MLOAD DUP1 PUSH1 0x20 ADD PUSH1 0x40 MSTORE DUP1 PUSH0 DUP2 MSTORE POP PUSH2 0x181E JUMP JUMPDEST POP POP POP JUMP JUMPDEST PUSH2 0x1173 PUSH0 DUP3 PUSH2 0x116E PUSH2 0x1D95 JUMP JUMPDEST PUSH2 0x1DAE JUMP JUMPDEST POP POP JUMP JUMPDEST PUSH0 PUSH2 0x1185 DUP4 PUSH1 0x14 SLOAD DUP5 PUSH2 0x1DC3 JUMP JUMPDEST SWAP1 POP SWAP3 SWAP2 POP POP JUMP JUMPDEST PUSH2 0x1195 PUSH2 0x1C4F JUMP JUMPDEST DUP1 PUSH1 0x15 DUP2 SWAP1 SSTORE POP POP JUMP JUMPDEST PUSH2 0x11A7 PUSH2 0x1C4F JUMP JUMPDEST DUP1 PUSH1 0x13 DUP2 SWAP1 SSTORE POP POP JUMP JUMPDEST PUSH2 0x11B9 PUSH2 0x1C4F JUMP JUMPDEST PUSH1 0x16 PUSH1 0x1 SWAP1 SLOAD SWAP1 PUSH2 0x100 EXP SWAP1 DIV PUSH1 0xFF AND ISZERO PUSH1 0x16 PUSH1 0x1 PUSH2 0x100 EXP DUP2 SLOAD DUP2 PUSH1 0xFF MUL NOT AND SWAP1 DUP4 ISZERO ISZERO MUL OR SWAP1 SSTORE POP JUMP JUMPDEST PUSH1 0x16 PUSH1 0x2 SWAP1 SLOAD SWAP1 PUSH2 0x100 EXP SWAP1 DIV PUSH1 0xFF AND DUP2 JUMP JUMPDEST PUSH2 0x1200 PUSH2 0x1C4F JUMP JUMPDEST PUSH0 DUP2 PUSH20 0xFFFFFFFFFFFFFFFFFFFFFFFFFFFFFFFFFFFFFFFF AND SELFBALANCE PUSH1 0x40 MLOAD PUSH2 0x1225 SWAP1 PUSH2 0x46BF JUMP JUMPDEST PUSH0 PUSH1 0x40 MLOAD DUP1 DUP4 SUB DUP2 DUP6 DUP8 GAS CALL SWAP3 POP POP POP RETURNDATASIZE DUP1 PUSH0 DUP2 EQ PUSH2 0x125F JUMPI PUSH1 0x40 MLOAD SWAP2 POP PUSH1 0x1F NOT PUSH1 0x3F RETURNDATASIZE ADD AND DUP3 ADD PUSH1 0x40 MSTORE RETURNDATASIZE DUP3 MSTORE RETURNDATASIZE PUSH0 PUSH1 0x20 DUP5 ADD RETURNDATACOPY PUSH2 0x1264 JUMP JUMPDEST PUSH1 0x60 SWAP2 POP JUMPDEST POP POP SWAP1 POP DUP1 PUSH2 0x12A8 JUMPI PUSH1 0x40 MLOAD PUSH32 0x8C379A000000000000000000000000000000000000000000000000000000000 DUP2 MSTORE PUSH1 0x4 ADD PUSH2 0x129F SWAP1 PUSH2 0x471D JUMP JUMPDEST PUSH1 0x40 MLOAD DUP1 SWAP2 SUB SWAP1 REVERT JUMPDEST POP POP JUMP JUMPDEST PUSH0 PUSH1 0x7 PUSH0 SWAP1 SLOAD SWAP1 PUSH2 0x100 EXP SWAP1 DIV PUSH1 0xFF AND SWAP1 POP SWAP1 JUMP JUMPDEST PUSH2 0x12C9 PUSH2 0x1C4F JUMP JUMPDEST DUP1 PUSH1 0xE DUP2 SWAP1 SSTORE POP POP JUMP JUMPDEST PUSH0 PUSH2 0x12DD DUP3 PUSH2 0x1CD6 JUMP JUMPDEST SWAP1 POP SWAP2 SWAP1 POP JUMP JUMPDEST PUSH1 0x12 SLOAD DUP2 JUMP JUMPDEST PUSH0 DUP1 PUSH20 0xFFFFFFFFFFFFFFFFFFFFFFFFFFFFFFFFFFFFFFFF AND DUP3 PUSH20 0xFFFFFFFFFFFFFFFFFFFFFFFFFFFFFFFFFFFFFFFF AND SUB PUSH2 0x135B JUMPI PUSH0 PUSH1 0x40 MLOAD PUSH32 0x89C62B6400000000000000000000000000000000000000000000000000000000 DUP2 MSTORE PUSH1 0x4 ADD PUSH2 0x1352 SWAP2 SWAP1 PUSH2 0x38E3 JUMP JUMPDEST PUSH1 0x40 MLOAD DUP1 SWAP2 SUB SWAP1 REVERT JUMPDEST PUSH1 0x3 PUSH0 DUP4 PUSH20 0xFFFFFFFFFFFFFFFFFFFFFFFFFFFFFFFFFFFFFFFF AND PUSH20 0xFFFFFFFFFFFFFFFFFFFFFFFFFFFFFFFFFFFFFFFF AND DUP2 MSTORE PUSH1 0x20 ADD SWAP1 DUP2 MSTORE PUSH1 0x20 ADD PUSH0 KECCAK256 SLOAD SWAP1 POP SWAP2 SWAP1 POP JUMP JUMPDEST PUSH2 0x13A8 PUSH2 0x1C4F JUMP JUMPDEST PUSH2 0x13B1 PUSH0 PUSH2 0x1F3E JUMP JUMPDEST JUMP JUMPDEST PUSH1 0x16 PUSH1 0x1 SWAP1 SLOAD SWAP1 PUSH2 0x100 EXP SWAP1 DIV PUSH1 0xFF AND DUP2 JUMP JUMPDEST CALLVALUE PUSH1 0xF SLOAD DUP2 LT ISZERO PUSH2 0x140C JUMPI PUSH1 0x40 MLOAD PUSH32 0x8C379A000000000000000000000000000000000000000000000000000000000 DUP2 MSTORE PUSH1 0x4 ADD PUSH2 0x1403 SWAP1 PUSH2 0x4475 JUMP JUMPDEST PUSH1 0x40 MLOAD DUP1 SWAP2 SUB SWAP1 REVERT JUMPDEST TIMESTAMP PUSH1 0x10 SLOAD LT ISZERO PUSH2 0x1451 JUMPI PUSH1 0x40 MLOAD PUSH32 0x8C379A000000000000000000000000000000000000000000000000000000000 DUP2 MSTORE PUSH1 0x4 ADD PUSH2 0x1448 SWAP1 PUSH2 0x44DD JUMP JUMPDEST PUSH1 0x40 MLOAD DUP1 SWAP2 SUB SWAP1 REVERT JUMPDEST DUP2 DUP6 PUSH2 0x1483 DUP3 DUP3 PUSH1 0x40 MLOAD PUSH1 0x20 ADD PUSH2 0x1468 SWAP2 SWAP1 PUSH2 0x4540 JUMP JUMPDEST PUSH1 0x40 MLOAD PUSH1 0x20 DUP2 DUP4 SUB SUB DUP2 MSTORE SWAP1 PUSH1 0x40 MSTORE DUP1 MLOAD SWAP1 PUSH1 0x20 ADD KECCAK256 PUSH2 0x1177 JUMP JUMPDEST PUSH2 0x14C2 JUMPI PUSH1 0x40 MLOAD PUSH32 0x8C379A000000000000000000000000000000000000000000000000000000000 DUP2 MSTORE PUSH1 0x4 ADD PUSH2 0x14B9 SWAP1 PUSH2 0x45A4 JUMP JUMPDEST PUSH1 0x40 MLOAD DUP1 SWAP2 SUB SWAP1 REVERT JUMPDEST PUSH1 0x1 ISZERO ISZERO PUSH1 0x16 PUSH1 0x1 SWAP1 SLOAD SWAP1 PUSH2 0x100 EXP SWAP1 DIV PUSH1 0xFF AND ISZERO ISZERO EQ PUSH2 0x1518 JUMPI PUSH1 0x40 MLOAD PUSH32 0x8C379A000000000000000000000000000000000000000000000000000000000 DUP2 MSTORE PUSH1 0x4 ADD PUSH2 0x150F SWAP1 PUSH2 0x460C JUMP JUMPDEST PUSH1 0x40 MLOAD DUP1 SWAP2 SUB SWAP1 REVERT JUMPDEST PUSH2 0x1523 DUP8 DUP8 DUP8 PUSH2 0x1DD9 JUMP JUMPDEST POP POP POP POP POP POP POP JUMP JUMPDEST PUSH1 0x18 PUSH1 0x20 MSTORE DUP1 PUSH0 MSTORE PUSH1 0x40 PUSH0 KECCAK256 PUSH0 SWAP2 POP SWAP1 POP SLOAD DUP2 JUMP JUMPDEST PUSH2 0x1549 PUSH2 0x1C4F JUMP JUMPDEST PUSH2 0x1551 PUSH2 0x2003 JUMP JUMPDEST JUMP JUMPDEST PUSH0 DUP1 PUSH2 0x15E4 PUSH32 0xCA92CB474272E545B104DC1FAA0041F6D99A43378EDC034C480B298174032815 DUP5 PUSH0 ADD PUSH1 0x20 DUP2 ADD SWAP1 PUSH2 0x158B SWAP2 SWAP1 PUSH2 0x3D20 JUMP JUMPDEST DUP6 PUSH1 0x20 ADD CALLDATALOAD DUP7 DUP1 PUSH1 0x40 ADD SWAP1 PUSH2 0x15A0 SWAP2 SWAP1 PUSH2 0x4747 JUMP JUMPDEST PUSH1 0x40 MLOAD PUSH2 0x15AE SWAP3 SWAP2 SWAP1 PUSH2 0x47CD JUMP JUMPDEST PUSH1 0x40 MLOAD DUP1 SWAP2 SUB SWAP1 KECCAK256 PUSH1 0x40 MLOAD PUSH1 0x20 ADD PUSH2 0x15C9 SWAP5 SWAP4 SWAP3 SWAP2 SWAP1 PUSH2 0x47E5 JUMP JUMPDEST PUSH1 0x40 MLOAD PUSH1 0x20 DUP2 DUP4 SUB SUB DUP2 MSTORE SWAP1 PUSH1 0x40 MSTORE DUP1 MLOAD SWAP1 PUSH1 0x20 ADD KECCAK256 PUSH2 0x2065 JUMP JUMPDEST SWAP1 POP PUSH0 PUSH2 0x1642 DUP3 DUP6 DUP1 PUSH1 0x60 ADD SWAP1 PUSH2 0x15FB SWAP2 SWAP1 PUSH2 0x4828 JUMP JUMPDEST DUP1 DUP1 PUSH1 0x1F ADD PUSH1 0x20 DUP1 SWAP2 DIV MUL PUSH1 0x20 ADD PUSH1 0x40 MLOAD SWAP1 DUP2 ADD PUSH1 0x40 MSTORE DUP1 SWAP4 SWAP3 SWAP2 SWAP1 DUP2 DUP2 MSTORE PUSH1 0x20 ADD DUP4 DUP4 DUP1 DUP3 DUP5 CALLDATACOPY PUSH0 DUP2 DUP5 ADD MSTORE PUSH1 0x1F NOT PUSH1 0x1F DUP3 ADD AND SWAP1 POP DUP1 DUP4 ADD SWAP3 POP POP POP POP POP POP POP PUSH2 0x207E JUMP JUMPDEST SWAP1 POP DUP1 SWAP3 POP POP POP SWAP2 SWAP1 POP JUMP JUMPDEST PUSH0 PUSH1 0x60 DUP1 PUSH0 DUP1 PUSH0 PUSH1 0x60 PUSH2 0x165F PUSH2 0x20A8 JUMP JUMPDEST PUSH2 0x1667 PUSH2 0x20E3 JUMP JUMPDEST CHAINID ADDRESS PUSH0 DUP1 SHL PUSH0 PUSH8 0xFFFFFFFFFFFFFFFF DUP2 GT ISZERO PUSH2 0x1686 JUMPI PUSH2 0x1685 PUSH2 0x39E0 JUMP JUMPDEST JUMPDEST PUSH1 0x40 MLOAD SWAP1 DUP1 DUP3 MSTORE DUP1 PUSH1 0x20 MUL PUSH1 0x20 ADD DUP3 ADD PUSH1 0x40 MSTORE DUP1 ISZERO PUSH2 0x16B4 JUMPI DUP2 PUSH1 0x20 ADD PUSH1 0x20 DUP3 MUL DUP1 CALLDATASIZE DUP4 CALLDATACOPY DUP1 DUP3 ADD SWAP2 POP POP SWAP1 POP JUMPDEST POP PUSH32 0xF00000000000000000000000000000000000000000000000000000000000000 SWAP6 SWAP5 SWAP4 SWAP3 SWAP2 SWAP1 SWAP7 POP SWAP7 POP SWAP7 POP SWAP7 POP SWAP7 POP SWAP7 POP SWAP7 POP SWAP1 SWAP2 SWAP3 SWAP4 SWAP5 SWAP6 SWAP7 JUMP JUMPDEST PUSH1 0xD SLOAD DUP2 JUMP JUMPDEST PUSH0 PUSH1 0x7 PUSH1 0x1 SWAP1 SLOAD SWAP1 PUSH2 0x100 EXP SWAP1 DIV PUSH20 0xFFFFFFFFFFFFFFFFFFFFFFFFFFFFFFFFFFFFFFFF AND SWAP1 POP SWAP1 JUMP JUMPDEST PUSH1 0x60 PUSH1 0x1 DUP1 SLOAD PUSH2 0x1731 SWAP1 PUSH2 0x43C6 JUMP JUMPDEST DUP1 PUSH1 0x1F ADD PUSH1 0x20 DUP1 SWAP2 DIV MUL PUSH1 0x20 ADD PUSH1 0x40 MLOAD SWAP1 DUP2 ADD PUSH1 0x40 MSTORE DUP1 SWAP3 SWAP2 SWAP1 DUP2 DUP2 MSTORE PUSH1 0x20 ADD DUP3 DUP1 SLOAD PUSH2 0x175D SWAP1 PUSH2 0x43C6 JUMP JUMPDEST DUP1 ISZERO PUSH2 0x17A8 JUMPI DUP1 PUSH1 0x1F LT PUSH2 0x177F JUMPI PUSH2 0x100 DUP1 DUP4 SLOAD DIV MUL DUP4 MSTORE SWAP2 PUSH1 0x20 ADD SWAP2 PUSH2 0x17A8 JUMP JUMPDEST DUP3 ADD SWAP2 SWAP1 PUSH0 MSTORE PUSH1 0x20 PUSH0 KECCAK256 SWAP1 JUMPDEST DUP2 SLOAD DUP2 MSTORE SWAP1 PUSH1 0x1 ADD SWAP1 PUSH1 0x20 ADD DUP1 DUP4 GT PUSH2 0x178B JUMPI DUP3 SWAP1 SUB PUSH1 0x1F AND DUP3 ADD SWAP2 JUMPDEST POP POP POP POP POP SWAP1 POP SWAP1 JUMP JUMPDEST PUSH2 0x17C4 PUSH2 0x17BD PUSH2 0x1D95 JUMP JUMPDEST DUP4 DUP4 PUSH2 0x211E JUMP JUMPDEST POP POP JUMP JUMPDEST PUSH1 0xC SLOAD DUP2 JUMP JUMPDEST PUSH1 0x15 SLOAD DUP2 JUMP JUMPDEST PUSH1 0x14 SLOAD DUP2 JUMP JUMPDEST PUSH2 0x17E2 PUSH2 0x1C4F JUMP JUMPDEST DUP1 PUSH1 0xF DUP2 SWAP1 SSTORE POP POP JUMP JUMPDEST PUSH2 0x17F4 PUSH2 0x1C4F JUMP JUMPDEST PUSH1 0x16 PUSH0 SWAP1 SLOAD SWAP1 PUSH2 0x100 EXP SWAP1 DIV PUSH1 0xFF AND ISZERO PUSH1 0x16 PUSH0 PUSH2 0x100 EXP DUP2 SLOAD DUP2 PUSH1 0xFF MUL NOT AND SWAP1 DUP4 ISZERO ISZERO MUL OR SWAP1 SSTORE POP JUMP JUMPDEST PUSH2 0x1829 DUP5 DUP5 DUP5 PUSH2 0xD50 JUMP JUMPDEST PUSH2 0x183D PUSH2 0x1834 PUSH2 0x1D95 JUMP JUMPDEST DUP6 DUP6 DUP6 DUP6 PUSH2 0x2287 JUMP JUMPDEST POP POP POP POP JUMP JUMPDEST PUSH2 0x184B PUSH2 0x1C4F JUMP JUMPDEST PUSH1 0x16 PUSH1 0x2 SWAP1 SLOAD SWAP1 PUSH2 0x100 EXP SWAP1 DIV PUSH1 0xFF AND ISZERO PUSH1 0x16 PUSH1 0x2 PUSH2 0x100 EXP DUP2 SLOAD DUP2 PUSH1 0xFF MUL NOT AND SWAP1 DUP4 ISZERO ISZERO MUL OR SWAP1 SSTORE POP JUMP JUMPDEST PUSH1 0x60 PUSH2 0x1882 DUP3 PUSH2 0x2433 JUMP JUMPDEST SWAP1 POP SWAP2 SWAP1 POP JUMP JUMPDEST PUSH1 0x13 SLOAD DUP2 JUMP JUMPDEST PUSH1 0x1 ISZERO ISZERO PUSH1 0x16 PUSH0 SWAP1 SLOAD SWAP1 PUSH2 0x100 EXP SWAP1 DIV PUSH1 0xFF AND ISZERO ISZERO EQ PUSH2 0x18E4 JUMPI PUSH1 0x40 MLOAD PUSH32 0x8C379A000000000000000000000000000000000000000000000000000000000 DUP2 MSTORE PUSH1 0x4 ADD PUSH2 0x18DB SWAP1 PUSH2 0x460C JUMP JUMPDEST PUSH1 0x40 MLOAD DUP1 SWAP2 SUB SWAP1 REVERT JUMPDEST CALLVALUE PUSH1 0xE SLOAD DUP2 LT ISZERO PUSH2 0x192A JUMPI PUSH1 0x40 MLOAD PUSH32 0x8C379A000000000000000000000000000000000000000000000000000000000 DUP2 MSTORE PUSH1 0x4 ADD PUSH2 0x1921 SWAP1 PUSH2 0x4475 JUMP JUMPDEST PUSH1 0x40 MLOAD DUP1 SWAP2 SUB SWAP1 REVERT JUMPDEST DUP2 PUSH2 0x1934 DUP2 PUSH2 0x1553 JUMP JUMPDEST PUSH20 0xFFFFFFFFFFFFFFFFFFFFFFFFFFFFFFFFFFFFFFFF AND PUSH2 0x1952 PUSH2 0x16F9 JUMP JUMPDEST PUSH20 0xFFFFFFFFFFFFFFFFFFFFFFFFFFFFFFFFFFFFFFFF AND EQ PUSH2 0x19A8 JUMPI PUSH1 0x40 MLOAD PUSH32 0x8C379A000000000000000000000000000000000000000000000000000000000 DUP2 MSTORE PUSH1 0x4 ADD PUSH2 0x199F SWAP1 PUSH2 0x48D4 JUMP JUMPDEST PUSH1 0x40 MLOAD DUP1 SWAP2 SUB SWAP1 REVERT JUMPDEST PUSH2 0x1A19 DUP4 PUSH0 ADD PUSH1 0x20 DUP2 ADD SWAP1 PUSH2 0x19BD SWAP2 SWAP1 PUSH2 0x3D20 JUMP JUMPDEST DUP5 PUSH1 0x20 ADD CALLDATALOAD DUP6 DUP1 PUSH1 0x40 ADD SWAP1 PUSH2 0x19D2 SWAP2 SWAP1 PUSH2 0x4747 JUMP JUMPDEST DUP1 DUP1 PUSH1 0x1F ADD PUSH1 0x20 DUP1 SWAP2 DIV MUL PUSH1 0x20 ADD PUSH1 0x40 MLOAD SWAP1 DUP2 ADD PUSH1 0x40 MSTORE DUP1 SWAP4 SWAP3 SWAP2 SWAP1 DUP2 DUP2 MSTORE PUSH1 0x20 ADD DUP4 DUP4 DUP1 DUP3 DUP5 CALLDATACOPY PUSH0 DUP2 DUP5 ADD MSTORE PUSH1 0x1F NOT PUSH1 0x1F DUP3 ADD AND SWAP1 POP DUP1 DUP4 ADD SWAP3 POP POP POP POP POP POP POP PUSH2 0x1DD9 JUMP JUMPDEST POP POP POP JUMP JUMPDEST PUSH2 0x1A26 PUSH2 0x1C4F JUMP JUMPDEST DUP1 MLOAD DUP3 MLOAD EQ PUSH2 0x1A6A JUMPI PUSH1 0x40 MLOAD PUSH32 0x8C379A000000000000000000000000000000000000000000000000000000000 DUP2 MSTORE PUSH1 0x4 ADD PUSH2 0x1A61 SWAP1 PUSH2 0x493C JUMP JUMPDEST PUSH1 0x40 MLOAD DUP1 SWAP2 SUB SWAP1 REVERT JUMPDEST PUSH0 JUMPDEST DUP3 MLOAD DUP2 LT ISZERO PUSH2 0x1ACB JUMPI PUSH0 DUP4 DUP3 DUP2 MLOAD DUP2 LT PUSH2 0x1A89 JUMPI PUSH2 0x1A88 PUSH2 0x495A JUMP JUMPDEST JUMPDEST PUSH1 0x20 MUL PUSH1 0x20 ADD ADD MLOAD SWAP1 POP PUSH0 DUP4 DUP4 DUP2 MLOAD DUP2 LT PUSH2 0x1AA7 JUMPI PUSH2 0x1AA6 PUSH2 0x495A JUMP JUMPDEST JUMPDEST PUSH1 0x20 MUL PUSH1 0x20 ADD ADD MLOAD SWAP1 POP PUSH2 0x1ABC DUP7 DUP4 DUP4 PUSH2 0x1DD9 JUMP JUMPDEST POP POP DUP1 DUP1 PUSH1 0x1 ADD SWAP2 POP POP PUSH2 0x1A6C JUMP JUMPDEST POP POP POP POP JUMP JUMPDEST PUSH1 0x10 SLOAD DUP2 JUMP JUMPDEST PUSH1 0xE SLOAD DUP2 JUMP JUMPDEST PUSH0 PUSH1 0x5 PUSH0 DUP5 PUSH20 0xFFFFFFFFFFFFFFFFFFFFFFFFFFFFFFFFFFFFFFFF AND PUSH20 0xFFFFFFFFFFFFFFFFFFFFFFFFFFFFFFFFFFFFFFFF AND DUP2 MSTORE PUSH1 0x20 ADD SWAP1 DUP2 MSTORE PUSH1 0x20 ADD PUSH0 KECCAK256 PUSH0 DUP4 PUSH20 0xFFFFFFFFFFFFFFFFFFFFFFFFFFFFFFFFFFFFFFFF AND PUSH20 0xFFFFFFFFFFFFFFFFFFFFFFFFFFFFFFFFFFFFFFFF AND DUP2 MSTORE PUSH1 0x20 ADD SWAP1 DUP2 MSTORE PUSH1 0x20 ADD PUSH0 KECCAK256 PUSH0 SWAP1 SLOAD SWAP1 PUSH2 0x100 EXP SWAP1 DIV PUSH1 0xFF AND SWAP1 POP SWAP3 SWAP2 POP POP JUMP JUMPDEST PUSH2 0x1B73 PUSH2 0x1C4F JUMP JUMPDEST PUSH0 PUSH20 0xFFFFFFFFFFFFFFFFFFFFFFFFFFFFFFFFFFFFFFFF AND DUP2 PUSH20 0xFFFFFFFFFFFFFFFFFFFFFFFFFFFFFFFFFFFFFFFF AND SUB PUSH2 0x1BE3 JUMPI PUSH0 PUSH1 0x40 MLOAD PUSH32 0x1E4FBDF700000000000000000000000000000000000000000000000000000000 DUP2 MSTORE PUSH1 0x4 ADD PUSH2 0x1BDA SWAP2 SWAP1 PUSH2 0x38E3 JUMP JUMPDEST PUSH1 0x40 MLOAD DUP1 SWAP2 SUB SWAP1 REVERT JUMPDEST PUSH2 0x1BEC DUP2 PUSH2 0x1F3E JUMP JUMPDEST POP JUMP JUMPDEST PUSH0 PUSH4 0x49064906 PUSH1 0xE0 SHL PUSH28 0xFFFFFFFFFFFFFFFFFFFFFFFFFFFFFFFFFFFFFFFFFFFFFFFFFFFFFFFF NOT AND DUP3 PUSH28 0xFFFFFFFFFFFFFFFFFFFFFFFFFFFFFFFFFFFFFFFFFFFFFFFFFFFFFFFF NOT AND EQ DUP1 PUSH2 0x1C48 JUMPI POP PUSH2 0x1C47 DUP3 PUSH2 0x253E JUMP JUMPDEST JUMPDEST SWAP1 POP SWAP2 SWAP1 POP JUMP JUMPDEST PUSH2 0x1C57 PUSH2 0x1D95 JUMP JUMPDEST PUSH20 0xFFFFFFFFFFFFFFFFFFFFFFFFFFFFFFFFFFFFFFFF AND PUSH2 0x1C75 PUSH2 0x16F9 JUMP JUMPDEST PUSH20 0xFFFFFFFFFFFFFFFFFFFFFFFFFFFFFFFFFFFFFFFF AND EQ PUSH2 0x1CD4 JUMPI PUSH2 0x1C98 PUSH2 0x1D95 JUMP JUMPDEST PUSH1 0x40 MLOAD PUSH32 0x118CDAA700000000000000000000000000000000000000000000000000000000 DUP2 MSTORE PUSH1 0x4 ADD PUSH2 0x1CCB SWAP2 SWAP1 PUSH2 0x38E3 JUMP JUMPDEST PUSH1 0x40 MLOAD DUP1 SWAP2 SUB SWAP1 REVERT JUMPDEST JUMP JUMPDEST PUSH0 DUP1 PUSH2 0x1CE1 DUP4 PUSH2 0x261F JUMP JUMPDEST SWAP1 POP PUSH0 PUSH20 0xFFFFFFFFFFFFFFFFFFFFFFFFFFFFFFFFFFFFFFFF AND DUP2 PUSH20 0xFFFFFFFFFFFFFFFFFFFFFFFFFFFFFFFFFFFFFFFF AND SUB PUSH2 0x1D53 JUMPI DUP3 PUSH1 0x40 MLOAD PUSH32 0x7E27328900000000000000000000000000000000000000000000000000000000 DUP2 MSTORE PUSH1 0x4 ADD PUSH2 0x1D4A SWAP2 SWAP1 PUSH2 0x3973 JUMP JUMPDEST PUSH1 0x40 MLOAD DUP1 SWAP2 SUB SWAP1 REVERT JUMPDEST DUP1 SWAP2 POP POP SWAP2 SWAP1 POP JUMP JUMPDEST PUSH0 PUSH1 0x4 PUSH0 DUP4 DUP2 MSTORE PUSH1 0x20 ADD SWAP1 DUP2 MSTORE PUSH1 0x20 ADD PUSH0 KECCAK256 PUSH0 SWAP1 SLOAD SWAP1 PUSH2 0x100 EXP SWAP1 DIV PUSH20 0xFFFFFFFFFFFFFFFFFFFFFFFFFFFFFFFFFFFFFFFF AND SWAP1 POP SWAP2 SWAP1 POP JUMP JUMPDEST PUSH0 CALLER SWAP1 POP SWAP1 JUMP JUMPDEST PUSH2 0x1DA9 DUP4 DUP4 DUP4 PUSH1 0x1 PUSH2 0x2658 JUMP JUMPDEST POP POP POP JUMP JUMPDEST PUSH0 PUSH2 0x1DBA DUP5 DUP5 DUP5 PUSH2 0x2817 JUMP JUMPDEST SWAP1 POP SWAP4 SWAP3 POP POP POP JUMP JUMPDEST PUSH0 DUP3 PUSH2 0x1DCF DUP6 DUP5 PUSH2 0x2834 JUMP JUMPDEST EQ SWAP1 POP SWAP4 SWAP3 POP POP POP JUMP JUMPDEST PUSH1 0xD SLOAD PUSH1 0xC SLOAD GT ISZERO PUSH2 0x1E20 JUMPI PUSH1 0x40 MLOAD PUSH32 0x8C379A000000000000000000000000000000000000000000000000000000000 DUP2 MSTORE PUSH1 0x4 ADD PUSH2 0x1E17 SWAP1 PUSH2 0x49D1 JUMP JUMPDEST PUSH1 0x40 MLOAD DUP1 SWAP2 SUB SWAP1 REVERT JUMPDEST DUP2 PUSH1 0x1 ISZERO ISZERO PUSH1 0x17 PUSH0 DUP4 DUP2 MSTORE PUSH1 0x20 ADD SWAP1 DUP2 MSTORE PUSH1 0x20 ADD PUSH0 KECCAK256 PUSH0 SWAP1 SLOAD SWAP1 PUSH2 0x100 EXP SWAP1 DIV PUSH1 0xFF AND ISZERO ISZERO SUB PUSH2 0x1E85 JUMPI PUSH1 0x40 MLOAD PUSH32 0x8C379A000000000000000000000000000000000000000000000000000000000 DUP2 MSTORE PUSH1 0x4 ADD PUSH2 0x1E7C SWAP1 PUSH2 0x4A39 JUMP JUMPDEST PUSH1 0x40 MLOAD DUP1 SWAP2 SUB SWAP1 REVERT JUMPDEST PUSH1 0x1 PUSH1 0xC SLOAD PUSH2 0x1E94 SWAP2 SWAP1 PUSH2 0x4366 JUMP JUMPDEST PUSH1 0xC DUP2 SWAP1 SSTORE POP PUSH1 0x1 PUSH1 0x17 PUSH0 DUP6 DUP2 MSTORE PUSH1 0x20 ADD SWAP1 DUP2 MSTORE PUSH1 0x20 ADD PUSH0 KECCAK256 PUSH0 PUSH2 0x100 EXP DUP2 SLOAD DUP2 PUSH1 0xFF MUL NOT AND SWAP1 DUP4 ISZERO ISZERO MUL OR SWAP1 SSTORE POP PUSH2 0x1ECD DUP5 DUP5 PUSH2 0x2882 JUMP JUMPDEST PUSH2 0x1ED7 DUP4 DUP4 PUSH2 0x289F JUMP JUMPDEST POP POP POP POP JUMP JUMPDEST PUSH2 0x1EE5 PUSH2 0x28F9 JUMP JUMPDEST PUSH0 PUSH1 0x7 PUSH0 PUSH2 0x100 EXP DUP2 SLOAD DUP2 PUSH1 0xFF MUL NOT AND SWAP1 DUP4 ISZERO ISZERO MUL OR SWAP1 SSTORE POP PUSH32 0x5DB9EE0A495BF2E6FF9C91A7834C1BA4FDD244A5E8AA4E537BD38AEAE4B073AA PUSH2 0x1F27 PUSH2 0x1D95 JUMP JUMPDEST PUSH1 0x40 MLOAD PUSH2 0x1F34 SWAP2 SWAP1 PUSH2 0x38E3 JUMP JUMPDEST PUSH1 0x40 MLOAD DUP1 SWAP2 SUB SWAP1 LOG1 JUMP JUMPDEST PUSH0 PUSH1 0x7 PUSH1 0x1 SWAP1 SLOAD SWAP1 PUSH2 0x100 EXP SWAP1 DIV PUSH20 0xFFFFFFFFFFFFFFFFFFFFFFFFFFFFFFFFFFFFFFFF AND SWAP1 POP DUP2 PUSH1 0x7 PUSH1 0x1 PUSH2 0x100 EXP DUP2 SLOAD DUP2 PUSH20 0xFFFFFFFFFFFFFFFFFFFFFFFFFFFFFFFFFFFFFFFF MUL NOT AND SWAP1 DUP4 PUSH20 0xFFFFFFFFFFFFFFFFFFFFFFFFFFFFFFFFFFFFFFFF AND MUL OR SWAP1 SSTORE POP DUP2 PUSH20 0xFFFFFFFFFFFFFFFFFFFFFFFFFFFFFFFFFFFFFFFF AND DUP2 PUSH20 0xFFFFFFFFFFFFFFFFFFFFFFFFFFFFFFFFFFFFFFFF AND PUSH32 0x8BE0079C531659141344CD1FD0A4F28419497F9722A3DAAFE3B4186F6B6457E0 PUSH1 0x40 MLOAD PUSH1 0x40 MLOAD DUP1 SWAP2 SUB SWAP1 LOG3 POP POP JUMP JUMPDEST PUSH2 0x200B PUSH2 0x2939 JUMP JUMPDEST PUSH1 0x1 PUSH1 0x7 PUSH0 PUSH2 0x100 EXP DUP2 SLOAD DUP2 PUSH1 0xFF MUL NOT AND SWAP1 DUP4 ISZERO ISZERO MUL OR SWAP1 SSTORE POP PUSH32 0x62E78CEA01BEE320CD4E420270B5EA74000D11B0C9F74754EBDBFC544B05A258 PUSH2 0x204E PUSH2 0x1D95 JUMP JUMPDEST PUSH1 0x40 MLOAD PUSH2 0x205B SWAP2 SWAP1 PUSH2 0x38E3 JUMP JUMPDEST PUSH1 0x40 MLOAD DUP1 SWAP2 SUB SWAP1 LOG1 JUMP JUMPDEST PUSH0 PUSH2 0x2077 PUSH2 0x2071 PUSH2 0x297A JUMP JUMPDEST DUP4 PUSH2 0x2A30 JUMP JUMPDEST SWAP1 POP SWAP2 SWAP1 POP JUMP JUMPDEST PUSH0 DUP1 PUSH0 DUP1 PUSH2 0x208C DUP7 DUP7 PUSH2 0x2A70 JUMP JUMPDEST SWAP3 POP SWAP3 POP SWAP3 POP PUSH2 0x209C DUP3 DUP3 PUSH2 0x2AC5 JUMP JUMPDEST DUP3 SWAP4 POP POP POP POP SWAP3 SWAP2 POP POP JUMP JUMPDEST PUSH1 0x60 PUSH2 0x20DE PUSH1 0x8 PUSH32 0x0 PUSH2 0x2C27 SWAP1 SWAP2 SWAP1 PUSH4 0xFFFFFFFF AND JUMP JUMPDEST SWAP1 POP SWAP1 JUMP JUMPDEST PUSH1 0x60 PUSH2 0x2119 PUSH1 0x9 PUSH32 0x0 PUSH2 0x2C27 SWAP1 SWAP2 SWAP1 PUSH4 0xFFFFFFFF AND JUMP JUMPDEST SWAP1 POP SWAP1 JUMP JUMPDEST PUSH0 PUSH20 0xFFFFFFFFFFFFFFFFFFFFFFFFFFFFFFFFFFFFFFFF AND DUP3 PUSH20 0xFFFFFFFFFFFFFFFFFFFFFFFFFFFFFFFFFFFFFFFF AND SUB PUSH2 0x218E JUMPI DUP2 PUSH1 0x40 MLOAD PUSH32 0x5B08BA1800000000000000000000000000000000000000000000000000000000 DUP2 MSTORE PUSH1 0x4 ADD PUSH2 0x2185 SWAP2 SWAP1 PUSH2 0x38E3 JUMP JUMPDEST PUSH1 0x40 MLOAD DUP1 SWAP2 SUB SWAP1 REVERT JUMPDEST DUP1 PUSH1 0x5 PUSH0 DUP6 PUSH20 0xFFFFFFFFFFFFFFFFFFFFFFFFFFFFFFFFFFFFFFFF AND PUSH20 0xFFFFFFFFFFFFFFFFFFFFFFFFFFFFFFFFFFFFFFFF AND DUP2 MSTORE PUSH1 0x20 ADD SWAP1 DUP2 MSTORE PUSH1 0x20 ADD PUSH0 KECCAK256 PUSH0 DUP5 PUSH20 0xFFFFFFFFFFFFFFFFFFFFFFFFFFFFFFFFFFFFFFFF AND PUSH20 0xFFFFFFFFFFFFFFFFFFFFFFFFFFFFFFFFFFFFFFFF AND DUP2 MSTORE PUSH1 0x20 ADD SWAP1 DUP2 MSTORE PUSH1 0x20 ADD PUSH0 KECCAK256 PUSH0 PUSH2 0x100 EXP DUP2 SLOAD DUP2 PUSH1 0xFF MUL NOT AND SWAP1 DUP4 ISZERO ISZERO MUL OR SWAP1 SSTORE POP DUP2 PUSH20 0xFFFFFFFFFFFFFFFFFFFFFFFFFFFFFFFFFFFFFFFF AND DUP4 PUSH20 0xFFFFFFFFFFFFFFFFFFFFFFFFFFFFFFFFFFFFFFFF AND PUSH32 0x17307EAB39AB6107E8899845AD3D59BD9653F200F220920489CA2B5937696C31 DUP4 PUSH1 0x40 MLOAD PUSH2 0x227A SWAP2 SWAP1 PUSH2 0x379D JUMP JUMPDEST PUSH1 0x40 MLOAD DUP1 SWAP2 SUB SWAP1 LOG3 POP POP POP JUMP JUMPDEST PUSH0 DUP4 PUSH20 0xFFFFFFFFFFFFFFFFFFFFFFFFFFFFFFFFFFFFFFFF AND EXTCODESIZE GT ISZERO PUSH2 0x242C JUMPI DUP3 PUSH20 0xFFFFFFFFFFFFFFFFFFFFFFFFFFFFFFFFFFFFFFFF AND PUSH4 0x150B7A02 DUP7 DUP7 DUP6 DUP6 PUSH1 0x40 MLOAD DUP6 PUSH4 0xFFFFFFFF AND PUSH1 0xE0 SHL DUP2 MSTORE PUSH1 0x4 ADD PUSH2 0x22E5 SWAP5 SWAP4 SWAP3 SWAP2 SWAP1 PUSH2 0x4AA9 JUMP JUMPDEST PUSH1 0x20 PUSH1 0x40 MLOAD DUP1 DUP4 SUB DUP2 PUSH0 DUP8 GAS CALL SWAP3 POP POP POP DUP1 ISZERO PUSH2 0x2320 JUMPI POP PUSH1 0x40 MLOAD RETURNDATASIZE PUSH1 0x1F NOT PUSH1 0x1F DUP3 ADD AND DUP3 ADD DUP1 PUSH1 0x40 MSTORE POP DUP2 ADD SWAP1 PUSH2 0x231D SWAP2 SWAP1 PUSH2 0x4B07 JUMP JUMPDEST PUSH1 0x1 JUMPDEST PUSH2 0x23A1 JUMPI RETURNDATASIZE DUP1 PUSH0 DUP2 EQ PUSH2 0x234E JUMPI PUSH1 0x40 MLOAD SWAP2 POP PUSH1 0x1F NOT PUSH1 0x3F RETURNDATASIZE ADD AND DUP3 ADD PUSH1 0x40 MSTORE RETURNDATASIZE DUP3 MSTORE RETURNDATASIZE PUSH0 PUSH1 0x20 DUP5 ADD RETURNDATACOPY PUSH2 0x2353 JUMP JUMPDEST PUSH1 0x60 SWAP2 POP JUMPDEST POP PUSH0 DUP2 MLOAD SUB PUSH2 0x2399 JUMPI DUP4 PUSH1 0x40 MLOAD PUSH32 0x64A0AE9200000000000000000000000000000000000000000000000000000000 DUP2 MSTORE PUSH1 0x4 ADD PUSH2 0x2390 SWAP2 SWAP1 PUSH2 0x38E3 JUMP JUMPDEST PUSH1 0x40 MLOAD DUP1 SWAP2 SUB SWAP1 REVERT JUMPDEST DUP1 MLOAD DUP2 PUSH1 0x20 ADD REVERT JUMPDEST PUSH4 0x150B7A02 PUSH1 0xE0 SHL PUSH28 0xFFFFFFFFFFFFFFFFFFFFFFFFFFFFFFFFFFFFFFFFFFFFFFFFFFFFFFFF NOT AND DUP2 PUSH28 0xFFFFFFFFFFFFFFFFFFFFFFFFFFFFFFFFFFFFFFFFFFFFFFFFFFFFFFFF NOT AND EQ PUSH2 0x242A JUMPI DUP4 PUSH1 0x40 MLOAD PUSH32 0x64A0AE9200000000000000000000000000000000000000000000000000000000 DUP2 MSTORE PUSH1 0x4 ADD PUSH2 0x2421 SWAP2 SWAP1 PUSH2 0x38E3 JUMP JUMPDEST PUSH1 0x40 MLOAD DUP1 SWAP2 SUB SWAP1 REVERT JUMPDEST POP JUMPDEST POP POP POP POP POP JUMP JUMPDEST PUSH1 0x60 PUSH2 0x243E DUP3 PUSH2 0x1CD6 JUMP JUMPDEST POP PUSH0 PUSH1 0x6 PUSH0 DUP5 DUP2 MSTORE PUSH1 0x20 ADD SWAP1 DUP2 MSTORE PUSH1 0x20 ADD PUSH0 KECCAK256 DUP1 SLOAD PUSH2 0x245C SWAP1 PUSH2 0x43C6 JUMP JUMPDEST DUP1 PUSH1 0x1F ADD PUSH1 0x20 DUP1 SWAP2 DIV MUL PUSH1 0x20 ADD PUSH1 0x40 MLOAD SWAP1 DUP2 ADD PUSH1 0x40 MSTORE DUP1 SWAP3 SWAP2 SWAP1 DUP2 DUP2 MSTORE PUSH1 0x20 ADD DUP3 DUP1 SLOAD PUSH2 0x2488 SWAP1 PUSH2 0x43C6 JUMP JUMPDEST DUP1 ISZERO PUSH2 0x24D3 JUMPI DUP1 PUSH1 0x1F LT PUSH2 0x24AA JUMPI PUSH2 0x100 DUP1 DUP4 SLOAD DIV MUL DUP4 MSTORE SWAP2 PUSH1 0x20 ADD SWAP2 PUSH2 0x24D3 JUMP JUMPDEST DUP3 ADD SWAP2 SWAP1 PUSH0 MSTORE PUSH1 0x20 PUSH0 KECCAK256 SWAP1 JUMPDEST DUP2 SLOAD DUP2 MSTORE SWAP1 PUSH1 0x1 ADD SWAP1 PUSH1 0x20 ADD DUP1 DUP4 GT PUSH2 0x24B6 JUMPI DUP3 SWAP1 SUB PUSH1 0x1F AND DUP3 ADD SWAP2 JUMPDEST POP POP POP POP POP SWAP1 POP PUSH0 PUSH2 0x24E3 PUSH2 0x2CD4 JUMP JUMPDEST SWAP1 POP PUSH0 DUP2 MLOAD SUB PUSH2 0x24F7 JUMPI DUP2 SWAP3 POP POP POP PUSH2 0x2539 JUMP JUMPDEST PUSH0 DUP3 MLOAD GT ISZERO PUSH2 0x252B JUMPI DUP1 DUP3 PUSH1 0x40 MLOAD PUSH1 0x20 ADD PUSH2 0x2513 SWAP3 SWAP2 SWAP1 PUSH2 0x4B6C JUMP JUMPDEST PUSH1 0x40 MLOAD PUSH1 0x20 DUP2 DUP4 SUB SUB DUP2 MSTORE SWAP1 PUSH1 0x40 MSTORE SWAP3 POP POP POP PUSH2 0x2539 JUMP JUMPDEST PUSH2 0x2534 DUP5 PUSH2 0x2CEA JUMP JUMPDEST SWAP3 POP POP POP JUMPDEST SWAP2 SWAP1 POP JUMP JUMPDEST PUSH0 PUSH32 0x80AC58CD00000000000000000000000000000000000000000000000000000000 PUSH28 0xFFFFFFFFFFFFFFFFFFFFFFFFFFFFFFFFFFFFFFFFFFFFFFFFFFFFFFFF NOT AND DUP3 PUSH28 0xFFFFFFFFFFFFFFFFFFFFFFFFFFFFFFFFFFFFFFFFFFFFFFFFFFFFFFFF NOT AND EQ DUP1 PUSH2 0x2608 JUMPI POP PUSH32 0x5B5E139F00000000000000000000000000000000000000000000000000000000 PUSH28 0xFFFFFFFFFFFFFFFFFFFFFFFFFFFFFFFFFFFFFFFFFFFFFFFFFFFFFFFF NOT AND DUP3 PUSH28 0xFFFFFFFFFFFFFFFFFFFFFFFFFFFFFFFFFFFFFFFFFFFFFFFFFFFFFFFF NOT AND EQ JUMPDEST DUP1 PUSH2 0x2618 JUMPI POP PUSH2 0x2617 DUP3 PUSH2 0x2D50 JUMP JUMPDEST JUMPDEST SWAP1 POP SWAP2 SWAP1 POP JUMP JUMPDEST PUSH0 PUSH1 0x2 PUSH0 DUP4 DUP2 MSTORE PUSH1 0x20 ADD SWAP1 DUP2 MSTORE PUSH1 0x20 ADD PUSH0 KECCAK256 PUSH0 SWAP1 SLOAD SWAP1 PUSH2 0x100 EXP SWAP1 DIV PUSH20 0xFFFFFFFFFFFFFFFFFFFFFFFFFFFFFFFFFFFFFFFF AND SWAP1 POP SWAP2 SWAP1 POP JUMP JUMPDEST DUP1 DUP1 PUSH2 0x2690 JUMPI POP PUSH0 PUSH20 0xFFFFFFFFFFFFFFFFFFFFFFFFFFFFFFFFFFFFFFFF AND DUP3 PUSH20 0xFFFFFFFFFFFFFFFFFFFFFFFFFFFFFFFFFFFFFFFF AND EQ ISZERO JUMPDEST ISZERO PUSH2 0x27C2 JUMPI PUSH0 PUSH2 0x269F DUP5 PUSH2 0x1CD6 JUMP JUMPDEST SWAP1 POP PUSH0 PUSH20 0xFFFFFFFFFFFFFFFFFFFFFFFFFFFFFFFFFFFFFFFF AND DUP4 PUSH20 0xFFFFFFFFFFFFFFFFFFFFFFFFFFFFFFFFFFFFFFFF AND EQ ISZERO DUP1 ISZERO PUSH2 0x2709 JUMPI POP DUP3 PUSH20 0xFFFFFFFFFFFFFFFFFFFFFFFFFFFFFFFFFFFFFFFF AND DUP2 PUSH20 0xFFFFFFFFFFFFFFFFFFFFFFFFFFFFFFFFFFFFFFFF AND EQ ISZERO JUMPDEST DUP1 ISZERO PUSH2 0x271C JUMPI POP PUSH2 0x271A DUP2 DUP5 PUSH2 0x1ADD JUMP JUMPDEST ISZERO JUMPDEST ISZERO PUSH2 0x275E JUMPI DUP3 PUSH1 0x40 MLOAD PUSH32 0xA9FBF51F00000000000000000000000000000000000000000000000000000000 DUP2 MSTORE PUSH1 0x4 ADD PUSH2 0x2755 SWAP2 SWAP1 PUSH2 0x38E3 JUMP JUMPDEST PUSH1 0x40 MLOAD DUP1 SWAP2 SUB SWAP1 REVERT JUMPDEST DUP2 ISZERO PUSH2 0x27C0 JUMPI DUP4 DUP6 PUSH20 0xFFFFFFFFFFFFFFFFFFFFFFFFFFFFFFFFFFFFFFFF AND DUP3 PUSH20 0xFFFFFFFFFFFFFFFFFFFFFFFFFFFFFFFFFFFFFFFF AND PUSH32 0x8C5BE1E5EBEC7D5BD14F71427D1E84F3DD0314C0F7B2291E5B200AC8C7C3B925 PUSH1 0x40 MLOAD PUSH1 0x40 MLOAD DUP1 SWAP2 SUB SWAP1 LOG4 JUMPDEST POP JUMPDEST DUP4 PUSH1 0x4 PUSH0 DUP6 DUP2 MSTORE PUSH1 0x20 ADD SWAP1 DUP2 MSTORE PUSH1 0x20 ADD PUSH0 KECCAK256 PUSH0 PUSH2 0x100 EXP DUP2 SLOAD DUP2 PUSH20 0xFFFFFFFFFFFFFFFFFFFFFFFFFFFFFFFFFFFFFFFF MUL NOT AND SWAP1 DUP4 PUSH20 0xFFFFFFFFFFFFFFFFFFFFFFFFFFFFFFFFFFFFFFFF AND MUL OR SWAP1 SSTORE POP POP POP POP POP JUMP JUMPDEST PUSH0 PUSH2 0x2820 PUSH2 0x2939 JUMP JUMPDEST PUSH2 0x282B DUP5 DUP5 DUP5 PUSH2 0x2DB9 JUMP JUMPDEST SWAP1 POP SWAP4 SWAP3 POP POP POP JUMP JUMPDEST PUSH0 DUP1 DUP3 SWAP1 POP PUSH0 JUMPDEST DUP5 MLOAD DUP2 LT ISZERO PUSH2 0x2877 JUMPI PUSH2 0x2868 DUP3 DUP7 DUP4 DUP2 MLOAD DUP2 LT PUSH2 0x285B JUMPI PUSH2 0x285A PUSH2 0x495A JUMP JUMPDEST JUMPDEST PUSH1 0x20 MUL PUSH1 0x20 ADD ADD MLOAD PUSH2 0x2FC4 JUMP JUMPDEST SWAP2 POP DUP1 DUP1 PUSH1 0x1 ADD SWAP2 POP POP PUSH2 0x283B JUMP JUMPDEST POP DUP1 SWAP2 POP POP SWAP3 SWAP2 POP POP JUMP JUMPDEST PUSH2 0x289B DUP3 DUP3 PUSH1 0x40 MLOAD DUP1 PUSH1 0x20 ADD PUSH1 0x40 MSTORE DUP1 PUSH0 DUP2 MSTORE POP PUSH2 0x2FEE JUMP JUMPDEST POP POP JUMP JUMPDEST DUP1 PUSH1 0x6 PUSH0 DUP5 DUP2 MSTORE PUSH1 0x20 ADD SWAP1 DUP2 MSTORE PUSH1 0x20 ADD PUSH0 KECCAK256 SWAP1 DUP2 PUSH2 0x28BD SWAP2 SWAP1 PUSH2 0x4D2C JUMP JUMPDEST POP PUSH32 0xF8E1A15ABA9398E019F0B49DF1A4FDE98EE17AE345CB5F6B5E2C27F5033E8CE7 DUP3 PUSH1 0x40 MLOAD PUSH2 0x28ED SWAP2 SWAP1 PUSH2 0x3973 JUMP JUMPDEST PUSH1 0x40 MLOAD DUP1 SWAP2 SUB SWAP1 LOG1 POP POP JUMP JUMPDEST PUSH2 0x2901 PUSH2 0x12AC JUMP JUMPDEST PUSH2 0x2937 JUMPI PUSH1 0x40 MLOAD PUSH32 0x8DFC202B00000000000000000000000000000000000000000000000000000000 DUP2 MSTORE PUSH1 0x4 ADD PUSH1 0x40 MLOAD DUP1 SWAP2 SUB SWAP1 REVERT JUMPDEST JUMP JUMPDEST PUSH2 0x2941 PUSH2 0x12AC JUMP JUMPDEST ISZERO PUSH2 0x2978 JUMPI PUSH1 0x40 MLOAD PUSH32 0xD93C066500000000000000000000000000000000000000000000000000000000 DUP2 MSTORE PUSH1 0x4 ADD PUSH1 0x40 MLOAD DUP1 SWAP2 SUB SWAP1 REVERT JUMPDEST JUMP JUMPDEST PUSH0 PUSH32 0x0 PUSH20 0xFFFFFFFFFFFFFFFFFFFFFFFFFFFFFFFFFFFFFFFF AND ADDRESS PUSH20 0xFFFFFFFFFFFFFFFFFFFFFFFFFFFFFFFFFFFFFFFF AND EQ DUP1 ISZERO PUSH2 0x29F5 JUMPI POP PUSH32 0x0 CHAINID EQ JUMPDEST ISZERO PUSH2 0x2A22 JUMPI PUSH32 0x0 SWAP1 POP PUSH2 0x2A2D JUMP JUMPDEST PUSH2 0x2A2A PUSH2 0x3011 JUMP JUMPDEST SWAP1 POP JUMPDEST SWAP1 JUMP JUMPDEST PUSH0 PUSH1 0x40 MLOAD PUSH32 0x1901000000000000000000000000000000000000000000000000000000000000 DUP2 MSTORE DUP4 PUSH1 0x2 DUP3 ADD MSTORE DUP3 PUSH1 0x22 DUP3 ADD MSTORE PUSH1 0x42 DUP2 KECCAK256 SWAP2 POP POP SWAP3 SWAP2 POP POP JUMP JUMPDEST PUSH0 DUP1 PUSH0 PUSH1 0x41 DUP5 MLOAD SUB PUSH2 0x2AB0 JUMPI PUSH0 DUP1 PUSH0 PUSH1 0x20 DUP8 ADD MLOAD SWAP3 POP PUSH1 0x40 DUP8 ADD MLOAD SWAP2 POP PUSH1 0x60 DUP8 ADD MLOAD PUSH0 BYTE SWAP1 POP PUSH2 0x2AA2 DUP9 DUP3 DUP6 DUP6 PUSH2 0x30A6 JUMP JUMPDEST SWAP6 POP SWAP6 POP SWAP6 POP POP POP POP PUSH2 0x2ABE JUMP JUMPDEST PUSH0 PUSH1 0x2 DUP6 MLOAD PUSH0 SHL SWAP3 POP SWAP3 POP SWAP3 POP JUMPDEST SWAP3 POP SWAP3 POP SWAP3 JUMP JUMPDEST PUSH0 PUSH1 0x3 DUP2 GT ISZERO PUSH2 0x2AD8 JUMPI PUSH2 0x2AD7 PUSH2 0x4DFB JUMP JUMPDEST JUMPDEST DUP3 PUSH1 0x3 DUP2 GT ISZERO PUSH2 0x2AEB JUMPI PUSH2 0x2AEA PUSH2 0x4DFB JUMP JUMPDEST JUMPDEST SUB ISZERO PUSH2 0x2C23 JUMPI PUSH1 0x1 PUSH1 0x3 DUP2 GT ISZERO PUSH2 0x2B05 JUMPI PUSH2 0x2B04 PUSH2 0x4DFB JUMP JUMPDEST JUMPDEST DUP3 PUSH1 0x3 DUP2 GT ISZERO PUSH2 0x2B18 JUMPI PUSH2 0x2B17 PUSH2 0x4DFB JUMP JUMPDEST JUMPDEST SUB PUSH2 0x2B4F JUMPI PUSH1 0x40 MLOAD PUSH32 0xF645EEDF00000000000000000000000000000000000000000000000000000000 DUP2 MSTORE PUSH1 0x4 ADD PUSH1 0x40 MLOAD DUP1 SWAP2 SUB SWAP1 REVERT JUMPDEST PUSH1 0x2 PUSH1 0x3 DUP2 GT ISZERO PUSH2 0x2B63 JUMPI PUSH2 0x2B62 PUSH2 0x4DFB JUMP JUMPDEST JUMPDEST DUP3 PUSH1 0x3 DUP2 GT ISZERO PUSH2 0x2B76 JUMPI PUSH2 0x2B75 PUSH2 0x4DFB JUMP JUMPDEST JUMPDEST SUB PUSH2 0x2BBA JUMPI DUP1 PUSH0 SHR PUSH1 0x40 MLOAD PUSH32 0xFCE698F700000000000000000000000000000000000000000000000000000000 DUP2 MSTORE PUSH1 0x4 ADD PUSH2 0x2BB1 SWAP2 SWAP1 PUSH2 0x3973 JUMP JUMPDEST PUSH1 0x40 MLOAD DUP1 SWAP2 SUB SWAP1 REVERT JUMPDEST PUSH1 0x3 DUP1 DUP2 GT ISZERO PUSH2 0x2BCD JUMPI PUSH2 0x2BCC PUSH2 0x4DFB JUMP JUMPDEST JUMPDEST DUP3 PUSH1 0x3 DUP2 GT ISZERO PUSH2 0x2BE0 JUMPI PUSH2 0x2BDF PUSH2 0x4DFB JUMP JUMPDEST JUMPDEST SUB PUSH2 0x2C22 JUMPI DUP1 PUSH1 0x40 MLOAD PUSH32 0xD78BCE0C00000000000000000000000000000000000000000000000000000000 DUP2 MSTORE PUSH1 0x4 ADD PUSH2 0x2C19 SWAP2 SWAP1 PUSH2 0x3F9E JUMP JUMPDEST PUSH1 0x40 MLOAD DUP1 SWAP2 SUB SWAP1 REVERT JUMPDEST JUMPDEST POP POP JUMP JUMPDEST PUSH1 0x60 PUSH1 0xFF PUSH0 SHL DUP4 EQ PUSH2 0x2C43 JUMPI PUSH2 0x2C3C DUP4 PUSH2 0x318D JUMP JUMPDEST SWAP1 POP PUSH2 0x2CCE JUMP JUMPDEST DUP2 DUP1 SLOAD PUSH2 0x2C4F SWAP1 PUSH2 0x43C6 JUMP JUMPDEST DUP1 PUSH1 0x1F ADD PUSH1 0x20 DUP1 SWAP2 DIV MUL PUSH1 0x20 ADD PUSH1 0x40 MLOAD SWAP1 DUP2 ADD PUSH1 0x40 MSTORE DUP1 SWAP3 SWAP2 SWAP1 DUP2 DUP2 MSTORE PUSH1 0x20 ADD DUP3 DUP1 SLOAD PUSH2 0x2C7B SWAP1 PUSH2 0x43C6 JUMP JUMPDEST DUP1 ISZERO PUSH2 0x2CC6 JUMPI DUP1 PUSH1 0x1F LT PUSH2 0x2C9D JUMPI PUSH2 0x100 DUP1 DUP4 SLOAD DIV MUL DUP4 MSTORE SWAP2 PUSH1 0x20 ADD SWAP2 PUSH2 0x2CC6 JUMP JUMPDEST DUP3 ADD SWAP2 SWAP1 PUSH0 MSTORE PUSH1 0x20 PUSH0 KECCAK256 SWAP1 JUMPDEST DUP2 SLOAD DUP2 MSTORE SWAP1 PUSH1 0x1 ADD SWAP1 PUSH1 0x20 ADD DUP1 DUP4 GT PUSH2 0x2CA9 JUMPI DUP3 SWAP1 SUB PUSH1 0x1F AND DUP3 ADD SWAP2 JUMPDEST POP POP POP POP POP SWAP1 POP JUMPDEST SWAP3 SWAP2 POP POP JUMP JUMPDEST PUSH1 0x60 PUSH1 0x40 MLOAD DUP1 PUSH1 0x20 ADD PUSH1 0x40 MSTORE DUP1 PUSH0 DUP2 MSTORE POP SWAP1 POP SWAP1 JUMP JUMPDEST PUSH1 0x60 PUSH2 0x2CF5 DUP3 PUSH2 0x1CD6 JUMP JUMPDEST POP PUSH0 PUSH2 0x2CFF PUSH2 0x2CD4 JUMP JUMPDEST SWAP1 POP PUSH0 DUP2 MLOAD GT PUSH2 0x2D1D JUMPI PUSH1 0x40 MLOAD DUP1 PUSH1 0x20 ADD PUSH1 0x40 MSTORE DUP1 PUSH0 DUP2 MSTORE POP PUSH2 0x2D48 JUMP JUMPDEST DUP1 PUSH2 0x2D27 DUP5 PUSH2 0x31FF JUMP JUMPDEST PUSH1 0x40 MLOAD PUSH1 0x20 ADD PUSH2 0x2D38 SWAP3 SWAP2 SWAP1 PUSH2 0x4B6C JUMP JUMPDEST PUSH1 0x40 MLOAD PUSH1 0x20 DUP2 DUP4 SUB SUB DUP2 MSTORE SWAP1 PUSH1 0x40 MSTORE JUMPDEST SWAP2 POP POP SWAP2 SWAP1 POP JUMP JUMPDEST PUSH0 PUSH32 0x1FFC9A700000000000000000000000000000000000000000000000000000000 PUSH28 0xFFFFFFFFFFFFFFFFFFFFFFFFFFFFFFFFFFFFFFFFFFFFFFFFFFFFFFFF NOT AND DUP3 PUSH28 0xFFFFFFFFFFFFFFFFFFFFFFFFFFFFFFFFFFFFFFFFFFFFFFFFFFFFFFFF NOT AND EQ SWAP1 POP SWAP2 SWAP1 POP JUMP JUMPDEST PUSH0 DUP1 PUSH2 0x2DC4 DUP5 PUSH2 0x261F JUMP JUMPDEST SWAP1 POP PUSH0 PUSH20 0xFFFFFFFFFFFFFFFFFFFFFFFFFFFFFFFFFFFFFFFF AND DUP4 PUSH20 0xFFFFFFFFFFFFFFFFFFFFFFFFFFFFFFFFFFFFFFFF AND EQ PUSH2 0x2E05 JUMPI PUSH2 0x2E04 DUP2 DUP5 DUP7 PUSH2 0x32C9 JUMP JUMPDEST JUMPDEST PUSH0 PUSH20 0xFFFFFFFFFFFFFFFFFFFFFFFFFFFFFFFFFFFFFFFF AND DUP2 PUSH20 0xFFFFFFFFFFFFFFFFFFFFFFFFFFFFFFFFFFFFFFFF AND EQ PUSH2 0x2E90 JUMPI PUSH2 0x2E44 PUSH0 DUP6 PUSH0 DUP1 PUSH2 0x2658 JUMP JUMPDEST PUSH1 0x1 PUSH1 0x3 PUSH0 DUP4 PUSH20 0xFFFFFFFFFFFFFFFFFFFFFFFFFFFFFFFFFFFFFFFF AND PUSH20 0xFFFFFFFFFFFFFFFFFFFFFFFFFFFFFFFFFFFFFFFF AND DUP2 MSTORE PUSH1 0x20 ADD SWAP1 DUP2 MSTORE PUSH1 0x20 ADD PUSH0 KECCAK256 PUSH0 DUP3 DUP3 SLOAD SUB SWAP3 POP POP DUP2 SWAP1 SSTORE POP JUMPDEST PUSH0 PUSH20 0xFFFFFFFFFFFFFFFFFFFFFFFFFFFFFFFFFFFFFFFF AND DUP6 PUSH20 0xFFFFFFFFFFFFFFFFFFFFFFFFFFFFFFFFFFFFFFFF AND EQ PUSH2 0x2F0F JUMPI PUSH1 0x1 PUSH1 0x3 PUSH0 DUP8 PUSH20 0xFFFFFFFFFFFFFFFFFFFFFFFFFFFFFFFFFFFFFFFF AND PUSH20 0xFFFFFFFFFFFFFFFFFFFFFFFFFFFFFFFFFFFFFFFF AND DUP2 MSTORE PUSH1 0x20 ADD SWAP1 DUP2 MSTORE PUSH1 0x20 ADD PUSH0 KECCAK256 PUSH0 DUP3 DUP3 SLOAD ADD SWAP3 POP POP DUP2 SWAP1 SSTORE POP JUMPDEST DUP5 PUSH1 0x2 PUSH0 DUP7 DUP2 MSTORE PUSH1 0x20 ADD SWAP1 DUP2 MSTORE PUSH1 0x20 ADD PUSH0 KECCAK256 PUSH0 PUSH2 0x100 EXP DUP2 SLOAD DUP2 PUSH20 0xFFFFFFFFFFFFFFFFFFFFFFFFFFFFFFFFFFFFFFFF MUL NOT AND SWAP1 DUP4 PUSH20 0xFFFFFFFFFFFFFFFFFFFFFFFFFFFFFFFFFFFFFFFF AND MUL OR SWAP1 SSTORE POP DUP4 DUP6 PUSH20 0xFFFFFFFFFFFFFFFFFFFFFFFFFFFFFFFFFFFFFFFF AND DUP3 PUSH20 0xFFFFFFFFFFFFFFFFFFFFFFFFFFFFFFFFFFFFFFFF AND PUSH32 0xDDF252AD1BE2C89B69C2B068FC378DAA952BA7F163C4A11628F55A4DF523B3EF PUSH1 0x40 MLOAD PUSH1 0x40 MLOAD DUP1 SWAP2 SUB SWAP1 LOG4 DUP1 SWAP2 POP POP SWAP4 SWAP3 POP POP POP JUMP JUMPDEST PUSH0 DUP2 DUP4 LT PUSH2 0x2FDB JUMPI PUSH2 0x2FD6 DUP3 DUP5 PUSH2 0x338C JUMP JUMPDEST PUSH2 0x2FE6 JUMP JUMPDEST PUSH2 0x2FE5 DUP4 DUP4 PUSH2 0x338C JUMP JUMPDEST JUMPDEST SWAP1 POP SWAP3 SWAP2 POP POP JUMP JUMPDEST PUSH2 0x2FF8 DUP4 DUP4 PUSH2 0x33A0 JUMP JUMPDEST PUSH2 0x300C PUSH2 0x3003 PUSH2 0x1D95 JUMP JUMPDEST PUSH0 DUP6 DUP6 DUP6 PUSH2 0x2287 JUMP JUMPDEST POP POP POP JUMP JUMPDEST PUSH0 PUSH32 0x8B73C3C69BB8FE3D512ECC4CF759CC79239F7B179B0FFACAA9A75D522B39400F PUSH32 0x0 PUSH32 0x0 CHAINID ADDRESS PUSH1 0x40 MLOAD PUSH1 0x20 ADD PUSH2 0x308B SWAP6 SWAP5 SWAP4 SWAP3 SWAP2 SWAP1 PUSH2 0x4E28 JUMP JUMPDEST PUSH1 0x40 MLOAD PUSH1 0x20 DUP2 DUP4 SUB SUB DUP2 MSTORE SWAP1 PUSH1 0x40 MSTORE DUP1 MLOAD SWAP1 PUSH1 0x20 ADD KECCAK256 SWAP1 POP SWAP1 JUMP JUMPDEST PUSH0 DUP1 PUSH0 PUSH32 0x7FFFFFFFFFFFFFFFFFFFFFFFFFFFFFFF5D576E7357A4501DDFE92F46681B20A0 DUP5 PUSH0 SHR GT ISZERO PUSH2 0x30E2 JUMPI PUSH0 PUSH1 0x3 DUP6 SWAP3 POP SWAP3 POP SWAP3 POP PUSH2 0x3183 JUMP JUMPDEST PUSH0 PUSH1 0x1 DUP9 DUP9 DUP9 DUP9 PUSH1 0x40 MLOAD PUSH0 DUP2 MSTORE PUSH1 0x20 ADD PUSH1 0x40 MSTORE PUSH1 0x40 MLOAD PUSH2 0x3105 SWAP5 SWAP4 SWAP3 SWAP2 SWAP1 PUSH2 0x4E94 JUMP JUMPDEST PUSH1 0x20 PUSH1 0x40 MLOAD PUSH1 0x20 DUP2 SUB SWAP1 DUP1 DUP5 SUB SWAP1 DUP6 GAS STATICCALL ISZERO DUP1 ISZERO PUSH2 0x3125 JUMPI RETURNDATASIZE PUSH0 DUP1 RETURNDATACOPY RETURNDATASIZE PUSH0 REVERT JUMPDEST POP POP POP PUSH1 0x20 PUSH1 0x40 MLOAD SUB MLOAD SWAP1 POP PUSH0 PUSH20 0xFFFFFFFFFFFFFFFFFFFFFFFFFFFFFFFFFFFFFFFF AND DUP2 PUSH20 0xFFFFFFFFFFFFFFFFFFFFFFFFFFFFFFFFFFFFFFFF AND SUB PUSH2 0x3176 JUMPI PUSH0 PUSH1 0x1 PUSH0 DUP1 SHL SWAP4 POP SWAP4 POP SWAP4 POP POP PUSH2 0x3183 JUMP JUMPDEST DUP1 PUSH0 DUP1 PUSH0 SHL SWAP4 POP SWAP4 POP SWAP4 POP POP JUMPDEST SWAP5 POP SWAP5 POP SWAP5 SWAP2 POP POP JUMP JUMPDEST PUSH1 0x60 PUSH0 PUSH2 0x3199 DUP4 PUSH2 0x3493 JUMP JUMPDEST SWAP1 POP PUSH0 PUSH1 0x20 PUSH8 0xFFFFFFFFFFFFFFFF DUP2 GT ISZERO PUSH2 0x31B7 JUMPI PUSH2 0x31B6 PUSH2 0x39E0 JUMP JUMPDEST JUMPDEST PUSH1 0x40 MLOAD SWAP1 DUP1 DUP3 MSTORE DUP1 PUSH1 0x1F ADD PUSH1 0x1F NOT AND PUSH1 0x20 ADD DUP3 ADD PUSH1 0x40 MSTORE DUP1 ISZERO PUSH2 0x31E9 JUMPI DUP2 PUSH1 0x20 ADD PUSH1 0x1 DUP3 MUL DUP1 CALLDATASIZE DUP4 CALLDATACOPY DUP1 DUP3 ADD SWAP2 POP POP SWAP1 POP JUMPDEST POP SWAP1 POP DUP2 DUP2 MSTORE DUP4 PUSH1 0x20 DUP3 ADD MSTORE DUP1 SWAP3 POP POP POP SWAP2 SWAP1 POP JUMP JUMPDEST PUSH1 0x60 PUSH0 PUSH1 0x1 PUSH2 0x320D DUP5 PUSH2 0x34E1 JUMP JUMPDEST ADD SWAP1 POP PUSH0 DUP2 PUSH8 0xFFFFFFFFFFFFFFFF DUP2 GT ISZERO PUSH2 0x322B JUMPI PUSH2 0x322A PUSH2 0x39E0 JUMP JUMPDEST JUMPDEST PUSH1 0x40 MLOAD SWAP1 DUP1 DUP3 MSTORE DUP1 PUSH1 0x1F ADD PUSH1 0x1F NOT AND PUSH1 0x20 ADD DUP3 ADD PUSH1 0x40 MSTORE DUP1 ISZERO PUSH2 0x325D JUMPI DUP2 PUSH1 0x20 ADD PUSH1 0x1 DUP3 MUL DUP1 CALLDATASIZE DUP4 CALLDATACOPY DUP1 DUP3 ADD SWAP2 POP POP SWAP1 POP JUMPDEST POP SWAP1 POP PUSH0 DUP3 PUSH1 0x20 ADD DUP3 ADD SWAP1 POP JUMPDEST PUSH1 0x1 ISZERO PUSH2 0x32BE JUMPI DUP1 DUP1 PUSH1 0x1 SWAP1 SUB SWAP2 POP POP PUSH32 0x3031323334353637383961626364656600000000000000000000000000000000 PUSH1 0xA DUP7 MOD BYTE DUP2 MSTORE8 PUSH1 0xA DUP6 DUP2 PUSH2 0x32B3 JUMPI PUSH2 0x32B2 PUSH2 0x4ED7 JUMP JUMPDEST JUMPDEST DIV SWAP5 POP PUSH0 DUP6 SUB PUSH2 0x326A JUMPI JUMPDEST DUP2 SWAP4 POP POP POP POP SWAP2 SWAP1 POP JUMP JUMPDEST PUSH2 0x32D4 DUP4 DUP4 DUP4 PUSH2 0x3632 JUMP JUMPDEST PUSH2 0x3387 JUMPI PUSH0 PUSH20 0xFFFFFFFFFFFFFFFFFFFFFFFFFFFFFFFFFFFFFFFF AND DUP4 PUSH20 0xFFFFFFFFFFFFFFFFFFFFFFFFFFFFFFFFFFFFFFFF AND SUB PUSH2 0x3348 JUMPI DUP1 PUSH1 0x40 MLOAD PUSH32 0x7E27328900000000000000000000000000000000000000000000000000000000 DUP2 MSTORE PUSH1 0x4 ADD PUSH2 0x333F SWAP2 SWAP1 PUSH2 0x3973 JUMP JUMPDEST PUSH1 0x40 MLOAD DUP1 SWAP2 SUB SWAP1 REVERT JUMPDEST DUP2 DUP2 PUSH1 0x40 MLOAD PUSH32 0x177E802F00000000000000000000000000000000000000000000000000000000 DUP2 MSTORE PUSH1 0x4 ADD PUSH2 0x337E SWAP3 SWAP2 SWAP1 PUSH2 0x4F04 JUMP JUMPDEST PUSH1 0x40 MLOAD DUP1 SWAP2 SUB SWAP1 REVERT JUMPDEST POP POP POP JUMP JUMPDEST PUSH0 DUP3 PUSH0 MSTORE DUP2 PUSH1 0x20 MSTORE PUSH1 0x40 PUSH0 KECCAK256 SWAP1 POP SWAP3 SWAP2 POP POP JUMP JUMPDEST PUSH0 PUSH20 0xFFFFFFFFFFFFFFFFFFFFFFFFFFFFFFFFFFFFFFFF AND DUP3 PUSH20 0xFFFFFFFFFFFFFFFFFFFFFFFFFFFFFFFFFFFFFFFF AND SUB PUSH2 0x3410 JUMPI PUSH0 PUSH1 0x40 MLOAD PUSH32 0x64A0AE9200000000000000000000000000000000000000000000000000000000 DUP2 MSTORE PUSH1 0x4 ADD PUSH2 0x3407 SWAP2 SWAP1 PUSH2 0x38E3 JUMP JUMPDEST PUSH1 0x40 MLOAD DUP1 SWAP2 SUB SWAP1 REVERT JUMPDEST PUSH0 PUSH2 0x341C DUP4 DUP4 PUSH0 PUSH2 0x1DAE JUMP JUMPDEST SWAP1 POP PUSH0 PUSH20 0xFFFFFFFFFFFFFFFFFFFFFFFFFFFFFFFFFFFFFFFF AND DUP2 PUSH20 0xFFFFFFFFFFFFFFFFFFFFFFFFFFFFFFFFFFFFFFFF AND EQ PUSH2 0x348E JUMPI PUSH0 PUSH1 0x40 MLOAD PUSH32 0x73C6AC6E00000000000000000000000000000000000000000000000000000000 DUP2 MSTORE PUSH1 0x4 ADD PUSH2 0x3485 SWAP2 SWAP1 PUSH2 0x38E3 JUMP JUMPDEST PUSH1 0x40 MLOAD DUP1 SWAP2 SUB SWAP1 REVERT JUMPDEST POP POP POP JUMP JUMPDEST PUSH0 DUP1 PUSH1 0xFF DUP4 PUSH0 SHR AND SWAP1 POP PUSH1 0x1F DUP2 GT ISZERO PUSH2 0x34D8 JUMPI PUSH1 0x40 MLOAD PUSH32 0xB3512B0C00000000000000000000000000000000000000000000000000000000 DUP2 MSTORE PUSH1 0x4 ADD PUSH1 0x40 MLOAD DUP1 SWAP2 SUB SWAP1 REVERT JUMPDEST DUP1 SWAP2 POP POP SWAP2 SWAP1 POP JUMP JUMPDEST PUSH0 DUP1 PUSH0 SWAP1 POP PUSH27 0x184F03E93FF9F4DAA797ED6E38ED64BF6A1F010000000000000000 DUP4 LT PUSH2 0x353D JUMPI PUSH27 0x184F03E93FF9F4DAA797ED6E38ED64BF6A1F010000000000000000 DUP4 DUP2 PUSH2 0x3533 JUMPI PUSH2 0x3532 PUSH2 0x4ED7 JUMP JUMPDEST JUMPDEST DIV SWAP3 POP PUSH1 0x40 DUP2 ADD SWAP1 POP JUMPDEST PUSH14 0x4EE2D6D415B85ACEF8100000000 DUP4 LT PUSH2 0x357A JUMPI PUSH14 0x4EE2D6D415B85ACEF8100000000 DUP4 DUP2 PUSH2 0x3570 JUMPI PUSH2 0x356F PUSH2 0x4ED7 JUMP JUMPDEST JUMPDEST DIV SWAP3 POP PUSH1 0x20 DUP2 ADD SWAP1 POP JUMPDEST PUSH7 0x2386F26FC10000 DUP4 LT PUSH2 0x35A9 JUMPI PUSH7 0x2386F26FC10000 DUP4 DUP2 PUSH2 0x359F JUMPI PUSH2 0x359E PUSH2 0x4ED7 JUMP JUMPDEST JUMPDEST DIV SWAP3 POP PUSH1 0x10 DUP2 ADD SWAP1 POP JUMPDEST PUSH4 0x5F5E100 DUP4 LT PUSH2 0x35D2 JUMPI PUSH4 0x5F5E100 DUP4 DUP2 PUSH2 0x35C8 JUMPI PUSH2 0x35C7 PUSH2 0x4ED7 JUMP JUMPDEST JUMPDEST DIV SWAP3 POP PUSH1 0x8 DUP2 ADD SWAP1 POP JUMPDEST PUSH2 0x2710 DUP4 LT PUSH2 0x35F7 JUMPI PUSH2 0x2710 DUP4 DUP2 PUSH2 0x35ED JUMPI PUSH2 0x35EC PUSH2 0x4ED7 JUMP JUMPDEST JUMPDEST DIV SWAP3 POP PUSH1 0x4 DUP2 ADD SWAP1 POP JUMPDEST PUSH1 0x64 DUP4 LT PUSH2 0x361A JUMPI PUSH1 0x64 DUP4 DUP2 PUSH2 0x3610 JUMPI PUSH2 0x360F PUSH2 0x4ED7 JUMP JUMPDEST JUMPDEST DIV SWAP3 POP PUSH1 0x2 DUP2 ADD SWAP1 POP JUMPDEST PUSH1 0xA DUP4 LT PUSH2 0x3629 JUMPI PUSH1 0x1 DUP2 ADD SWAP1 POP JUMPDEST DUP1 SWAP2 POP POP SWAP2 SWAP1 POP JUMP JUMPDEST PUSH0 DUP1 PUSH20 0xFFFFFFFFFFFFFFFFFFFFFFFFFFFFFFFFFFFFFFFF AND DUP4 PUSH20 0xFFFFFFFFFFFFFFFFFFFFFFFFFFFFFFFFFFFFFFFF AND EQ ISZERO DUP1 ISZERO PUSH2 0x36E9 JUMPI POP DUP3 PUSH20 0xFFFFFFFFFFFFFFFFFFFFFFFFFFFFFFFFFFFFFFFF AND DUP5 PUSH20 0xFFFFFFFFFFFFFFFFFFFFFFFFFFFFFFFFFFFFFFFF AND EQ DUP1 PUSH2 0x36AA JUMPI POP PUSH2 0x36A9 DUP5 DUP5 PUSH2 0x1ADD JUMP JUMPDEST JUMPDEST DUP1 PUSH2 0x36E8 JUMPI POP DUP3 PUSH20 0xFFFFFFFFFFFFFFFFFFFFFFFFFFFFFFFFFFFFFFFF AND PUSH2 0x36D0 DUP4 PUSH2 0x1D5C JUMP JUMPDEST PUSH20 0xFFFFFFFFFFFFFFFFFFFFFFFFFFFFFFFFFFFFFFFF AND EQ JUMPDEST JUMPDEST SWAP1 POP SWAP4 SWAP3 POP POP POP JUMP JUMPDEST PUSH0 PUSH1 0x40 MLOAD SWAP1 POP SWAP1 JUMP JUMPDEST PUSH0 DUP1 REVERT JUMPDEST PUSH0 DUP1 REVERT JUMPDEST PUSH0 PUSH32 0xFFFFFFFF00000000000000000000000000000000000000000000000000000000 DUP3 AND SWAP1 POP SWAP2 SWAP1 POP JUMP JUMPDEST PUSH2 0x3737 DUP2 PUSH2 0x3703 JUMP JUMPDEST DUP2 EQ PUSH2 0x3741 JUMPI PUSH0 DUP1 REVERT JUMPDEST POP JUMP JUMPDEST PUSH0 DUP2 CALLDATALOAD SWAP1 POP PUSH2 0x3752 DUP2 PUSH2 0x372E JUMP JUMPDEST SWAP3 SWAP2 POP POP JUMP JUMPDEST PUSH0 PUSH1 0x20 DUP3 DUP5 SUB SLT ISZERO PUSH2 0x376D JUMPI PUSH2 0x376C PUSH2 0x36FB JUMP JUMPDEST JUMPDEST PUSH0 PUSH2 0x377A DUP5 DUP3 DUP6 ADD PUSH2 0x3744 JUMP JUMPDEST SWAP2 POP POP SWAP3 SWAP2 POP POP JUMP JUMPDEST PUSH0 DUP2 ISZERO ISZERO SWAP1 POP SWAP2 SWAP1 POP JUMP JUMPDEST PUSH2 0x3797 DUP2 PUSH2 0x3783 JUMP JUMPDEST DUP3 MSTORE POP POP JUMP JUMPDEST PUSH0 PUSH1 0x20 DUP3 ADD SWAP1 POP PUSH2 0x37B0 PUSH0 DUP4 ADD DUP5 PUSH2 0x378E JUMP JUMPDEST SWAP3 SWAP2 POP POP JUMP JUMPDEST PUSH0 DUP2 MLOAD SWAP1 POP SWAP2 SWAP1 POP JUMP JUMPDEST PUSH0 DUP3 DUP3 MSTORE PUSH1 0x20 DUP3 ADD SWAP1 POP SWAP3 SWAP2 POP POP JUMP JUMPDEST DUP3 DUP2 DUP4 MCOPY PUSH0 DUP4 DUP4 ADD MSTORE POP POP POP JUMP JUMPDEST PUSH0 PUSH1 0x1F NOT PUSH1 0x1F DUP4 ADD AND SWAP1 POP SWAP2 SWAP1 POP JUMP JUMPDEST PUSH0 PUSH2 0x37F8 DUP3 PUSH2 0x37B6 JUMP JUMPDEST PUSH2 0x3802 DUP2 DUP6 PUSH2 0x37C0 JUMP JUMPDEST SWAP4 POP PUSH2 0x3812 DUP2 DUP6 PUSH1 0x20 DUP7 ADD PUSH2 0x37D0 JUMP JUMPDEST PUSH2 0x381B DUP2 PUSH2 0x37DE JUMP JUMPDEST DUP5 ADD SWAP2 POP POP SWAP3 SWAP2 POP POP JUMP JUMPDEST PUSH0 PUSH1 0x20 DUP3 ADD SWAP1 POP DUP2 DUP2 SUB PUSH0 DUP4 ADD MSTORE PUSH2 0x383E DUP2 DUP5 PUSH2 0x37EE JUMP JUMPDEST SWAP1 POP SWAP3 SWAP2 POP POP JUMP JUMPDEST PUSH0 DUP2 SWAP1 POP SWAP2 SWAP1 POP JUMP JUMPDEST PUSH2 0x3858 DUP2 PUSH2 0x3846 JUMP JUMPDEST DUP2 EQ PUSH2 0x3862 JUMPI PUSH0 DUP1 REVERT JUMPDEST POP JUMP JUMPDEST PUSH0 DUP2 CALLDATALOAD SWAP1 POP PUSH2 0x3873 DUP2 PUSH2 0x384F JUMP JUMPDEST SWAP3 SWAP2 POP POP JUMP JUMPDEST PUSH0 PUSH1 0x20 DUP3 DUP5 SUB SLT ISZERO PUSH2 0x388E JUMPI PUSH2 0x388D PUSH2 0x36FB JUMP JUMPDEST JUMPDEST PUSH0 PUSH2 0x389B DUP5 DUP3 DUP6 ADD PUSH2 0x3865 JUMP JUMPDEST SWAP2 POP POP SWAP3 SWAP2 POP POP JUMP JUMPDEST PUSH0 PUSH20 0xFFFFFFFFFFFFFFFFFFFFFFFFFFFFFFFFFFFFFFFF DUP3 AND SWAP1 POP SWAP2 SWAP1 POP JUMP JUMPDEST PUSH0 PUSH2 0x38CD DUP3 PUSH2 0x38A4 JUMP JUMPDEST SWAP1 POP SWAP2 SWAP1 POP JUMP JUMPDEST PUSH2 0x38DD DUP2 PUSH2 0x38C3 JUMP JUMPDEST DUP3 MSTORE POP POP JUMP JUMPDEST PUSH0 PUSH1 0x20 DUP3 ADD SWAP1 POP PUSH2 0x38F6 PUSH0 DUP4 ADD DUP5 PUSH2 0x38D4 JUMP JUMPDEST SWAP3 SWAP2 POP POP JUMP JUMPDEST PUSH2 0x3905 DUP2 PUSH2 0x38C3 JUMP JUMPDEST DUP2 EQ PUSH2 0x390F JUMPI PUSH0 DUP1 REVERT JUMPDEST POP JUMP JUMPDEST PUSH0 DUP2 CALLDATALOAD SWAP1 POP PUSH2 0x3920 DUP2 PUSH2 0x38FC JUMP JUMPDEST SWAP3 SWAP2 POP POP JUMP JUMPDEST PUSH0 DUP1 PUSH1 0x40 DUP4 DUP6 SUB SLT ISZERO PUSH2 0x393C JUMPI PUSH2 0x393B PUSH2 0x36FB JUMP JUMPDEST JUMPDEST PUSH0 PUSH2 0x3949 DUP6 DUP3 DUP7 ADD PUSH2 0x3912 JUMP JUMPDEST SWAP3 POP POP PUSH1 0x20 PUSH2 0x395A DUP6 DUP3 DUP7 ADD PUSH2 0x3865 JUMP JUMPDEST SWAP2 POP POP SWAP3 POP SWAP3 SWAP1 POP JUMP JUMPDEST PUSH2 0x396D DUP2 PUSH2 0x3846 JUMP JUMPDEST DUP3 MSTORE POP POP JUMP JUMPDEST PUSH0 PUSH1 0x20 DUP3 ADD SWAP1 POP PUSH2 0x3986 PUSH0 DUP4 ADD DUP5 PUSH2 0x3964 JUMP JUMPDEST SWAP3 SWAP2 POP POP JUMP JUMPDEST PUSH0 DUP1 PUSH0 PUSH1 0x60 DUP5 DUP7 SUB SLT ISZERO PUSH2 0x39A3 JUMPI PUSH2 0x39A2 PUSH2 0x36FB JUMP JUMPDEST JUMPDEST PUSH0 PUSH2 0x39B0 DUP7 DUP3 DUP8 ADD PUSH2 0x3912 JUMP JUMPDEST SWAP4 POP POP PUSH1 0x20 PUSH2 0x39C1 DUP7 DUP3 DUP8 ADD PUSH2 0x3912 JUMP JUMPDEST SWAP3 POP POP PUSH1 0x40 PUSH2 0x39D2 DUP7 DUP3 DUP8 ADD PUSH2 0x3865 JUMP JUMPDEST SWAP2 POP POP SWAP3 POP SWAP3 POP SWAP3 JUMP JUMPDEST PUSH0 DUP1 REVERT JUMPDEST PUSH32 0x4E487B7100000000000000000000000000000000000000000000000000000000 PUSH0 MSTORE PUSH1 0x41 PUSH1 0x4 MSTORE PUSH1 0x24 PUSH0 REVERT JUMPDEST PUSH2 0x3A16 DUP3 PUSH2 0x37DE JUMP JUMPDEST DUP2 ADD DUP2 DUP2 LT PUSH8 0xFFFFFFFFFFFFFFFF DUP3 GT OR ISZERO PUSH2 0x3A35 JUMPI PUSH2 0x3A34 PUSH2 0x39E0 JUMP JUMPDEST JUMPDEST DUP1 PUSH1 0x40 MSTORE POP POP POP JUMP JUMPDEST PUSH0 PUSH2 0x3A47 PUSH2 0x36F2 JUMP JUMPDEST SWAP1 POP PUSH2 0x3A53 DUP3 DUP3 PUSH2 0x3A0D JUMP JUMPDEST SWAP2 SWAP1 POP JUMP JUMPDEST PUSH0 PUSH8 0xFFFFFFFFFFFFFFFF DUP3 GT ISZERO PUSH2 0x3A72 JUMPI PUSH2 0x3A71 PUSH2 0x39E0 JUMP JUMPDEST JUMPDEST PUSH1 0x20 DUP3 MUL SWAP1 POP PUSH1 0x20 DUP2 ADD SWAP1 POP SWAP2 SWAP1 POP JUMP JUMPDEST PUSH0 DUP1 REVERT JUMPDEST PUSH0 DUP2 SWAP1 POP SWAP2 SWAP1 POP JUMP JUMPDEST PUSH2 0x3A99 DUP2 PUSH2 0x3A87 JUMP JUMPDEST DUP2 EQ PUSH2 0x3AA3 JUMPI PUSH0 DUP1 REVERT JUMPDEST POP JUMP JUMPDEST PUSH0 DUP2 CALLDATALOAD SWAP1 POP PUSH2 0x3AB4 DUP2 PUSH2 0x3A90 JUMP JUMPDEST SWAP3 SWAP2 POP POP JUMP JUMPDEST PUSH0 PUSH2 0x3ACC PUSH2 0x3AC7 DUP5 PUSH2 0x3A58 JUMP JUMPDEST PUSH2 0x3A3E JUMP JUMPDEST SWAP1 POP DUP1 DUP4 DUP3 MSTORE PUSH1 0x20 DUP3 ADD SWAP1 POP PUSH1 0x20 DUP5 MUL DUP4 ADD DUP6 DUP2 GT ISZERO PUSH2 0x3AEF JUMPI PUSH2 0x3AEE PUSH2 0x3A83 JUMP JUMPDEST JUMPDEST DUP4 JUMPDEST DUP2 DUP2 LT ISZERO PUSH2 0x3B18 JUMPI DUP1 PUSH2 0x3B04 DUP9 DUP3 PUSH2 0x3AA6 JUMP JUMPDEST DUP5 MSTORE PUSH1 0x20 DUP5 ADD SWAP4 POP POP PUSH1 0x20 DUP2 ADD SWAP1 POP PUSH2 0x3AF1 JUMP JUMPDEST POP POP POP SWAP4 SWAP3 POP POP POP JUMP JUMPDEST PUSH0 DUP3 PUSH1 0x1F DUP4 ADD SLT PUSH2 0x3B36 JUMPI PUSH2 0x3B35 PUSH2 0x39DC JUMP JUMPDEST JUMPDEST DUP2 CALLDATALOAD PUSH2 0x3B46 DUP5 DUP3 PUSH1 0x20 DUP7 ADD PUSH2 0x3ABA JUMP JUMPDEST SWAP2 POP POP SWAP3 SWAP2 POP POP JUMP JUMPDEST PUSH0 DUP1 PUSH1 0x40 DUP4 DUP6 SUB SLT ISZERO PUSH2 0x3B65 JUMPI PUSH2 0x3B64 PUSH2 0x36FB JUMP JUMPDEST JUMPDEST PUSH0 DUP4 ADD CALLDATALOAD PUSH8 0xFFFFFFFFFFFFFFFF DUP2 GT ISZERO PUSH2 0x3B82 JUMPI PUSH2 0x3B81 PUSH2 0x36FF JUMP JUMPDEST JUMPDEST PUSH2 0x3B8E DUP6 DUP3 DUP7 ADD PUSH2 0x3B22 JUMP JUMPDEST SWAP3 POP POP PUSH1 0x20 PUSH2 0x3B9F DUP6 DUP3 DUP7 ADD PUSH2 0x3AA6 JUMP JUMPDEST SWAP2 POP POP SWAP3 POP SWAP3 SWAP1 POP JUMP JUMPDEST PUSH0 DUP1 REVERT JUMPDEST PUSH0 PUSH8 0xFFFFFFFFFFFFFFFF DUP3 GT ISZERO PUSH2 0x3BC7 JUMPI PUSH2 0x3BC6 PUSH2 0x39E0 JUMP JUMPDEST JUMPDEST PUSH2 0x3BD0 DUP3 PUSH2 0x37DE JUMP JUMPDEST SWAP1 POP PUSH1 0x20 DUP2 ADD SWAP1 POP SWAP2 SWAP1 POP JUMP JUMPDEST DUP3 DUP2 DUP4 CALLDATACOPY PUSH0 DUP4 DUP4 ADD MSTORE POP POP POP JUMP JUMPDEST PUSH0 PUSH2 0x3BFD PUSH2 0x3BF8 DUP5 PUSH2 0x3BAD JUMP JUMPDEST PUSH2 0x3A3E JUMP JUMPDEST SWAP1 POP DUP3 DUP2 MSTORE PUSH1 0x20 DUP2 ADD DUP5 DUP5 DUP5 ADD GT ISZERO PUSH2 0x3C19 JUMPI PUSH2 0x3C18 PUSH2 0x3BA9 JUMP JUMPDEST JUMPDEST PUSH2 0x3C24 DUP5 DUP3 DUP6 PUSH2 0x3BDD JUMP JUMPDEST POP SWAP4 SWAP3 POP POP POP JUMP JUMPDEST PUSH0 DUP3 PUSH1 0x1F DUP4 ADD SLT PUSH2 0x3C40 JUMPI PUSH2 0x3C3F PUSH2 0x39DC JUMP JUMPDEST JUMPDEST DUP2 CALLDATALOAD PUSH2 0x3C50 DUP5 DUP3 PUSH1 0x20 DUP7 ADD PUSH2 0x3BEB JUMP JUMPDEST SWAP2 POP POP SWAP3 SWAP2 POP POP JUMP JUMPDEST PUSH0 DUP1 PUSH0 DUP1 PUSH1 0x80 DUP6 DUP8 SUB SLT ISZERO PUSH2 0x3C71 JUMPI PUSH2 0x3C70 PUSH2 0x36FB JUMP JUMPDEST JUMPDEST PUSH0 PUSH2 0x3C7E DUP8 DUP3 DUP9 ADD PUSH2 0x3912 JUMP JUMPDEST SWAP5 POP POP PUSH1 0x20 PUSH2 0x3C8F DUP8 DUP3 DUP9 ADD PUSH2 0x3865 JUMP JUMPDEST SWAP4 POP POP PUSH1 0x40 DUP6 ADD CALLDATALOAD PUSH8 0xFFFFFFFFFFFFFFFF DUP2 GT ISZERO PUSH2 0x3CB0 JUMPI PUSH2 0x3CAF PUSH2 0x36FF JUMP JUMPDEST JUMPDEST PUSH2 0x3CBC DUP8 DUP3 DUP9 ADD PUSH2 0x3C2C JUMP JUMPDEST SWAP3 POP POP PUSH1 0x60 DUP6 ADD CALLDATALOAD PUSH8 0xFFFFFFFFFFFFFFFF DUP2 GT ISZERO PUSH2 0x3CDD JUMPI PUSH2 0x3CDC PUSH2 0x36FF JUMP JUMPDEST JUMPDEST PUSH2 0x3CE9 DUP8 DUP3 DUP9 ADD PUSH2 0x3B22 JUMP JUMPDEST SWAP2 POP POP SWAP3 SWAP6 SWAP2 SWAP5 POP SWAP3 POP JUMP JUMPDEST PUSH0 PUSH1 0x20 DUP3 DUP5 SUB SLT ISZERO PUSH2 0x3D0A JUMPI PUSH2 0x3D09 PUSH2 0x36FB JUMP JUMPDEST JUMPDEST PUSH0 PUSH2 0x3D17 DUP5 DUP3 DUP6 ADD PUSH2 0x3AA6 JUMP JUMPDEST SWAP2 POP POP SWAP3 SWAP2 POP POP JUMP JUMPDEST PUSH0 PUSH1 0x20 DUP3 DUP5 SUB SLT ISZERO PUSH2 0x3D35 JUMPI PUSH2 0x3D34 PUSH2 0x36FB JUMP JUMPDEST JUMPDEST PUSH0 PUSH2 0x3D42 DUP5 DUP3 DUP6 ADD PUSH2 0x3912 JUMP JUMPDEST SWAP2 POP POP SWAP3 SWAP2 POP POP JUMP JUMPDEST PUSH0 DUP1 REVERT JUMPDEST PUSH0 PUSH1 0x80 DUP3 DUP5 SUB SLT ISZERO PUSH2 0x3D64 JUMPI PUSH2 0x3D63 PUSH2 0x3D4B JUMP JUMPDEST JUMPDEST DUP2 SWAP1 POP SWAP3 SWAP2 POP POP JUMP JUMPDEST PUSH0 PUSH1 0x20 DUP3 DUP5 SUB SLT ISZERO PUSH2 0x3D82 JUMPI PUSH2 0x3D81 PUSH2 0x36FB JUMP JUMPDEST JUMPDEST PUSH0 DUP3 ADD CALLDATALOAD PUSH8 0xFFFFFFFFFFFFFFFF DUP2 GT ISZERO PUSH2 0x3D9F JUMPI PUSH2 0x3D9E PUSH2 0x36FF JUMP JUMPDEST JUMPDEST PUSH2 0x3DAB DUP5 DUP3 DUP6 ADD PUSH2 0x3D4F JUMP JUMPDEST SWAP2 POP POP SWAP3 SWAP2 POP POP JUMP JUMPDEST PUSH0 PUSH32 0xFF00000000000000000000000000000000000000000000000000000000000000 DUP3 AND SWAP1 POP SWAP2 SWAP1 POP JUMP JUMPDEST PUSH2 0x3DE8 DUP2 PUSH2 0x3DB4 JUMP JUMPDEST DUP3 MSTORE POP POP JUMP JUMPDEST PUSH2 0x3DF7 DUP2 PUSH2 0x3A87 JUMP JUMPDEST DUP3 MSTORE POP POP JUMP JUMPDEST PUSH0 DUP2 MLOAD SWAP1 POP SWAP2 SWAP1 POP JUMP JUMPDEST PUSH0 DUP3 DUP3 MSTORE PUSH1 0x20 DUP3 ADD SWAP1 POP SWAP3 SWAP2 POP POP JUMP JUMPDEST PUSH0 DUP2 SWAP1 POP PUSH1 0x20 DUP3 ADD SWAP1 POP SWAP2 SWAP1 POP JUMP JUMPDEST PUSH2 0x3E2F DUP2 PUSH2 0x3846 JUMP JUMPDEST DUP3 MSTORE POP POP JUMP JUMPDEST PUSH0 PUSH2 0x3E40 DUP4 DUP4 PUSH2 0x3E26 JUMP JUMPDEST PUSH1 0x20 DUP4 ADD SWAP1 POP SWAP3 SWAP2 POP POP JUMP JUMPDEST PUSH0 PUSH1 0x20 DUP3 ADD SWAP1 POP SWAP2 SWAP1 POP JUMP JUMPDEST PUSH0 PUSH2 0x3E62 DUP3 PUSH2 0x3DFD JUMP JUMPDEST PUSH2 0x3E6C DUP2 DUP6 PUSH2 0x3E07 JUMP JUMPDEST SWAP4 POP PUSH2 0x3E77 DUP4 PUSH2 0x3E17 JUMP JUMPDEST DUP1 PUSH0 JUMPDEST DUP4 DUP2 LT ISZERO PUSH2 0x3EA7 JUMPI DUP2 MLOAD PUSH2 0x3E8E DUP9 DUP3 PUSH2 0x3E35 JUMP JUMPDEST SWAP8 POP PUSH2 0x3E99 DUP4 PUSH2 0x3E4C JUMP JUMPDEST SWAP3 POP POP PUSH1 0x1 DUP2 ADD SWAP1 POP PUSH2 0x3E7A JUMP JUMPDEST POP DUP6 SWAP4 POP POP POP POP SWAP3 SWAP2 POP POP JUMP JUMPDEST PUSH0 PUSH1 0xE0 DUP3 ADD SWAP1 POP PUSH2 0x3EC7 PUSH0 DUP4 ADD DUP11 PUSH2 0x3DDF JUMP JUMPDEST DUP2 DUP2 SUB PUSH1 0x20 DUP4 ADD MSTORE PUSH2 0x3ED9 DUP2 DUP10 PUSH2 0x37EE JUMP JUMPDEST SWAP1 POP DUP2 DUP2 SUB PUSH1 0x40 DUP4 ADD MSTORE PUSH2 0x3EED DUP2 DUP9 PUSH2 0x37EE JUMP JUMPDEST SWAP1 POP PUSH2 0x3EFC PUSH1 0x60 DUP4 ADD DUP8 PUSH2 0x3964 JUMP JUMPDEST PUSH2 0x3F09 PUSH1 0x80 DUP4 ADD DUP7 PUSH2 0x38D4 JUMP JUMPDEST PUSH2 0x3F16 PUSH1 0xA0 DUP4 ADD DUP6 PUSH2 0x3DEE JUMP JUMPDEST DUP2 DUP2 SUB PUSH1 0xC0 DUP4 ADD MSTORE PUSH2 0x3F28 DUP2 DUP5 PUSH2 0x3E58 JUMP JUMPDEST SWAP1 POP SWAP9 SWAP8 POP POP POP POP POP POP POP POP JUMP JUMPDEST PUSH2 0x3F3F DUP2 PUSH2 0x3783 JUMP JUMPDEST DUP2 EQ PUSH2 0x3F49 JUMPI PUSH0 DUP1 REVERT JUMPDEST POP JUMP JUMPDEST PUSH0 DUP2 CALLDATALOAD SWAP1 POP PUSH2 0x3F5A DUP2 PUSH2 0x3F36 JUMP JUMPDEST SWAP3 SWAP2 POP POP JUMP JUMPDEST PUSH0 DUP1 PUSH1 0x40 DUP4 DUP6 SUB SLT ISZERO PUSH2 0x3F76 JUMPI PUSH2 0x3F75 PUSH2 0x36FB JUMP JUMPDEST JUMPDEST PUSH0 PUSH2 0x3F83 DUP6 DUP3 DUP7 ADD PUSH2 0x3912 JUMP JUMPDEST SWAP3 POP POP PUSH1 0x20 PUSH2 0x3F94 DUP6 DUP3 DUP7 ADD PUSH2 0x3F4C JUMP JUMPDEST SWAP2 POP POP SWAP3 POP SWAP3 SWAP1 POP JUMP JUMPDEST PUSH0 PUSH1 0x20 DUP3 ADD SWAP1 POP PUSH2 0x3FB1 PUSH0 DUP4 ADD DUP5 PUSH2 0x3DEE JUMP JUMPDEST SWAP3 SWAP2 POP POP JUMP JUMPDEST PUSH0 PUSH8 0xFFFFFFFFFFFFFFFF DUP3 GT ISZERO PUSH2 0x3FD1 JUMPI PUSH2 0x3FD0 PUSH2 0x39E0 JUMP JUMPDEST JUMPDEST PUSH2 0x3FDA DUP3 PUSH2 0x37DE JUMP JUMPDEST SWAP1 POP PUSH1 0x20 DUP2 ADD SWAP1 POP SWAP2 SWAP1 POP JUMP JUMPDEST PUSH0 PUSH2 0x3FF9 PUSH2 0x3FF4 DUP5 PUSH2 0x3FB7 JUMP JUMPDEST PUSH2 0x3A3E JUMP JUMPDEST SWAP1 POP DUP3 DUP2 MSTORE PUSH1 0x20 DUP2 ADD DUP5 DUP5 DUP5 ADD GT ISZERO PUSH2 0x4015 JUMPI PUSH2 0x4014 PUSH2 0x3BA9 JUMP JUMPDEST JUMPDEST PUSH2 0x4020 DUP5 DUP3 DUP6 PUSH2 0x3BDD JUMP JUMPDEST POP SWAP4 SWAP3 POP POP POP JUMP JUMPDEST PUSH0 DUP3 PUSH1 0x1F DUP4 ADD SLT PUSH2 0x403C JUMPI PUSH2 0x403B PUSH2 0x39DC JUMP JUMPDEST JUMPDEST DUP2 CALLDATALOAD PUSH2 0x404C DUP5 DUP3 PUSH1 0x20 DUP7 ADD PUSH2 0x3FE7 JUMP JUMPDEST SWAP2 POP POP SWAP3 SWAP2 POP POP JUMP JUMPDEST PUSH0 DUP1 PUSH0 DUP1 PUSH1 0x80 DUP6 DUP8 SUB SLT ISZERO PUSH2 0x406D JUMPI PUSH2 0x406C PUSH2 0x36FB JUMP JUMPDEST JUMPDEST PUSH0 PUSH2 0x407A DUP8 DUP3 DUP9 ADD PUSH2 0x3912 JUMP JUMPDEST SWAP5 POP POP PUSH1 0x20 PUSH2 0x408B DUP8 DUP3 DUP9 ADD PUSH2 0x3912 JUMP JUMPDEST SWAP4 POP POP PUSH1 0x40 PUSH2 0x409C DUP8 DUP3 DUP9 ADD PUSH2 0x3865 JUMP JUMPDEST SWAP3 POP POP PUSH1 0x60 DUP6 ADD CALLDATALOAD PUSH8 0xFFFFFFFFFFFFFFFF DUP2 GT ISZERO PUSH2 0x40BD JUMPI PUSH2 0x40BC PUSH2 0x36FF JUMP JUMPDEST JUMPDEST PUSH2 0x40C9 DUP8 DUP3 DUP9 ADD PUSH2 0x4028 JUMP JUMPDEST SWAP2 POP POP SWAP3 SWAP6 SWAP2 SWAP5 POP SWAP3 POP JUMP JUMPDEST PUSH0 PUSH8 0xFFFFFFFFFFFFFFFF DUP3 GT ISZERO PUSH2 0x40EF JUMPI PUSH2 0x40EE PUSH2 0x39E0 JUMP JUMPDEST JUMPDEST PUSH1 0x20 DUP3 MUL SWAP1 POP PUSH1 0x20 DUP2 ADD SWAP1 POP SWAP2 SWAP1 POP JUMP JUMPDEST PUSH0 PUSH2 0x4112 PUSH2 0x410D DUP5 PUSH2 0x40D5 JUMP JUMPDEST PUSH2 0x3A3E JUMP JUMPDEST SWAP1 POP DUP1 DUP4 DUP3 MSTORE PUSH1 0x20 DUP3 ADD SWAP1 POP PUSH1 0x20 DUP5 MUL DUP4 ADD DUP6 DUP2 GT ISZERO PUSH2 0x4135 JUMPI PUSH2 0x4134 PUSH2 0x3A83 JUMP JUMPDEST JUMPDEST DUP4 JUMPDEST DUP2 DUP2 LT ISZERO PUSH2 0x415E JUMPI DUP1 PUSH2 0x414A DUP9 DUP3 PUSH2 0x3865 JUMP JUMPDEST DUP5 MSTORE PUSH1 0x20 DUP5 ADD SWAP4 POP POP PUSH1 0x20 DUP2 ADD SWAP1 POP PUSH2 0x4137 JUMP JUMPDEST POP POP POP SWAP4 SWAP3 POP POP POP JUMP JUMPDEST PUSH0 DUP3 PUSH1 0x1F DUP4 ADD SLT PUSH2 0x417C JUMPI PUSH2 0x417B PUSH2 0x39DC JUMP JUMPDEST JUMPDEST DUP2 CALLDATALOAD PUSH2 0x418C DUP5 DUP3 PUSH1 0x20 DUP7 ADD PUSH2 0x4100 JUMP JUMPDEST SWAP2 POP POP SWAP3 SWAP2 POP POP JUMP JUMPDEST PUSH0 PUSH8 0xFFFFFFFFFFFFFFFF DUP3 GT ISZERO PUSH2 0x41AF JUMPI PUSH2 0x41AE PUSH2 0x39E0 JUMP JUMPDEST JUMPDEST PUSH1 0x20 DUP3 MUL SWAP1 POP PUSH1 0x20 DUP2 ADD SWAP1 POP SWAP2 SWAP1 POP JUMP JUMPDEST PUSH0 PUSH2 0x41D2 PUSH2 0x41CD DUP5 PUSH2 0x4195 JUMP JUMPDEST PUSH2 0x3A3E JUMP JUMPDEST SWAP1 POP DUP1 DUP4 DUP3 MSTORE PUSH1 0x20 DUP3 ADD SWAP1 POP PUSH1 0x20 DUP5 MUL DUP4 ADD DUP6 DUP2 GT ISZERO PUSH2 0x41F5 JUMPI PUSH2 0x41F4 PUSH2 0x3A83 JUMP JUMPDEST JUMPDEST DUP4 JUMPDEST DUP2 DUP2 LT ISZERO PUSH2 0x423C JUMPI DUP1 CALLDATALOAD PUSH8 0xFFFFFFFFFFFFFFFF DUP2 GT ISZERO PUSH2 0x421A JUMPI PUSH2 0x4219 PUSH2 0x39DC JUMP JUMPDEST JUMPDEST DUP1 DUP7 ADD PUSH2 0x4227 DUP10 DUP3 PUSH2 0x3C2C JUMP JUMPDEST DUP6 MSTORE PUSH1 0x20 DUP6 ADD SWAP5 POP POP POP PUSH1 0x20 DUP2 ADD SWAP1 POP PUSH2 0x41F7 JUMP JUMPDEST POP POP POP SWAP4 SWAP3 POP POP POP JUMP JUMPDEST PUSH0 DUP3 PUSH1 0x1F DUP4 ADD SLT PUSH2 0x425A JUMPI PUSH2 0x4259 PUSH2 0x39DC JUMP JUMPDEST JUMPDEST DUP2 CALLDATALOAD PUSH2 0x426A DUP5 DUP3 PUSH1 0x20 DUP7 ADD PUSH2 0x41C0 JUMP JUMPDEST SWAP2 POP POP SWAP3 SWAP2 POP POP JUMP JUMPDEST PUSH0 DUP1 PUSH0 PUSH1 0x60 DUP5 DUP7 SUB SLT ISZERO PUSH2 0x428A JUMPI PUSH2 0x4289 PUSH2 0x36FB JUMP JUMPDEST JUMPDEST PUSH0 PUSH2 0x4297 DUP7 DUP3 DUP8 ADD PUSH2 0x3912 JUMP JUMPDEST SWAP4 POP POP PUSH1 0x20 DUP5 ADD CALLDATALOAD PUSH8 0xFFFFFFFFFFFFFFFF DUP2 GT ISZERO PUSH2 0x42B8 JUMPI PUSH2 0x42B7 PUSH2 0x36FF JUMP JUMPDEST JUMPDEST PUSH2 0x42C4 DUP7 DUP3 DUP8 ADD PUSH2 0x4168 JUMP JUMPDEST SWAP3 POP POP PUSH1 0x40 DUP5 ADD CALLDATALOAD PUSH8 0xFFFFFFFFFFFFFFFF DUP2 GT ISZERO PUSH2 0x42E5 JUMPI PUSH2 0x42E4 PUSH2 0x36FF JUMP JUMPDEST JUMPDEST PUSH2 0x42F1 DUP7 DUP3 DUP8 ADD PUSH2 0x4246 JUMP JUMPDEST SWAP2 POP POP SWAP3 POP SWAP3 POP SWAP3 JUMP JUMPDEST PUSH0 DUP1 PUSH1 0x40 DUP4 DUP6 SUB SLT ISZERO PUSH2 0x4311 JUMPI PUSH2 0x4310 PUSH2 0x36FB JUMP JUMPDEST JUMPDEST PUSH0 PUSH2 0x431E DUP6 DUP3 DUP7 ADD PUSH2 0x3912 JUMP JUMPDEST SWAP3 POP POP PUSH1 0x20 PUSH2 0x432F DUP6 DUP3 DUP7 ADD PUSH2 0x3912 JUMP JUMPDEST SWAP2 POP POP SWAP3 POP SWAP3 SWAP1 POP JUMP JUMPDEST PUSH32 0x4E487B7100000000000000000000000000000000000000000000000000000000 PUSH0 MSTORE PUSH1 0x11 PUSH1 0x4 MSTORE PUSH1 0x24 PUSH0 REVERT JUMPDEST PUSH0 PUSH2 0x4370 DUP3 PUSH2 0x3846 JUMP JUMPDEST SWAP2 POP PUSH2 0x437B DUP4 PUSH2 0x3846 JUMP JUMPDEST SWAP3 POP DUP3 DUP3 ADD SWAP1 POP DUP1 DUP3 GT ISZERO PUSH2 0x4393 JUMPI PUSH2 0x4392 PUSH2 0x4339 JUMP JUMPDEST JUMPDEST SWAP3 SWAP2 POP POP JUMP JUMPDEST PUSH32 0x4E487B7100000000000000000000000000000000000000000000000000000000 PUSH0 MSTORE PUSH1 0x22 PUSH1 0x4 MSTORE PUSH1 0x24 PUSH0 REVERT JUMPDEST PUSH0 PUSH1 0x2 DUP3 DIV SWAP1 POP PUSH1 0x1 DUP3 AND DUP1 PUSH2 0x43DD JUMPI PUSH1 0x7F DUP3 AND SWAP2 POP JUMPDEST PUSH1 0x20 DUP3 LT DUP2 SUB PUSH2 0x43F0 JUMPI PUSH2 0x43EF PUSH2 0x4399 JUMP JUMPDEST JUMPDEST POP SWAP2 SWAP1 POP JUMP JUMPDEST PUSH0 PUSH1 0x60 DUP3 ADD SWAP1 POP PUSH2 0x4409 PUSH0 DUP4 ADD DUP7 PUSH2 0x38D4 JUMP JUMPDEST PUSH2 0x4416 PUSH1 0x20 DUP4 ADD DUP6 PUSH2 0x3964 JUMP JUMPDEST PUSH2 0x4423 PUSH1 0x40 DUP4 ADD DUP5 PUSH2 0x38D4 JUMP JUMPDEST SWAP5 SWAP4 POP POP POP POP JUMP JUMPDEST PUSH32 0x4E6F7420656E6F75676820657468657200000000000000000000000000000000 PUSH0 DUP3 ADD MSTORE POP JUMP JUMPDEST PUSH0 PUSH2 0x445F PUSH1 0x10 DUP4 PUSH2 0x37C0 JUMP JUMPDEST SWAP2 POP PUSH2 0x446A DUP3 PUSH2 0x442B JUMP JUMPDEST PUSH1 0x20 DUP3 ADD SWAP1 POP SWAP2 SWAP1 POP JUMP JUMPDEST PUSH0 PUSH1 0x20 DUP3 ADD SWAP1 POP DUP2 DUP2 SUB PUSH0 DUP4 ADD MSTORE PUSH2 0x448C DUP2 PUSH2 0x4453 JUMP JUMPDEST SWAP1 POP SWAP2 SWAP1 POP JUMP JUMPDEST PUSH32 0x4D696E74696E6720706861736520656E6465642E000000000000000000000000 PUSH0 DUP3 ADD MSTORE POP JUMP JUMPDEST PUSH0 PUSH2 0x44C7 PUSH1 0x14 DUP4 PUSH2 0x37C0 JUMP JUMPDEST SWAP2 POP PUSH2 0x44D2 DUP3 PUSH2 0x4493 JUMP JUMPDEST PUSH1 0x20 DUP3 ADD SWAP1 POP SWAP2 SWAP1 POP JUMP JUMPDEST PUSH0 PUSH1 0x20 DUP3 ADD SWAP1 POP DUP2 DUP2 SUB PUSH0 DUP4 ADD MSTORE PUSH2 0x44F4 DUP2 PUSH2 0x44BB JUMP JUMPDEST SWAP1 POP SWAP2 SWAP1 POP JUMP JUMPDEST PUSH0 DUP2 PUSH1 0x60 SHL SWAP1 POP SWAP2 SWAP1 POP JUMP JUMPDEST PUSH0 PUSH2 0x4511 DUP3 PUSH2 0x44FB JUMP JUMPDEST SWAP1 POP SWAP2 SWAP1 POP JUMP JUMPDEST PUSH0 PUSH2 0x4522 DUP3 PUSH2 0x4507 JUMP JUMPDEST SWAP1 POP SWAP2 SWAP1 POP JUMP JUMPDEST PUSH2 0x453A PUSH2 0x4535 DUP3 PUSH2 0x38C3 JUMP JUMPDEST PUSH2 0x4518 JUMP JUMPDEST DUP3 MSTORE POP POP JUMP JUMPDEST PUSH0 PUSH2 0x454B DUP3 DUP5 PUSH2 0x4529 JUMP JUMPDEST PUSH1 0x14 DUP3 ADD SWAP2 POP DUP2 SWAP1 POP SWAP3 SWAP2 POP POP JUMP JUMPDEST PUSH32 0x4E6F7420612070617274206F6620416C6C6F776C697374000000000000000000 PUSH0 DUP3 ADD MSTORE POP JUMP JUMPDEST PUSH0 PUSH2 0x458E PUSH1 0x17 DUP4 PUSH2 0x37C0 JUMP JUMPDEST SWAP2 POP PUSH2 0x4599 DUP3 PUSH2 0x455A JUMP JUMPDEST PUSH1 0x20 DUP3 ADD SWAP1 POP SWAP2 SWAP1 POP JUMP JUMPDEST PUSH0 PUSH1 0x20 DUP3 ADD SWAP1 POP DUP2 DUP2 SUB PUSH0 DUP4 ADD MSTORE PUSH2 0x45BB DUP2 PUSH2 0x4582 JUMP JUMPDEST SWAP1 POP SWAP2 SWAP1 POP JUMP JUMPDEST PUSH32 0x7075626C6963206D696E74206E6F74206C697665207965740000000000000000 PUSH0 DUP3 ADD MSTORE POP JUMP JUMPDEST PUSH0 PUSH2 0x45F6 PUSH1 0x18 DUP4 PUSH2 0x37C0 JUMP JUMPDEST SWAP2 POP PUSH2 0x4601 DUP3 PUSH2 0x45C2 JUMP JUMPDEST PUSH1 0x20 DUP3 ADD SWAP1 POP SWAP2 SWAP1 POP JUMP JUMPDEST PUSH0 PUSH1 0x20 DUP3 ADD SWAP1 POP DUP2 DUP2 SUB PUSH0 DUP4 ADD MSTORE PUSH2 0x4623 DUP2 PUSH2 0x45EA JUMP JUMPDEST SWAP1 POP SWAP2 SWAP1 POP JUMP JUMPDEST PUSH32 0x6D6178696D756D206E6674206D696E7420726561636865642E00000000000000 PUSH0 DUP3 ADD MSTORE POP JUMP JUMPDEST PUSH0 PUSH2 0x465E PUSH1 0x19 DUP4 PUSH2 0x37C0 JUMP JUMPDEST SWAP2 POP PUSH2 0x4669 DUP3 PUSH2 0x462A JUMP JUMPDEST PUSH1 0x20 DUP3 ADD SWAP1 POP SWAP2 SWAP1 POP JUMP JUMPDEST PUSH0 PUSH1 0x20 DUP3 ADD SWAP1 POP DUP2 DUP2 SUB PUSH0 DUP4 ADD MSTORE PUSH2 0x468B DUP2 PUSH2 0x4652 JUMP JUMPDEST SWAP1 POP SWAP2 SWAP1 POP JUMP JUMPDEST PUSH0 DUP2 SWAP1 POP SWAP3 SWAP2 POP POP JUMP JUMPDEST POP JUMP JUMPDEST PUSH0 PUSH2 0x46AA PUSH0 DUP4 PUSH2 0x4692 JUMP JUMPDEST SWAP2 POP PUSH2 0x46B5 DUP3 PUSH2 0x469C JUMP JUMPDEST PUSH0 DUP3 ADD SWAP1 POP SWAP2 SWAP1 POP JUMP JUMPDEST PUSH0 PUSH2 0x46C9 DUP3 PUSH2 0x469F JUMP JUMPDEST SWAP2 POP DUP2 SWAP1 POP SWAP2 SWAP1 POP JUMP JUMPDEST PUSH32 0x5472616E73666572206661696C65640000000000000000000000000000000000 PUSH0 DUP3 ADD MSTORE POP JUMP JUMPDEST PUSH0 PUSH2 0x4707 PUSH1 0xF DUP4 PUSH2 0x37C0 JUMP JUMPDEST SWAP2 POP PUSH2 0x4712 DUP3 PUSH2 0x46D3 JUMP JUMPDEST PUSH1 0x20 DUP3 ADD SWAP1 POP SWAP2 SWAP1 POP JUMP JUMPDEST PUSH0 PUSH1 0x20 DUP3 ADD SWAP1 POP DUP2 DUP2 SUB PUSH0 DUP4 ADD MSTORE PUSH2 0x4734 DUP2 PUSH2 0x46FB JUMP JUMPDEST SWAP1 POP SWAP2 SWAP1 POP JUMP JUMPDEST PUSH0 DUP1 REVERT JUMPDEST PUSH0 DUP1 REVERT JUMPDEST PUSH0 DUP1 REVERT JUMPDEST PUSH0 DUP1 DUP4 CALLDATALOAD PUSH1 0x1 PUSH1 0x20 SUB DUP5 CALLDATASIZE SUB SUB DUP2 SLT PUSH2 0x4763 JUMPI PUSH2 0x4762 PUSH2 0x473B JUMP JUMPDEST JUMPDEST DUP1 DUP5 ADD SWAP3 POP DUP3 CALLDATALOAD SWAP2 POP PUSH8 0xFFFFFFFFFFFFFFFF DUP3 GT ISZERO PUSH2 0x4785 JUMPI PUSH2 0x4784 PUSH2 0x473F JUMP JUMPDEST JUMPDEST PUSH1 0x20 DUP4 ADD SWAP3 POP PUSH1 0x1 DUP3 MUL CALLDATASIZE SUB DUP4 SGT ISZERO PUSH2 0x47A1 JUMPI PUSH2 0x47A0 PUSH2 0x4743 JUMP JUMPDEST JUMPDEST POP SWAP3 POP SWAP3 SWAP1 POP JUMP JUMPDEST PUSH0 PUSH2 0x47B4 DUP4 DUP6 PUSH2 0x4692 JUMP JUMPDEST SWAP4 POP PUSH2 0x47C1 DUP4 DUP6 DUP5 PUSH2 0x3BDD JUMP JUMPDEST DUP3 DUP5 ADD SWAP1 POP SWAP4 SWAP3 POP POP POP JUMP JUMPDEST PUSH0 PUSH2 0x47D9 DUP3 DUP5 DUP7 PUSH2 0x47A9 JUMP JUMPDEST SWAP2 POP DUP2 SWAP1 POP SWAP4 SWAP3 POP POP POP JUMP JUMPDEST PUSH0 PUSH1 0x80 DUP3 ADD SWAP1 POP PUSH2 0x47F8 PUSH0 DUP4 ADD DUP8 PUSH2 0x3DEE JUMP JUMPDEST PUSH2 0x4805 PUSH1 0x20 DUP4 ADD DUP7 PUSH2 0x38D4 JUMP JUMPDEST PUSH2 0x4812 PUSH1 0x40 DUP4 ADD DUP6 PUSH2 0x3964 JUMP JUMPDEST PUSH2 0x481F PUSH1 0x60 DUP4 ADD DUP5 PUSH2 0x3DEE JUMP JUMPDEST SWAP6 SWAP5 POP POP POP POP POP JUMP JUMPDEST PUSH0 DUP1 DUP4 CALLDATALOAD PUSH1 0x1 PUSH1 0x20 SUB DUP5 CALLDATASIZE SUB SUB DUP2 SLT PUSH2 0x4844 JUMPI PUSH2 0x4843 PUSH2 0x473B JUMP JUMPDEST JUMPDEST DUP1 DUP5 ADD SWAP3 POP DUP3 CALLDATALOAD SWAP2 POP PUSH8 0xFFFFFFFFFFFFFFFF DUP3 GT ISZERO PUSH2 0x4866 JUMPI PUSH2 0x4865 PUSH2 0x473F JUMP JUMPDEST JUMPDEST PUSH1 0x20 DUP4 ADD SWAP3 POP PUSH1 0x1 DUP3 MUL CALLDATASIZE SUB DUP4 SGT ISZERO PUSH2 0x4882 JUMPI PUSH2 0x4881 PUSH2 0x4743 JUMP JUMPDEST JUMPDEST POP SWAP3 POP SWAP3 SWAP1 POP JUMP JUMPDEST PUSH32 0x57726F6E67207369676E61747572650000000000000000000000000000000000 PUSH0 DUP3 ADD MSTORE POP JUMP JUMPDEST PUSH0 PUSH2 0x48BE PUSH1 0xF DUP4 PUSH2 0x37C0 JUMP JUMPDEST SWAP2 POP PUSH2 0x48C9 DUP3 PUSH2 0x488A JUMP JUMPDEST PUSH1 0x20 DUP3 ADD SWAP1 POP SWAP2 SWAP1 POP JUMP JUMPDEST PUSH0 PUSH1 0x20 DUP3 ADD SWAP1 POP DUP2 DUP2 SUB PUSH0 DUP4 ADD MSTORE PUSH2 0x48EB DUP2 PUSH2 0x48B2 JUMP JUMPDEST SWAP1 POP SWAP2 SWAP1 POP JUMP JUMPDEST PUSH32 0x696E76616C696420696E70757400000000000000000000000000000000000000 PUSH0 DUP3 ADD MSTORE POP JUMP JUMPDEST PUSH0 PUSH2 0x4926 PUSH1 0xD DUP4 PUSH2 0x37C0 JUMP JUMPDEST SWAP2 POP PUSH2 0x4931 DUP3 PUSH2 0x48F2 JUMP JUMPDEST PUSH1 0x20 DUP3 ADD SWAP1 POP SWAP2 SWAP1 POP JUMP JUMPDEST PUSH0 PUSH1 0x20 DUP3 ADD SWAP1 POP DUP2 DUP2 SUB PUSH0 DUP4 ADD MSTORE PUSH2 0x4953 DUP2 PUSH2 0x491A JUMP JUMPDEST SWAP1 POP SWAP2 SWAP1 POP JUMP JUMPDEST PUSH32 0x4E487B7100000000000000000000000000000000000000000000000000000000 PUSH0 MSTORE PUSH1 0x32 PUSH1 0x4 MSTORE PUSH1 0x24 PUSH0 REVERT JUMPDEST PUSH32 0x6E667420737570706C7920726561636865640000000000000000000000000000 PUSH0 DUP3 ADD MSTORE POP JUMP JUMPDEST PUSH0 PUSH2 0x49BB PUSH1 0x12 DUP4 PUSH2 0x37C0 JUMP JUMPDEST SWAP2 POP PUSH2 0x49C6 DUP3 PUSH2 0x4987 JUMP JUMPDEST PUSH1 0x20 DUP3 ADD SWAP1 POP SWAP2 SWAP1 POP JUMP JUMPDEST PUSH0 PUSH1 0x20 DUP3 ADD SWAP1 POP DUP2 DUP2 SUB PUSH0 DUP4 ADD MSTORE PUSH2 0x49E8 DUP2 PUSH2 0x49AF JUMP JUMPDEST SWAP1 POP SWAP2 SWAP1 POP JUMP JUMPDEST PUSH32 0x746F6B656E20616C7265616479206D696E746564000000000000000000000000 PUSH0 DUP3 ADD MSTORE POP JUMP JUMPDEST PUSH0 PUSH2 0x4A23 PUSH1 0x14 DUP4 PUSH2 0x37C0 JUMP JUMPDEST SWAP2 POP PUSH2 0x4A2E DUP3 PUSH2 0x49EF JUMP JUMPDEST PUSH1 0x20 DUP3 ADD SWAP1 POP SWAP2 SWAP1 POP JUMP JUMPDEST PUSH0 PUSH1 0x20 DUP3 ADD SWAP1 POP DUP2 DUP2 SUB PUSH0 DUP4 ADD MSTORE PUSH2 0x4A50 DUP2 PUSH2 0x4A17 JUMP JUMPDEST SWAP1 POP SWAP2 SWAP1 POP JUMP JUMPDEST PUSH0 DUP2 MLOAD SWAP1 POP SWAP2 SWAP1 POP JUMP JUMPDEST PUSH0 DUP3 DUP3 MSTORE PUSH1 0x20 DUP3 ADD SWAP1 POP SWAP3 SWAP2 POP POP JUMP JUMPDEST PUSH0 PUSH2 0x4A7B DUP3 PUSH2 0x4A57 JUMP JUMPDEST PUSH2 0x4A85 DUP2 DUP6 PUSH2 0x4A61 JUMP JUMPDEST SWAP4 POP PUSH2 0x4A95 DUP2 DUP6 PUSH1 0x20 DUP7 ADD PUSH2 0x37D0 JUMP JUMPDEST PUSH2 0x4A9E DUP2 PUSH2 0x37DE JUMP JUMPDEST DUP5 ADD SWAP2 POP POP SWAP3 SWAP2 POP POP JUMP JUMPDEST PUSH0 PUSH1 0x80 DUP3 ADD SWAP1 POP PUSH2 0x4ABC PUSH0 DUP4 ADD DUP8 PUSH2 0x38D4 JUMP JUMPDEST PUSH2 0x4AC9 PUSH1 0x20 DUP4 ADD DUP7 PUSH2 0x38D4 JUMP JUMPDEST PUSH2 0x4AD6 PUSH1 0x40 DUP4 ADD DUP6 PUSH2 0x3964 JUMP JUMPDEST DUP2 DUP2 SUB PUSH1 0x60 DUP4 ADD MSTORE PUSH2 0x4AE8 DUP2 DUP5 PUSH2 0x4A71 JUMP JUMPDEST SWAP1 POP SWAP6 SWAP5 POP POP POP POP POP JUMP JUMPDEST PUSH0 DUP2 MLOAD SWAP1 POP PUSH2 0x4B01 DUP2 PUSH2 0x372E JUMP JUMPDEST SWAP3 SWAP2 POP POP JUMP JUMPDEST PUSH0 PUSH1 0x20 DUP3 DUP5 SUB SLT ISZERO PUSH2 0x4B1C JUMPI PUSH2 0x4B1B PUSH2 0x36FB JUMP JUMPDEST JUMPDEST PUSH0 PUSH2 0x4B29 DUP5 DUP3 DUP6 ADD PUSH2 0x4AF3 JUMP JUMPDEST SWAP2 POP POP SWAP3 SWAP2 POP POP JUMP JUMPDEST PUSH0 DUP2 SWAP1 POP SWAP3 SWAP2 POP POP JUMP JUMPDEST PUSH0 PUSH2 0x4B46 DUP3 PUSH2 0x37B6 JUMP JUMPDEST PUSH2 0x4B50 DUP2 DUP6 PUSH2 0x4B32 JUMP JUMPDEST SWAP4 POP PUSH2 0x4B60 DUP2 DUP6 PUSH1 0x20 DUP7 ADD PUSH2 0x37D0 JUMP JUMPDEST DUP1 DUP5 ADD SWAP2 POP POP SWAP3 SWAP2 POP POP JUMP JUMPDEST PUSH0 PUSH2 0x4B77 DUP3 DUP6 PUSH2 0x4B3C JUMP JUMPDEST SWAP2 POP PUSH2 0x4B83 DUP3 DUP5 PUSH2 0x4B3C JUMP JUMPDEST SWAP2 POP DUP2 SWAP1 POP SWAP4 SWAP3 POP POP POP JUMP JUMPDEST PUSH0 DUP2 SWAP1 POP DUP2 PUSH0 MSTORE PUSH1 0x20 PUSH0 KECCAK256 SWAP1 POP SWAP2 SWAP1 POP JUMP JUMPDEST PUSH0 PUSH1 0x20 PUSH1 0x1F DUP4 ADD DIV SWAP1 POP SWAP2 SWAP1 POP JUMP JUMPDEST PUSH0 DUP3 DUP3 SHL SWAP1 POP SWAP3 SWAP2 POP POP JUMP JUMPDEST PUSH0 PUSH1 0x8 DUP4 MUL PUSH2 0x4BEB PUSH32 0xFFFFFFFFFFFFFFFFFFFFFFFFFFFFFFFFFFFFFFFFFFFFFFFFFFFFFFFFFFFFFFFF DUP3 PUSH2 0x4BB0 JUMP JUMPDEST PUSH2 0x4BF5 DUP7 DUP4 PUSH2 0x4BB0 JUMP JUMPDEST SWAP6 POP DUP1 NOT DUP5 AND SWAP4 POP DUP1 DUP7 AND DUP5 OR SWAP3 POP POP POP SWAP4 SWAP3 POP POP POP JUMP JUMPDEST PUSH0 DUP2 SWAP1 POP SWAP2 SWAP1 POP JUMP JUMPDEST PUSH0 PUSH2 0x4C30 PUSH2 0x4C2B PUSH2 0x4C26 DUP5 PUSH2 0x3846 JUMP JUMPDEST PUSH2 0x4C0D JUMP JUMPDEST PUSH2 0x3846 JUMP JUMPDEST SWAP1 POP SWAP2 SWAP1 POP JUMP JUMPDEST PUSH0 DUP2 SWAP1 POP SWAP2 SWAP1 POP JUMP JUMPDEST PUSH2 0x4C49 DUP4 PUSH2 0x4C16 JUMP JUMPDEST PUSH2 0x4C5D PUSH2 0x4C55 DUP3 PUSH2 0x4C37 JUMP JUMPDEST DUP5 DUP5 SLOAD PUSH2 0x4BBC JUMP JUMPDEST DUP3 SSTORE POP POP POP POP JUMP JUMPDEST PUSH0 SWAP1 JUMP JUMPDEST PUSH2 0x4C71 PUSH2 0x4C65 JUMP JUMPDEST PUSH2 0x4C7C DUP2 DUP5 DUP5 PUSH2 0x4C40 JUMP JUMPDEST POP POP POP JUMP JUMPDEST JUMPDEST DUP2 DUP2 LT ISZERO PUSH2 0x4C9F JUMPI PUSH2 0x4C94 PUSH0 DUP3 PUSH2 0x4C69 JUMP JUMPDEST PUSH1 0x1 DUP2 ADD SWAP1 POP PUSH2 0x4C82 JUMP JUMPDEST POP POP JUMP JUMPDEST PUSH1 0x1F DUP3 GT ISZERO PUSH2 0x4CE4 JUMPI PUSH2 0x4CB5 DUP2 PUSH2 0x4B8F JUMP JUMPDEST PUSH2 0x4CBE DUP5 PUSH2 0x4BA1 JUMP JUMPDEST DUP2 ADD PUSH1 0x20 DUP6 LT ISZERO PUSH2 0x4CCD JUMPI DUP2 SWAP1 POP JUMPDEST PUSH2 0x4CE1 PUSH2 0x4CD9 DUP6 PUSH2 0x4BA1 JUMP JUMPDEST DUP4 ADD DUP3 PUSH2 0x4C81 JUMP JUMPDEST POP POP JUMPDEST POP POP POP JUMP JUMPDEST PUSH0 DUP3 DUP3 SHR SWAP1 POP SWAP3 SWAP2 POP POP JUMP JUMPDEST PUSH0 PUSH2 0x4D04 PUSH0 NOT DUP5 PUSH1 0x8 MUL PUSH2 0x4CE9 JUMP JUMPDEST NOT DUP1 DUP4 AND SWAP2 POP POP SWAP3 SWAP2 POP POP JUMP JUMPDEST PUSH0 PUSH2 0x4D1C DUP4 DUP4 PUSH2 0x4CF5 JUMP JUMPDEST SWAP2 POP DUP3 PUSH1 0x2 MUL DUP3 OR SWAP1 POP SWAP3 SWAP2 POP POP JUMP JUMPDEST PUSH2 0x4D35 DUP3 PUSH2 0x37B6 JUMP JUMPDEST PUSH8 0xFFFFFFFFFFFFFFFF DUP2 GT ISZERO PUSH2 0x4D4E JUMPI PUSH2 0x4D4D PUSH2 0x39E0 JUMP JUMPDEST JUMPDEST PUSH2 0x4D58 DUP3 SLOAD PUSH2 0x43C6 JUMP JUMPDEST PUSH2 0x4D63 DUP3 DUP3 DUP6 PUSH2 0x4CA3 JUMP JUMPDEST PUSH0 PUSH1 0x20 SWAP1 POP PUSH1 0x1F DUP4 GT PUSH1 0x1 DUP2 EQ PUSH2 0x4D94 JUMPI PUSH0 DUP5 ISZERO PUSH2 0x4D82 JUMPI DUP3 DUP8 ADD MLOAD SWAP1 POP JUMPDEST PUSH2 0x4D8C DUP6 DUP3 PUSH2 0x4D11 JUMP JUMPDEST DUP7 SSTORE POP PUSH2 0x4DF3 JUMP JUMPDEST PUSH1 0x1F NOT DUP5 AND PUSH2 0x4DA2 DUP7 PUSH2 0x4B8F JUMP JUMPDEST PUSH0 JUMPDEST DUP3 DUP2 LT ISZERO PUSH2 0x4DC9 JUMPI DUP5 DUP10 ADD MLOAD DUP3 SSTORE PUSH1 0x1 DUP3 ADD SWAP2 POP PUSH1 0x20 DUP6 ADD SWAP5 POP PUSH1 0x20 DUP2 ADD SWAP1 POP PUSH2 0x4DA4 JUMP JUMPDEST DUP7 DUP4 LT ISZERO PUSH2 0x4DE6 JUMPI DUP5 DUP10 ADD MLOAD PUSH2 0x4DE2 PUSH1 0x1F DUP10 AND DUP3 PUSH2 0x4CF5 JUMP JUMPDEST DUP4 SSTORE POP JUMPDEST PUSH1 0x1 PUSH1 0x2 DUP9 MUL ADD DUP9 SSTORE POP POP POP JUMPDEST POP POP POP POP POP POP JUMP JUMPDEST PUSH32 0x4E487B7100000000000000000000000000000000000000000000000000000000 PUSH0 MSTORE PUSH1 0x21 PUSH1 0x4 MSTORE PUSH1 0x24 PUSH0 REVERT JUMPDEST PUSH0 PUSH1 0xA0 DUP3 ADD SWAP1 POP PUSH2 0x4E3B PUSH0 DUP4 ADD DUP9 PUSH2 0x3DEE JUMP JUMPDEST PUSH2 0x4E48 PUSH1 0x20 DUP4 ADD DUP8 PUSH2 0x3DEE JUMP JUMPDEST PUSH2 0x4E55 PUSH1 0x40 DUP4 ADD DUP7 PUSH2 0x3DEE JUMP JUMPDEST PUSH2 0x4E62 PUSH1 0x60 DUP4 ADD DUP6 PUSH2 0x3964 JUMP JUMPDEST PUSH2 0x4E6F PUSH1 0x80 DUP4 ADD DUP5 PUSH2 0x38D4 JUMP JUMPDEST SWAP7 SWAP6 POP POP POP POP POP POP JUMP JUMPDEST PUSH0 PUSH1 0xFF DUP3 AND SWAP1 POP SWAP2 SWAP1 POP JUMP JUMPDEST PUSH2 0x4E8E DUP2 PUSH2 0x4E79 JUMP JUMPDEST DUP3 MSTORE POP POP JUMP JUMPDEST PUSH0 PUSH1 0x80 DUP3 ADD SWAP1 POP PUSH2 0x4EA7 PUSH0 DUP4 ADD DUP8 PUSH2 0x3DEE JUMP JUMPDEST PUSH2 0x4EB4 PUSH1 0x20 DUP4 ADD DUP7 PUSH2 0x4E85 JUMP JUMPDEST PUSH2 0x4EC1 PUSH1 0x40 DUP4 ADD DUP6 PUSH2 0x3DEE JUMP JUMPDEST PUSH2 0x4ECE PUSH1 0x60 DUP4 ADD DUP5 PUSH2 0x3DEE JUMP JUMPDEST SWAP6 SWAP5 POP POP POP POP POP JUMP JUMPDEST PUSH32 0x4E487B7100000000000000000000000000000000000000000000000000000000 PUSH0 MSTORE PUSH1 0x12 PUSH1 0x4 MSTORE PUSH1 0x24 PUSH0 REVERT JUMPDEST PUSH0 PUSH1 0x40 DUP3 ADD SWAP1 POP PUSH2 0x4F17 PUSH0 DUP4 ADD DUP6 PUSH2 0x38D4 JUMP JUMPDEST PUSH2 0x4F24 PUSH1 0x20 DUP4 ADD DUP5 PUSH2 0x3964 JUMP JUMPDEST SWAP4 SWAP3 POP POP POP JUMP INVALID LOG2 PUSH5 0x6970667358 0x22 SLT KECCAK256 SWAP2 CALLDATALOAD 0xAA SWAP6 SWAP5 SWAP13 JUMP 0xAC PUSH8 0xBCBA30F95A3E1C7C PUSH13 0x62272645B0BA05A1F46E01BF13 PC PUSH5 0x736F6C6343 STOP ADDMOD BYTE STOP CALLER "
		},
		"gasEstimates": {
			"creation": {
				"codeDepositCost": "4064200",
				"executionCost": "infinite",
				"totalCost": "infinite"
			},
			"external": {
				"airdrop(address,uint256[],string[])": "infinite",
				"approve(address,uint256)": "infinite",
				"balanceOf(address)": "infinite",
				"burn(uint256)": "infinite",
				"eip712Domain()": "infinite",
				"fpAllowListEndTime()": "2491",
				"fpAllowListMintLive()": "2585",
				"fpAllowListPrice()": "2559",
				"fpAllowListRoot()": "2515",
				"fpAllowMint(address,uint256,string,bytes32[])": "infinite",
				"getApproved(uint256)": "infinite",
				"isApprovedForAll(address,address)": "infinite",
				"max_supply()": "2537",
				"maximumSpMint()": "2492",
				"mintStatus(uint256)": "2854",
				"name()": "infinite",
				"owner()": "2633",
				"ownerOf(uint256)": "infinite",
				"pause()": "infinite",
				"paused()": "2562",
				"publicMint((address,uint256,string,bytes))": "infinite",
				"publicMintLive()": "2534",
				"publicMintPrice()": "2513",
				"redeemPublicMintVoucher((address,uint256,string,bytes))": "infinite",
				"renounceOwnership()": "infinite",
				"safeTransferFrom(address,address,uint256)": "infinite",
				"safeTransferFrom(address,address,uint256,bytes)": "infinite",
				"setApprovalForAll(address,bool)": "infinite",
				"setFpAllowListEndTime()": "infinite",
				"setFpAllowListPrice(uint256)": "infinite",
				"setFpAllowListRoot(bytes32)": "infinite",
				"setMaximumSpMint(uint256)": "infinite",
				"setPublicMintPrice(uint256)": "infinite",
				"setSpAllowListEndTime()": "infinite",
				"setSpAllowListPrice(uint256)": "infinite",
				"setSpAllowListRoot(bytes32)": "infinite",
				"spAllowListEndTime()": "2494",
				"spAllowListMintLive()": "2629",
				"spAllowListPrice()": "2494",
				"spAllowListRoot()": "2493",
				"spAllowMint(address,uint256,string,bytes32[])": "infinite",
				"spMinterTotal(address)": "2914",
				"supportsInterface(bytes4)": "946",
				"symbol()": "infinite",
				"toggleFpAllowListMintLive()": "infinite",
				"togglePublicMintLive()": "infinite",
				"toggleSpAllowListMintLive()": "infinite",
				"tokenURI(uint256)": "infinite",
				"totalMinted()": "2558",
				"transferFrom(address,address,uint256)": "infinite",
				"transferOwnership(address)": "infinite",
				"unpause()": "infinite",
				"verifyFpAllowList(bytes32[],bytes32)": "infinite",
				"verifySpAllowList(bytes32[],bytes32)": "infinite",
				"withdraw(address)": "infinite"
			},
			"internal": {
				"_update(address,uint256,address)": "infinite",
				"mint(address,uint256,string memory)": "infinite"
			}
		},
		"methodIdentifiers": {
			"airdrop(address,uint256[],string[])": "d7192b9a",
			"approve(address,uint256)": "095ea7b3",
			"balanceOf(address)": "70a08231",
			"burn(uint256)": "42966c68",
			"eip712Domain()": "84b0196e",
			"fpAllowListEndTime()": "dba66062",
			"fpAllowListMintLive()": "728917d4",
			"fpAllowListPrice()": "3d016e59",
			"fpAllowListRoot()": "a9c0a631",
			"fpAllowMint(address,uint256,string,bytes32[])": "72f9efcf",
			"getApproved(uint256)": "081812fc",
			"isApprovedForAll(address,address)": "e985e9c5",
			"max_supply()": "8a333b50",
			"maximumSpMint()": "cb98652d",
			"mintStatus(uint256)": "3f1cdbdf",
			"name()": "06fdde03",
			"owner()": "8da5cb5b",
			"ownerOf(uint256)": "6352211e",
			"pause()": "8456cb59",
			"paused()": "5c975abb",
			"publicMint((address,uint256,string,bytes))": "cd64154a",
			"publicMintLive()": "27c7dde7",
			"publicMintPrice()": "dc53fd92",
			"redeemPublicMintVoucher((address,uint256,string,bytes))": "849084d3",
			"renounceOwnership()": "715018a6",
			"safeTransferFrom(address,address,uint256)": "42842e0e",
			"safeTransferFrom(address,address,uint256,bytes)": "b88d4fde",
			"setApprovalForAll(address,bool)": "a22cb465",
			"setFpAllowListEndTime()": "16d1534a",
			"setFpAllowListPrice(uint256)": "ae0614f1",
			"setFpAllowListRoot(bytes32)": "3fa9d0e4",
			"setMaximumSpMint(uint256)": "4a763496",
			"setPublicMintPrice(uint256)": "5d82cf6e",
			"setSpAllowListEndTime()": "064608e2",
			"setSpAllowListPrice(uint256)": "2f4f52ed",
			"setSpAllowListRoot(bytes32)": "4a2eb4b7",
			"spAllowListEndTime()": "6770ec83",
			"spAllowListMintLive()": "5145ae2a",
			"spAllowListPrice()": "197348b7",
			"spAllowListRoot()": "a29e2223",
			"spAllowMint(address,uint256,string,bytes32[])": "345c911b",
			"spMinterTotal(address)": "8143c261",
			"supportsInterface(bytes4)": "01ffc9a7",
			"symbol()": "95d89b41",
			"toggleFpAllowListMintLive()": "4ee95582",
			"togglePublicMintLive()": "afe206d4",
			"toggleSpAllowListMintLive()": "badc6643",
			"tokenURI(uint256)": "c87b56dd",
			"totalMinted()": "a2309ff8",
			"transferFrom(address,address,uint256)": "23b872dd",
			"transferOwnership(address)": "f2fde38b",
			"unpause()": "3f4ba83a",
			"verifyFpAllowList(bytes32[],bytes32)": "48c04722",
			"verifySpAllowList(bytes32[],bytes32)": "2747fa19",
			"withdraw(address)": "51cff8d9"
		}
	},
	"abi": [
		{
			"inputs": [
				{
					"internalType": "address",
					"name": "initialOwner",
					"type": "address"
				}
			],
			"stateMutability": "nonpayable",
			"type": "constructor"
		},
		{
			"inputs": [],
			"name": "ECDSAInvalidSignature",
			"type": "error"
		},
		{
			"inputs": [
				{
					"internalType": "uint256",
					"name": "length",
					"type": "uint256"
				}
			],
			"name": "ECDSAInvalidSignatureLength",
			"type": "error"
		},
		{
			"inputs": [
				{
					"internalType": "bytes32",
					"name": "s",
					"type": "bytes32"
				}
			],
			"name": "ECDSAInvalidSignatureS",
			"type": "error"
		},
		{
			"inputs": [
				{
					"internalType": "address",
					"name": "sender",
					"type": "address"
				},
				{
					"internalType": "uint256",
					"name": "tokenId",
					"type": "uint256"
				},
				{
					"internalType": "address",
					"name": "owner",
					"type": "address"
				}
			],
			"name": "ERC721IncorrectOwner",
			"type": "error"
		},
		{
			"inputs": [
				{
					"internalType": "address",
					"name": "operator",
					"type": "address"
				},
				{
					"internalType": "uint256",
					"name": "tokenId",
					"type": "uint256"
				}
			],
			"name": "ERC721InsufficientApproval",
			"type": "error"
		},
		{
			"inputs": [
				{
					"internalType": "address",
					"name": "approver",
					"type": "address"
				}
			],
			"name": "ERC721InvalidApprover",
			"type": "error"
		},
		{
			"inputs": [
				{
					"internalType": "address",
					"name": "operator",
					"type": "address"
				}
			],
			"name": "ERC721InvalidOperator",
			"type": "error"
		},
		{
			"inputs": [
				{
					"internalType": "address",
					"name": "owner",
					"type": "address"
				}
			],
			"name": "ERC721InvalidOwner",
			"type": "error"
		},
		{
			"inputs": [
				{
					"internalType": "address",
					"name": "receiver",
					"type": "address"
				}
			],
			"name": "ERC721InvalidReceiver",
			"type": "error"
		},
		{
			"inputs": [
				{
					"internalType": "address",
					"name": "sender",
					"type": "address"
				}
			],
			"name": "ERC721InvalidSender",
			"type": "error"
		},
		{
			"inputs": [
				{
					"internalType": "uint256",
					"name": "tokenId",
					"type": "uint256"
				}
			],
			"name": "ERC721NonexistentToken",
			"type": "error"
		},
		{
			"inputs": [],
			"name": "EnforcedPause",
			"type": "error"
		},
		{
			"inputs": [],
			"name": "ExpectedPause",
			"type": "error"
		},
		{
			"inputs": [],
			"name": "InvalidShortString",
			"type": "error"
		},
		{
			"inputs": [
				{
					"internalType": "address",
					"name": "owner",
					"type": "address"
				}
			],
			"name": "OwnableInvalidOwner",
			"type": "error"
		},
		{
			"inputs": [
				{
					"internalType": "address",
					"name": "account",
					"type": "address"
				}
			],
			"name": "OwnableUnauthorizedAccount",
			"type": "error"
		},
		{
			"inputs": [
				{
					"internalType": "string",
					"name": "str",
					"type": "string"
				}
			],
			"name": "StringTooLong",
			"type": "error"
		},
		{
			"anonymous": false,
			"inputs": [
				{
					"indexed": true,
					"internalType": "address",
					"name": "owner",
					"type": "address"
				},
				{
					"indexed": true,
					"internalType": "address",
					"name": "approved",
					"type": "address"
				},
				{
					"indexed": true,
					"internalType": "uint256",
					"name": "tokenId",
					"type": "uint256"
				}
			],
			"name": "Approval",
			"type": "event"
		},
		{
			"anonymous": false,
			"inputs": [
				{
					"indexed": true,
					"internalType": "address",
					"name": "owner",
					"type": "address"
				},
				{
					"indexed": true,
					"internalType": "address",
					"name": "operator",
					"type": "address"
				},
				{
					"indexed": false,
					"internalType": "bool",
					"name": "approved",
					"type": "bool"
				}
			],
			"name": "ApprovalForAll",
			"type": "event"
		},
		{
			"anonymous": false,
			"inputs": [
				{
					"indexed": false,
					"internalType": "uint256",
					"name": "_fromTokenId",
					"type": "uint256"
				},
				{
					"indexed": false,
					"internalType": "uint256",
					"name": "_toTokenId",
					"type": "uint256"
				}
			],
			"name": "BatchMetadataUpdate",
			"type": "event"
		},
		{
			"anonymous": false,
			"inputs": [],
			"name": "EIP712DomainChanged",
			"type": "event"
		},
		{
			"anonymous": false,
			"inputs": [
				{
					"indexed": false,
					"internalType": "uint256",
					"name": "_tokenId",
					"type": "uint256"
				}
			],
			"name": "MetadataUpdate",
			"type": "event"
		},
		{
			"anonymous": false,
			"inputs": [
				{
					"indexed": true,
					"internalType": "address",
					"name": "previousOwner",
					"type": "address"
				},
				{
					"indexed": true,
					"internalType": "address",
					"name": "newOwner",
					"type": "address"
				}
			],
			"name": "OwnershipTransferred",
			"type": "event"
		},
		{
			"anonymous": false,
			"inputs": [
				{
					"indexed": false,
					"internalType": "address",
					"name": "account",
					"type": "address"
				}
			],
			"name": "Paused",
			"type": "event"
		},
		{
			"anonymous": false,
			"inputs": [
				{
					"indexed": true,
					"internalType": "address",
					"name": "from",
					"type": "address"
				},
				{
					"indexed": true,
					"internalType": "address",
					"name": "to",
					"type": "address"
				},
				{
					"indexed": true,
					"internalType": "uint256",
					"name": "tokenId",
					"type": "uint256"
				}
			],
			"name": "Transfer",
			"type": "event"
		},
		{
			"anonymous": false,
			"inputs": [
				{
					"indexed": false,
					"internalType": "address",
					"name": "account",
					"type": "address"
				}
			],
			"name": "Unpaused",
			"type": "event"
		},
		{
			"inputs": [
				{
					"internalType": "address",
					"name": "to",
					"type": "address"
				},
				{
					"internalType": "uint256[]",
					"name": "tokenIds",
					"type": "uint256[]"
				},
				{
					"internalType": "string[]",
					"name": "uris",
					"type": "string[]"
				}
			],
			"name": "airdrop",
			"outputs": [],
			"stateMutability": "nonpayable",
			"type": "function"
		},
		{
			"inputs": [
				{
					"internalType": "address",
					"name": "to",
					"type": "address"
				},
				{
					"internalType": "uint256",
					"name": "tokenId",
					"type": "uint256"
				}
			],
			"name": "approve",
			"outputs": [],
			"stateMutability": "nonpayable",
			"type": "function"
		},
		{
			"inputs": [
				{
					"internalType": "address",
					"name": "owner",
					"type": "address"
				}
			],
			"name": "balanceOf",
			"outputs": [
				{
					"internalType": "uint256",
					"name": "",
					"type": "uint256"
				}
			],
			"stateMutability": "view",
			"type": "function"
		},
		{
			"inputs": [
				{
					"internalType": "uint256",
					"name": "tokenId",
					"type": "uint256"
				}
			],
			"name": "burn",
			"outputs": [],
			"stateMutability": "nonpayable",
			"type": "function"
		},
		{
			"inputs": [],
			"name": "eip712Domain",
			"outputs": [
				{
					"internalType": "bytes1",
					"name": "fields",
					"type": "bytes1"
				},
				{
					"internalType": "string",
					"name": "name",
					"type": "string"
				},
				{
					"internalType": "string",
					"name": "version",
					"type": "string"
				},
				{
					"internalType": "uint256",
					"name": "chainId",
					"type": "uint256"
				},
				{
					"internalType": "address",
					"name": "verifyingContract",
					"type": "address"
				},
				{
					"internalType": "bytes32",
					"name": "salt",
					"type": "bytes32"
				},
				{
					"internalType": "uint256[]",
					"name": "extensions",
					"type": "uint256[]"
				}
			],
			"stateMutability": "view",
			"type": "function"
		},
		{
			"inputs": [],
			"name": "fpAllowListEndTime",
			"outputs": [
				{
					"internalType": "uint256",
					"name": "",
					"type": "uint256"
				}
			],
			"stateMutability": "view",
			"type": "function"
		},
		{
			"inputs": [],
			"name": "fpAllowListMintLive",
			"outputs": [
				{
					"internalType": "bool",
					"name": "",
					"type": "bool"
				}
			],
			"stateMutability": "view",
			"type": "function"
		},
		{
			"inputs": [],
			"name": "fpAllowListPrice",
			"outputs": [
				{
					"internalType": "uint256",
					"name": "",
					"type": "uint256"
				}
			],
			"stateMutability": "view",
			"type": "function"
		},
		{
			"inputs": [],
			"name": "fpAllowListRoot",
			"outputs": [
				{
					"internalType": "bytes32",
					"name": "",
					"type": "bytes32"
				}
			],
			"stateMutability": "view",
			"type": "function"
		},
		{
			"inputs": [
				{
					"internalType": "address",
					"name": "minter",
					"type": "address"
				},
				{
					"internalType": "uint256",
					"name": "tokenId",
					"type": "uint256"
				},
				{
					"internalType": "string",
					"name": "uri",
					"type": "string"
				},
				{
					"internalType": "bytes32[]",
					"name": "proof",
					"type": "bytes32[]"
				}
			],
			"name": "fpAllowMint",
			"outputs": [],
			"stateMutability": "payable",
			"type": "function"
		},
		{
			"inputs": [
				{
					"internalType": "uint256",
					"name": "tokenId",
					"type": "uint256"
				}
			],
			"name": "getApproved",
			"outputs": [
				{
					"internalType": "address",
					"name": "",
					"type": "address"
				}
			],
			"stateMutability": "view",
			"type": "function"
		},
		{
			"inputs": [
				{
					"internalType": "address",
					"name": "owner",
					"type": "address"
				},
				{
					"internalType": "address",
					"name": "operator",
					"type": "address"
				}
			],
			"name": "isApprovedForAll",
			"outputs": [
				{
					"internalType": "bool",
					"name": "",
					"type": "bool"
				}
			],
			"stateMutability": "view",
			"type": "function"
		},
		{
			"inputs": [],
			"name": "max_supply",
			"outputs": [
				{
					"internalType": "uint256",
					"name": "",
					"type": "uint256"
				}
			],
			"stateMutability": "view",
			"type": "function"
		},
		{
			"inputs": [],
			"name": "maximumSpMint",
			"outputs": [
				{
					"internalType": "uint256",
					"name": "",
					"type": "uint256"
				}
			],
			"stateMutability": "view",
			"type": "function"
		},
		{
			"inputs": [
				{
					"internalType": "uint256",
					"name": "",
					"type": "uint256"
				}
			],
			"name": "mintStatus",
			"outputs": [
				{
					"internalType": "bool",
					"name": "",
					"type": "bool"
				}
			],
			"stateMutability": "view",
			"type": "function"
		},
		{
			"inputs": [],
			"name": "name",
			"outputs": [
				{
					"internalType": "string",
					"name": "",
					"type": "string"
				}
			],
			"stateMutability": "view",
			"type": "function"
		},
		{
			"inputs": [],
			"name": "owner",
			"outputs": [
				{
					"internalType": "address",
					"name": "",
					"type": "address"
				}
			],
			"stateMutability": "view",
			"type": "function"
		},
		{
			"inputs": [
				{
					"internalType": "uint256",
					"name": "tokenId",
					"type": "uint256"
				}
			],
			"name": "ownerOf",
			"outputs": [
				{
					"internalType": "address",
					"name": "",
					"type": "address"
				}
			],
			"stateMutability": "view",
			"type": "function"
		},
		{
			"inputs": [],
			"name": "pause",
			"outputs": [],
			"stateMutability": "nonpayable",
			"type": "function"
		},
		{
			"inputs": [],
			"name": "paused",
			"outputs": [
				{
					"internalType": "bool",
					"name": "",
					"type": "bool"
				}
			],
			"stateMutability": "view",
			"type": "function"
		},
		{
			"inputs": [
				{
					"components": [
						{
							"internalType": "address",
							"name": "minter",
							"type": "address"
						},
						{
							"internalType": "uint256",
							"name": "tokenId",
							"type": "uint256"
						},
						{
							"internalType": "string",
							"name": "uri",
							"type": "string"
						},
						{
							"internalType": "bytes",
							"name": "signature",
							"type": "bytes"
						}
					],
					"internalType": "struct Army.PublicMintVoucher",
					"name": "voucher",
					"type": "tuple"
				}
			],
			"name": "publicMint",
			"outputs": [],
			"stateMutability": "payable",
			"type": "function"
		},
		{
			"inputs": [],
			"name": "publicMintLive",
			"outputs": [
				{
					"internalType": "bool",
					"name": "",
					"type": "bool"
				}
			],
			"stateMutability": "view",
			"type": "function"
		},
		{
			"inputs": [],
			"name": "publicMintPrice",
			"outputs": [
				{
					"internalType": "uint256",
					"name": "",
					"type": "uint256"
				}
			],
			"stateMutability": "view",
			"type": "function"
		},
		{
			"inputs": [
				{
					"components": [
						{
							"internalType": "address",
							"name": "minter",
							"type": "address"
						},
						{
							"internalType": "uint256",
							"name": "tokenId",
							"type": "uint256"
						},
						{
							"internalType": "string",
							"name": "uri",
							"type": "string"
						},
						{
							"internalType": "bytes",
							"name": "signature",
							"type": "bytes"
						}
					],
					"internalType": "struct Army.PublicMintVoucher",
					"name": "voucher",
					"type": "tuple"
				}
			],
			"name": "redeemPublicMintVoucher",
			"outputs": [
				{
					"internalType": "address",
					"name": "",
					"type": "address"
				}
			],
			"stateMutability": "view",
			"type": "function"
		},
		{
			"inputs": [],
			"name": "renounceOwnership",
			"outputs": [],
			"stateMutability": "nonpayable",
			"type": "function"
		},
		{
			"inputs": [
				{
					"internalType": "address",
					"name": "from",
					"type": "address"
				},
				{
					"internalType": "address",
					"name": "to",
					"type": "address"
				},
				{
					"internalType": "uint256",
					"name": "tokenId",
					"type": "uint256"
				}
			],
			"name": "safeTransferFrom",
			"outputs": [],
			"stateMutability": "nonpayable",
			"type": "function"
		},
		{
			"inputs": [
				{
					"internalType": "address",
					"name": "from",
					"type": "address"
				},
				{
					"internalType": "address",
					"name": "to",
					"type": "address"
				},
				{
					"internalType": "uint256",
					"name": "tokenId",
					"type": "uint256"
				},
				{
					"internalType": "bytes",
					"name": "data",
					"type": "bytes"
				}
			],
			"name": "safeTransferFrom",
			"outputs": [],
			"stateMutability": "nonpayable",
			"type": "function"
		},
		{
			"inputs": [
				{
					"internalType": "address",
					"name": "operator",
					"type": "address"
				},
				{
					"internalType": "bool",
					"name": "approved",
					"type": "bool"
				}
			],
			"name": "setApprovalForAll",
			"outputs": [],
			"stateMutability": "nonpayable",
			"type": "function"
		},
		{
			"inputs": [],
			"name": "setFpAllowListEndTime",
			"outputs": [],
			"stateMutability": "nonpayable",
			"type": "function"
		},
		{
			"inputs": [
				{
					"internalType": "uint256",
					"name": "price",
					"type": "uint256"
				}
			],
			"name": "setFpAllowListPrice",
			"outputs": [],
			"stateMutability": "nonpayable",
			"type": "function"
		},
		{
			"inputs": [
				{
					"internalType": "bytes32",
					"name": "_root",
					"type": "bytes32"
				}
			],
			"name": "setFpAllowListRoot",
			"outputs": [],
			"stateMutability": "nonpayable",
			"type": "function"
		},
		{
			"inputs": [
				{
					"internalType": "uint256",
					"name": "amount",
					"type": "uint256"
				}
			],
			"name": "setMaximumSpMint",
			"outputs": [],
			"stateMutability": "nonpayable",
			"type": "function"
		},
		{
			"inputs": [
				{
					"internalType": "uint256",
					"name": "price",
					"type": "uint256"
				}
			],
			"name": "setPublicMintPrice",
			"outputs": [],
			"stateMutability": "nonpayable",
			"type": "function"
		},
		{
			"inputs": [],
			"name": "setSpAllowListEndTime",
			"outputs": [],
			"stateMutability": "nonpayable",
			"type": "function"
		},
		{
			"inputs": [
				{
					"internalType": "uint256",
					"name": "price",
					"type": "uint256"
				}
			],
			"name": "setSpAllowListPrice",
			"outputs": [],
			"stateMutability": "nonpayable",
			"type": "function"
		},
		{
			"inputs": [
				{
					"internalType": "bytes32",
					"name": "_root",
					"type": "bytes32"
				}
			],
			"name": "setSpAllowListRoot",
			"outputs": [],
			"stateMutability": "nonpayable",
			"type": "function"
		},
		{
			"inputs": [],
			"name": "spAllowListEndTime",
			"outputs": [
				{
					"internalType": "uint256",
					"name": "",
					"type": "uint256"
				}
			],
			"stateMutability": "view",
			"type": "function"
		},
		{
			"inputs": [],
			"name": "spAllowListMintLive",
			"outputs": [
				{
					"internalType": "bool",
					"name": "",
					"type": "bool"
				}
			],
			"stateMutability": "view",
			"type": "function"
		},
		{
			"inputs": [],
			"name": "spAllowListPrice",
			"outputs": [
				{
					"internalType": "uint256",
					"name": "",
					"type": "uint256"
				}
			],
			"stateMutability": "view",
			"type": "function"
		},
		{
			"inputs": [],
			"name": "spAllowListRoot",
			"outputs": [
				{
					"internalType": "bytes32",
					"name": "",
					"type": "bytes32"
				}
			],
			"stateMutability": "view",
			"type": "function"
		},
		{
			"inputs": [
				{
					"internalType": "address",
					"name": "minter",
					"type": "address"
				},
				{
					"internalType": "uint256",
					"name": "tokenId",
					"type": "uint256"
				},
				{
					"internalType": "string",
					"name": "uri",
					"type": "string"
				},
				{
					"internalType": "bytes32[]",
					"name": "proof",
					"type": "bytes32[]"
				}
			],
			"name": "spAllowMint",
			"outputs": [],
			"stateMutability": "payable",
			"type": "function"
		},
		{
			"inputs": [
				{
					"internalType": "address",
					"name": "",
					"type": "address"
				}
			],
			"name": "spMinterTotal",
			"outputs": [
				{
					"internalType": "uint256",
					"name": "",
					"type": "uint256"
				}
			],
			"stateMutability": "view",
			"type": "function"
		},
		{
			"inputs": [
				{
					"internalType": "bytes4",
					"name": "interfaceId",
					"type": "bytes4"
				}
			],
			"name": "supportsInterface",
			"outputs": [
				{
					"internalType": "bool",
					"name": "",
					"type": "bool"
				}
			],
			"stateMutability": "view",
			"type": "function"
		},
		{
			"inputs": [],
			"name": "symbol",
			"outputs": [
				{
					"internalType": "string",
					"name": "",
					"type": "string"
				}
			],
			"stateMutability": "view",
			"type": "function"
		},
		{
			"inputs": [],
			"name": "toggleFpAllowListMintLive",
			"outputs": [],
			"stateMutability": "nonpayable",
			"type": "function"
		},
		{
			"inputs": [],
			"name": "togglePublicMintLive",
			"outputs": [],
			"stateMutability": "nonpayable",
			"type": "function"
		},
		{
			"inputs": [],
			"name": "toggleSpAllowListMintLive",
			"outputs": [],
			"stateMutability": "nonpayable",
			"type": "function"
		},
		{
			"inputs": [
				{
					"internalType": "uint256",
					"name": "tokenId",
					"type": "uint256"
				}
			],
			"name": "tokenURI",
			"outputs": [
				{
					"internalType": "string",
					"name": "",
					"type": "string"
				}
			],
			"stateMutability": "view",
			"type": "function"
		},
		{
			"inputs": [],
			"name": "totalMinted",
			"outputs": [
				{
					"internalType": "uint256",
					"name": "",
					"type": "uint256"
				}
			],
			"stateMutability": "view",
			"type": "function"
		},
		{
			"inputs": [
				{
					"internalType": "address",
					"name": "from",
					"type": "address"
				},
				{
					"internalType": "address",
					"name": "to",
					"type": "address"
				},
				{
					"internalType": "uint256",
					"name": "tokenId",
					"type": "uint256"
				}
			],
			"name": "transferFrom",
			"outputs": [],
			"stateMutability": "nonpayable",
			"type": "function"
		},
		{
			"inputs": [
				{
					"internalType": "address",
					"name": "newOwner",
					"type": "address"
				}
			],
			"name": "transferOwnership",
			"outputs": [],
			"stateMutability": "nonpayable",
			"type": "function"
		},
		{
			"inputs": [],
			"name": "unpause",
			"outputs": [],
			"stateMutability": "nonpayable",
			"type": "function"
		},
		{
			"inputs": [
				{
					"internalType": "bytes32[]",
					"name": "proof",
					"type": "bytes32[]"
				},
				{
					"internalType": "bytes32",
					"name": "leaf",
					"type": "bytes32"
				}
			],
			"name": "verifyFpAllowList",
			"outputs": [
				{
					"internalType": "bool",
					"name": "",
					"type": "bool"
				}
			],
			"stateMutability": "view",
			"type": "function"
		},
		{
			"inputs": [
				{
					"internalType": "bytes32[]",
					"name": "proof",
					"type": "bytes32[]"
				},
				{
					"internalType": "bytes32",
					"name": "leaf",
					"type": "bytes32"
				}
			],
			"name": "verifySpAllowList",
			"outputs": [
				{
					"internalType": "bool",
					"name": "",
					"type": "bool"
				}
			],
			"stateMutability": "view",
			"type": "function"
		},
		{
			"inputs": [
				{
					"internalType": "address",
					"name": "to",
					"type": "address"
				}
			],
			"name": "withdraw",
			"outputs": [],
			"stateMutability": "nonpayable",
			"type": "function"
		}
	]
}