{
	"data": {
		"bytecode": {
			"linkReferences": {},
			"object": "6101406040526040518060400160405280600c81526020017f41524d595f564f55434845520000000000000000000000000000000000000000815250600890816100499190610797565b506040518060400160405280600381526020017f312e3000000000000000000000000000000000000000000000000000000000008152506009908161008e9190610797565b5034801561009a575f80fd5b506040516156e13803806156e183398181016040528101906100bc91906108c4565b600880546100c9906105c1565b80601f01602080910402602001604051908101604052809291908181526020018280546100f5906105c1565b80156101405780601f1061011757610100808354040283529160200191610140565b820191905f5260205f20905b81548152906001019060200180831161012357829003601f168201915b505050505060098054610152906105c1565b80601f016020809104026020016040519081016040528092919081815260200182805461017e906105c1565b80156101c95780601f106101a0576101008083540402835291602001916101c9565b820191905f5260205f20905b8154815290600101906020018083116101ac57829003601f168201915b5050505050826040518060400160405280600481526020017f41726d79000000000000000000000000000000000000000000000000000000008152506040518060400160405280600b81526020017f6f6e636861696e61726d79000000000000000000000000000000000000000000815250815f90816102499190610797565b5080600190816102599190610797565b5050505f60075f6101000a81548160ff0219169083151502179055505f73ffffffffffffffffffffffffffffffffffffffff168173ffffffffffffffffffffffffffffffffffffffff16036102e5575f6040517f1e4fbdf70000000000000000000000000000000000000000000000000000000081526004016102dc91906108fe565b60405180910390fd5b6102f48161045f60201b60201c565b505f828051906020012090505f828051906020012090505f7f8b73c3c69bb8fe3d512ecc4cf759cc79239f7b179b0ffacaa9a75d522b39400f90508260e081815250508161010081815250504660a0818152505061035981848461052460201b60201c565b608081815250503073ffffffffffffffffffffffffffffffffffffffff1660c08173ffffffffffffffffffffffffffffffffffffffff168152505080610120818152505050505050505f600a81905550611388600b81905550669536c708910000600c81905550666a94d74f430000600d819055505f60145f6101000a81548160ff0219169083151502179055505f601460016101000a81548160ff0219169083151502179055506107084261040f9190610944565b600e81905550667c585087238000600f819055505f601460026101000a81548160ff0219169083151502179055506107084261044b9190610944565b6010819055506019601181905550506109ef565b5f600760019054906101000a900473ffffffffffffffffffffffffffffffffffffffff16905081600760016101000a81548173ffffffffffffffffffffffffffffffffffffffff021916908373ffffffffffffffffffffffffffffffffffffffff1602179055508173ffffffffffffffffffffffffffffffffffffffff168173ffffffffffffffffffffffffffffffffffffffff167f8be0079c531659141344cd1fd0a4f28419497f9722a3daafe3b4186f6b6457e060405160405180910390a35050565b5f838383463060405160200161053e95949392919061099e565b6040516020818303038152906040528051906020012090509392505050565b5f81519050919050565b7f4e487b71000000000000000000000000000000000000000000000000000000005f52604160045260245ffd5b7f4e487b71000000000000000000000000000000000000000000000000000000005f52602260045260245ffd5b5f60028204905060018216806105d857607f821691505b6020821081036105eb576105ea610594565b5b50919050565b5f819050815f5260205f209050919050565b5f6020601f8301049050919050565b5f82821b905092915050565b5f6008830261064d7fffffffffffffffffffffffffffffffffffffffffffffffffffffffffffffffff82610612565b6106578683610612565b95508019841693508086168417925050509392505050565b5f819050919050565b5f819050919050565b5f61069b6106966106918461066f565b610678565b61066f565b9050919050565b5f819050919050565b6106b483610681565b6106c86106c0826106a2565b84845461061e565b825550505050565b5f90565b6106dc6106d0565b6106e78184846106ab565b505050565b5b8181101561070a576106ff5f826106d4565b6001810190506106ed565b5050565b601f82111561074f57610720816105f1565b61072984610603565b81016020851015610738578190505b61074c61074485610603565b8301826106ec565b50505b505050565b5f82821c905092915050565b5f61076f5f1984600802610754565b1980831691505092915050565b5f6107878383610760565b9150826002028217905092915050565b6107a08261055d565b67ffffffffffffffff8111156107b9576107b8610567565b5b6107c382546105c1565b6107ce82828561070e565b5f60209050601f8311600181146107ff575f84156107ed578287015190505b6107f7858261077c565b86555061085e565b601f19841661080d866105f1565b5f5b828110156108345784890151825560018201915060208501945060208101905061080f565b86831015610851578489015161084d601f891682610760565b8355505b6001600288020188555050505b505050505050565b5f80fd5b5f73ffffffffffffffffffffffffffffffffffffffff82169050919050565b5f6108938261086a565b9050919050565b6108a381610889565b81146108ad575f80fd5b50565b5f815190506108be8161089a565b92915050565b5f602082840312156108d9576108d8610866565b5b5f6108e6848285016108b0565b91505092915050565b6108f881610889565b82525050565b5f6020820190506109115f8301846108ef565b92915050565b7f4e487b71000000000000000000000000000000000000000000000000000000005f52601160045260245ffd5b5f61094e8261066f565b91506109598361066f565b925082820190508082111561097157610970610917565b5b92915050565b5f819050919050565b61098981610977565b82525050565b6109988161066f565b82525050565b5f60a0820190506109b15f830188610980565b6109be6020830187610980565b6109cb6040830186610980565b6109d8606083018561098f565b6109e560808301846108ef565b9695505050505050565b60805160a05160c05160e0516101005161012051614cab610a365f395f6127ed01525f61282f01525f61280e01525f61274301525f61279901525f6127c20152614cab5ff3fe6080604052600436106102fe575f3560e01c80636352211e1161018f578063a2309ff8116100db578063cb98652d11610094578063dba660621161006e578063dba6606214610ab0578063dc53fd9214610ada578063e985e9c514610b04578063f2fde38b14610b40576102fe565b8063cb98652d14610a42578063cd64154a14610a6c578063d7192b9a14610a88576102fe565b8063a2309ff814610960578063ae0614f11461098a578063afe206d4146109b2578063b88d4fde146109c8578063badc6643146109f0578063c87b56dd14610a06576102fe565b80638143c261116101485780638a333b50116101225780638a333b50146108ba5780638da5cb5b146108e457806395d89b411461090e578063a22cb46514610938576102fe565b80638143c2611461082c5780638456cb5914610868578063849084d31461087e576102fe565b80636352211e1461072e5780636770ec831461076a57806370a0823114610794578063715018a6146107d0578063728917d4146107e657806372f9efcf14610810576102fe565b80633f1cdbdf1161024e5780634a2eb4b7116102075780635145ae2a116101e15780635145ae2a1461068a57806351cff8d9146106b45780635c975abb146106dc5780635d82cf6e14610706576102fe565b80634a2eb4b7146106245780634a7634961461064c5780634ee9558214610674576102fe565b80633f1cdbdf1461051e5780633f4ba83a1461055a5780633fa9d0e41461057057806342842e0e1461059857806342966c68146105c057806348c04722146105e8576102fe565b8063197348b7116102bb57806327c7dde71161029557806327c7dde7146104865780632f4f52ed146104b0578063345c911b146104d85780633d016e59146104f4576102fe565b8063197348b7146103f857806323b872dd146104225780632747fa191461044a576102fe565b806301ffc9a714610302578063064608e21461033e57806306fdde0314610354578063081812fc1461037e578063095ea7b3146103ba57806316d1534a146103e2575b5f80fd5b34801561030d575f80fd5b50610328600480360381019061032391906133fa565b610b68565b604051610335919061343f565b60405180910390f35b348015610349575f80fd5b50610352610b79565b005b34801561035f575f80fd5b50610368610b97565b60405161037591906134c8565b60405180910390f35b348015610389575f80fd5b506103a4600480360381019061039f919061351b565b610c26565b6040516103b19190613585565b60405180910390f35b3480156103c5575f80fd5b506103e060048036038101906103db91906135c8565b610c41565b005b3480156103ed575f80fd5b506103f6610c57565b005b348015610403575f80fd5b5061040c610c75565b6040516104199190613615565b60405180910390f35b34801561042d575f80fd5b506104486004803603810190610443919061362e565b610c7b565b005b348015610455575f80fd5b50610470600480360381019061046b91906137f1565b610d7a565b60405161047d919061343f565b60405180910390f35b348015610491575f80fd5b5061049a610d90565b6040516104a7919061343f565b60405180910390f35b3480156104bb575f80fd5b506104d660048036038101906104d1919061351b565b610da2565b005b6104f260048036038101906104ed91906138fb565b610db4565b005b3480156104ff575f80fd5b5061050861102d565b6040516105159190613615565b60405180910390f35b348015610529575f80fd5b50610544600480360381019061053f919061351b565b611033565b604051610551919061343f565b60405180910390f35b348015610565575f80fd5b5061056e611050565b005b34801561057b575f80fd5b5061059660048036038101906105919190613997565b611062565b005b3480156105a3575f80fd5b506105be60048036038101906105b9919061362e565b611074565b005b3480156105cb575f80fd5b506105e660048036038101906105e1919061351b565b611093565b005b3480156105f3575f80fd5b5061060e600480360381019061060991906137f1565b6110a9565b60405161061b919061343f565b60405180910390f35b34801561062f575f80fd5b5061064a60048036038101906106459190613997565b6110bf565b005b348015610657575f80fd5b50610672600480360381019061066d919061351b565b6110d1565b005b34801561067f575f80fd5b506106886110e3565b005b348015610695575f80fd5b5061069e611117565b6040516106ab919061343f565b60405180910390f35b3480156106bf575f80fd5b506106da60048036038101906106d591906139c2565b61112a565b005b3480156106e7575f80fd5b506106f0611179565b6040516106fd919061343f565b60405180910390f35b348015610711575f80fd5b5061072c6004803603810190610727919061351b565b61118e565b005b348015610739575f80fd5b50610754600480360381019061074f919061351b565b6111a0565b6040516107619190613585565b60405180910390f35b348015610775575f80fd5b5061077e6111b1565b60405161078b9190613615565b60405180910390f35b34801561079f575f80fd5b506107ba60048036038101906107b591906139c2565b6111b7565b6040516107c79190613615565b60405180910390f35b3480156107db575f80fd5b506107e461126d565b005b3480156107f1575f80fd5b506107fa611280565b604051610807919061343f565b60405180910390f35b61082a600480360381019061082591906138fb565b611293565b005b348015610837575f80fd5b50610852600480360381019061084d91906139c2565b6113f9565b60405161085f9190613615565b60405180910390f35b348015610873575f80fd5b5061087c61140e565b005b348015610889575f80fd5b506108a4600480360381019061089f9190613a0f565b611420565b6040516108b19190613585565b60405180910390f35b3480156108c5575f80fd5b506108ce61151b565b6040516108db9190613615565b60405180910390f35b3480156108ef575f80fd5b506108f8611521565b6040516109059190613585565b60405180910390f35b348015610919575f80fd5b5061092261154a565b60405161092f91906134c8565b60405180910390f35b348015610943575f80fd5b5061095e60048036038101906109599190613a80565b6115da565b005b34801561096b575f80fd5b506109746115f0565b6040516109819190613615565b60405180910390f35b348015610995575f80fd5b506109b060048036038101906109ab919061351b565b6115f6565b005b3480156109bd575f80fd5b506109c6611608565b005b3480156109d3575f80fd5b506109ee60048036038101906109e99190613b5c565b61163a565b005b3480156109fb575f80fd5b50610a0461165f565b005b348015610a11575f80fd5b50610a2c6004803603810190610a27919061351b565b611693565b604051610a3991906134c8565b60405180910390f35b348015610a4d575f80fd5b50610a566116a5565b604051610a639190613615565b60405180910390f35b610a866004803603810190610a819190613a0f565b6116ab565b005b348015610a93575f80fd5b50610aae6004803603810190610aa99190613d7a565b61183a565b005b348015610abb575f80fd5b50610ac46118ed565b604051610ad19190613615565b60405180910390f35b348015610ae5575f80fd5b50610aee6118f3565b604051610afb9190613615565b60405180910390f35b348015610b0f575f80fd5b50610b2a6004803603810190610b259190613e02565b6118f9565b604051610b37919061343f565b60405180910390f35b348015610b4b575f80fd5b50610b666004803603810190610b6191906139c2565b611987565b005b5f610b7282611a0b565b9050919050565b610b81611a6b565b61070842610b8f9190613e6d565b601081905550565b60605f8054610ba590613ecd565b80601f0160208091040260200160405190810160405280929190818152602001828054610bd190613ecd565b8015610c1c5780601f10610bf357610100808354040283529160200191610c1c565b820191905f5260205f20905b815481529060010190602001808311610bff57829003601f168201915b5050505050905090565b5f610c3082611af2565b50610c3a82611b78565b9050919050565b610c538282610c4e611bb1565b611bb8565b5050565b610c5f611a6b565b61070842610c6d9190613e6d565b600e81905550565b600f5481565b5f73ffffffffffffffffffffffffffffffffffffffff168273ffffffffffffffffffffffffffffffffffffffff1603610ceb575f6040517f64a0ae92000000000000000000000000000000000000000000000000000000008152600401610ce29190613585565b60405180910390fd5b5f610cfe8383610cf9611bb1565b611bca565b90508373ffffffffffffffffffffffffffffffffffffffff168173ffffffffffffffffffffffffffffffffffffffff1614610d74578382826040517f64283d7b000000000000000000000000000000000000000000000000000000008152600401610d6b93929190613efd565b60405180910390fd5b50505050565b5f610d888360135484611bdf565b905092915050565b60145f9054906101000a900460ff1681565b610daa611a6b565b80600f8190555050565b34600f54811015610dfa576040517f08c379a0000000000000000000000000000000000000000000000000000000008152600401610df190613f7c565b60405180910390fd5b426010541015610e3f576040517f08c379a0000000000000000000000000000000000000000000000000000000008152600401610e3690613fe4565b60405180910390fd5b8185610e718282604051602001610e569190614047565b60405160208183030381529060405280519060200120610d7a565b610eb0576040517f08c379a0000000000000000000000000000000000000000000000000000000008152600401610ea7906140ab565b60405180910390fd5b60011515601460029054906101000a900460ff16151514610f06576040517f08c379a0000000000000000000000000000000000000000000000000000000008152600401610efd90614113565b60405180910390fd5b60115460165f8973ffffffffffffffffffffffffffffffffffffffff1673ffffffffffffffffffffffffffffffffffffffff1681526020019081526020015f205410610f87576040517f08c379a0000000000000000000000000000000000000000000000000000000008152600401610f7e9061417b565b60405180910390fd5b610f92878787611bf5565b60165f8873ffffffffffffffffffffffffffffffffffffffff1673ffffffffffffffffffffffffffffffffffffffff1681526020019081526020015f205f815480929190610fdf90614199565b9190505560165f8973ffffffffffffffffffffffffffffffffffffffff1673ffffffffffffffffffffffffffffffffffffffff1681526020019081526020015f208190555050505050505050565b600d5481565b6015602052805f5260405f205f915054906101000a900460ff1681565b611058611a6b565b611060611d00565b565b61106a611a6b565b8060128190555050565b61108e83838360405180602001604052805f81525061163a565b505050565b6110a55f826110a0611bb1565b611bca565b5050565b5f6110b78360125484611bdf565b905092915050565b6110c7611a6b565b8060138190555050565b6110d9611a6b565b8060118190555050565b6110eb611a6b565b601460019054906101000a900460ff1615601460016101000a81548160ff021916908315150217905550565b601460029054906101000a900460ff1681565b611132611a6b565b8073ffffffffffffffffffffffffffffffffffffffff166108fc4790811502906040515f60405180830381858888f19350505050158015611175573d5f803e3d5ffd5b5050565b5f60075f9054906101000a900460ff16905090565b611196611a6b565b80600c8190555050565b5f6111aa82611af2565b9050919050565b60105481565b5f8073ffffffffffffffffffffffffffffffffffffffff168273ffffffffffffffffffffffffffffffffffffffff1603611228575f6040517f89c62b6400000000000000000000000000000000000000000000000000000000815260040161121f9190613585565b60405180910390fd5b60035f8373ffffffffffffffffffffffffffffffffffffffff1673ffffffffffffffffffffffffffffffffffffffff1681526020019081526020015f20549050919050565b611275611a6b565b61127e5f611d61565b565b601460019054906101000a900460ff1681565b34600d548110156112d9576040517f08c379a00000000000000000000000000000000000000000000000000000000081526004016112d090613f7c565b60405180910390fd5b42600e54101561131e576040517f08c379a000000000000000000000000000000000000000000000000000000000815260040161131590613fe4565b60405180910390fd5b818561135082826040516020016113359190614047565b604051602081830303815290604052805190602001206110a9565b61138f576040517f08c379a0000000000000000000000000000000000000000000000000000000008152600401611386906140ab565b60405180910390fd5b60011515601460019054906101000a900460ff161515146113e5576040517f08c379a00000000000000000000000000000000000000000000000000000000081526004016113dc90614113565b60405180910390fd5b6113f0878787611bf5565b50505050505050565b6016602052805f5260405f205f915090505481565b611416611a6b565b61141e611e26565b565b5f806114b17f829f579ea5dd9d4c9dccaf3975c777e9267645c47d7660f893c191adf4f0ea85845f01602081019061145891906139c2565b856020013586806040019061146d91906141ec565b60405161147b92919061427c565b604051809103902060405160200161149694939291906142a3565b60405160208183030381529060405280519060200120611e88565b90505f61150f828580606001906114c891906142e6565b8080601f0160208091040260200160405190810160405280939291908181526020018383808284375f81840152601f19601f82011690508083019250505050505050611ea1565b90508092505050919050565b600b5481565b5f600760019054906101000a900473ffffffffffffffffffffffffffffffffffffffff16905090565b60606001805461155990613ecd565b80601f016020809104026020016040519081016040528092919081815260200182805461158590613ecd565b80156115d05780601f106115a7576101008083540402835291602001916115d0565b820191905f5260205f20905b8154815290600101906020018083116115b357829003601f168201915b5050505050905090565b6115ec6115e5611bb1565b8383611ec6565b5050565b600a5481565b6115fe611a6b565b80600d8190555050565b611610611a6b565b60145f9054906101000a900460ff161560145f6101000a81548160ff021916908315150217905550565b611645848484610c7b565b611659611650611bb1565b8585858561202f565b50505050565b611667611a6b565b601460029054906101000a900460ff1615601460026101000a81548160ff021916908315150217905550565b606061169e826121db565b9050919050565b60115481565b6001151560145f9054906101000a900460ff16151514611700576040517f08c379a00000000000000000000000000000000000000000000000000000000081526004016116f790614113565b60405180910390fd5b34600c54811015611746576040517f08c379a000000000000000000000000000000000000000000000000000000000815260040161173d90613f7c565b60405180910390fd5b8161175081611420565b73ffffffffffffffffffffffffffffffffffffffff1661176e611521565b73ffffffffffffffffffffffffffffffffffffffff16146117c4576040517f08c379a00000000000000000000000000000000000000000000000000000000081526004016117bb90614392565b60405180910390fd5b611835835f0160208101906117d991906139c2565b84602001358580604001906117ee91906141ec565b8080601f0160208091040260200160405190810160405280939291908181526020018383808284375f81840152601f19601f82011690508083019250505050505050611bf5565b505050565b611842611a6b565b8051825114611886576040517f08c379a000000000000000000000000000000000000000000000000000000000815260040161187d906143fa565b60405180910390fd5b5f5b82518110156118e7575f8382815181106118a5576118a4614418565b5b602002602001015190505f8383815181106118c3576118c2614418565b5b602002602001015190506118d8868383611bf5565b50508080600101915050611888565b50505050565b600e5481565b600c5481565b5f60055f8473ffffffffffffffffffffffffffffffffffffffff1673ffffffffffffffffffffffffffffffffffffffff1681526020019081526020015f205f8373ffffffffffffffffffffffffffffffffffffffff1673ffffffffffffffffffffffffffffffffffffffff1681526020019081526020015f205f9054906101000a900460ff16905092915050565b61198f611a6b565b5f73ffffffffffffffffffffffffffffffffffffffff168173ffffffffffffffffffffffffffffffffffffffff16036119ff575f6040517f1e4fbdf70000000000000000000000000000000000000000000000000000000081526004016119f69190613585565b60405180910390fd5b611a0881611d61565b50565b5f634906490660e01b7bffffffffffffffffffffffffffffffffffffffffffffffffffffffff1916827bffffffffffffffffffffffffffffffffffffffffffffffffffffffff19161480611a645750611a63826122e6565b5b9050919050565b611a73611bb1565b73ffffffffffffffffffffffffffffffffffffffff16611a91611521565b73ffffffffffffffffffffffffffffffffffffffff1614611af057611ab4611bb1565b6040517f118cdaa7000000000000000000000000000000000000000000000000000000008152600401611ae79190613585565b60405180910390fd5b565b5f80611afd836123c7565b90505f73ffffffffffffffffffffffffffffffffffffffff168173ffffffffffffffffffffffffffffffffffffffff1603611b6f57826040517f7e273289000000000000000000000000000000000000000000000000000000008152600401611b669190613615565b60405180910390fd5b80915050919050565b5f60045f8381526020019081526020015f205f9054906101000a900473ffffffffffffffffffffffffffffffffffffffff169050919050565b5f33905090565b611bc58383836001612400565b505050565b5f611bd68484846125bf565b90509392505050565b5f82611beb85846125dc565b1490509392505050565b600b54600a541115611c3c576040517f08c379a0000000000000000000000000000000000000000000000000000000008152600401611c339061448f565b60405180910390fd5b816001151560155f8381526020019081526020015f205f9054906101000a900460ff16151503611ca1576040517f08c379a0000000000000000000000000000000000000000000000000000000008152600401611c98906144f7565b60405180910390fd5b600a5f815480929190611cb390614199565b91905055600a81905550600160155f8581526020019081526020015f205f6101000a81548160ff021916908315150217905550611cf08484612648565b611cfa8383612665565b50505050565b611d086126bf565b5f60075f6101000a81548160ff0219169083151502179055507f5db9ee0a495bf2e6ff9c91a7834c1ba4fdd244a5e8aa4e537bd38aeae4b073aa611d4a611bb1565b604051611d579190613585565b60405180910390a1565b5f600760019054906101000a900473ffffffffffffffffffffffffffffffffffffffff16905081600760016101000a81548173ffffffffffffffffffffffffffffffffffffffff021916908373ffffffffffffffffffffffffffffffffffffffff1602179055508173ffffffffffffffffffffffffffffffffffffffff168173ffffffffffffffffffffffffffffffffffffffff167f8be0079c531659141344cd1fd0a4f28419497f9722a3daafe3b4186f6b6457e060405160405180910390a35050565b611e2e6126ff565b600160075f6101000a81548160ff0219169083151502179055507f62e78cea01bee320cd4e420270b5ea74000d11b0c9f74754ebdbfc544b05a258611e71611bb1565b604051611e7e9190613585565b60405180910390a1565b5f611e9a611e94612740565b83612859565b9050919050565b5f805f611eae858561288b565b91509150611ebb816128d7565b819250505092915050565b5f73ffffffffffffffffffffffffffffffffffffffff168273ffffffffffffffffffffffffffffffffffffffff1603611f3657816040517f5b08ba18000000000000000000000000000000000000000000000000000000008152600401611f2d9190613585565b60405180910390fd5b8060055f8573ffffffffffffffffffffffffffffffffffffffff1673ffffffffffffffffffffffffffffffffffffffff1681526020019081526020015f205f8473ffffffffffffffffffffffffffffffffffffffff1673ffffffffffffffffffffffffffffffffffffffff1681526020019081526020015f205f6101000a81548160ff0219169083151502179055508173ffffffffffffffffffffffffffffffffffffffff168373ffffffffffffffffffffffffffffffffffffffff167f17307eab39ab6107e8899845ad3d59bd9653f200f220920489ca2b5937696c3183604051612022919061343f565b60405180910390a3505050565b5f8373ffffffffffffffffffffffffffffffffffffffff163b11156121d4578273ffffffffffffffffffffffffffffffffffffffff1663150b7a02868685856040518563ffffffff1660e01b815260040161208d9493929190614567565b6020604051808303815f875af19250505080156120c857506040513d601f19601f820116820180604052508101906120c591906145c5565b60015b612149573d805f81146120f6576040519150601f19603f3d011682016040523d82523d5f602084013e6120fb565b606091505b505f81510361214157836040517f64a0ae920000000000000000000000000000000000000000000000000000000081526004016121389190613585565b60405180910390fd5b805181602001fd5b63150b7a0260e01b7bffffffffffffffffffffffffffffffffffffffffffffffffffffffff1916817bffffffffffffffffffffffffffffffffffffffffffffffffffffffff1916146121d257836040517f64a0ae920000000000000000000000000000000000000000000000000000000081526004016121c99190613585565b60405180910390fd5b505b5050505050565b60606121e682611af2565b505f60065f8481526020019081526020015f20805461220490613ecd565b80601f016020809104026020016040519081016040528092919081815260200182805461223090613ecd565b801561227b5780601f106122525761010080835404028352916020019161227b565b820191905f5260205f20905b81548152906001019060200180831161225e57829003601f168201915b505050505090505f61228b612aa2565b90505f81510361229f5781925050506122e1565b5f825111156122d35780826040516020016122bb92919061462a565b604051602081830303815290604052925050506122e1565b6122dc84612ab8565b925050505b919050565b5f7f80ac58cd000000000000000000000000000000000000000000000000000000007bffffffffffffffffffffffffffffffffffffffffffffffffffffffff1916827bffffffffffffffffffffffffffffffffffffffffffffffffffffffff191614806123b057507f5b5e139f000000000000000000000000000000000000000000000000000000007bffffffffffffffffffffffffffffffffffffffffffffffffffffffff1916827bffffffffffffffffffffffffffffffffffffffffffffffffffffffff1916145b806123c057506123bf82612b1e565b5b9050919050565b5f60025f8381526020019081526020015f205f9054906101000a900473ffffffffffffffffffffffffffffffffffffffff169050919050565b808061243857505f73ffffffffffffffffffffffffffffffffffffffff168273ffffffffffffffffffffffffffffffffffffffff1614155b1561256a575f61244784611af2565b90505f73ffffffffffffffffffffffffffffffffffffffff168373ffffffffffffffffffffffffffffffffffffffff16141580156124b157508273ffffffffffffffffffffffffffffffffffffffff168173ffffffffffffffffffffffffffffffffffffffff1614155b80156124c457506124c281846118f9565b155b1561250657826040517fa9fbf51f0000000000000000000000000000000000000000000000000000000081526004016124fd9190613585565b60405180910390fd5b811561256857838573ffffffffffffffffffffffffffffffffffffffff168273ffffffffffffffffffffffffffffffffffffffff167f8c5be1e5ebec7d5bd14f71427d1e84f3dd0314c0f7b2291e5b200ac8c7c3b92560405160405180910390a45b505b8360045f8581526020019081526020015f205f6101000a81548173ffffffffffffffffffffffffffffffffffffffff021916908373ffffffffffffffffffffffffffffffffffffffff16021790555050505050565b5f6125c86126ff565b6125d3848484612b87565b90509392505050565b5f808290505f5b845181101561263d575f858281518110612600576125ff614418565b5b602002602001015190508083116126225761261b8382612d92565b925061262f565b61262c8184612d92565b92505b5080806001019150506125e3565b508091505092915050565b612661828260405180602001604052805f815250612da6565b5050565b8060065f8481526020019081526020015f20908161268391906147ea565b507ff8e1a15aba9398e019f0b49df1a4fde98ee17ae345cb5f6b5e2c27f5033e8ce7826040516126b39190613615565b60405180910390a15050565b6126c7611179565b6126fd576040517f8dfc202b00000000000000000000000000000000000000000000000000000000815260040160405180910390fd5b565b612707611179565b1561273e576040517fd93c066500000000000000000000000000000000000000000000000000000000815260040160405180910390fd5b565b5f7f000000000000000000000000000000000000000000000000000000000000000073ffffffffffffffffffffffffffffffffffffffff163073ffffffffffffffffffffffffffffffffffffffff161480156127bb57507f000000000000000000000000000000000000000000000000000000000000000046145b156127e8577f00000000000000000000000000000000000000000000000000000000000000009050612856565b6128537f00000000000000000000000000000000000000000000000000000000000000007f00000000000000000000000000000000000000000000000000000000000000007f0000000000000000000000000000000000000000000000000000000000000000612dc9565b90505b90565b5f828260405160200161286d929190614923565b60405160208183030381529060405280519060200120905092915050565b5f8060418351036128c8575f805f602086015192506040860151915060608601515f1a90506128bc87828585612e02565b945094505050506128d0565b5f6002915091505b9250929050565b5f60048111156128ea576128e9614959565b5b8160048111156128fd576128fc614959565b5b0315612a9f576001600481111561291757612916614959565b5b81600481111561292a57612929614959565b5b0361296a576040517f08c379a0000000000000000000000000000000000000000000000000000000008152600401612961906149d0565b60405180910390fd5b6002600481111561297e5761297d614959565b5b81600481111561299157612990614959565b5b036129d1576040517f08c379a00000000000000000000000000000000000000000000000000000000081526004016129c890614a38565b60405180910390fd5b600360048111156129e5576129e4614959565b5b8160048111156129f8576129f7614959565b5b03612a38576040517f08c379a0000000000000000000000000000000000000000000000000000000008152600401612a2f90614ac6565b60405180910390fd5b600480811115612a4b57612a4a614959565b5b816004811115612a5e57612a5d614959565b5b03612a9e576040517f08c379a0000000000000000000000000000000000000000000000000000000008152600401612a9590614b54565b60405180910390fd5b5b50565b606060405180602001604052805f815250905090565b6060612ac382611af2565b505f612acd612aa2565b90505f815111612aeb5760405180602001604052805f815250612b16565b80612af584612f03565b604051602001612b0692919061462a565b6040516020818303038152906040525b915050919050565b5f7f01ffc9a7000000000000000000000000000000000000000000000000000000007bffffffffffffffffffffffffffffffffffffffffffffffffffffffff1916827bffffffffffffffffffffffffffffffffffffffffffffffffffffffff1916149050919050565b5f80612b92846123c7565b90505f73ffffffffffffffffffffffffffffffffffffffff168373ffffffffffffffffffffffffffffffffffffffff1614612bd357612bd2818486612fcd565b5b5f73ffffffffffffffffffffffffffffffffffffffff168173ffffffffffffffffffffffffffffffffffffffff1614612c5e57612c125f855f80612400565b600160035f8373ffffffffffffffffffffffffffffffffffffffff1673ffffffffffffffffffffffffffffffffffffffff1681526020019081526020015f205f82825403925050819055505b5f73ffffffffffffffffffffffffffffffffffffffff168573ffffffffffffffffffffffffffffffffffffffff1614612cdd57600160035f8773ffffffffffffffffffffffffffffffffffffffff1673ffffffffffffffffffffffffffffffffffffffff1681526020019081526020015f205f82825401925050819055505b8460025f8681526020019081526020015f205f6101000a81548173ffffffffffffffffffffffffffffffffffffffff021916908373ffffffffffffffffffffffffffffffffffffffff160217905550838573ffffffffffffffffffffffffffffffffffffffff168273ffffffffffffffffffffffffffffffffffffffff167fddf252ad1be2c89b69c2b068fc378daa952ba7f163c4a11628f55a4df523b3ef60405160405180910390a4809150509392505050565b5f825f528160205260405f20905092915050565b612db08383613090565b612dc4612dbb611bb1565b5f85858561202f565b505050565b5f8383834630604051602001612de3959493929190614b72565b6040516020818303038152906040528051906020012090509392505050565b5f807f7fffffffffffffffffffffffffffffff5d576e7357a4501ddfe92f46681b20a0835f1c1115612e3a575f600391509150612efa565b601b8560ff1614158015612e525750601c8560ff1614155b15612e63575f600491509150612efa565b5f6001878787876040515f8152602001604052604051612e869493929190614bde565b6020604051602081039080840390855afa158015612ea6573d5f803e3d5ffd5b5050506020604051035190505f73ffffffffffffffffffffffffffffffffffffffff168173ffffffffffffffffffffffffffffffffffffffff1603612ef2575f60019250925050612efa565b805f92509250505b94509492505050565b60605f6001612f1184613183565b0190505f8167ffffffffffffffff811115612f2f57612f2e613682565b5b6040519080825280601f01601f191660200182016040528015612f615781602001600182028036833780820191505090505b5090505f82602001820190505b600115612fc2578080600190039150507f3031323334353637383961626364656600000000000000000000000000000000600a86061a8153600a8581612fb757612fb6614c21565b5b0494505f8503612f6e575b819350505050919050565b612fd88383836132d4565b61308b575f73ffffffffffffffffffffffffffffffffffffffff168373ffffffffffffffffffffffffffffffffffffffff160361304c57806040517f7e2732890000000000000000000000000000000000000000000000000000000081526004016130439190613615565b60405180910390fd5b81816040517f177e802f000000000000000000000000000000000000000000000000000000008152600401613082929190614c4e565b60405180910390fd5b505050565b5f73ffffffffffffffffffffffffffffffffffffffff168273ffffffffffffffffffffffffffffffffffffffff1603613100575f6040517f64a0ae920000000000000000000000000000000000000000000000000000000081526004016130f79190613585565b60405180910390fd5b5f61310c83835f611bca565b90505f73ffffffffffffffffffffffffffffffffffffffff168173ffffffffffffffffffffffffffffffffffffffff161461317e575f6040517f73c6ac6e0000000000000000000000000000000000000000000000000000000081526004016131759190613585565b60405180910390fd5b505050565b5f805f90507a184f03e93ff9f4daa797ed6e38ed64bf6a1f01000000000000000083106131df577a184f03e93ff9f4daa797ed6e38ed64bf6a1f01000000000000000083816131d5576131d4614c21565b5b0492506040810190505b6d04ee2d6d415b85acef8100000000831061321c576d04ee2d6d415b85acef8100000000838161321257613211614c21565b5b0492506020810190505b662386f26fc10000831061324b57662386f26fc10000838161324157613240614c21565b5b0492506010810190505b6305f5e1008310613274576305f5e100838161326a57613269614c21565b5b0492506008810190505b612710831061329957612710838161328f5761328e614c21565b5b0492506004810190505b606483106132bc57606483816132b2576132b1614c21565b5b0492506002810190505b600a83106132cb576001810190505b80915050919050565b5f8073ffffffffffffffffffffffffffffffffffffffff168373ffffffffffffffffffffffffffffffffffffffff161415801561338b57508273ffffffffffffffffffffffffffffffffffffffff168473ffffffffffffffffffffffffffffffffffffffff16148061334c575061334b84846118f9565b5b8061338a57508273ffffffffffffffffffffffffffffffffffffffff1661337283611b78565b73ffffffffffffffffffffffffffffffffffffffff16145b5b90509392505050565b5f604051905090565b5f80fd5b5f80fd5b5f7fffffffff0000000000000000000000000000000000000000000000000000000082169050919050565b6133d9816133a5565b81146133e3575f80fd5b50565b5f813590506133f4816133d0565b92915050565b5f6020828403121561340f5761340e61339d565b5b5f61341c848285016133e6565b91505092915050565b5f8115159050919050565b61343981613425565b82525050565b5f6020820190506134525f830184613430565b92915050565b5f81519050919050565b5f82825260208201905092915050565b8281835e5f83830152505050565b5f601f19601f8301169050919050565b5f61349a82613458565b6134a48185613462565b93506134b4818560208601613472565b6134bd81613480565b840191505092915050565b5f6020820190508181035f8301526134e08184613490565b905092915050565b5f819050919050565b6134fa816134e8565b8114613504575f80fd5b50565b5f81359050613515816134f1565b92915050565b5f602082840312156135305761352f61339d565b5b5f61353d84828501613507565b91505092915050565b5f73ffffffffffffffffffffffffffffffffffffffff82169050919050565b5f61356f82613546565b9050919050565b61357f81613565565b82525050565b5f6020820190506135985f830184613576565b92915050565b6135a781613565565b81146135b1575f80fd5b50565b5f813590506135c28161359e565b92915050565b5f80604083850312156135de576135dd61339d565b5b5f6135eb858286016135b4565b92505060206135fc85828601613507565b9150509250929050565b61360f816134e8565b82525050565b5f6020820190506136285f830184613606565b92915050565b5f805f606084860312156136455761364461339d565b5b5f613652868287016135b4565b9350506020613663868287016135b4565b925050604061367486828701613507565b9150509250925092565b5f80fd5b7f4e487b71000000000000000000000000000000000000000000000000000000005f52604160045260245ffd5b6136b882613480565b810181811067ffffffffffffffff821117156136d7576136d6613682565b5b80604052505050565b5f6136e9613394565b90506136f582826136af565b919050565b5f67ffffffffffffffff82111561371457613713613682565b5b602082029050602081019050919050565b5f80fd5b5f819050919050565b61373b81613729565b8114613745575f80fd5b50565b5f8135905061375681613732565b92915050565b5f61376e613769846136fa565b6136e0565b9050808382526020820190506020840283018581111561379157613790613725565b5b835b818110156137ba57806137a68882613748565b845260208401935050602081019050613793565b5050509392505050565b5f82601f8301126137d8576137d761367e565b5b81356137e884826020860161375c565b91505092915050565b5f80604083850312156138075761380661339d565b5b5f83013567ffffffffffffffff811115613824576138236133a1565b5b613830858286016137c4565b925050602061384185828601613748565b9150509250929050565b5f80fd5b5f67ffffffffffffffff82111561386957613868613682565b5b61387282613480565b9050602081019050919050565b828183375f83830152505050565b5f61389f61389a8461384f565b6136e0565b9050828152602081018484840111156138bb576138ba61384b565b5b6138c684828561387f565b509392505050565b5f82601f8301126138e2576138e161367e565b5b81356138f284826020860161388d565b91505092915050565b5f805f80608085870312156139135761391261339d565b5b5f613920878288016135b4565b945050602061393187828801613507565b935050604085013567ffffffffffffffff811115613952576139516133a1565b5b61395e878288016138ce565b925050606085013567ffffffffffffffff81111561397f5761397e6133a1565b5b61398b878288016137c4565b91505092959194509250565b5f602082840312156139ac576139ab61339d565b5b5f6139b984828501613748565b91505092915050565b5f602082840312156139d7576139d661339d565b5b5f6139e4848285016135b4565b91505092915050565b5f80fd5b5f60808284031215613a0657613a056139ed565b5b81905092915050565b5f60208284031215613a2457613a2361339d565b5b5f82013567ffffffffffffffff811115613a4157613a406133a1565b5b613a4d848285016139f1565b91505092915050565b613a5f81613425565b8114613a69575f80fd5b50565b5f81359050613a7a81613a56565b92915050565b5f8060408385031215613a9657613a9561339d565b5b5f613aa3858286016135b4565b9250506020613ab485828601613a6c565b9150509250929050565b5f67ffffffffffffffff821115613ad857613ad7613682565b5b613ae182613480565b9050602081019050919050565b5f613b00613afb84613abe565b6136e0565b905082815260208101848484011115613b1c57613b1b61384b565b5b613b2784828561387f565b509392505050565b5f82601f830112613b4357613b4261367e565b5b8135613b53848260208601613aee565b91505092915050565b5f805f8060808587031215613b7457613b7361339d565b5b5f613b81878288016135b4565b9450506020613b92878288016135b4565b9350506040613ba387828801613507565b925050606085013567ffffffffffffffff811115613bc457613bc36133a1565b5b613bd087828801613b2f565b91505092959194509250565b5f67ffffffffffffffff821115613bf657613bf5613682565b5b602082029050602081019050919050565b5f613c19613c1484613bdc565b6136e0565b90508083825260208201905060208402830185811115613c3c57613c3b613725565b5b835b81811015613c655780613c518882613507565b845260208401935050602081019050613c3e565b5050509392505050565b5f82601f830112613c8357613c8261367e565b5b8135613c93848260208601613c07565b91505092915050565b5f67ffffffffffffffff821115613cb657613cb5613682565b5b602082029050602081019050919050565b5f613cd9613cd484613c9c565b6136e0565b90508083825260208201905060208402830185811115613cfc57613cfb613725565b5b835b81811015613d4357803567ffffffffffffffff811115613d2157613d2061367e565b5b808601613d2e89826138ce565b85526020850194505050602081019050613cfe565b5050509392505050565b5f82601f830112613d6157613d6061367e565b5b8135613d71848260208601613cc7565b91505092915050565b5f805f60608486031215613d9157613d9061339d565b5b5f613d9e868287016135b4565b935050602084013567ffffffffffffffff811115613dbf57613dbe6133a1565b5b613dcb86828701613c6f565b925050604084013567ffffffffffffffff811115613dec57613deb6133a1565b5b613df886828701613d4d565b9150509250925092565b5f8060408385031215613e1857613e1761339d565b5b5f613e25858286016135b4565b9250506020613e36858286016135b4565b9150509250929050565b7f4e487b71000000000000000000000000000000000000000000000000000000005f52601160045260245ffd5b5f613e77826134e8565b9150613e82836134e8565b9250828201905080821115613e9a57613e99613e40565b5b92915050565b7f4e487b71000000000000000000000000000000000000000000000000000000005f52602260045260245ffd5b5f6002820490506001821680613ee457607f821691505b602082108103613ef757613ef6613ea0565b5b50919050565b5f606082019050613f105f830186613576565b613f1d6020830185613606565b613f2a6040830184613576565b949350505050565b7f4e6f7420656e6f756768206574686572000000000000000000000000000000005f82015250565b5f613f66601083613462565b9150613f7182613f32565b602082019050919050565b5f6020820190508181035f830152613f9381613f5a565b9050919050565b7f4d696e74696e6720706861736520656e6465642e0000000000000000000000005f82015250565b5f613fce601483613462565b9150613fd982613f9a565b602082019050919050565b5f6020820190508181035f830152613ffb81613fc2565b9050919050565b5f8160601b9050919050565b5f61401882614002565b9050919050565b5f6140298261400e565b9050919050565b61404161403c82613565565b61401f565b82525050565b5f6140528284614030565b60148201915081905092915050565b7f4e6f7420612070617274206f6620416c6c6f776c6973740000000000000000005f82015250565b5f614095601783613462565b91506140a082614061565b602082019050919050565b5f6020820190508181035f8301526140c281614089565b9050919050565b7f7075626c6963206d696e74206e6f74206c6976652079657400000000000000005f82015250565b5f6140fd601883613462565b9150614108826140c9565b602082019050919050565b5f6020820190508181035f83015261412a816140f1565b9050919050565b7f6d6178696d756d206e6674206d696e7420726561636865642e000000000000005f82015250565b5f614165601983613462565b915061417082614131565b602082019050919050565b5f6020820190508181035f83015261419281614159565b9050919050565b5f6141a3826134e8565b91507fffffffffffffffffffffffffffffffffffffffffffffffffffffffffffffffff82036141d5576141d4613e40565b5b600182019050919050565b5f80fd5b5f80fd5b5f80fd5b5f8083356001602003843603038112614208576142076141e0565b5b80840192508235915067ffffffffffffffff82111561422a576142296141e4565b5b602083019250600182023603831315614246576142456141e8565b5b509250929050565b5f81905092915050565b5f614263838561424e565b935061427083858461387f565b82840190509392505050565b5f614288828486614258565b91508190509392505050565b61429d81613729565b82525050565b5f6080820190506142b65f830187614294565b6142c36020830186613576565b6142d06040830185613606565b6142dd6060830184614294565b95945050505050565b5f8083356001602003843603038112614302576143016141e0565b5b80840192508235915067ffffffffffffffff821115614324576143236141e4565b5b6020830192506001820236038313156143405761433f6141e8565b5b509250929050565b7f57726f6e67207369676e617475726500000000000000000000000000000000005f82015250565b5f61437c600f83613462565b915061438782614348565b602082019050919050565b5f6020820190508181035f8301526143a981614370565b9050919050565b7f696e76616c696420696e707574000000000000000000000000000000000000005f82015250565b5f6143e4600d83613462565b91506143ef826143b0565b602082019050919050565b5f6020820190508181035f830152614411816143d8565b9050919050565b7f4e487b71000000000000000000000000000000000000000000000000000000005f52603260045260245ffd5b7f6e667420737570706c79207265616368656400000000000000000000000000005f82015250565b5f614479601283613462565b915061448482614445565b602082019050919050565b5f6020820190508181035f8301526144a68161446d565b9050919050565b7f746f6b656e20616c7265616479206d696e7465640000000000000000000000005f82015250565b5f6144e1601483613462565b91506144ec826144ad565b602082019050919050565b5f6020820190508181035f83015261450e816144d5565b9050919050565b5f81519050919050565b5f82825260208201905092915050565b5f61453982614515565b614543818561451f565b9350614553818560208601613472565b61455c81613480565b840191505092915050565b5f60808201905061457a5f830187613576565b6145876020830186613576565b6145946040830185613606565b81810360608301526145a6818461452f565b905095945050505050565b5f815190506145bf816133d0565b92915050565b5f602082840312156145da576145d961339d565b5b5f6145e7848285016145b1565b91505092915050565b5f81905092915050565b5f61460482613458565b61460e81856145f0565b935061461e818560208601613472565b80840191505092915050565b5f61463582856145fa565b915061464182846145fa565b91508190509392505050565b5f819050815f5260205f209050919050565b5f6020601f8301049050919050565b5f82821b905092915050565b5f600883026146a97fffffffffffffffffffffffffffffffffffffffffffffffffffffffffffffffff8261466e565b6146b3868361466e565b95508019841693508086168417925050509392505050565b5f819050919050565b5f6146ee6146e96146e4846134e8565b6146cb565b6134e8565b9050919050565b5f819050919050565b614707836146d4565b61471b614713826146f5565b84845461467a565b825550505050565b5f90565b61472f614723565b61473a8184846146fe565b505050565b5b8181101561475d576147525f82614727565b600181019050614740565b5050565b601f8211156147a2576147738161464d565b61477c8461465f565b8101602085101561478b578190505b61479f6147978561465f565b83018261473f565b50505b505050565b5f82821c905092915050565b5f6147c25f19846008026147a7565b1980831691505092915050565b5f6147da83836147b3565b9150826002028217905092915050565b6147f382613458565b67ffffffffffffffff81111561480c5761480b613682565b5b6148168254613ecd565b614821828285614761565b5f60209050601f831160018114614852575f8415614840578287015190505b61484a85826147cf565b8655506148b1565b601f1984166148608661464d565b5f5b8281101561488757848901518255600182019150602085019450602081019050614862565b868310156148a457848901516148a0601f8916826147b3565b8355505b6001600288020188555050505b505050505050565b7f19010000000000000000000000000000000000000000000000000000000000005f82015250565b5f6148ed6002836145f0565b91506148f8826148b9565b600282019050919050565b5f819050919050565b61491d61491882613729565b614903565b82525050565b5f61492d826148e1565b9150614939828561490c565b602082019150614949828461490c565b6020820191508190509392505050565b7f4e487b71000000000000000000000000000000000000000000000000000000005f52602160045260245ffd5b7f45434453413a20696e76616c6964207369676e617475726500000000000000005f82015250565b5f6149ba601883613462565b91506149c582614986565b602082019050919050565b5f6020820190508181035f8301526149e7816149ae565b9050919050565b7f45434453413a20696e76616c6964207369676e6174757265206c656e677468005f82015250565b5f614a22601f83613462565b9150614a2d826149ee565b602082019050919050565b5f6020820190508181035f830152614a4f81614a16565b9050919050565b7f45434453413a20696e76616c6964207369676e6174757265202773272076616c5f8201527f7565000000000000000000000000000000000000000000000000000000000000602082015250565b5f614ab0602283613462565b9150614abb82614a56565b604082019050919050565b5f6020820190508181035f830152614add81614aa4565b9050919050565b7f45434453413a20696e76616c6964207369676e6174757265202776272076616c5f8201527f7565000000000000000000000000000000000000000000000000000000000000602082015250565b5f614b3e602283613462565b9150614b4982614ae4565b604082019050919050565b5f6020820190508181035f830152614b6b81614b32565b9050919050565b5f60a082019050614b855f830188614294565b614b926020830187614294565b614b9f6040830186614294565b614bac6060830185613606565b614bb96080830184613576565b9695505050505050565b5f60ff82169050919050565b614bd881614bc3565b82525050565b5f608082019050614bf15f830187614294565b614bfe6020830186614bcf565b614c0b6040830185614294565b614c186060830184614294565b95945050505050565b7f4e487b71000000000000000000000000000000000000000000000000000000005f52601260045260245ffd5b5f604082019050614c615f830185613576565b614c6e6020830184613606565b939250505056fea2646970667358221220cd0bac5823985b46c6368d55c98dff46b36a958556061f4a2550020cc326d65564736f6c634300081a0033",
			"opcodes": "PUSH2 0x140 PUSH1 0x40 MSTORE PUSH1 0x40 MLOAD DUP1 PUSH1 0x40 ADD PUSH1 0x40 MSTORE DUP1 PUSH1 0xC DUP2 MSTORE PUSH1 0x20 ADD PUSH32 0x41524D595F564F55434845520000000000000000000000000000000000000000 DUP2 MSTORE POP PUSH1 0x8 SWAP1 DUP2 PUSH2 0x49 SWAP2 SWAP1 PUSH2 0x797 JUMP JUMPDEST POP PUSH1 0x40 MLOAD DUP1 PUSH1 0x40 ADD PUSH1 0x40 MSTORE DUP1 PUSH1 0x3 DUP2 MSTORE PUSH1 0x20 ADD PUSH32 0x312E300000000000000000000000000000000000000000000000000000000000 DUP2 MSTORE POP PUSH1 0x9 SWAP1 DUP2 PUSH2 0x8E SWAP2 SWAP1 PUSH2 0x797 JUMP JUMPDEST POP CALLVALUE DUP1 ISZERO PUSH2 0x9A JUMPI PUSH0 DUP1 REVERT JUMPDEST POP PUSH1 0x40 MLOAD PUSH2 0x56E1 CODESIZE SUB DUP1 PUSH2 0x56E1 DUP4 CODECOPY DUP2 DUP2 ADD PUSH1 0x40 MSTORE DUP2 ADD SWAP1 PUSH2 0xBC SWAP2 SWAP1 PUSH2 0x8C4 JUMP JUMPDEST PUSH1 0x8 DUP1 SLOAD PUSH2 0xC9 SWAP1 PUSH2 0x5C1 JUMP JUMPDEST DUP1 PUSH1 0x1F ADD PUSH1 0x20 DUP1 SWAP2 DIV MUL PUSH1 0x20 ADD PUSH1 0x40 MLOAD SWAP1 DUP2 ADD PUSH1 0x40 MSTORE DUP1 SWAP3 SWAP2 SWAP1 DUP2 DUP2 MSTORE PUSH1 0x20 ADD DUP3 DUP1 SLOAD PUSH2 0xF5 SWAP1 PUSH2 0x5C1 JUMP JUMPDEST DUP1 ISZERO PUSH2 0x140 JUMPI DUP1 PUSH1 0x1F LT PUSH2 0x117 JUMPI PUSH2 0x100 DUP1 DUP4 SLOAD DIV MUL DUP4 MSTORE SWAP2 PUSH1 0x20 ADD SWAP2 PUSH2 0x140 JUMP JUMPDEST DUP3 ADD SWAP2 SWAP1 PUSH0 MSTORE PUSH1 0x20 PUSH0 KECCAK256 SWAP1 JUMPDEST DUP2 SLOAD DUP2 MSTORE SWAP1 PUSH1 0x1 ADD SWAP1 PUSH1 0x20 ADD DUP1 DUP4 GT PUSH2 0x123 JUMPI DUP3 SWAP1 SUB PUSH1 0x1F AND DUP3 ADD SWAP2 JUMPDEST POP POP POP POP POP PUSH1 0x9 DUP1 SLOAD PUSH2 0x152 SWAP1 PUSH2 0x5C1 JUMP JUMPDEST DUP1 PUSH1 0x1F ADD PUSH1 0x20 DUP1 SWAP2 DIV MUL PUSH1 0x20 ADD PUSH1 0x40 MLOAD SWAP1 DUP2 ADD PUSH1 0x40 MSTORE DUP1 SWAP3 SWAP2 SWAP1 DUP2 DUP2 MSTORE PUSH1 0x20 ADD DUP3 DUP1 SLOAD PUSH2 0x17E SWAP1 PUSH2 0x5C1 JUMP JUMPDEST DUP1 ISZERO PUSH2 0x1C9 JUMPI DUP1 PUSH1 0x1F LT PUSH2 0x1A0 JUMPI PUSH2 0x100 DUP1 DUP4 SLOAD DIV MUL DUP4 MSTORE SWAP2 PUSH1 0x20 ADD SWAP2 PUSH2 0x1C9 JUMP JUMPDEST DUP3 ADD SWAP2 SWAP1 PUSH0 MSTORE PUSH1 0x20 PUSH0 KECCAK256 SWAP1 JUMPDEST DUP2 SLOAD DUP2 MSTORE SWAP1 PUSH1 0x1 ADD SWAP1 PUSH1 0x20 ADD DUP1 DUP4 GT PUSH2 0x1AC JUMPI DUP3 SWAP1 SUB PUSH1 0x1F AND DUP3 ADD SWAP2 JUMPDEST POP POP POP POP POP DUP3 PUSH1 0x40 MLOAD DUP1 PUSH1 0x40 ADD PUSH1 0x40 MSTORE DUP1 PUSH1 0x4 DUP2 MSTORE PUSH1 0x20 ADD PUSH32 0x41726D7900000000000000000000000000000000000000000000000000000000 DUP2 MSTORE POP PUSH1 0x40 MLOAD DUP1 PUSH1 0x40 ADD PUSH1 0x40 MSTORE DUP1 PUSH1 0xB DUP2 MSTORE PUSH1 0x20 ADD PUSH32 0x6F6E636861696E61726D79000000000000000000000000000000000000000000 DUP2 MSTORE POP DUP2 PUSH0 SWAP1 DUP2 PUSH2 0x249 SWAP2 SWAP1 PUSH2 0x797 JUMP JUMPDEST POP DUP1 PUSH1 0x1 SWAP1 DUP2 PUSH2 0x259 SWAP2 SWAP1 PUSH2 0x797 JUMP JUMPDEST POP POP POP PUSH0 PUSH1 0x7 PUSH0 PUSH2 0x100 EXP DUP2 SLOAD DUP2 PUSH1 0xFF MUL NOT AND SWAP1 DUP4 ISZERO ISZERO MUL OR SWAP1 SSTORE POP PUSH0 PUSH20 0xFFFFFFFFFFFFFFFFFFFFFFFFFFFFFFFFFFFFFFFF AND DUP2 PUSH20 0xFFFFFFFFFFFFFFFFFFFFFFFFFFFFFFFFFFFFFFFF AND SUB PUSH2 0x2E5 JUMPI PUSH0 PUSH1 0x40 MLOAD PUSH32 0x1E4FBDF700000000000000000000000000000000000000000000000000000000 DUP2 MSTORE PUSH1 0x4 ADD PUSH2 0x2DC SWAP2 SWAP1 PUSH2 0x8FE JUMP JUMPDEST PUSH1 0x40 MLOAD DUP1 SWAP2 SUB SWAP1 REVERT JUMPDEST PUSH2 0x2F4 DUP2 PUSH2 0x45F PUSH1 0x20 SHL PUSH1 0x20 SHR JUMP JUMPDEST POP PUSH0 DUP3 DUP1 MLOAD SWAP1 PUSH1 0x20 ADD KECCAK256 SWAP1 POP PUSH0 DUP3 DUP1 MLOAD SWAP1 PUSH1 0x20 ADD KECCAK256 SWAP1 POP PUSH0 PUSH32 0x8B73C3C69BB8FE3D512ECC4CF759CC79239F7B179B0FFACAA9A75D522B39400F SWAP1 POP DUP3 PUSH1 0xE0 DUP2 DUP2 MSTORE POP POP DUP2 PUSH2 0x100 DUP2 DUP2 MSTORE POP POP CHAINID PUSH1 0xA0 DUP2 DUP2 MSTORE POP POP PUSH2 0x359 DUP2 DUP5 DUP5 PUSH2 0x524 PUSH1 0x20 SHL PUSH1 0x20 SHR JUMP JUMPDEST PUSH1 0x80 DUP2 DUP2 MSTORE POP POP ADDRESS PUSH20 0xFFFFFFFFFFFFFFFFFFFFFFFFFFFFFFFFFFFFFFFF AND PUSH1 0xC0 DUP2 PUSH20 0xFFFFFFFFFFFFFFFFFFFFFFFFFFFFFFFFFFFFFFFF AND DUP2 MSTORE POP POP DUP1 PUSH2 0x120 DUP2 DUP2 MSTORE POP POP POP POP POP POP POP PUSH0 PUSH1 0xA DUP2 SWAP1 SSTORE POP PUSH2 0x1388 PUSH1 0xB DUP2 SWAP1 SSTORE POP PUSH7 0x9536C708910000 PUSH1 0xC DUP2 SWAP1 SSTORE POP PUSH7 0x6A94D74F430000 PUSH1 0xD DUP2 SWAP1 SSTORE POP PUSH0 PUSH1 0x14 PUSH0 PUSH2 0x100 EXP DUP2 SLOAD DUP2 PUSH1 0xFF MUL NOT AND SWAP1 DUP4 ISZERO ISZERO MUL OR SWAP1 SSTORE POP PUSH0 PUSH1 0x14 PUSH1 0x1 PUSH2 0x100 EXP DUP2 SLOAD DUP2 PUSH1 0xFF MUL NOT AND SWAP1 DUP4 ISZERO ISZERO MUL OR SWAP1 SSTORE POP PUSH2 0x708 TIMESTAMP PUSH2 0x40F SWAP2 SWAP1 PUSH2 0x944 JUMP JUMPDEST PUSH1 0xE DUP2 SWAP1 SSTORE POP PUSH7 0x7C585087238000 PUSH1 0xF DUP2 SWAP1 SSTORE POP PUSH0 PUSH1 0x14 PUSH1 0x2 PUSH2 0x100 EXP DUP2 SLOAD DUP2 PUSH1 0xFF MUL NOT AND SWAP1 DUP4 ISZERO ISZERO MUL OR SWAP1 SSTORE POP PUSH2 0x708 TIMESTAMP PUSH2 0x44B SWAP2 SWAP1 PUSH2 0x944 JUMP JUMPDEST PUSH1 0x10 DUP2 SWAP1 SSTORE POP PUSH1 0x19 PUSH1 0x11 DUP2 SWAP1 SSTORE POP POP PUSH2 0x9EF JUMP JUMPDEST PUSH0 PUSH1 0x7 PUSH1 0x1 SWAP1 SLOAD SWAP1 PUSH2 0x100 EXP SWAP1 DIV PUSH20 0xFFFFFFFFFFFFFFFFFFFFFFFFFFFFFFFFFFFFFFFF AND SWAP1 POP DUP2 PUSH1 0x7 PUSH1 0x1 PUSH2 0x100 EXP DUP2 SLOAD DUP2 PUSH20 0xFFFFFFFFFFFFFFFFFFFFFFFFFFFFFFFFFFFFFFFF MUL NOT AND SWAP1 DUP4 PUSH20 0xFFFFFFFFFFFFFFFFFFFFFFFFFFFFFFFFFFFFFFFF AND MUL OR SWAP1 SSTORE POP DUP2 PUSH20 0xFFFFFFFFFFFFFFFFFFFFFFFFFFFFFFFFFFFFFFFF AND DUP2 PUSH20 0xFFFFFFFFFFFFFFFFFFFFFFFFFFFFFFFFFFFFFFFF AND PUSH32 0x8BE0079C531659141344CD1FD0A4F28419497F9722A3DAAFE3B4186F6B6457E0 PUSH1 0x40 MLOAD PUSH1 0x40 MLOAD DUP1 SWAP2 SUB SWAP1 LOG3 POP POP JUMP JUMPDEST PUSH0 DUP4 DUP4 DUP4 CHAINID ADDRESS PUSH1 0x40 MLOAD PUSH1 0x20 ADD PUSH2 0x53E SWAP6 SWAP5 SWAP4 SWAP3 SWAP2 SWAP1 PUSH2 0x99E JUMP JUMPDEST PUSH1 0x40 MLOAD PUSH1 0x20 DUP2 DUP4 SUB SUB DUP2 MSTORE SWAP1 PUSH1 0x40 MSTORE DUP1 MLOAD SWAP1 PUSH1 0x20 ADD KECCAK256 SWAP1 POP SWAP4 SWAP3 POP POP POP JUMP JUMPDEST PUSH0 DUP2 MLOAD SWAP1 POP SWAP2 SWAP1 POP JUMP JUMPDEST PUSH32 0x4E487B7100000000000000000000000000000000000000000000000000000000 PUSH0 MSTORE PUSH1 0x41 PUSH1 0x4 MSTORE PUSH1 0x24 PUSH0 REVERT JUMPDEST PUSH32 0x4E487B7100000000000000000000000000000000000000000000000000000000 PUSH0 MSTORE PUSH1 0x22 PUSH1 0x4 MSTORE PUSH1 0x24 PUSH0 REVERT JUMPDEST PUSH0 PUSH1 0x2 DUP3 DIV SWAP1 POP PUSH1 0x1 DUP3 AND DUP1 PUSH2 0x5D8 JUMPI PUSH1 0x7F DUP3 AND SWAP2 POP JUMPDEST PUSH1 0x20 DUP3 LT DUP2 SUB PUSH2 0x5EB JUMPI PUSH2 0x5EA PUSH2 0x594 JUMP JUMPDEST JUMPDEST POP SWAP2 SWAP1 POP JUMP JUMPDEST PUSH0 DUP2 SWAP1 POP DUP2 PUSH0 MSTORE PUSH1 0x20 PUSH0 KECCAK256 SWAP1 POP SWAP2 SWAP1 POP JUMP JUMPDEST PUSH0 PUSH1 0x20 PUSH1 0x1F DUP4 ADD DIV SWAP1 POP SWAP2 SWAP1 POP JUMP JUMPDEST PUSH0 DUP3 DUP3 SHL SWAP1 POP SWAP3 SWAP2 POP POP JUMP JUMPDEST PUSH0 PUSH1 0x8 DUP4 MUL PUSH2 0x64D PUSH32 0xFFFFFFFFFFFFFFFFFFFFFFFFFFFFFFFFFFFFFFFFFFFFFFFFFFFFFFFFFFFFFFFF DUP3 PUSH2 0x612 JUMP JUMPDEST PUSH2 0x657 DUP7 DUP4 PUSH2 0x612 JUMP JUMPDEST SWAP6 POP DUP1 NOT DUP5 AND SWAP4 POP DUP1 DUP7 AND DUP5 OR SWAP3 POP POP POP SWAP4 SWAP3 POP POP POP JUMP JUMPDEST PUSH0 DUP2 SWAP1 POP SWAP2 SWAP1 POP JUMP JUMPDEST PUSH0 DUP2 SWAP1 POP SWAP2 SWAP1 POP JUMP JUMPDEST PUSH0 PUSH2 0x69B PUSH2 0x696 PUSH2 0x691 DUP5 PUSH2 0x66F JUMP JUMPDEST PUSH2 0x678 JUMP JUMPDEST PUSH2 0x66F JUMP JUMPDEST SWAP1 POP SWAP2 SWAP1 POP JUMP JUMPDEST PUSH0 DUP2 SWAP1 POP SWAP2 SWAP1 POP JUMP JUMPDEST PUSH2 0x6B4 DUP4 PUSH2 0x681 JUMP JUMPDEST PUSH2 0x6C8 PUSH2 0x6C0 DUP3 PUSH2 0x6A2 JUMP JUMPDEST DUP5 DUP5 SLOAD PUSH2 0x61E JUMP JUMPDEST DUP3 SSTORE POP POP POP POP JUMP JUMPDEST PUSH0 SWAP1 JUMP JUMPDEST PUSH2 0x6DC PUSH2 0x6D0 JUMP JUMPDEST PUSH2 0x6E7 DUP2 DUP5 DUP5 PUSH2 0x6AB JUMP JUMPDEST POP POP POP JUMP JUMPDEST JUMPDEST DUP2 DUP2 LT ISZERO PUSH2 0x70A JUMPI PUSH2 0x6FF PUSH0 DUP3 PUSH2 0x6D4 JUMP JUMPDEST PUSH1 0x1 DUP2 ADD SWAP1 POP PUSH2 0x6ED JUMP JUMPDEST POP POP JUMP JUMPDEST PUSH1 0x1F DUP3 GT ISZERO PUSH2 0x74F JUMPI PUSH2 0x720 DUP2 PUSH2 0x5F1 JUMP JUMPDEST PUSH2 0x729 DUP5 PUSH2 0x603 JUMP JUMPDEST DUP2 ADD PUSH1 0x20 DUP6 LT ISZERO PUSH2 0x738 JUMPI DUP2 SWAP1 POP JUMPDEST PUSH2 0x74C PUSH2 0x744 DUP6 PUSH2 0x603 JUMP JUMPDEST DUP4 ADD DUP3 PUSH2 0x6EC JUMP JUMPDEST POP POP JUMPDEST POP POP POP JUMP JUMPDEST PUSH0 DUP3 DUP3 SHR SWAP1 POP SWAP3 SWAP2 POP POP JUMP JUMPDEST PUSH0 PUSH2 0x76F PUSH0 NOT DUP5 PUSH1 0x8 MUL PUSH2 0x754 JUMP JUMPDEST NOT DUP1 DUP4 AND SWAP2 POP POP SWAP3 SWAP2 POP POP JUMP JUMPDEST PUSH0 PUSH2 0x787 DUP4 DUP4 PUSH2 0x760 JUMP JUMPDEST SWAP2 POP DUP3 PUSH1 0x2 MUL DUP3 OR SWAP1 POP SWAP3 SWAP2 POP POP JUMP JUMPDEST PUSH2 0x7A0 DUP3 PUSH2 0x55D JUMP JUMPDEST PUSH8 0xFFFFFFFFFFFFFFFF DUP2 GT ISZERO PUSH2 0x7B9 JUMPI PUSH2 0x7B8 PUSH2 0x567 JUMP JUMPDEST JUMPDEST PUSH2 0x7C3 DUP3 SLOAD PUSH2 0x5C1 JUMP JUMPDEST PUSH2 0x7CE DUP3 DUP3 DUP6 PUSH2 0x70E JUMP JUMPDEST PUSH0 PUSH1 0x20 SWAP1 POP PUSH1 0x1F DUP4 GT PUSH1 0x1 DUP2 EQ PUSH2 0x7FF JUMPI PUSH0 DUP5 ISZERO PUSH2 0x7ED JUMPI DUP3 DUP8 ADD MLOAD SWAP1 POP JUMPDEST PUSH2 0x7F7 DUP6 DUP3 PUSH2 0x77C JUMP JUMPDEST DUP7 SSTORE POP PUSH2 0x85E JUMP JUMPDEST PUSH1 0x1F NOT DUP5 AND PUSH2 0x80D DUP7 PUSH2 0x5F1 JUMP JUMPDEST PUSH0 JUMPDEST DUP3 DUP2 LT ISZERO PUSH2 0x834 JUMPI DUP5 DUP10 ADD MLOAD DUP3 SSTORE PUSH1 0x1 DUP3 ADD SWAP2 POP PUSH1 0x20 DUP6 ADD SWAP5 POP PUSH1 0x20 DUP2 ADD SWAP1 POP PUSH2 0x80F JUMP JUMPDEST DUP7 DUP4 LT ISZERO PUSH2 0x851 JUMPI DUP5 DUP10 ADD MLOAD PUSH2 0x84D PUSH1 0x1F DUP10 AND DUP3 PUSH2 0x760 JUMP JUMPDEST DUP4 SSTORE POP JUMPDEST PUSH1 0x1 PUSH1 0x2 DUP9 MUL ADD DUP9 SSTORE POP POP POP JUMPDEST POP POP POP POP POP POP JUMP JUMPDEST PUSH0 DUP1 REVERT JUMPDEST PUSH0 PUSH20 0xFFFFFFFFFFFFFFFFFFFFFFFFFFFFFFFFFFFFFFFF DUP3 AND SWAP1 POP SWAP2 SWAP1 POP JUMP JUMPDEST PUSH0 PUSH2 0x893 DUP3 PUSH2 0x86A JUMP JUMPDEST SWAP1 POP SWAP2 SWAP1 POP JUMP JUMPDEST PUSH2 0x8A3 DUP2 PUSH2 0x889 JUMP JUMPDEST DUP2 EQ PUSH2 0x8AD JUMPI PUSH0 DUP1 REVERT JUMPDEST POP JUMP JUMPDEST PUSH0 DUP2 MLOAD SWAP1 POP PUSH2 0x8BE DUP2 PUSH2 0x89A JUMP JUMPDEST SWAP3 SWAP2 POP POP JUMP JUMPDEST PUSH0 PUSH1 0x20 DUP3 DUP5 SUB SLT ISZERO PUSH2 0x8D9 JUMPI PUSH2 0x8D8 PUSH2 0x866 JUMP JUMPDEST JUMPDEST PUSH0 PUSH2 0x8E6 DUP5 DUP3 DUP6 ADD PUSH2 0x8B0 JUMP JUMPDEST SWAP2 POP POP SWAP3 SWAP2 POP POP JUMP JUMPDEST PUSH2 0x8F8 DUP2 PUSH2 0x889 JUMP JUMPDEST DUP3 MSTORE POP POP JUMP JUMPDEST PUSH0 PUSH1 0x20 DUP3 ADD SWAP1 POP PUSH2 0x911 PUSH0 DUP4 ADD DUP5 PUSH2 0x8EF JUMP JUMPDEST SWAP3 SWAP2 POP POP JUMP JUMPDEST PUSH32 0x4E487B7100000000000000000000000000000000000000000000000000000000 PUSH0 MSTORE PUSH1 0x11 PUSH1 0x4 MSTORE PUSH1 0x24 PUSH0 REVERT JUMPDEST PUSH0 PUSH2 0x94E DUP3 PUSH2 0x66F JUMP JUMPDEST SWAP2 POP PUSH2 0x959 DUP4 PUSH2 0x66F JUMP JUMPDEST SWAP3 POP DUP3 DUP3 ADD SWAP1 POP DUP1 DUP3 GT ISZERO PUSH2 0x971 JUMPI PUSH2 0x970 PUSH2 0x917 JUMP JUMPDEST JUMPDEST SWAP3 SWAP2 POP POP JUMP JUMPDEST PUSH0 DUP2 SWAP1 POP SWAP2 SWAP1 POP JUMP JUMPDEST PUSH2 0x989 DUP2 PUSH2 0x977 JUMP JUMPDEST DUP3 MSTORE POP POP JUMP JUMPDEST PUSH2 0x998 DUP2 PUSH2 0x66F JUMP JUMPDEST DUP3 MSTORE POP POP JUMP JUMPDEST PUSH0 PUSH1 0xA0 DUP3 ADD SWAP1 POP PUSH2 0x9B1 PUSH0 DUP4 ADD DUP9 PUSH2 0x980 JUMP JUMPDEST PUSH2 0x9BE PUSH1 0x20 DUP4 ADD DUP8 PUSH2 0x980 JUMP JUMPDEST PUSH2 0x9CB PUSH1 0x40 DUP4 ADD DUP7 PUSH2 0x980 JUMP JUMPDEST PUSH2 0x9D8 PUSH1 0x60 DUP4 ADD DUP6 PUSH2 0x98F JUMP JUMPDEST PUSH2 0x9E5 PUSH1 0x80 DUP4 ADD DUP5 PUSH2 0x8EF JUMP JUMPDEST SWAP7 SWAP6 POP POP POP POP POP POP JUMP JUMPDEST PUSH1 0x80 MLOAD PUSH1 0xA0 MLOAD PUSH1 0xC0 MLOAD PUSH1 0xE0 MLOAD PUSH2 0x100 MLOAD PUSH2 0x120 MLOAD PUSH2 0x4CAB PUSH2 0xA36 PUSH0 CODECOPY PUSH0 PUSH2 0x27ED ADD MSTORE PUSH0 PUSH2 0x282F ADD MSTORE PUSH0 PUSH2 0x280E ADD MSTORE PUSH0 PUSH2 0x2743 ADD MSTORE PUSH0 PUSH2 0x2799 ADD MSTORE PUSH0 PUSH2 0x27C2 ADD MSTORE PUSH2 0x4CAB PUSH0 RETURN INVALID PUSH1 0x80 PUSH1 0x40 MSTORE PUSH1 0x4 CALLDATASIZE LT PUSH2 0x2FE JUMPI PUSH0 CALLDATALOAD PUSH1 0xE0 SHR DUP1 PUSH4 0x6352211E GT PUSH2 0x18F JUMPI DUP1 PUSH4 0xA2309FF8 GT PUSH2 0xDB JUMPI DUP1 PUSH4 0xCB98652D GT PUSH2 0x94 JUMPI DUP1 PUSH4 0xDBA66062 GT PUSH2 0x6E JUMPI DUP1 PUSH4 0xDBA66062 EQ PUSH2 0xAB0 JUMPI DUP1 PUSH4 0xDC53FD92 EQ PUSH2 0xADA JUMPI DUP1 PUSH4 0xE985E9C5 EQ PUSH2 0xB04 JUMPI DUP1 PUSH4 0xF2FDE38B EQ PUSH2 0xB40 JUMPI PUSH2 0x2FE JUMP JUMPDEST DUP1 PUSH4 0xCB98652D EQ PUSH2 0xA42 JUMPI DUP1 PUSH4 0xCD64154A EQ PUSH2 0xA6C JUMPI DUP1 PUSH4 0xD7192B9A EQ PUSH2 0xA88 JUMPI PUSH2 0x2FE JUMP JUMPDEST DUP1 PUSH4 0xA2309FF8 EQ PUSH2 0x960 JUMPI DUP1 PUSH4 0xAE0614F1 EQ PUSH2 0x98A JUMPI DUP1 PUSH4 0xAFE206D4 EQ PUSH2 0x9B2 JUMPI DUP1 PUSH4 0xB88D4FDE EQ PUSH2 0x9C8 JUMPI DUP1 PUSH4 0xBADC6643 EQ PUSH2 0x9F0 JUMPI DUP1 PUSH4 0xC87B56DD EQ PUSH2 0xA06 JUMPI PUSH2 0x2FE JUMP JUMPDEST DUP1 PUSH4 0x8143C261 GT PUSH2 0x148 JUMPI DUP1 PUSH4 0x8A333B50 GT PUSH2 0x122 JUMPI DUP1 PUSH4 0x8A333B50 EQ PUSH2 0x8BA JUMPI DUP1 PUSH4 0x8DA5CB5B EQ PUSH2 0x8E4 JUMPI DUP1 PUSH4 0x95D89B41 EQ PUSH2 0x90E JUMPI DUP1 PUSH4 0xA22CB465 EQ PUSH2 0x938 JUMPI PUSH2 0x2FE JUMP JUMPDEST DUP1 PUSH4 0x8143C261 EQ PUSH2 0x82C JUMPI DUP1 PUSH4 0x8456CB59 EQ PUSH2 0x868 JUMPI DUP1 PUSH4 0x849084D3 EQ PUSH2 0x87E JUMPI PUSH2 0x2FE JUMP JUMPDEST DUP1 PUSH4 0x6352211E EQ PUSH2 0x72E JUMPI DUP1 PUSH4 0x6770EC83 EQ PUSH2 0x76A JUMPI DUP1 PUSH4 0x70A08231 EQ PUSH2 0x794 JUMPI DUP1 PUSH4 0x715018A6 EQ PUSH2 0x7D0 JUMPI DUP1 PUSH4 0x728917D4 EQ PUSH2 0x7E6 JUMPI DUP1 PUSH4 0x72F9EFCF EQ PUSH2 0x810 JUMPI PUSH2 0x2FE JUMP JUMPDEST DUP1 PUSH4 0x3F1CDBDF GT PUSH2 0x24E JUMPI DUP1 PUSH4 0x4A2EB4B7 GT PUSH2 0x207 JUMPI DUP1 PUSH4 0x5145AE2A GT PUSH2 0x1E1 JUMPI DUP1 PUSH4 0x5145AE2A EQ PUSH2 0x68A JUMPI DUP1 PUSH4 0x51CFF8D9 EQ PUSH2 0x6B4 JUMPI DUP1 PUSH4 0x5C975ABB EQ PUSH2 0x6DC JUMPI DUP1 PUSH4 0x5D82CF6E EQ PUSH2 0x706 JUMPI PUSH2 0x2FE JUMP JUMPDEST DUP1 PUSH4 0x4A2EB4B7 EQ PUSH2 0x624 JUMPI DUP1 PUSH4 0x4A763496 EQ PUSH2 0x64C JUMPI DUP1 PUSH4 0x4EE95582 EQ PUSH2 0x674 JUMPI PUSH2 0x2FE JUMP JUMPDEST DUP1 PUSH4 0x3F1CDBDF EQ PUSH2 0x51E JUMPI DUP1 PUSH4 0x3F4BA83A EQ PUSH2 0x55A JUMPI DUP1 PUSH4 0x3FA9D0E4 EQ PUSH2 0x570 JUMPI DUP1 PUSH4 0x42842E0E EQ PUSH2 0x598 JUMPI DUP1 PUSH4 0x42966C68 EQ PUSH2 0x5C0 JUMPI DUP1 PUSH4 0x48C04722 EQ PUSH2 0x5E8 JUMPI PUSH2 0x2FE JUMP JUMPDEST DUP1 PUSH4 0x197348B7 GT PUSH2 0x2BB JUMPI DUP1 PUSH4 0x27C7DDE7 GT PUSH2 0x295 JUMPI DUP1 PUSH4 0x27C7DDE7 EQ PUSH2 0x486 JUMPI DUP1 PUSH4 0x2F4F52ED EQ PUSH2 0x4B0 JUMPI DUP1 PUSH4 0x345C911B EQ PUSH2 0x4D8 JUMPI DUP1 PUSH4 0x3D016E59 EQ PUSH2 0x4F4 JUMPI PUSH2 0x2FE JUMP JUMPDEST DUP1 PUSH4 0x197348B7 EQ PUSH2 0x3F8 JUMPI DUP1 PUSH4 0x23B872DD EQ PUSH2 0x422 JUMPI DUP1 PUSH4 0x2747FA19 EQ PUSH2 0x44A JUMPI PUSH2 0x2FE JUMP JUMPDEST DUP1 PUSH4 0x1FFC9A7 EQ PUSH2 0x302 JUMPI DUP1 PUSH4 0x64608E2 EQ PUSH2 0x33E JUMPI DUP1 PUSH4 0x6FDDE03 EQ PUSH2 0x354 JUMPI DUP1 PUSH4 0x81812FC EQ PUSH2 0x37E JUMPI DUP1 PUSH4 0x95EA7B3 EQ PUSH2 0x3BA JUMPI DUP1 PUSH4 0x16D1534A EQ PUSH2 0x3E2 JUMPI JUMPDEST PUSH0 DUP1 REVERT JUMPDEST CALLVALUE DUP1 ISZERO PUSH2 0x30D JUMPI PUSH0 DUP1 REVERT JUMPDEST POP PUSH2 0x328 PUSH1 0x4 DUP1 CALLDATASIZE SUB DUP2 ADD SWAP1 PUSH2 0x323 SWAP2 SWAP1 PUSH2 0x33FA JUMP JUMPDEST PUSH2 0xB68 JUMP JUMPDEST PUSH1 0x40 MLOAD PUSH2 0x335 SWAP2 SWAP1 PUSH2 0x343F JUMP JUMPDEST PUSH1 0x40 MLOAD DUP1 SWAP2 SUB SWAP1 RETURN JUMPDEST CALLVALUE DUP1 ISZERO PUSH2 0x349 JUMPI PUSH0 DUP1 REVERT JUMPDEST POP PUSH2 0x352 PUSH2 0xB79 JUMP JUMPDEST STOP JUMPDEST CALLVALUE DUP1 ISZERO PUSH2 0x35F JUMPI PUSH0 DUP1 REVERT JUMPDEST POP PUSH2 0x368 PUSH2 0xB97 JUMP JUMPDEST PUSH1 0x40 MLOAD PUSH2 0x375 SWAP2 SWAP1 PUSH2 0x34C8 JUMP JUMPDEST PUSH1 0x40 MLOAD DUP1 SWAP2 SUB SWAP1 RETURN JUMPDEST CALLVALUE DUP1 ISZERO PUSH2 0x389 JUMPI PUSH0 DUP1 REVERT JUMPDEST POP PUSH2 0x3A4 PUSH1 0x4 DUP1 CALLDATASIZE SUB DUP2 ADD SWAP1 PUSH2 0x39F SWAP2 SWAP1 PUSH2 0x351B JUMP JUMPDEST PUSH2 0xC26 JUMP JUMPDEST PUSH1 0x40 MLOAD PUSH2 0x3B1 SWAP2 SWAP1 PUSH2 0x3585 JUMP JUMPDEST PUSH1 0x40 MLOAD DUP1 SWAP2 SUB SWAP1 RETURN JUMPDEST CALLVALUE DUP1 ISZERO PUSH2 0x3C5 JUMPI PUSH0 DUP1 REVERT JUMPDEST POP PUSH2 0x3E0 PUSH1 0x4 DUP1 CALLDATASIZE SUB DUP2 ADD SWAP1 PUSH2 0x3DB SWAP2 SWAP1 PUSH2 0x35C8 JUMP JUMPDEST PUSH2 0xC41 JUMP JUMPDEST STOP JUMPDEST CALLVALUE DUP1 ISZERO PUSH2 0x3ED JUMPI PUSH0 DUP1 REVERT JUMPDEST POP PUSH2 0x3F6 PUSH2 0xC57 JUMP JUMPDEST STOP JUMPDEST CALLVALUE DUP1 ISZERO PUSH2 0x403 JUMPI PUSH0 DUP1 REVERT JUMPDEST POP PUSH2 0x40C PUSH2 0xC75 JUMP JUMPDEST PUSH1 0x40 MLOAD PUSH2 0x419 SWAP2 SWAP1 PUSH2 0x3615 JUMP JUMPDEST PUSH1 0x40 MLOAD DUP1 SWAP2 SUB SWAP1 RETURN JUMPDEST CALLVALUE DUP1 ISZERO PUSH2 0x42D JUMPI PUSH0 DUP1 REVERT JUMPDEST POP PUSH2 0x448 PUSH1 0x4 DUP1 CALLDATASIZE SUB DUP2 ADD SWAP1 PUSH2 0x443 SWAP2 SWAP1 PUSH2 0x362E JUMP JUMPDEST PUSH2 0xC7B JUMP JUMPDEST STOP JUMPDEST CALLVALUE DUP1 ISZERO PUSH2 0x455 JUMPI PUSH0 DUP1 REVERT JUMPDEST POP PUSH2 0x470 PUSH1 0x4 DUP1 CALLDATASIZE SUB DUP2 ADD SWAP1 PUSH2 0x46B SWAP2 SWAP1 PUSH2 0x37F1 JUMP JUMPDEST PUSH2 0xD7A JUMP JUMPDEST PUSH1 0x40 MLOAD PUSH2 0x47D SWAP2 SWAP1 PUSH2 0x343F JUMP JUMPDEST PUSH1 0x40 MLOAD DUP1 SWAP2 SUB SWAP1 RETURN JUMPDEST CALLVALUE DUP1 ISZERO PUSH2 0x491 JUMPI PUSH0 DUP1 REVERT JUMPDEST POP PUSH2 0x49A PUSH2 0xD90 JUMP JUMPDEST PUSH1 0x40 MLOAD PUSH2 0x4A7 SWAP2 SWAP1 PUSH2 0x343F JUMP JUMPDEST PUSH1 0x40 MLOAD DUP1 SWAP2 SUB SWAP1 RETURN JUMPDEST CALLVALUE DUP1 ISZERO PUSH2 0x4BB JUMPI PUSH0 DUP1 REVERT JUMPDEST POP PUSH2 0x4D6 PUSH1 0x4 DUP1 CALLDATASIZE SUB DUP2 ADD SWAP1 PUSH2 0x4D1 SWAP2 SWAP1 PUSH2 0x351B JUMP JUMPDEST PUSH2 0xDA2 JUMP JUMPDEST STOP JUMPDEST PUSH2 0x4F2 PUSH1 0x4 DUP1 CALLDATASIZE SUB DUP2 ADD SWAP1 PUSH2 0x4ED SWAP2 SWAP1 PUSH2 0x38FB JUMP JUMPDEST PUSH2 0xDB4 JUMP JUMPDEST STOP JUMPDEST CALLVALUE DUP1 ISZERO PUSH2 0x4FF JUMPI PUSH0 DUP1 REVERT JUMPDEST POP PUSH2 0x508 PUSH2 0x102D JUMP JUMPDEST PUSH1 0x40 MLOAD PUSH2 0x515 SWAP2 SWAP1 PUSH2 0x3615 JUMP JUMPDEST PUSH1 0x40 MLOAD DUP1 SWAP2 SUB SWAP1 RETURN JUMPDEST CALLVALUE DUP1 ISZERO PUSH2 0x529 JUMPI PUSH0 DUP1 REVERT JUMPDEST POP PUSH2 0x544 PUSH1 0x4 DUP1 CALLDATASIZE SUB DUP2 ADD SWAP1 PUSH2 0x53F SWAP2 SWAP1 PUSH2 0x351B JUMP JUMPDEST PUSH2 0x1033 JUMP JUMPDEST PUSH1 0x40 MLOAD PUSH2 0x551 SWAP2 SWAP1 PUSH2 0x343F JUMP JUMPDEST PUSH1 0x40 MLOAD DUP1 SWAP2 SUB SWAP1 RETURN JUMPDEST CALLVALUE DUP1 ISZERO PUSH2 0x565 JUMPI PUSH0 DUP1 REVERT JUMPDEST POP PUSH2 0x56E PUSH2 0x1050 JUMP JUMPDEST STOP JUMPDEST CALLVALUE DUP1 ISZERO PUSH2 0x57B JUMPI PUSH0 DUP1 REVERT JUMPDEST POP PUSH2 0x596 PUSH1 0x4 DUP1 CALLDATASIZE SUB DUP2 ADD SWAP1 PUSH2 0x591 SWAP2 SWAP1 PUSH2 0x3997 JUMP JUMPDEST PUSH2 0x1062 JUMP JUMPDEST STOP JUMPDEST CALLVALUE DUP1 ISZERO PUSH2 0x5A3 JUMPI PUSH0 DUP1 REVERT JUMPDEST POP PUSH2 0x5BE PUSH1 0x4 DUP1 CALLDATASIZE SUB DUP2 ADD SWAP1 PUSH2 0x5B9 SWAP2 SWAP1 PUSH2 0x362E JUMP JUMPDEST PUSH2 0x1074 JUMP JUMPDEST STOP JUMPDEST CALLVALUE DUP1 ISZERO PUSH2 0x5CB JUMPI PUSH0 DUP1 REVERT JUMPDEST POP PUSH2 0x5E6 PUSH1 0x4 DUP1 CALLDATASIZE SUB DUP2 ADD SWAP1 PUSH2 0x5E1 SWAP2 SWAP1 PUSH2 0x351B JUMP JUMPDEST PUSH2 0x1093 JUMP JUMPDEST STOP JUMPDEST CALLVALUE DUP1 ISZERO PUSH2 0x5F3 JUMPI PUSH0 DUP1 REVERT JUMPDEST POP PUSH2 0x60E PUSH1 0x4 DUP1 CALLDATASIZE SUB DUP2 ADD SWAP1 PUSH2 0x609 SWAP2 SWAP1 PUSH2 0x37F1 JUMP JUMPDEST PUSH2 0x10A9 JUMP JUMPDEST PUSH1 0x40 MLOAD PUSH2 0x61B SWAP2 SWAP1 PUSH2 0x343F JUMP JUMPDEST PUSH1 0x40 MLOAD DUP1 SWAP2 SUB SWAP1 RETURN JUMPDEST CALLVALUE DUP1 ISZERO PUSH2 0x62F JUMPI PUSH0 DUP1 REVERT JUMPDEST POP PUSH2 0x64A PUSH1 0x4 DUP1 CALLDATASIZE SUB DUP2 ADD SWAP1 PUSH2 0x645 SWAP2 SWAP1 PUSH2 0x3997 JUMP JUMPDEST PUSH2 0x10BF JUMP JUMPDEST STOP JUMPDEST CALLVALUE DUP1 ISZERO PUSH2 0x657 JUMPI PUSH0 DUP1 REVERT JUMPDEST POP PUSH2 0x672 PUSH1 0x4 DUP1 CALLDATASIZE SUB DUP2 ADD SWAP1 PUSH2 0x66D SWAP2 SWAP1 PUSH2 0x351B JUMP JUMPDEST PUSH2 0x10D1 JUMP JUMPDEST STOP JUMPDEST CALLVALUE DUP1 ISZERO PUSH2 0x67F JUMPI PUSH0 DUP1 REVERT JUMPDEST POP PUSH2 0x688 PUSH2 0x10E3 JUMP JUMPDEST STOP JUMPDEST CALLVALUE DUP1 ISZERO PUSH2 0x695 JUMPI PUSH0 DUP1 REVERT JUMPDEST POP PUSH2 0x69E PUSH2 0x1117 JUMP JUMPDEST PUSH1 0x40 MLOAD PUSH2 0x6AB SWAP2 SWAP1 PUSH2 0x343F JUMP JUMPDEST PUSH1 0x40 MLOAD DUP1 SWAP2 SUB SWAP1 RETURN JUMPDEST CALLVALUE DUP1 ISZERO PUSH2 0x6BF JUMPI PUSH0 DUP1 REVERT JUMPDEST POP PUSH2 0x6DA PUSH1 0x4 DUP1 CALLDATASIZE SUB DUP2 ADD SWAP1 PUSH2 0x6D5 SWAP2 SWAP1 PUSH2 0x39C2 JUMP JUMPDEST PUSH2 0x112A JUMP JUMPDEST STOP JUMPDEST CALLVALUE DUP1 ISZERO PUSH2 0x6E7 JUMPI PUSH0 DUP1 REVERT JUMPDEST POP PUSH2 0x6F0 PUSH2 0x1179 JUMP JUMPDEST PUSH1 0x40 MLOAD PUSH2 0x6FD SWAP2 SWAP1 PUSH2 0x343F JUMP JUMPDEST PUSH1 0x40 MLOAD DUP1 SWAP2 SUB SWAP1 RETURN JUMPDEST CALLVALUE DUP1 ISZERO PUSH2 0x711 JUMPI PUSH0 DUP1 REVERT JUMPDEST POP PUSH2 0x72C PUSH1 0x4 DUP1 CALLDATASIZE SUB DUP2 ADD SWAP1 PUSH2 0x727 SWAP2 SWAP1 PUSH2 0x351B JUMP JUMPDEST PUSH2 0x118E JUMP JUMPDEST STOP JUMPDEST CALLVALUE DUP1 ISZERO PUSH2 0x739 JUMPI PUSH0 DUP1 REVERT JUMPDEST POP PUSH2 0x754 PUSH1 0x4 DUP1 CALLDATASIZE SUB DUP2 ADD SWAP1 PUSH2 0x74F SWAP2 SWAP1 PUSH2 0x351B JUMP JUMPDEST PUSH2 0x11A0 JUMP JUMPDEST PUSH1 0x40 MLOAD PUSH2 0x761 SWAP2 SWAP1 PUSH2 0x3585 JUMP JUMPDEST PUSH1 0x40 MLOAD DUP1 SWAP2 SUB SWAP1 RETURN JUMPDEST CALLVALUE DUP1 ISZERO PUSH2 0x775 JUMPI PUSH0 DUP1 REVERT JUMPDEST POP PUSH2 0x77E PUSH2 0x11B1 JUMP JUMPDEST PUSH1 0x40 MLOAD PUSH2 0x78B SWAP2 SWAP1 PUSH2 0x3615 JUMP JUMPDEST PUSH1 0x40 MLOAD DUP1 SWAP2 SUB SWAP1 RETURN JUMPDEST CALLVALUE DUP1 ISZERO PUSH2 0x79F JUMPI PUSH0 DUP1 REVERT JUMPDEST POP PUSH2 0x7BA PUSH1 0x4 DUP1 CALLDATASIZE SUB DUP2 ADD SWAP1 PUSH2 0x7B5 SWAP2 SWAP1 PUSH2 0x39C2 JUMP JUMPDEST PUSH2 0x11B7 JUMP JUMPDEST PUSH1 0x40 MLOAD PUSH2 0x7C7 SWAP2 SWAP1 PUSH2 0x3615 JUMP JUMPDEST PUSH1 0x40 MLOAD DUP1 SWAP2 SUB SWAP1 RETURN JUMPDEST CALLVALUE DUP1 ISZERO PUSH2 0x7DB JUMPI PUSH0 DUP1 REVERT JUMPDEST POP PUSH2 0x7E4 PUSH2 0x126D JUMP JUMPDEST STOP JUMPDEST CALLVALUE DUP1 ISZERO PUSH2 0x7F1 JUMPI PUSH0 DUP1 REVERT JUMPDEST POP PUSH2 0x7FA PUSH2 0x1280 JUMP JUMPDEST PUSH1 0x40 MLOAD PUSH2 0x807 SWAP2 SWAP1 PUSH2 0x343F JUMP JUMPDEST PUSH1 0x40 MLOAD DUP1 SWAP2 SUB SWAP1 RETURN JUMPDEST PUSH2 0x82A PUSH1 0x4 DUP1 CALLDATASIZE SUB DUP2 ADD SWAP1 PUSH2 0x825 SWAP2 SWAP1 PUSH2 0x38FB JUMP JUMPDEST PUSH2 0x1293 JUMP JUMPDEST STOP JUMPDEST CALLVALUE DUP1 ISZERO PUSH2 0x837 JUMPI PUSH0 DUP1 REVERT JUMPDEST POP PUSH2 0x852 PUSH1 0x4 DUP1 CALLDATASIZE SUB DUP2 ADD SWAP1 PUSH2 0x84D SWAP2 SWAP1 PUSH2 0x39C2 JUMP JUMPDEST PUSH2 0x13F9 JUMP JUMPDEST PUSH1 0x40 MLOAD PUSH2 0x85F SWAP2 SWAP1 PUSH2 0x3615 JUMP JUMPDEST PUSH1 0x40 MLOAD DUP1 SWAP2 SUB SWAP1 RETURN JUMPDEST CALLVALUE DUP1 ISZERO PUSH2 0x873 JUMPI PUSH0 DUP1 REVERT JUMPDEST POP PUSH2 0x87C PUSH2 0x140E JUMP JUMPDEST STOP JUMPDEST CALLVALUE DUP1 ISZERO PUSH2 0x889 JUMPI PUSH0 DUP1 REVERT JUMPDEST POP PUSH2 0x8A4 PUSH1 0x4 DUP1 CALLDATASIZE SUB DUP2 ADD SWAP1 PUSH2 0x89F SWAP2 SWAP1 PUSH2 0x3A0F JUMP JUMPDEST PUSH2 0x1420 JUMP JUMPDEST PUSH1 0x40 MLOAD PUSH2 0x8B1 SWAP2 SWAP1 PUSH2 0x3585 JUMP JUMPDEST PUSH1 0x40 MLOAD DUP1 SWAP2 SUB SWAP1 RETURN JUMPDEST CALLVALUE DUP1 ISZERO PUSH2 0x8C5 JUMPI PUSH0 DUP1 REVERT JUMPDEST POP PUSH2 0x8CE PUSH2 0x151B JUMP JUMPDEST PUSH1 0x40 MLOAD PUSH2 0x8DB SWAP2 SWAP1 PUSH2 0x3615 JUMP JUMPDEST PUSH1 0x40 MLOAD DUP1 SWAP2 SUB SWAP1 RETURN JUMPDEST CALLVALUE DUP1 ISZERO PUSH2 0x8EF JUMPI PUSH0 DUP1 REVERT JUMPDEST POP PUSH2 0x8F8 PUSH2 0x1521 JUMP JUMPDEST PUSH1 0x40 MLOAD PUSH2 0x905 SWAP2 SWAP1 PUSH2 0x3585 JUMP JUMPDEST PUSH1 0x40 MLOAD DUP1 SWAP2 SUB SWAP1 RETURN JUMPDEST CALLVALUE DUP1 ISZERO PUSH2 0x919 JUMPI PUSH0 DUP1 REVERT JUMPDEST POP PUSH2 0x922 PUSH2 0x154A JUMP JUMPDEST PUSH1 0x40 MLOAD PUSH2 0x92F SWAP2 SWAP1 PUSH2 0x34C8 JUMP JUMPDEST PUSH1 0x40 MLOAD DUP1 SWAP2 SUB SWAP1 RETURN JUMPDEST CALLVALUE DUP1 ISZERO PUSH2 0x943 JUMPI PUSH0 DUP1 REVERT JUMPDEST POP PUSH2 0x95E PUSH1 0x4 DUP1 CALLDATASIZE SUB DUP2 ADD SWAP1 PUSH2 0x959 SWAP2 SWAP1 PUSH2 0x3A80 JUMP JUMPDEST PUSH2 0x15DA JUMP JUMPDEST STOP JUMPDEST CALLVALUE DUP1 ISZERO PUSH2 0x96B JUMPI PUSH0 DUP1 REVERT JUMPDEST POP PUSH2 0x974 PUSH2 0x15F0 JUMP JUMPDEST PUSH1 0x40 MLOAD PUSH2 0x981 SWAP2 SWAP1 PUSH2 0x3615 JUMP JUMPDEST PUSH1 0x40 MLOAD DUP1 SWAP2 SUB SWAP1 RETURN JUMPDEST CALLVALUE DUP1 ISZERO PUSH2 0x995 JUMPI PUSH0 DUP1 REVERT JUMPDEST POP PUSH2 0x9B0 PUSH1 0x4 DUP1 CALLDATASIZE SUB DUP2 ADD SWAP1 PUSH2 0x9AB SWAP2 SWAP1 PUSH2 0x351B JUMP JUMPDEST PUSH2 0x15F6 JUMP JUMPDEST STOP JUMPDEST CALLVALUE DUP1 ISZERO PUSH2 0x9BD JUMPI PUSH0 DUP1 REVERT JUMPDEST POP PUSH2 0x9C6 PUSH2 0x1608 JUMP JUMPDEST STOP JUMPDEST CALLVALUE DUP1 ISZERO PUSH2 0x9D3 JUMPI PUSH0 DUP1 REVERT JUMPDEST POP PUSH2 0x9EE PUSH1 0x4 DUP1 CALLDATASIZE SUB DUP2 ADD SWAP1 PUSH2 0x9E9 SWAP2 SWAP1 PUSH2 0x3B5C JUMP JUMPDEST PUSH2 0x163A JUMP JUMPDEST STOP JUMPDEST CALLVALUE DUP1 ISZERO PUSH2 0x9FB JUMPI PUSH0 DUP1 REVERT JUMPDEST POP PUSH2 0xA04 PUSH2 0x165F JUMP JUMPDEST STOP JUMPDEST CALLVALUE DUP1 ISZERO PUSH2 0xA11 JUMPI PUSH0 DUP1 REVERT JUMPDEST POP PUSH2 0xA2C PUSH1 0x4 DUP1 CALLDATASIZE SUB DUP2 ADD SWAP1 PUSH2 0xA27 SWAP2 SWAP1 PUSH2 0x351B JUMP JUMPDEST PUSH2 0x1693 JUMP JUMPDEST PUSH1 0x40 MLOAD PUSH2 0xA39 SWAP2 SWAP1 PUSH2 0x34C8 JUMP JUMPDEST PUSH1 0x40 MLOAD DUP1 SWAP2 SUB SWAP1 RETURN JUMPDEST CALLVALUE DUP1 ISZERO PUSH2 0xA4D JUMPI PUSH0 DUP1 REVERT JUMPDEST POP PUSH2 0xA56 PUSH2 0x16A5 JUMP JUMPDEST PUSH1 0x40 MLOAD PUSH2 0xA63 SWAP2 SWAP1 PUSH2 0x3615 JUMP JUMPDEST PUSH1 0x40 MLOAD DUP1 SWAP2 SUB SWAP1 RETURN JUMPDEST PUSH2 0xA86 PUSH1 0x4 DUP1 CALLDATASIZE SUB DUP2 ADD SWAP1 PUSH2 0xA81 SWAP2 SWAP1 PUSH2 0x3A0F JUMP JUMPDEST PUSH2 0x16AB JUMP JUMPDEST STOP JUMPDEST CALLVALUE DUP1 ISZERO PUSH2 0xA93 JUMPI PUSH0 DUP1 REVERT JUMPDEST POP PUSH2 0xAAE PUSH1 0x4 DUP1 CALLDATASIZE SUB DUP2 ADD SWAP1 PUSH2 0xAA9 SWAP2 SWAP1 PUSH2 0x3D7A JUMP JUMPDEST PUSH2 0x183A JUMP JUMPDEST STOP JUMPDEST CALLVALUE DUP1 ISZERO PUSH2 0xABB JUMPI PUSH0 DUP1 REVERT JUMPDEST POP PUSH2 0xAC4 PUSH2 0x18ED JUMP JUMPDEST PUSH1 0x40 MLOAD PUSH2 0xAD1 SWAP2 SWAP1 PUSH2 0x3615 JUMP JUMPDEST PUSH1 0x40 MLOAD DUP1 SWAP2 SUB SWAP1 RETURN JUMPDEST CALLVALUE DUP1 ISZERO PUSH2 0xAE5 JUMPI PUSH0 DUP1 REVERT JUMPDEST POP PUSH2 0xAEE PUSH2 0x18F3 JUMP JUMPDEST PUSH1 0x40 MLOAD PUSH2 0xAFB SWAP2 SWAP1 PUSH2 0x3615 JUMP JUMPDEST PUSH1 0x40 MLOAD DUP1 SWAP2 SUB SWAP1 RETURN JUMPDEST CALLVALUE DUP1 ISZERO PUSH2 0xB0F JUMPI PUSH0 DUP1 REVERT JUMPDEST POP PUSH2 0xB2A PUSH1 0x4 DUP1 CALLDATASIZE SUB DUP2 ADD SWAP1 PUSH2 0xB25 SWAP2 SWAP1 PUSH2 0x3E02 JUMP JUMPDEST PUSH2 0x18F9 JUMP JUMPDEST PUSH1 0x40 MLOAD PUSH2 0xB37 SWAP2 SWAP1 PUSH2 0x343F JUMP JUMPDEST PUSH1 0x40 MLOAD DUP1 SWAP2 SUB SWAP1 RETURN JUMPDEST CALLVALUE DUP1 ISZERO PUSH2 0xB4B JUMPI PUSH0 DUP1 REVERT JUMPDEST POP PUSH2 0xB66 PUSH1 0x4 DUP1 CALLDATASIZE SUB DUP2 ADD SWAP1 PUSH2 0xB61 SWAP2 SWAP1 PUSH2 0x39C2 JUMP JUMPDEST PUSH2 0x1987 JUMP JUMPDEST STOP JUMPDEST PUSH0 PUSH2 0xB72 DUP3 PUSH2 0x1A0B JUMP JUMPDEST SWAP1 POP SWAP2 SWAP1 POP JUMP JUMPDEST PUSH2 0xB81 PUSH2 0x1A6B JUMP JUMPDEST PUSH2 0x708 TIMESTAMP PUSH2 0xB8F SWAP2 SWAP1 PUSH2 0x3E6D JUMP JUMPDEST PUSH1 0x10 DUP2 SWAP1 SSTORE POP JUMP JUMPDEST PUSH1 0x60 PUSH0 DUP1 SLOAD PUSH2 0xBA5 SWAP1 PUSH2 0x3ECD JUMP JUMPDEST DUP1 PUSH1 0x1F ADD PUSH1 0x20 DUP1 SWAP2 DIV MUL PUSH1 0x20 ADD PUSH1 0x40 MLOAD SWAP1 DUP2 ADD PUSH1 0x40 MSTORE DUP1 SWAP3 SWAP2 SWAP1 DUP2 DUP2 MSTORE PUSH1 0x20 ADD DUP3 DUP1 SLOAD PUSH2 0xBD1 SWAP1 PUSH2 0x3ECD JUMP JUMPDEST DUP1 ISZERO PUSH2 0xC1C JUMPI DUP1 PUSH1 0x1F LT PUSH2 0xBF3 JUMPI PUSH2 0x100 DUP1 DUP4 SLOAD DIV MUL DUP4 MSTORE SWAP2 PUSH1 0x20 ADD SWAP2 PUSH2 0xC1C JUMP JUMPDEST DUP3 ADD SWAP2 SWAP1 PUSH0 MSTORE PUSH1 0x20 PUSH0 KECCAK256 SWAP1 JUMPDEST DUP2 SLOAD DUP2 MSTORE SWAP1 PUSH1 0x1 ADD SWAP1 PUSH1 0x20 ADD DUP1 DUP4 GT PUSH2 0xBFF JUMPI DUP3 SWAP1 SUB PUSH1 0x1F AND DUP3 ADD SWAP2 JUMPDEST POP POP POP POP POP SWAP1 POP SWAP1 JUMP JUMPDEST PUSH0 PUSH2 0xC30 DUP3 PUSH2 0x1AF2 JUMP JUMPDEST POP PUSH2 0xC3A DUP3 PUSH2 0x1B78 JUMP JUMPDEST SWAP1 POP SWAP2 SWAP1 POP JUMP JUMPDEST PUSH2 0xC53 DUP3 DUP3 PUSH2 0xC4E PUSH2 0x1BB1 JUMP JUMPDEST PUSH2 0x1BB8 JUMP JUMPDEST POP POP JUMP JUMPDEST PUSH2 0xC5F PUSH2 0x1A6B JUMP JUMPDEST PUSH2 0x708 TIMESTAMP PUSH2 0xC6D SWAP2 SWAP1 PUSH2 0x3E6D JUMP JUMPDEST PUSH1 0xE DUP2 SWAP1 SSTORE POP JUMP JUMPDEST PUSH1 0xF SLOAD DUP2 JUMP JUMPDEST PUSH0 PUSH20 0xFFFFFFFFFFFFFFFFFFFFFFFFFFFFFFFFFFFFFFFF AND DUP3 PUSH20 0xFFFFFFFFFFFFFFFFFFFFFFFFFFFFFFFFFFFFFFFF AND SUB PUSH2 0xCEB JUMPI PUSH0 PUSH1 0x40 MLOAD PUSH32 0x64A0AE9200000000000000000000000000000000000000000000000000000000 DUP2 MSTORE PUSH1 0x4 ADD PUSH2 0xCE2 SWAP2 SWAP1 PUSH2 0x3585 JUMP JUMPDEST PUSH1 0x40 MLOAD DUP1 SWAP2 SUB SWAP1 REVERT JUMPDEST PUSH0 PUSH2 0xCFE DUP4 DUP4 PUSH2 0xCF9 PUSH2 0x1BB1 JUMP JUMPDEST PUSH2 0x1BCA JUMP JUMPDEST SWAP1 POP DUP4 PUSH20 0xFFFFFFFFFFFFFFFFFFFFFFFFFFFFFFFFFFFFFFFF AND DUP2 PUSH20 0xFFFFFFFFFFFFFFFFFFFFFFFFFFFFFFFFFFFFFFFF AND EQ PUSH2 0xD74 JUMPI DUP4 DUP3 DUP3 PUSH1 0x40 MLOAD PUSH32 0x64283D7B00000000000000000000000000000000000000000000000000000000 DUP2 MSTORE PUSH1 0x4 ADD PUSH2 0xD6B SWAP4 SWAP3 SWAP2 SWAP1 PUSH2 0x3EFD JUMP JUMPDEST PUSH1 0x40 MLOAD DUP1 SWAP2 SUB SWAP1 REVERT JUMPDEST POP POP POP POP JUMP JUMPDEST PUSH0 PUSH2 0xD88 DUP4 PUSH1 0x13 SLOAD DUP5 PUSH2 0x1BDF JUMP JUMPDEST SWAP1 POP SWAP3 SWAP2 POP POP JUMP JUMPDEST PUSH1 0x14 PUSH0 SWAP1 SLOAD SWAP1 PUSH2 0x100 EXP SWAP1 DIV PUSH1 0xFF AND DUP2 JUMP JUMPDEST PUSH2 0xDAA PUSH2 0x1A6B JUMP JUMPDEST DUP1 PUSH1 0xF DUP2 SWAP1 SSTORE POP POP JUMP JUMPDEST CALLVALUE PUSH1 0xF SLOAD DUP2 LT ISZERO PUSH2 0xDFA JUMPI PUSH1 0x40 MLOAD PUSH32 0x8C379A000000000000000000000000000000000000000000000000000000000 DUP2 MSTORE PUSH1 0x4 ADD PUSH2 0xDF1 SWAP1 PUSH2 0x3F7C JUMP JUMPDEST PUSH1 0x40 MLOAD DUP1 SWAP2 SUB SWAP1 REVERT JUMPDEST TIMESTAMP PUSH1 0x10 SLOAD LT ISZERO PUSH2 0xE3F JUMPI PUSH1 0x40 MLOAD PUSH32 0x8C379A000000000000000000000000000000000000000000000000000000000 DUP2 MSTORE PUSH1 0x4 ADD PUSH2 0xE36 SWAP1 PUSH2 0x3FE4 JUMP JUMPDEST PUSH1 0x40 MLOAD DUP1 SWAP2 SUB SWAP1 REVERT JUMPDEST DUP2 DUP6 PUSH2 0xE71 DUP3 DUP3 PUSH1 0x40 MLOAD PUSH1 0x20 ADD PUSH2 0xE56 SWAP2 SWAP1 PUSH2 0x4047 JUMP JUMPDEST PUSH1 0x40 MLOAD PUSH1 0x20 DUP2 DUP4 SUB SUB DUP2 MSTORE SWAP1 PUSH1 0x40 MSTORE DUP1 MLOAD SWAP1 PUSH1 0x20 ADD KECCAK256 PUSH2 0xD7A JUMP JUMPDEST PUSH2 0xEB0 JUMPI PUSH1 0x40 MLOAD PUSH32 0x8C379A000000000000000000000000000000000000000000000000000000000 DUP2 MSTORE PUSH1 0x4 ADD PUSH2 0xEA7 SWAP1 PUSH2 0x40AB JUMP JUMPDEST PUSH1 0x40 MLOAD DUP1 SWAP2 SUB SWAP1 REVERT JUMPDEST PUSH1 0x1 ISZERO ISZERO PUSH1 0x14 PUSH1 0x2 SWAP1 SLOAD SWAP1 PUSH2 0x100 EXP SWAP1 DIV PUSH1 0xFF AND ISZERO ISZERO EQ PUSH2 0xF06 JUMPI PUSH1 0x40 MLOAD PUSH32 0x8C379A000000000000000000000000000000000000000000000000000000000 DUP2 MSTORE PUSH1 0x4 ADD PUSH2 0xEFD SWAP1 PUSH2 0x4113 JUMP JUMPDEST PUSH1 0x40 MLOAD DUP1 SWAP2 SUB SWAP1 REVERT JUMPDEST PUSH1 0x11 SLOAD PUSH1 0x16 PUSH0 DUP10 PUSH20 0xFFFFFFFFFFFFFFFFFFFFFFFFFFFFFFFFFFFFFFFF AND PUSH20 0xFFFFFFFFFFFFFFFFFFFFFFFFFFFFFFFFFFFFFFFF AND DUP2 MSTORE PUSH1 0x20 ADD SWAP1 DUP2 MSTORE PUSH1 0x20 ADD PUSH0 KECCAK256 SLOAD LT PUSH2 0xF87 JUMPI PUSH1 0x40 MLOAD PUSH32 0x8C379A000000000000000000000000000000000000000000000000000000000 DUP2 MSTORE PUSH1 0x4 ADD PUSH2 0xF7E SWAP1 PUSH2 0x417B JUMP JUMPDEST PUSH1 0x40 MLOAD DUP1 SWAP2 SUB SWAP1 REVERT JUMPDEST PUSH2 0xF92 DUP8 DUP8 DUP8 PUSH2 0x1BF5 JUMP JUMPDEST PUSH1 0x16 PUSH0 DUP9 PUSH20 0xFFFFFFFFFFFFFFFFFFFFFFFFFFFFFFFFFFFFFFFF AND PUSH20 0xFFFFFFFFFFFFFFFFFFFFFFFFFFFFFFFFFFFFFFFF AND DUP2 MSTORE PUSH1 0x20 ADD SWAP1 DUP2 MSTORE PUSH1 0x20 ADD PUSH0 KECCAK256 PUSH0 DUP2 SLOAD DUP1 SWAP3 SWAP2 SWAP1 PUSH2 0xFDF SWAP1 PUSH2 0x4199 JUMP JUMPDEST SWAP2 SWAP1 POP SSTORE PUSH1 0x16 PUSH0 DUP10 PUSH20 0xFFFFFFFFFFFFFFFFFFFFFFFFFFFFFFFFFFFFFFFF AND PUSH20 0xFFFFFFFFFFFFFFFFFFFFFFFFFFFFFFFFFFFFFFFF AND DUP2 MSTORE PUSH1 0x20 ADD SWAP1 DUP2 MSTORE PUSH1 0x20 ADD PUSH0 KECCAK256 DUP2 SWAP1 SSTORE POP POP POP POP POP POP POP POP JUMP JUMPDEST PUSH1 0xD SLOAD DUP2 JUMP JUMPDEST PUSH1 0x15 PUSH1 0x20 MSTORE DUP1 PUSH0 MSTORE PUSH1 0x40 PUSH0 KECCAK256 PUSH0 SWAP2 POP SLOAD SWAP1 PUSH2 0x100 EXP SWAP1 DIV PUSH1 0xFF AND DUP2 JUMP JUMPDEST PUSH2 0x1058 PUSH2 0x1A6B JUMP JUMPDEST PUSH2 0x1060 PUSH2 0x1D00 JUMP JUMPDEST JUMP JUMPDEST PUSH2 0x106A PUSH2 0x1A6B JUMP JUMPDEST DUP1 PUSH1 0x12 DUP2 SWAP1 SSTORE POP POP JUMP JUMPDEST PUSH2 0x108E DUP4 DUP4 DUP4 PUSH1 0x40 MLOAD DUP1 PUSH1 0x20 ADD PUSH1 0x40 MSTORE DUP1 PUSH0 DUP2 MSTORE POP PUSH2 0x163A JUMP JUMPDEST POP POP POP JUMP JUMPDEST PUSH2 0x10A5 PUSH0 DUP3 PUSH2 0x10A0 PUSH2 0x1BB1 JUMP JUMPDEST PUSH2 0x1BCA JUMP JUMPDEST POP POP JUMP JUMPDEST PUSH0 PUSH2 0x10B7 DUP4 PUSH1 0x12 SLOAD DUP5 PUSH2 0x1BDF JUMP JUMPDEST SWAP1 POP SWAP3 SWAP2 POP POP JUMP JUMPDEST PUSH2 0x10C7 PUSH2 0x1A6B JUMP JUMPDEST DUP1 PUSH1 0x13 DUP2 SWAP1 SSTORE POP POP JUMP JUMPDEST PUSH2 0x10D9 PUSH2 0x1A6B JUMP JUMPDEST DUP1 PUSH1 0x11 DUP2 SWAP1 SSTORE POP POP JUMP JUMPDEST PUSH2 0x10EB PUSH2 0x1A6B JUMP JUMPDEST PUSH1 0x14 PUSH1 0x1 SWAP1 SLOAD SWAP1 PUSH2 0x100 EXP SWAP1 DIV PUSH1 0xFF AND ISZERO PUSH1 0x14 PUSH1 0x1 PUSH2 0x100 EXP DUP2 SLOAD DUP2 PUSH1 0xFF MUL NOT AND SWAP1 DUP4 ISZERO ISZERO MUL OR SWAP1 SSTORE POP JUMP JUMPDEST PUSH1 0x14 PUSH1 0x2 SWAP1 SLOAD SWAP1 PUSH2 0x100 EXP SWAP1 DIV PUSH1 0xFF AND DUP2 JUMP JUMPDEST PUSH2 0x1132 PUSH2 0x1A6B JUMP JUMPDEST DUP1 PUSH20 0xFFFFFFFFFFFFFFFFFFFFFFFFFFFFFFFFFFFFFFFF AND PUSH2 0x8FC SELFBALANCE SWAP1 DUP2 ISZERO MUL SWAP1 PUSH1 0x40 MLOAD PUSH0 PUSH1 0x40 MLOAD DUP1 DUP4 SUB DUP2 DUP6 DUP9 DUP9 CALL SWAP4 POP POP POP POP ISZERO DUP1 ISZERO PUSH2 0x1175 JUMPI RETURNDATASIZE PUSH0 DUP1 RETURNDATACOPY RETURNDATASIZE PUSH0 REVERT JUMPDEST POP POP JUMP JUMPDEST PUSH0 PUSH1 0x7 PUSH0 SWAP1 SLOAD SWAP1 PUSH2 0x100 EXP SWAP1 DIV PUSH1 0xFF AND SWAP1 POP SWAP1 JUMP JUMPDEST PUSH2 0x1196 PUSH2 0x1A6B JUMP JUMPDEST DUP1 PUSH1 0xC DUP2 SWAP1 SSTORE POP POP JUMP JUMPDEST PUSH0 PUSH2 0x11AA DUP3 PUSH2 0x1AF2 JUMP JUMPDEST SWAP1 POP SWAP2 SWAP1 POP JUMP JUMPDEST PUSH1 0x10 SLOAD DUP2 JUMP JUMPDEST PUSH0 DUP1 PUSH20 0xFFFFFFFFFFFFFFFFFFFFFFFFFFFFFFFFFFFFFFFF AND DUP3 PUSH20 0xFFFFFFFFFFFFFFFFFFFFFFFFFFFFFFFFFFFFFFFF AND SUB PUSH2 0x1228 JUMPI PUSH0 PUSH1 0x40 MLOAD PUSH32 0x89C62B6400000000000000000000000000000000000000000000000000000000 DUP2 MSTORE PUSH1 0x4 ADD PUSH2 0x121F SWAP2 SWAP1 PUSH2 0x3585 JUMP JUMPDEST PUSH1 0x40 MLOAD DUP1 SWAP2 SUB SWAP1 REVERT JUMPDEST PUSH1 0x3 PUSH0 DUP4 PUSH20 0xFFFFFFFFFFFFFFFFFFFFFFFFFFFFFFFFFFFFFFFF AND PUSH20 0xFFFFFFFFFFFFFFFFFFFFFFFFFFFFFFFFFFFFFFFF AND DUP2 MSTORE PUSH1 0x20 ADD SWAP1 DUP2 MSTORE PUSH1 0x20 ADD PUSH0 KECCAK256 SLOAD SWAP1 POP SWAP2 SWAP1 POP JUMP JUMPDEST PUSH2 0x1275 PUSH2 0x1A6B JUMP JUMPDEST PUSH2 0x127E PUSH0 PUSH2 0x1D61 JUMP JUMPDEST JUMP JUMPDEST PUSH1 0x14 PUSH1 0x1 SWAP1 SLOAD SWAP1 PUSH2 0x100 EXP SWAP1 DIV PUSH1 0xFF AND DUP2 JUMP JUMPDEST CALLVALUE PUSH1 0xD SLOAD DUP2 LT ISZERO PUSH2 0x12D9 JUMPI PUSH1 0x40 MLOAD PUSH32 0x8C379A000000000000000000000000000000000000000000000000000000000 DUP2 MSTORE PUSH1 0x4 ADD PUSH2 0x12D0 SWAP1 PUSH2 0x3F7C JUMP JUMPDEST PUSH1 0x40 MLOAD DUP1 SWAP2 SUB SWAP1 REVERT JUMPDEST TIMESTAMP PUSH1 0xE SLOAD LT ISZERO PUSH2 0x131E JUMPI PUSH1 0x40 MLOAD PUSH32 0x8C379A000000000000000000000000000000000000000000000000000000000 DUP2 MSTORE PUSH1 0x4 ADD PUSH2 0x1315 SWAP1 PUSH2 0x3FE4 JUMP JUMPDEST PUSH1 0x40 MLOAD DUP1 SWAP2 SUB SWAP1 REVERT JUMPDEST DUP2 DUP6 PUSH2 0x1350 DUP3 DUP3 PUSH1 0x40 MLOAD PUSH1 0x20 ADD PUSH2 0x1335 SWAP2 SWAP1 PUSH2 0x4047 JUMP JUMPDEST PUSH1 0x40 MLOAD PUSH1 0x20 DUP2 DUP4 SUB SUB DUP2 MSTORE SWAP1 PUSH1 0x40 MSTORE DUP1 MLOAD SWAP1 PUSH1 0x20 ADD KECCAK256 PUSH2 0x10A9 JUMP JUMPDEST PUSH2 0x138F JUMPI PUSH1 0x40 MLOAD PUSH32 0x8C379A000000000000000000000000000000000000000000000000000000000 DUP2 MSTORE PUSH1 0x4 ADD PUSH2 0x1386 SWAP1 PUSH2 0x40AB JUMP JUMPDEST PUSH1 0x40 MLOAD DUP1 SWAP2 SUB SWAP1 REVERT JUMPDEST PUSH1 0x1 ISZERO ISZERO PUSH1 0x14 PUSH1 0x1 SWAP1 SLOAD SWAP1 PUSH2 0x100 EXP SWAP1 DIV PUSH1 0xFF AND ISZERO ISZERO EQ PUSH2 0x13E5 JUMPI PUSH1 0x40 MLOAD PUSH32 0x8C379A000000000000000000000000000000000000000000000000000000000 DUP2 MSTORE PUSH1 0x4 ADD PUSH2 0x13DC SWAP1 PUSH2 0x4113 JUMP JUMPDEST PUSH1 0x40 MLOAD DUP1 SWAP2 SUB SWAP1 REVERT JUMPDEST PUSH2 0x13F0 DUP8 DUP8 DUP8 PUSH2 0x1BF5 JUMP JUMPDEST POP POP POP POP POP POP POP JUMP JUMPDEST PUSH1 0x16 PUSH1 0x20 MSTORE DUP1 PUSH0 MSTORE PUSH1 0x40 PUSH0 KECCAK256 PUSH0 SWAP2 POP SWAP1 POP SLOAD DUP2 JUMP JUMPDEST PUSH2 0x1416 PUSH2 0x1A6B JUMP JUMPDEST PUSH2 0x141E PUSH2 0x1E26 JUMP JUMPDEST JUMP JUMPDEST PUSH0 DUP1 PUSH2 0x14B1 PUSH32 0x829F579EA5DD9D4C9DCCAF3975C777E9267645C47D7660F893C191ADF4F0EA85 DUP5 PUSH0 ADD PUSH1 0x20 DUP2 ADD SWAP1 PUSH2 0x1458 SWAP2 SWAP1 PUSH2 0x39C2 JUMP JUMPDEST DUP6 PUSH1 0x20 ADD CALLDATALOAD DUP7 DUP1 PUSH1 0x40 ADD SWAP1 PUSH2 0x146D SWAP2 SWAP1 PUSH2 0x41EC JUMP JUMPDEST PUSH1 0x40 MLOAD PUSH2 0x147B SWAP3 SWAP2 SWAP1 PUSH2 0x427C JUMP JUMPDEST PUSH1 0x40 MLOAD DUP1 SWAP2 SUB SWAP1 KECCAK256 PUSH1 0x40 MLOAD PUSH1 0x20 ADD PUSH2 0x1496 SWAP5 SWAP4 SWAP3 SWAP2 SWAP1 PUSH2 0x42A3 JUMP JUMPDEST PUSH1 0x40 MLOAD PUSH1 0x20 DUP2 DUP4 SUB SUB DUP2 MSTORE SWAP1 PUSH1 0x40 MSTORE DUP1 MLOAD SWAP1 PUSH1 0x20 ADD KECCAK256 PUSH2 0x1E88 JUMP JUMPDEST SWAP1 POP PUSH0 PUSH2 0x150F DUP3 DUP6 DUP1 PUSH1 0x60 ADD SWAP1 PUSH2 0x14C8 SWAP2 SWAP1 PUSH2 0x42E6 JUMP JUMPDEST DUP1 DUP1 PUSH1 0x1F ADD PUSH1 0x20 DUP1 SWAP2 DIV MUL PUSH1 0x20 ADD PUSH1 0x40 MLOAD SWAP1 DUP2 ADD PUSH1 0x40 MSTORE DUP1 SWAP4 SWAP3 SWAP2 SWAP1 DUP2 DUP2 MSTORE PUSH1 0x20 ADD DUP4 DUP4 DUP1 DUP3 DUP5 CALLDATACOPY PUSH0 DUP2 DUP5 ADD MSTORE PUSH1 0x1F NOT PUSH1 0x1F DUP3 ADD AND SWAP1 POP DUP1 DUP4 ADD SWAP3 POP POP POP POP POP POP POP PUSH2 0x1EA1 JUMP JUMPDEST SWAP1 POP DUP1 SWAP3 POP POP POP SWAP2 SWAP1 POP JUMP JUMPDEST PUSH1 0xB SLOAD DUP2 JUMP JUMPDEST PUSH0 PUSH1 0x7 PUSH1 0x1 SWAP1 SLOAD SWAP1 PUSH2 0x100 EXP SWAP1 DIV PUSH20 0xFFFFFFFFFFFFFFFFFFFFFFFFFFFFFFFFFFFFFFFF AND SWAP1 POP SWAP1 JUMP JUMPDEST PUSH1 0x60 PUSH1 0x1 DUP1 SLOAD PUSH2 0x1559 SWAP1 PUSH2 0x3ECD JUMP JUMPDEST DUP1 PUSH1 0x1F ADD PUSH1 0x20 DUP1 SWAP2 DIV MUL PUSH1 0x20 ADD PUSH1 0x40 MLOAD SWAP1 DUP2 ADD PUSH1 0x40 MSTORE DUP1 SWAP3 SWAP2 SWAP1 DUP2 DUP2 MSTORE PUSH1 0x20 ADD DUP3 DUP1 SLOAD PUSH2 0x1585 SWAP1 PUSH2 0x3ECD JUMP JUMPDEST DUP1 ISZERO PUSH2 0x15D0 JUMPI DUP1 PUSH1 0x1F LT PUSH2 0x15A7 JUMPI PUSH2 0x100 DUP1 DUP4 SLOAD DIV MUL DUP4 MSTORE SWAP2 PUSH1 0x20 ADD SWAP2 PUSH2 0x15D0 JUMP JUMPDEST DUP3 ADD SWAP2 SWAP1 PUSH0 MSTORE PUSH1 0x20 PUSH0 KECCAK256 SWAP1 JUMPDEST DUP2 SLOAD DUP2 MSTORE SWAP1 PUSH1 0x1 ADD SWAP1 PUSH1 0x20 ADD DUP1 DUP4 GT PUSH2 0x15B3 JUMPI DUP3 SWAP1 SUB PUSH1 0x1F AND DUP3 ADD SWAP2 JUMPDEST POP POP POP POP POP SWAP1 POP SWAP1 JUMP JUMPDEST PUSH2 0x15EC PUSH2 0x15E5 PUSH2 0x1BB1 JUMP JUMPDEST DUP4 DUP4 PUSH2 0x1EC6 JUMP JUMPDEST POP POP JUMP JUMPDEST PUSH1 0xA SLOAD DUP2 JUMP JUMPDEST PUSH2 0x15FE PUSH2 0x1A6B JUMP JUMPDEST DUP1 PUSH1 0xD DUP2 SWAP1 SSTORE POP POP JUMP JUMPDEST PUSH2 0x1610 PUSH2 0x1A6B JUMP JUMPDEST PUSH1 0x14 PUSH0 SWAP1 SLOAD SWAP1 PUSH2 0x100 EXP SWAP1 DIV PUSH1 0xFF AND ISZERO PUSH1 0x14 PUSH0 PUSH2 0x100 EXP DUP2 SLOAD DUP2 PUSH1 0xFF MUL NOT AND SWAP1 DUP4 ISZERO ISZERO MUL OR SWAP1 SSTORE POP JUMP JUMPDEST PUSH2 0x1645 DUP5 DUP5 DUP5 PUSH2 0xC7B JUMP JUMPDEST PUSH2 0x1659 PUSH2 0x1650 PUSH2 0x1BB1 JUMP JUMPDEST DUP6 DUP6 DUP6 DUP6 PUSH2 0x202F JUMP JUMPDEST POP POP POP POP JUMP JUMPDEST PUSH2 0x1667 PUSH2 0x1A6B JUMP JUMPDEST PUSH1 0x14 PUSH1 0x2 SWAP1 SLOAD SWAP1 PUSH2 0x100 EXP SWAP1 DIV PUSH1 0xFF AND ISZERO PUSH1 0x14 PUSH1 0x2 PUSH2 0x100 EXP DUP2 SLOAD DUP2 PUSH1 0xFF MUL NOT AND SWAP1 DUP4 ISZERO ISZERO MUL OR SWAP1 SSTORE POP JUMP JUMPDEST PUSH1 0x60 PUSH2 0x169E DUP3 PUSH2 0x21DB JUMP JUMPDEST SWAP1 POP SWAP2 SWAP1 POP JUMP JUMPDEST PUSH1 0x11 SLOAD DUP2 JUMP JUMPDEST PUSH1 0x1 ISZERO ISZERO PUSH1 0x14 PUSH0 SWAP1 SLOAD SWAP1 PUSH2 0x100 EXP SWAP1 DIV PUSH1 0xFF AND ISZERO ISZERO EQ PUSH2 0x1700 JUMPI PUSH1 0x40 MLOAD PUSH32 0x8C379A000000000000000000000000000000000000000000000000000000000 DUP2 MSTORE PUSH1 0x4 ADD PUSH2 0x16F7 SWAP1 PUSH2 0x4113 JUMP JUMPDEST PUSH1 0x40 MLOAD DUP1 SWAP2 SUB SWAP1 REVERT JUMPDEST CALLVALUE PUSH1 0xC SLOAD DUP2 LT ISZERO PUSH2 0x1746 JUMPI PUSH1 0x40 MLOAD PUSH32 0x8C379A000000000000000000000000000000000000000000000000000000000 DUP2 MSTORE PUSH1 0x4 ADD PUSH2 0x173D SWAP1 PUSH2 0x3F7C JUMP JUMPDEST PUSH1 0x40 MLOAD DUP1 SWAP2 SUB SWAP1 REVERT JUMPDEST DUP2 PUSH2 0x1750 DUP2 PUSH2 0x1420 JUMP JUMPDEST PUSH20 0xFFFFFFFFFFFFFFFFFFFFFFFFFFFFFFFFFFFFFFFF AND PUSH2 0x176E PUSH2 0x1521 JUMP JUMPDEST PUSH20 0xFFFFFFFFFFFFFFFFFFFFFFFFFFFFFFFFFFFFFFFF AND EQ PUSH2 0x17C4 JUMPI PUSH1 0x40 MLOAD PUSH32 0x8C379A000000000000000000000000000000000000000000000000000000000 DUP2 MSTORE PUSH1 0x4 ADD PUSH2 0x17BB SWAP1 PUSH2 0x4392 JUMP JUMPDEST PUSH1 0x40 MLOAD DUP1 SWAP2 SUB SWAP1 REVERT JUMPDEST PUSH2 0x1835 DUP4 PUSH0 ADD PUSH1 0x20 DUP2 ADD SWAP1 PUSH2 0x17D9 SWAP2 SWAP1 PUSH2 0x39C2 JUMP JUMPDEST DUP5 PUSH1 0x20 ADD CALLDATALOAD DUP6 DUP1 PUSH1 0x40 ADD SWAP1 PUSH2 0x17EE SWAP2 SWAP1 PUSH2 0x41EC JUMP JUMPDEST DUP1 DUP1 PUSH1 0x1F ADD PUSH1 0x20 DUP1 SWAP2 DIV MUL PUSH1 0x20 ADD PUSH1 0x40 MLOAD SWAP1 DUP2 ADD PUSH1 0x40 MSTORE DUP1 SWAP4 SWAP3 SWAP2 SWAP1 DUP2 DUP2 MSTORE PUSH1 0x20 ADD DUP4 DUP4 DUP1 DUP3 DUP5 CALLDATACOPY PUSH0 DUP2 DUP5 ADD MSTORE PUSH1 0x1F NOT PUSH1 0x1F DUP3 ADD AND SWAP1 POP DUP1 DUP4 ADD SWAP3 POP POP POP POP POP POP POP PUSH2 0x1BF5 JUMP JUMPDEST POP POP POP JUMP JUMPDEST PUSH2 0x1842 PUSH2 0x1A6B JUMP JUMPDEST DUP1 MLOAD DUP3 MLOAD EQ PUSH2 0x1886 JUMPI PUSH1 0x40 MLOAD PUSH32 0x8C379A000000000000000000000000000000000000000000000000000000000 DUP2 MSTORE PUSH1 0x4 ADD PUSH2 0x187D SWAP1 PUSH2 0x43FA JUMP JUMPDEST PUSH1 0x40 MLOAD DUP1 SWAP2 SUB SWAP1 REVERT JUMPDEST PUSH0 JUMPDEST DUP3 MLOAD DUP2 LT ISZERO PUSH2 0x18E7 JUMPI PUSH0 DUP4 DUP3 DUP2 MLOAD DUP2 LT PUSH2 0x18A5 JUMPI PUSH2 0x18A4 PUSH2 0x4418 JUMP JUMPDEST JUMPDEST PUSH1 0x20 MUL PUSH1 0x20 ADD ADD MLOAD SWAP1 POP PUSH0 DUP4 DUP4 DUP2 MLOAD DUP2 LT PUSH2 0x18C3 JUMPI PUSH2 0x18C2 PUSH2 0x4418 JUMP JUMPDEST JUMPDEST PUSH1 0x20 MUL PUSH1 0x20 ADD ADD MLOAD SWAP1 POP PUSH2 0x18D8 DUP7 DUP4 DUP4 PUSH2 0x1BF5 JUMP JUMPDEST POP POP DUP1 DUP1 PUSH1 0x1 ADD SWAP2 POP POP PUSH2 0x1888 JUMP JUMPDEST POP POP POP POP JUMP JUMPDEST PUSH1 0xE SLOAD DUP2 JUMP JUMPDEST PUSH1 0xC SLOAD DUP2 JUMP JUMPDEST PUSH0 PUSH1 0x5 PUSH0 DUP5 PUSH20 0xFFFFFFFFFFFFFFFFFFFFFFFFFFFFFFFFFFFFFFFF AND PUSH20 0xFFFFFFFFFFFFFFFFFFFFFFFFFFFFFFFFFFFFFFFF AND DUP2 MSTORE PUSH1 0x20 ADD SWAP1 DUP2 MSTORE PUSH1 0x20 ADD PUSH0 KECCAK256 PUSH0 DUP4 PUSH20 0xFFFFFFFFFFFFFFFFFFFFFFFFFFFFFFFFFFFFFFFF AND PUSH20 0xFFFFFFFFFFFFFFFFFFFFFFFFFFFFFFFFFFFFFFFF AND DUP2 MSTORE PUSH1 0x20 ADD SWAP1 DUP2 MSTORE PUSH1 0x20 ADD PUSH0 KECCAK256 PUSH0 SWAP1 SLOAD SWAP1 PUSH2 0x100 EXP SWAP1 DIV PUSH1 0xFF AND SWAP1 POP SWAP3 SWAP2 POP POP JUMP JUMPDEST PUSH2 0x198F PUSH2 0x1A6B JUMP JUMPDEST PUSH0 PUSH20 0xFFFFFFFFFFFFFFFFFFFFFFFFFFFFFFFFFFFFFFFF AND DUP2 PUSH20 0xFFFFFFFFFFFFFFFFFFFFFFFFFFFFFFFFFFFFFFFF AND SUB PUSH2 0x19FF JUMPI PUSH0 PUSH1 0x40 MLOAD PUSH32 0x1E4FBDF700000000000000000000000000000000000000000000000000000000 DUP2 MSTORE PUSH1 0x4 ADD PUSH2 0x19F6 SWAP2 SWAP1 PUSH2 0x3585 JUMP JUMPDEST PUSH1 0x40 MLOAD DUP1 SWAP2 SUB SWAP1 REVERT JUMPDEST PUSH2 0x1A08 DUP2 PUSH2 0x1D61 JUMP JUMPDEST POP JUMP JUMPDEST PUSH0 PUSH4 0x49064906 PUSH1 0xE0 SHL PUSH28 0xFFFFFFFFFFFFFFFFFFFFFFFFFFFFFFFFFFFFFFFFFFFFFFFFFFFFFFFF NOT AND DUP3 PUSH28 0xFFFFFFFFFFFFFFFFFFFFFFFFFFFFFFFFFFFFFFFFFFFFFFFFFFFFFFFF NOT AND EQ DUP1 PUSH2 0x1A64 JUMPI POP PUSH2 0x1A63 DUP3 PUSH2 0x22E6 JUMP JUMPDEST JUMPDEST SWAP1 POP SWAP2 SWAP1 POP JUMP JUMPDEST PUSH2 0x1A73 PUSH2 0x1BB1 JUMP JUMPDEST PUSH20 0xFFFFFFFFFFFFFFFFFFFFFFFFFFFFFFFFFFFFFFFF AND PUSH2 0x1A91 PUSH2 0x1521 JUMP JUMPDEST PUSH20 0xFFFFFFFFFFFFFFFFFFFFFFFFFFFFFFFFFFFFFFFF AND EQ PUSH2 0x1AF0 JUMPI PUSH2 0x1AB4 PUSH2 0x1BB1 JUMP JUMPDEST PUSH1 0x40 MLOAD PUSH32 0x118CDAA700000000000000000000000000000000000000000000000000000000 DUP2 MSTORE PUSH1 0x4 ADD PUSH2 0x1AE7 SWAP2 SWAP1 PUSH2 0x3585 JUMP JUMPDEST PUSH1 0x40 MLOAD DUP1 SWAP2 SUB SWAP1 REVERT JUMPDEST JUMP JUMPDEST PUSH0 DUP1 PUSH2 0x1AFD DUP4 PUSH2 0x23C7 JUMP JUMPDEST SWAP1 POP PUSH0 PUSH20 0xFFFFFFFFFFFFFFFFFFFFFFFFFFFFFFFFFFFFFFFF AND DUP2 PUSH20 0xFFFFFFFFFFFFFFFFFFFFFFFFFFFFFFFFFFFFFFFF AND SUB PUSH2 0x1B6F JUMPI DUP3 PUSH1 0x40 MLOAD PUSH32 0x7E27328900000000000000000000000000000000000000000000000000000000 DUP2 MSTORE PUSH1 0x4 ADD PUSH2 0x1B66 SWAP2 SWAP1 PUSH2 0x3615 JUMP JUMPDEST PUSH1 0x40 MLOAD DUP1 SWAP2 SUB SWAP1 REVERT JUMPDEST DUP1 SWAP2 POP POP SWAP2 SWAP1 POP JUMP JUMPDEST PUSH0 PUSH1 0x4 PUSH0 DUP4 DUP2 MSTORE PUSH1 0x20 ADD SWAP1 DUP2 MSTORE PUSH1 0x20 ADD PUSH0 KECCAK256 PUSH0 SWAP1 SLOAD SWAP1 PUSH2 0x100 EXP SWAP1 DIV PUSH20 0xFFFFFFFFFFFFFFFFFFFFFFFFFFFFFFFFFFFFFFFF AND SWAP1 POP SWAP2 SWAP1 POP JUMP JUMPDEST PUSH0 CALLER SWAP1 POP SWAP1 JUMP JUMPDEST PUSH2 0x1BC5 DUP4 DUP4 DUP4 PUSH1 0x1 PUSH2 0x2400 JUMP JUMPDEST POP POP POP JUMP JUMPDEST PUSH0 PUSH2 0x1BD6 DUP5 DUP5 DUP5 PUSH2 0x25BF JUMP JUMPDEST SWAP1 POP SWAP4 SWAP3 POP POP POP JUMP JUMPDEST PUSH0 DUP3 PUSH2 0x1BEB DUP6 DUP5 PUSH2 0x25DC JUMP JUMPDEST EQ SWAP1 POP SWAP4 SWAP3 POP POP POP JUMP JUMPDEST PUSH1 0xB SLOAD PUSH1 0xA SLOAD GT ISZERO PUSH2 0x1C3C JUMPI PUSH1 0x40 MLOAD PUSH32 0x8C379A000000000000000000000000000000000000000000000000000000000 DUP2 MSTORE PUSH1 0x4 ADD PUSH2 0x1C33 SWAP1 PUSH2 0x448F JUMP JUMPDEST PUSH1 0x40 MLOAD DUP1 SWAP2 SUB SWAP1 REVERT JUMPDEST DUP2 PUSH1 0x1 ISZERO ISZERO PUSH1 0x15 PUSH0 DUP4 DUP2 MSTORE PUSH1 0x20 ADD SWAP1 DUP2 MSTORE PUSH1 0x20 ADD PUSH0 KECCAK256 PUSH0 SWAP1 SLOAD SWAP1 PUSH2 0x100 EXP SWAP1 DIV PUSH1 0xFF AND ISZERO ISZERO SUB PUSH2 0x1CA1 JUMPI PUSH1 0x40 MLOAD PUSH32 0x8C379A000000000000000000000000000000000000000000000000000000000 DUP2 MSTORE PUSH1 0x4 ADD PUSH2 0x1C98 SWAP1 PUSH2 0x44F7 JUMP JUMPDEST PUSH1 0x40 MLOAD DUP1 SWAP2 SUB SWAP1 REVERT JUMPDEST PUSH1 0xA PUSH0 DUP2 SLOAD DUP1 SWAP3 SWAP2 SWAP1 PUSH2 0x1CB3 SWAP1 PUSH2 0x4199 JUMP JUMPDEST SWAP2 SWAP1 POP SSTORE PUSH1 0xA DUP2 SWAP1 SSTORE POP PUSH1 0x1 PUSH1 0x15 PUSH0 DUP6 DUP2 MSTORE PUSH1 0x20 ADD SWAP1 DUP2 MSTORE PUSH1 0x20 ADD PUSH0 KECCAK256 PUSH0 PUSH2 0x100 EXP DUP2 SLOAD DUP2 PUSH1 0xFF MUL NOT AND SWAP1 DUP4 ISZERO ISZERO MUL OR SWAP1 SSTORE POP PUSH2 0x1CF0 DUP5 DUP5 PUSH2 0x2648 JUMP JUMPDEST PUSH2 0x1CFA DUP4 DUP4 PUSH2 0x2665 JUMP JUMPDEST POP POP POP POP JUMP JUMPDEST PUSH2 0x1D08 PUSH2 0x26BF JUMP JUMPDEST PUSH0 PUSH1 0x7 PUSH0 PUSH2 0x100 EXP DUP2 SLOAD DUP2 PUSH1 0xFF MUL NOT AND SWAP1 DUP4 ISZERO ISZERO MUL OR SWAP1 SSTORE POP PUSH32 0x5DB9EE0A495BF2E6FF9C91A7834C1BA4FDD244A5E8AA4E537BD38AEAE4B073AA PUSH2 0x1D4A PUSH2 0x1BB1 JUMP JUMPDEST PUSH1 0x40 MLOAD PUSH2 0x1D57 SWAP2 SWAP1 PUSH2 0x3585 JUMP JUMPDEST PUSH1 0x40 MLOAD DUP1 SWAP2 SUB SWAP1 LOG1 JUMP JUMPDEST PUSH0 PUSH1 0x7 PUSH1 0x1 SWAP1 SLOAD SWAP1 PUSH2 0x100 EXP SWAP1 DIV PUSH20 0xFFFFFFFFFFFFFFFFFFFFFFFFFFFFFFFFFFFFFFFF AND SWAP1 POP DUP2 PUSH1 0x7 PUSH1 0x1 PUSH2 0x100 EXP DUP2 SLOAD DUP2 PUSH20 0xFFFFFFFFFFFFFFFFFFFFFFFFFFFFFFFFFFFFFFFF MUL NOT AND SWAP1 DUP4 PUSH20 0xFFFFFFFFFFFFFFFFFFFFFFFFFFFFFFFFFFFFFFFF AND MUL OR SWAP1 SSTORE POP DUP2 PUSH20 0xFFFFFFFFFFFFFFFFFFFFFFFFFFFFFFFFFFFFFFFF AND DUP2 PUSH20 0xFFFFFFFFFFFFFFFFFFFFFFFFFFFFFFFFFFFFFFFF AND PUSH32 0x8BE0079C531659141344CD1FD0A4F28419497F9722A3DAAFE3B4186F6B6457E0 PUSH1 0x40 MLOAD PUSH1 0x40 MLOAD DUP1 SWAP2 SUB SWAP1 LOG3 POP POP JUMP JUMPDEST PUSH2 0x1E2E PUSH2 0x26FF JUMP JUMPDEST PUSH1 0x1 PUSH1 0x7 PUSH0 PUSH2 0x100 EXP DUP2 SLOAD DUP2 PUSH1 0xFF MUL NOT AND SWAP1 DUP4 ISZERO ISZERO MUL OR SWAP1 SSTORE POP PUSH32 0x62E78CEA01BEE320CD4E420270B5EA74000D11B0C9F74754EBDBFC544B05A258 PUSH2 0x1E71 PUSH2 0x1BB1 JUMP JUMPDEST PUSH1 0x40 MLOAD PUSH2 0x1E7E SWAP2 SWAP1 PUSH2 0x3585 JUMP JUMPDEST PUSH1 0x40 MLOAD DUP1 SWAP2 SUB SWAP1 LOG1 JUMP JUMPDEST PUSH0 PUSH2 0x1E9A PUSH2 0x1E94 PUSH2 0x2740 JUMP JUMPDEST DUP4 PUSH2 0x2859 JUMP JUMPDEST SWAP1 POP SWAP2 SWAP1 POP JUMP JUMPDEST PUSH0 DUP1 PUSH0 PUSH2 0x1EAE DUP6 DUP6 PUSH2 0x288B JUMP JUMPDEST SWAP2 POP SWAP2 POP PUSH2 0x1EBB DUP2 PUSH2 0x28D7 JUMP JUMPDEST DUP2 SWAP3 POP POP POP SWAP3 SWAP2 POP POP JUMP JUMPDEST PUSH0 PUSH20 0xFFFFFFFFFFFFFFFFFFFFFFFFFFFFFFFFFFFFFFFF AND DUP3 PUSH20 0xFFFFFFFFFFFFFFFFFFFFFFFFFFFFFFFFFFFFFFFF AND SUB PUSH2 0x1F36 JUMPI DUP2 PUSH1 0x40 MLOAD PUSH32 0x5B08BA1800000000000000000000000000000000000000000000000000000000 DUP2 MSTORE PUSH1 0x4 ADD PUSH2 0x1F2D SWAP2 SWAP1 PUSH2 0x3585 JUMP JUMPDEST PUSH1 0x40 MLOAD DUP1 SWAP2 SUB SWAP1 REVERT JUMPDEST DUP1 PUSH1 0x5 PUSH0 DUP6 PUSH20 0xFFFFFFFFFFFFFFFFFFFFFFFFFFFFFFFFFFFFFFFF AND PUSH20 0xFFFFFFFFFFFFFFFFFFFFFFFFFFFFFFFFFFFFFFFF AND DUP2 MSTORE PUSH1 0x20 ADD SWAP1 DUP2 MSTORE PUSH1 0x20 ADD PUSH0 KECCAK256 PUSH0 DUP5 PUSH20 0xFFFFFFFFFFFFFFFFFFFFFFFFFFFFFFFFFFFFFFFF AND PUSH20 0xFFFFFFFFFFFFFFFFFFFFFFFFFFFFFFFFFFFFFFFF AND DUP2 MSTORE PUSH1 0x20 ADD SWAP1 DUP2 MSTORE PUSH1 0x20 ADD PUSH0 KECCAK256 PUSH0 PUSH2 0x100 EXP DUP2 SLOAD DUP2 PUSH1 0xFF MUL NOT AND SWAP1 DUP4 ISZERO ISZERO MUL OR SWAP1 SSTORE POP DUP2 PUSH20 0xFFFFFFFFFFFFFFFFFFFFFFFFFFFFFFFFFFFFFFFF AND DUP4 PUSH20 0xFFFFFFFFFFFFFFFFFFFFFFFFFFFFFFFFFFFFFFFF AND PUSH32 0x17307EAB39AB6107E8899845AD3D59BD9653F200F220920489CA2B5937696C31 DUP4 PUSH1 0x40 MLOAD PUSH2 0x2022 SWAP2 SWAP1 PUSH2 0x343F JUMP JUMPDEST PUSH1 0x40 MLOAD DUP1 SWAP2 SUB SWAP1 LOG3 POP POP POP JUMP JUMPDEST PUSH0 DUP4 PUSH20 0xFFFFFFFFFFFFFFFFFFFFFFFFFFFFFFFFFFFFFFFF AND EXTCODESIZE GT ISZERO PUSH2 0x21D4 JUMPI DUP3 PUSH20 0xFFFFFFFFFFFFFFFFFFFFFFFFFFFFFFFFFFFFFFFF AND PUSH4 0x150B7A02 DUP7 DUP7 DUP6 DUP6 PUSH1 0x40 MLOAD DUP6 PUSH4 0xFFFFFFFF AND PUSH1 0xE0 SHL DUP2 MSTORE PUSH1 0x4 ADD PUSH2 0x208D SWAP5 SWAP4 SWAP3 SWAP2 SWAP1 PUSH2 0x4567 JUMP JUMPDEST PUSH1 0x20 PUSH1 0x40 MLOAD DUP1 DUP4 SUB DUP2 PUSH0 DUP8 GAS CALL SWAP3 POP POP POP DUP1 ISZERO PUSH2 0x20C8 JUMPI POP PUSH1 0x40 MLOAD RETURNDATASIZE PUSH1 0x1F NOT PUSH1 0x1F DUP3 ADD AND DUP3 ADD DUP1 PUSH1 0x40 MSTORE POP DUP2 ADD SWAP1 PUSH2 0x20C5 SWAP2 SWAP1 PUSH2 0x45C5 JUMP JUMPDEST PUSH1 0x1 JUMPDEST PUSH2 0x2149 JUMPI RETURNDATASIZE DUP1 PUSH0 DUP2 EQ PUSH2 0x20F6 JUMPI PUSH1 0x40 MLOAD SWAP2 POP PUSH1 0x1F NOT PUSH1 0x3F RETURNDATASIZE ADD AND DUP3 ADD PUSH1 0x40 MSTORE RETURNDATASIZE DUP3 MSTORE RETURNDATASIZE PUSH0 PUSH1 0x20 DUP5 ADD RETURNDATACOPY PUSH2 0x20FB JUMP JUMPDEST PUSH1 0x60 SWAP2 POP JUMPDEST POP PUSH0 DUP2 MLOAD SUB PUSH2 0x2141 JUMPI DUP4 PUSH1 0x40 MLOAD PUSH32 0x64A0AE9200000000000000000000000000000000000000000000000000000000 DUP2 MSTORE PUSH1 0x4 ADD PUSH2 0x2138 SWAP2 SWAP1 PUSH2 0x3585 JUMP JUMPDEST PUSH1 0x40 MLOAD DUP1 SWAP2 SUB SWAP1 REVERT JUMPDEST DUP1 MLOAD DUP2 PUSH1 0x20 ADD REVERT JUMPDEST PUSH4 0x150B7A02 PUSH1 0xE0 SHL PUSH28 0xFFFFFFFFFFFFFFFFFFFFFFFFFFFFFFFFFFFFFFFFFFFFFFFFFFFFFFFF NOT AND DUP2 PUSH28 0xFFFFFFFFFFFFFFFFFFFFFFFFFFFFFFFFFFFFFFFFFFFFFFFFFFFFFFFF NOT AND EQ PUSH2 0x21D2 JUMPI DUP4 PUSH1 0x40 MLOAD PUSH32 0x64A0AE9200000000000000000000000000000000000000000000000000000000 DUP2 MSTORE PUSH1 0x4 ADD PUSH2 0x21C9 SWAP2 SWAP1 PUSH2 0x3585 JUMP JUMPDEST PUSH1 0x40 MLOAD DUP1 SWAP2 SUB SWAP1 REVERT JUMPDEST POP JUMPDEST POP POP POP POP POP JUMP JUMPDEST PUSH1 0x60 PUSH2 0x21E6 DUP3 PUSH2 0x1AF2 JUMP JUMPDEST POP PUSH0 PUSH1 0x6 PUSH0 DUP5 DUP2 MSTORE PUSH1 0x20 ADD SWAP1 DUP2 MSTORE PUSH1 0x20 ADD PUSH0 KECCAK256 DUP1 SLOAD PUSH2 0x2204 SWAP1 PUSH2 0x3ECD JUMP JUMPDEST DUP1 PUSH1 0x1F ADD PUSH1 0x20 DUP1 SWAP2 DIV MUL PUSH1 0x20 ADD PUSH1 0x40 MLOAD SWAP1 DUP2 ADD PUSH1 0x40 MSTORE DUP1 SWAP3 SWAP2 SWAP1 DUP2 DUP2 MSTORE PUSH1 0x20 ADD DUP3 DUP1 SLOAD PUSH2 0x2230 SWAP1 PUSH2 0x3ECD JUMP JUMPDEST DUP1 ISZERO PUSH2 0x227B JUMPI DUP1 PUSH1 0x1F LT PUSH2 0x2252 JUMPI PUSH2 0x100 DUP1 DUP4 SLOAD DIV MUL DUP4 MSTORE SWAP2 PUSH1 0x20 ADD SWAP2 PUSH2 0x227B JUMP JUMPDEST DUP3 ADD SWAP2 SWAP1 PUSH0 MSTORE PUSH1 0x20 PUSH0 KECCAK256 SWAP1 JUMPDEST DUP2 SLOAD DUP2 MSTORE SWAP1 PUSH1 0x1 ADD SWAP1 PUSH1 0x20 ADD DUP1 DUP4 GT PUSH2 0x225E JUMPI DUP3 SWAP1 SUB PUSH1 0x1F AND DUP3 ADD SWAP2 JUMPDEST POP POP POP POP POP SWAP1 POP PUSH0 PUSH2 0x228B PUSH2 0x2AA2 JUMP JUMPDEST SWAP1 POP PUSH0 DUP2 MLOAD SUB PUSH2 0x229F JUMPI DUP2 SWAP3 POP POP POP PUSH2 0x22E1 JUMP JUMPDEST PUSH0 DUP3 MLOAD GT ISZERO PUSH2 0x22D3 JUMPI DUP1 DUP3 PUSH1 0x40 MLOAD PUSH1 0x20 ADD PUSH2 0x22BB SWAP3 SWAP2 SWAP1 PUSH2 0x462A JUMP JUMPDEST PUSH1 0x40 MLOAD PUSH1 0x20 DUP2 DUP4 SUB SUB DUP2 MSTORE SWAP1 PUSH1 0x40 MSTORE SWAP3 POP POP POP PUSH2 0x22E1 JUMP JUMPDEST PUSH2 0x22DC DUP5 PUSH2 0x2AB8 JUMP JUMPDEST SWAP3 POP POP POP JUMPDEST SWAP2 SWAP1 POP JUMP JUMPDEST PUSH0 PUSH32 0x80AC58CD00000000000000000000000000000000000000000000000000000000 PUSH28 0xFFFFFFFFFFFFFFFFFFFFFFFFFFFFFFFFFFFFFFFFFFFFFFFFFFFFFFFF NOT AND DUP3 PUSH28 0xFFFFFFFFFFFFFFFFFFFFFFFFFFFFFFFFFFFFFFFFFFFFFFFFFFFFFFFF NOT AND EQ DUP1 PUSH2 0x23B0 JUMPI POP PUSH32 0x5B5E139F00000000000000000000000000000000000000000000000000000000 PUSH28 0xFFFFFFFFFFFFFFFFFFFFFFFFFFFFFFFFFFFFFFFFFFFFFFFFFFFFFFFF NOT AND DUP3 PUSH28 0xFFFFFFFFFFFFFFFFFFFFFFFFFFFFFFFFFFFFFFFFFFFFFFFFFFFFFFFF NOT AND EQ JUMPDEST DUP1 PUSH2 0x23C0 JUMPI POP PUSH2 0x23BF DUP3 PUSH2 0x2B1E JUMP JUMPDEST JUMPDEST SWAP1 POP SWAP2 SWAP1 POP JUMP JUMPDEST PUSH0 PUSH1 0x2 PUSH0 DUP4 DUP2 MSTORE PUSH1 0x20 ADD SWAP1 DUP2 MSTORE PUSH1 0x20 ADD PUSH0 KECCAK256 PUSH0 SWAP1 SLOAD SWAP1 PUSH2 0x100 EXP SWAP1 DIV PUSH20 0xFFFFFFFFFFFFFFFFFFFFFFFFFFFFFFFFFFFFFFFF AND SWAP1 POP SWAP2 SWAP1 POP JUMP JUMPDEST DUP1 DUP1 PUSH2 0x2438 JUMPI POP PUSH0 PUSH20 0xFFFFFFFFFFFFFFFFFFFFFFFFFFFFFFFFFFFFFFFF AND DUP3 PUSH20 0xFFFFFFFFFFFFFFFFFFFFFFFFFFFFFFFFFFFFFFFF AND EQ ISZERO JUMPDEST ISZERO PUSH2 0x256A JUMPI PUSH0 PUSH2 0x2447 DUP5 PUSH2 0x1AF2 JUMP JUMPDEST SWAP1 POP PUSH0 PUSH20 0xFFFFFFFFFFFFFFFFFFFFFFFFFFFFFFFFFFFFFFFF AND DUP4 PUSH20 0xFFFFFFFFFFFFFFFFFFFFFFFFFFFFFFFFFFFFFFFF AND EQ ISZERO DUP1 ISZERO PUSH2 0x24B1 JUMPI POP DUP3 PUSH20 0xFFFFFFFFFFFFFFFFFFFFFFFFFFFFFFFFFFFFFFFF AND DUP2 PUSH20 0xFFFFFFFFFFFFFFFFFFFFFFFFFFFFFFFFFFFFFFFF AND EQ ISZERO JUMPDEST DUP1 ISZERO PUSH2 0x24C4 JUMPI POP PUSH2 0x24C2 DUP2 DUP5 PUSH2 0x18F9 JUMP JUMPDEST ISZERO JUMPDEST ISZERO PUSH2 0x2506 JUMPI DUP3 PUSH1 0x40 MLOAD PUSH32 0xA9FBF51F00000000000000000000000000000000000000000000000000000000 DUP2 MSTORE PUSH1 0x4 ADD PUSH2 0x24FD SWAP2 SWAP1 PUSH2 0x3585 JUMP JUMPDEST PUSH1 0x40 MLOAD DUP1 SWAP2 SUB SWAP1 REVERT JUMPDEST DUP2 ISZERO PUSH2 0x2568 JUMPI DUP4 DUP6 PUSH20 0xFFFFFFFFFFFFFFFFFFFFFFFFFFFFFFFFFFFFFFFF AND DUP3 PUSH20 0xFFFFFFFFFFFFFFFFFFFFFFFFFFFFFFFFFFFFFFFF AND PUSH32 0x8C5BE1E5EBEC7D5BD14F71427D1E84F3DD0314C0F7B2291E5B200AC8C7C3B925 PUSH1 0x40 MLOAD PUSH1 0x40 MLOAD DUP1 SWAP2 SUB SWAP1 LOG4 JUMPDEST POP JUMPDEST DUP4 PUSH1 0x4 PUSH0 DUP6 DUP2 MSTORE PUSH1 0x20 ADD SWAP1 DUP2 MSTORE PUSH1 0x20 ADD PUSH0 KECCAK256 PUSH0 PUSH2 0x100 EXP DUP2 SLOAD DUP2 PUSH20 0xFFFFFFFFFFFFFFFFFFFFFFFFFFFFFFFFFFFFFFFF MUL NOT AND SWAP1 DUP4 PUSH20 0xFFFFFFFFFFFFFFFFFFFFFFFFFFFFFFFFFFFFFFFF AND MUL OR SWAP1 SSTORE POP POP POP POP POP JUMP JUMPDEST PUSH0 PUSH2 0x25C8 PUSH2 0x26FF JUMP JUMPDEST PUSH2 0x25D3 DUP5 DUP5 DUP5 PUSH2 0x2B87 JUMP JUMPDEST SWAP1 POP SWAP4 SWAP3 POP POP POP JUMP JUMPDEST PUSH0 DUP1 DUP3 SWAP1 POP PUSH0 JUMPDEST DUP5 MLOAD DUP2 LT ISZERO PUSH2 0x263D JUMPI PUSH0 DUP6 DUP3 DUP2 MLOAD DUP2 LT PUSH2 0x2600 JUMPI PUSH2 0x25FF PUSH2 0x4418 JUMP JUMPDEST JUMPDEST PUSH1 0x20 MUL PUSH1 0x20 ADD ADD MLOAD SWAP1 POP DUP1 DUP4 GT PUSH2 0x2622 JUMPI PUSH2 0x261B DUP4 DUP3 PUSH2 0x2D92 JUMP JUMPDEST SWAP3 POP PUSH2 0x262F JUMP JUMPDEST PUSH2 0x262C DUP2 DUP5 PUSH2 0x2D92 JUMP JUMPDEST SWAP3 POP JUMPDEST POP DUP1 DUP1 PUSH1 0x1 ADD SWAP2 POP POP PUSH2 0x25E3 JUMP JUMPDEST POP DUP1 SWAP2 POP POP SWAP3 SWAP2 POP POP JUMP JUMPDEST PUSH2 0x2661 DUP3 DUP3 PUSH1 0x40 MLOAD DUP1 PUSH1 0x20 ADD PUSH1 0x40 MSTORE DUP1 PUSH0 DUP2 MSTORE POP PUSH2 0x2DA6 JUMP JUMPDEST POP POP JUMP JUMPDEST DUP1 PUSH1 0x6 PUSH0 DUP5 DUP2 MSTORE PUSH1 0x20 ADD SWAP1 DUP2 MSTORE PUSH1 0x20 ADD PUSH0 KECCAK256 SWAP1 DUP2 PUSH2 0x2683 SWAP2 SWAP1 PUSH2 0x47EA JUMP JUMPDEST POP PUSH32 0xF8E1A15ABA9398E019F0B49DF1A4FDE98EE17AE345CB5F6B5E2C27F5033E8CE7 DUP3 PUSH1 0x40 MLOAD PUSH2 0x26B3 SWAP2 SWAP1 PUSH2 0x3615 JUMP JUMPDEST PUSH1 0x40 MLOAD DUP1 SWAP2 SUB SWAP1 LOG1 POP POP JUMP JUMPDEST PUSH2 0x26C7 PUSH2 0x1179 JUMP JUMPDEST PUSH2 0x26FD JUMPI PUSH1 0x40 MLOAD PUSH32 0x8DFC202B00000000000000000000000000000000000000000000000000000000 DUP2 MSTORE PUSH1 0x4 ADD PUSH1 0x40 MLOAD DUP1 SWAP2 SUB SWAP1 REVERT JUMPDEST JUMP JUMPDEST PUSH2 0x2707 PUSH2 0x1179 JUMP JUMPDEST ISZERO PUSH2 0x273E JUMPI PUSH1 0x40 MLOAD PUSH32 0xD93C066500000000000000000000000000000000000000000000000000000000 DUP2 MSTORE PUSH1 0x4 ADD PUSH1 0x40 MLOAD DUP1 SWAP2 SUB SWAP1 REVERT JUMPDEST JUMP JUMPDEST PUSH0 PUSH32 0x0 PUSH20 0xFFFFFFFFFFFFFFFFFFFFFFFFFFFFFFFFFFFFFFFF AND ADDRESS PUSH20 0xFFFFFFFFFFFFFFFFFFFFFFFFFFFFFFFFFFFFFFFF AND EQ DUP1 ISZERO PUSH2 0x27BB JUMPI POP PUSH32 0x0 CHAINID EQ JUMPDEST ISZERO PUSH2 0x27E8 JUMPI PUSH32 0x0 SWAP1 POP PUSH2 0x2856 JUMP JUMPDEST PUSH2 0x2853 PUSH32 0x0 PUSH32 0x0 PUSH32 0x0 PUSH2 0x2DC9 JUMP JUMPDEST SWAP1 POP JUMPDEST SWAP1 JUMP JUMPDEST PUSH0 DUP3 DUP3 PUSH1 0x40 MLOAD PUSH1 0x20 ADD PUSH2 0x286D SWAP3 SWAP2 SWAP1 PUSH2 0x4923 JUMP JUMPDEST PUSH1 0x40 MLOAD PUSH1 0x20 DUP2 DUP4 SUB SUB DUP2 MSTORE SWAP1 PUSH1 0x40 MSTORE DUP1 MLOAD SWAP1 PUSH1 0x20 ADD KECCAK256 SWAP1 POP SWAP3 SWAP2 POP POP JUMP JUMPDEST PUSH0 DUP1 PUSH1 0x41 DUP4 MLOAD SUB PUSH2 0x28C8 JUMPI PUSH0 DUP1 PUSH0 PUSH1 0x20 DUP7 ADD MLOAD SWAP3 POP PUSH1 0x40 DUP7 ADD MLOAD SWAP2 POP PUSH1 0x60 DUP7 ADD MLOAD PUSH0 BYTE SWAP1 POP PUSH2 0x28BC DUP8 DUP3 DUP6 DUP6 PUSH2 0x2E02 JUMP JUMPDEST SWAP5 POP SWAP5 POP POP POP POP PUSH2 0x28D0 JUMP JUMPDEST PUSH0 PUSH1 0x2 SWAP2 POP SWAP2 POP JUMPDEST SWAP3 POP SWAP3 SWAP1 POP JUMP JUMPDEST PUSH0 PUSH1 0x4 DUP2 GT ISZERO PUSH2 0x28EA JUMPI PUSH2 0x28E9 PUSH2 0x4959 JUMP JUMPDEST JUMPDEST DUP2 PUSH1 0x4 DUP2 GT ISZERO PUSH2 0x28FD JUMPI PUSH2 0x28FC PUSH2 0x4959 JUMP JUMPDEST JUMPDEST SUB ISZERO PUSH2 0x2A9F JUMPI PUSH1 0x1 PUSH1 0x4 DUP2 GT ISZERO PUSH2 0x2917 JUMPI PUSH2 0x2916 PUSH2 0x4959 JUMP JUMPDEST JUMPDEST DUP2 PUSH1 0x4 DUP2 GT ISZERO PUSH2 0x292A JUMPI PUSH2 0x2929 PUSH2 0x4959 JUMP JUMPDEST JUMPDEST SUB PUSH2 0x296A JUMPI PUSH1 0x40 MLOAD PUSH32 0x8C379A000000000000000000000000000000000000000000000000000000000 DUP2 MSTORE PUSH1 0x4 ADD PUSH2 0x2961 SWAP1 PUSH2 0x49D0 JUMP JUMPDEST PUSH1 0x40 MLOAD DUP1 SWAP2 SUB SWAP1 REVERT JUMPDEST PUSH1 0x2 PUSH1 0x4 DUP2 GT ISZERO PUSH2 0x297E JUMPI PUSH2 0x297D PUSH2 0x4959 JUMP JUMPDEST JUMPDEST DUP2 PUSH1 0x4 DUP2 GT ISZERO PUSH2 0x2991 JUMPI PUSH2 0x2990 PUSH2 0x4959 JUMP JUMPDEST JUMPDEST SUB PUSH2 0x29D1 JUMPI PUSH1 0x40 MLOAD PUSH32 0x8C379A000000000000000000000000000000000000000000000000000000000 DUP2 MSTORE PUSH1 0x4 ADD PUSH2 0x29C8 SWAP1 PUSH2 0x4A38 JUMP JUMPDEST PUSH1 0x40 MLOAD DUP1 SWAP2 SUB SWAP1 REVERT JUMPDEST PUSH1 0x3 PUSH1 0x4 DUP2 GT ISZERO PUSH2 0x29E5 JUMPI PUSH2 0x29E4 PUSH2 0x4959 JUMP JUMPDEST JUMPDEST DUP2 PUSH1 0x4 DUP2 GT ISZERO PUSH2 0x29F8 JUMPI PUSH2 0x29F7 PUSH2 0x4959 JUMP JUMPDEST JUMPDEST SUB PUSH2 0x2A38 JUMPI PUSH1 0x40 MLOAD PUSH32 0x8C379A000000000000000000000000000000000000000000000000000000000 DUP2 MSTORE PUSH1 0x4 ADD PUSH2 0x2A2F SWAP1 PUSH2 0x4AC6 JUMP JUMPDEST PUSH1 0x40 MLOAD DUP1 SWAP2 SUB SWAP1 REVERT JUMPDEST PUSH1 0x4 DUP1 DUP2 GT ISZERO PUSH2 0x2A4B JUMPI PUSH2 0x2A4A PUSH2 0x4959 JUMP JUMPDEST JUMPDEST DUP2 PUSH1 0x4 DUP2 GT ISZERO PUSH2 0x2A5E JUMPI PUSH2 0x2A5D PUSH2 0x4959 JUMP JUMPDEST JUMPDEST SUB PUSH2 0x2A9E JUMPI PUSH1 0x40 MLOAD PUSH32 0x8C379A000000000000000000000000000000000000000000000000000000000 DUP2 MSTORE PUSH1 0x4 ADD PUSH2 0x2A95 SWAP1 PUSH2 0x4B54 JUMP JUMPDEST PUSH1 0x40 MLOAD DUP1 SWAP2 SUB SWAP1 REVERT JUMPDEST JUMPDEST POP JUMP JUMPDEST PUSH1 0x60 PUSH1 0x40 MLOAD DUP1 PUSH1 0x20 ADD PUSH1 0x40 MSTORE DUP1 PUSH0 DUP2 MSTORE POP SWAP1 POP SWAP1 JUMP JUMPDEST PUSH1 0x60 PUSH2 0x2AC3 DUP3 PUSH2 0x1AF2 JUMP JUMPDEST POP PUSH0 PUSH2 0x2ACD PUSH2 0x2AA2 JUMP JUMPDEST SWAP1 POP PUSH0 DUP2 MLOAD GT PUSH2 0x2AEB JUMPI PUSH1 0x40 MLOAD DUP1 PUSH1 0x20 ADD PUSH1 0x40 MSTORE DUP1 PUSH0 DUP2 MSTORE POP PUSH2 0x2B16 JUMP JUMPDEST DUP1 PUSH2 0x2AF5 DUP5 PUSH2 0x2F03 JUMP JUMPDEST PUSH1 0x40 MLOAD PUSH1 0x20 ADD PUSH2 0x2B06 SWAP3 SWAP2 SWAP1 PUSH2 0x462A JUMP JUMPDEST PUSH1 0x40 MLOAD PUSH1 0x20 DUP2 DUP4 SUB SUB DUP2 MSTORE SWAP1 PUSH1 0x40 MSTORE JUMPDEST SWAP2 POP POP SWAP2 SWAP1 POP JUMP JUMPDEST PUSH0 PUSH32 0x1FFC9A700000000000000000000000000000000000000000000000000000000 PUSH28 0xFFFFFFFFFFFFFFFFFFFFFFFFFFFFFFFFFFFFFFFFFFFFFFFFFFFFFFFF NOT AND DUP3 PUSH28 0xFFFFFFFFFFFFFFFFFFFFFFFFFFFFFFFFFFFFFFFFFFFFFFFFFFFFFFFF NOT AND EQ SWAP1 POP SWAP2 SWAP1 POP JUMP JUMPDEST PUSH0 DUP1 PUSH2 0x2B92 DUP5 PUSH2 0x23C7 JUMP JUMPDEST SWAP1 POP PUSH0 PUSH20 0xFFFFFFFFFFFFFFFFFFFFFFFFFFFFFFFFFFFFFFFF AND DUP4 PUSH20 0xFFFFFFFFFFFFFFFFFFFFFFFFFFFFFFFFFFFFFFFF AND EQ PUSH2 0x2BD3 JUMPI PUSH2 0x2BD2 DUP2 DUP5 DUP7 PUSH2 0x2FCD JUMP JUMPDEST JUMPDEST PUSH0 PUSH20 0xFFFFFFFFFFFFFFFFFFFFFFFFFFFFFFFFFFFFFFFF AND DUP2 PUSH20 0xFFFFFFFFFFFFFFFFFFFFFFFFFFFFFFFFFFFFFFFF AND EQ PUSH2 0x2C5E JUMPI PUSH2 0x2C12 PUSH0 DUP6 PUSH0 DUP1 PUSH2 0x2400 JUMP JUMPDEST PUSH1 0x1 PUSH1 0x3 PUSH0 DUP4 PUSH20 0xFFFFFFFFFFFFFFFFFFFFFFFFFFFFFFFFFFFFFFFF AND PUSH20 0xFFFFFFFFFFFFFFFFFFFFFFFFFFFFFFFFFFFFFFFF AND DUP2 MSTORE PUSH1 0x20 ADD SWAP1 DUP2 MSTORE PUSH1 0x20 ADD PUSH0 KECCAK256 PUSH0 DUP3 DUP3 SLOAD SUB SWAP3 POP POP DUP2 SWAP1 SSTORE POP JUMPDEST PUSH0 PUSH20 0xFFFFFFFFFFFFFFFFFFFFFFFFFFFFFFFFFFFFFFFF AND DUP6 PUSH20 0xFFFFFFFFFFFFFFFFFFFFFFFFFFFFFFFFFFFFFFFF AND EQ PUSH2 0x2CDD JUMPI PUSH1 0x1 PUSH1 0x3 PUSH0 DUP8 PUSH20 0xFFFFFFFFFFFFFFFFFFFFFFFFFFFFFFFFFFFFFFFF AND PUSH20 0xFFFFFFFFFFFFFFFFFFFFFFFFFFFFFFFFFFFFFFFF AND DUP2 MSTORE PUSH1 0x20 ADD SWAP1 DUP2 MSTORE PUSH1 0x20 ADD PUSH0 KECCAK256 PUSH0 DUP3 DUP3 SLOAD ADD SWAP3 POP POP DUP2 SWAP1 SSTORE POP JUMPDEST DUP5 PUSH1 0x2 PUSH0 DUP7 DUP2 MSTORE PUSH1 0x20 ADD SWAP1 DUP2 MSTORE PUSH1 0x20 ADD PUSH0 KECCAK256 PUSH0 PUSH2 0x100 EXP DUP2 SLOAD DUP2 PUSH20 0xFFFFFFFFFFFFFFFFFFFFFFFFFFFFFFFFFFFFFFFF MUL NOT AND SWAP1 DUP4 PUSH20 0xFFFFFFFFFFFFFFFFFFFFFFFFFFFFFFFFFFFFFFFF AND MUL OR SWAP1 SSTORE POP DUP4 DUP6 PUSH20 0xFFFFFFFFFFFFFFFFFFFFFFFFFFFFFFFFFFFFFFFF AND DUP3 PUSH20 0xFFFFFFFFFFFFFFFFFFFFFFFFFFFFFFFFFFFFFFFF AND PUSH32 0xDDF252AD1BE2C89B69C2B068FC378DAA952BA7F163C4A11628F55A4DF523B3EF PUSH1 0x40 MLOAD PUSH1 0x40 MLOAD DUP1 SWAP2 SUB SWAP1 LOG4 DUP1 SWAP2 POP POP SWAP4 SWAP3 POP POP POP JUMP JUMPDEST PUSH0 DUP3 PUSH0 MSTORE DUP2 PUSH1 0x20 MSTORE PUSH1 0x40 PUSH0 KECCAK256 SWAP1 POP SWAP3 SWAP2 POP POP JUMP JUMPDEST PUSH2 0x2DB0 DUP4 DUP4 PUSH2 0x3090 JUMP JUMPDEST PUSH2 0x2DC4 PUSH2 0x2DBB PUSH2 0x1BB1 JUMP JUMPDEST PUSH0 DUP6 DUP6 DUP6 PUSH2 0x202F JUMP JUMPDEST POP POP POP JUMP JUMPDEST PUSH0 DUP4 DUP4 DUP4 CHAINID ADDRESS PUSH1 0x40 MLOAD PUSH1 0x20 ADD PUSH2 0x2DE3 SWAP6 SWAP5 SWAP4 SWAP3 SWAP2 SWAP1 PUSH2 0x4B72 JUMP JUMPDEST PUSH1 0x40 MLOAD PUSH1 0x20 DUP2 DUP4 SUB SUB DUP2 MSTORE SWAP1 PUSH1 0x40 MSTORE DUP1 MLOAD SWAP1 PUSH1 0x20 ADD KECCAK256 SWAP1 POP SWAP4 SWAP3 POP POP POP JUMP JUMPDEST PUSH0 DUP1 PUSH32 0x7FFFFFFFFFFFFFFFFFFFFFFFFFFFFFFF5D576E7357A4501DDFE92F46681B20A0 DUP4 PUSH0 SHR GT ISZERO PUSH2 0x2E3A JUMPI PUSH0 PUSH1 0x3 SWAP2 POP SWAP2 POP PUSH2 0x2EFA JUMP JUMPDEST PUSH1 0x1B DUP6 PUSH1 0xFF AND EQ ISZERO DUP1 ISZERO PUSH2 0x2E52 JUMPI POP PUSH1 0x1C DUP6 PUSH1 0xFF AND EQ ISZERO JUMPDEST ISZERO PUSH2 0x2E63 JUMPI PUSH0 PUSH1 0x4 SWAP2 POP SWAP2 POP PUSH2 0x2EFA JUMP JUMPDEST PUSH0 PUSH1 0x1 DUP8 DUP8 DUP8 DUP8 PUSH1 0x40 MLOAD PUSH0 DUP2 MSTORE PUSH1 0x20 ADD PUSH1 0x40 MSTORE PUSH1 0x40 MLOAD PUSH2 0x2E86 SWAP5 SWAP4 SWAP3 SWAP2 SWAP1 PUSH2 0x4BDE JUMP JUMPDEST PUSH1 0x20 PUSH1 0x40 MLOAD PUSH1 0x20 DUP2 SUB SWAP1 DUP1 DUP5 SUB SWAP1 DUP6 GAS STATICCALL ISZERO DUP1 ISZERO PUSH2 0x2EA6 JUMPI RETURNDATASIZE PUSH0 DUP1 RETURNDATACOPY RETURNDATASIZE PUSH0 REVERT JUMPDEST POP POP POP PUSH1 0x20 PUSH1 0x40 MLOAD SUB MLOAD SWAP1 POP PUSH0 PUSH20 0xFFFFFFFFFFFFFFFFFFFFFFFFFFFFFFFFFFFFFFFF AND DUP2 PUSH20 0xFFFFFFFFFFFFFFFFFFFFFFFFFFFFFFFFFFFFFFFF AND SUB PUSH2 0x2EF2 JUMPI PUSH0 PUSH1 0x1 SWAP3 POP SWAP3 POP POP PUSH2 0x2EFA JUMP JUMPDEST DUP1 PUSH0 SWAP3 POP SWAP3 POP POP JUMPDEST SWAP5 POP SWAP5 SWAP3 POP POP POP JUMP JUMPDEST PUSH1 0x60 PUSH0 PUSH1 0x1 PUSH2 0x2F11 DUP5 PUSH2 0x3183 JUMP JUMPDEST ADD SWAP1 POP PUSH0 DUP2 PUSH8 0xFFFFFFFFFFFFFFFF DUP2 GT ISZERO PUSH2 0x2F2F JUMPI PUSH2 0x2F2E PUSH2 0x3682 JUMP JUMPDEST JUMPDEST PUSH1 0x40 MLOAD SWAP1 DUP1 DUP3 MSTORE DUP1 PUSH1 0x1F ADD PUSH1 0x1F NOT AND PUSH1 0x20 ADD DUP3 ADD PUSH1 0x40 MSTORE DUP1 ISZERO PUSH2 0x2F61 JUMPI DUP2 PUSH1 0x20 ADD PUSH1 0x1 DUP3 MUL DUP1 CALLDATASIZE DUP4 CALLDATACOPY DUP1 DUP3 ADD SWAP2 POP POP SWAP1 POP JUMPDEST POP SWAP1 POP PUSH0 DUP3 PUSH1 0x20 ADD DUP3 ADD SWAP1 POP JUMPDEST PUSH1 0x1 ISZERO PUSH2 0x2FC2 JUMPI DUP1 DUP1 PUSH1 0x1 SWAP1 SUB SWAP2 POP POP PUSH32 0x3031323334353637383961626364656600000000000000000000000000000000 PUSH1 0xA DUP7 MOD BYTE DUP2 MSTORE8 PUSH1 0xA DUP6 DUP2 PUSH2 0x2FB7 JUMPI PUSH2 0x2FB6 PUSH2 0x4C21 JUMP JUMPDEST JUMPDEST DIV SWAP5 POP PUSH0 DUP6 SUB PUSH2 0x2F6E JUMPI JUMPDEST DUP2 SWAP4 POP POP POP POP SWAP2 SWAP1 POP JUMP JUMPDEST PUSH2 0x2FD8 DUP4 DUP4 DUP4 PUSH2 0x32D4 JUMP JUMPDEST PUSH2 0x308B JUMPI PUSH0 PUSH20 0xFFFFFFFFFFFFFFFFFFFFFFFFFFFFFFFFFFFFFFFF AND DUP4 PUSH20 0xFFFFFFFFFFFFFFFFFFFFFFFFFFFFFFFFFFFFFFFF AND SUB PUSH2 0x304C JUMPI DUP1 PUSH1 0x40 MLOAD PUSH32 0x7E27328900000000000000000000000000000000000000000000000000000000 DUP2 MSTORE PUSH1 0x4 ADD PUSH2 0x3043 SWAP2 SWAP1 PUSH2 0x3615 JUMP JUMPDEST PUSH1 0x40 MLOAD DUP1 SWAP2 SUB SWAP1 REVERT JUMPDEST DUP2 DUP2 PUSH1 0x40 MLOAD PUSH32 0x177E802F00000000000000000000000000000000000000000000000000000000 DUP2 MSTORE PUSH1 0x4 ADD PUSH2 0x3082 SWAP3 SWAP2 SWAP1 PUSH2 0x4C4E JUMP JUMPDEST PUSH1 0x40 MLOAD DUP1 SWAP2 SUB SWAP1 REVERT JUMPDEST POP POP POP JUMP JUMPDEST PUSH0 PUSH20 0xFFFFFFFFFFFFFFFFFFFFFFFFFFFFFFFFFFFFFFFF AND DUP3 PUSH20 0xFFFFFFFFFFFFFFFFFFFFFFFFFFFFFFFFFFFFFFFF AND SUB PUSH2 0x3100 JUMPI PUSH0 PUSH1 0x40 MLOAD PUSH32 0x64A0AE9200000000000000000000000000000000000000000000000000000000 DUP2 MSTORE PUSH1 0x4 ADD PUSH2 0x30F7 SWAP2 SWAP1 PUSH2 0x3585 JUMP JUMPDEST PUSH1 0x40 MLOAD DUP1 SWAP2 SUB SWAP1 REVERT JUMPDEST PUSH0 PUSH2 0x310C DUP4 DUP4 PUSH0 PUSH2 0x1BCA JUMP JUMPDEST SWAP1 POP PUSH0 PUSH20 0xFFFFFFFFFFFFFFFFFFFFFFFFFFFFFFFFFFFFFFFF AND DUP2 PUSH20 0xFFFFFFFFFFFFFFFFFFFFFFFFFFFFFFFFFFFFFFFF AND EQ PUSH2 0x317E JUMPI PUSH0 PUSH1 0x40 MLOAD PUSH32 0x73C6AC6E00000000000000000000000000000000000000000000000000000000 DUP2 MSTORE PUSH1 0x4 ADD PUSH2 0x3175 SWAP2 SWAP1 PUSH2 0x3585 JUMP JUMPDEST PUSH1 0x40 MLOAD DUP1 SWAP2 SUB SWAP1 REVERT JUMPDEST POP POP POP JUMP JUMPDEST PUSH0 DUP1 PUSH0 SWAP1 POP PUSH27 0x184F03E93FF9F4DAA797ED6E38ED64BF6A1F010000000000000000 DUP4 LT PUSH2 0x31DF JUMPI PUSH27 0x184F03E93FF9F4DAA797ED6E38ED64BF6A1F010000000000000000 DUP4 DUP2 PUSH2 0x31D5 JUMPI PUSH2 0x31D4 PUSH2 0x4C21 JUMP JUMPDEST JUMPDEST DIV SWAP3 POP PUSH1 0x40 DUP2 ADD SWAP1 POP JUMPDEST PUSH14 0x4EE2D6D415B85ACEF8100000000 DUP4 LT PUSH2 0x321C JUMPI PUSH14 0x4EE2D6D415B85ACEF8100000000 DUP4 DUP2 PUSH2 0x3212 JUMPI PUSH2 0x3211 PUSH2 0x4C21 JUMP JUMPDEST JUMPDEST DIV SWAP3 POP PUSH1 0x20 DUP2 ADD SWAP1 POP JUMPDEST PUSH7 0x2386F26FC10000 DUP4 LT PUSH2 0x324B JUMPI PUSH7 0x2386F26FC10000 DUP4 DUP2 PUSH2 0x3241 JUMPI PUSH2 0x3240 PUSH2 0x4C21 JUMP JUMPDEST JUMPDEST DIV SWAP3 POP PUSH1 0x10 DUP2 ADD SWAP1 POP JUMPDEST PUSH4 0x5F5E100 DUP4 LT PUSH2 0x3274 JUMPI PUSH4 0x5F5E100 DUP4 DUP2 PUSH2 0x326A JUMPI PUSH2 0x3269 PUSH2 0x4C21 JUMP JUMPDEST JUMPDEST DIV SWAP3 POP PUSH1 0x8 DUP2 ADD SWAP1 POP JUMPDEST PUSH2 0x2710 DUP4 LT PUSH2 0x3299 JUMPI PUSH2 0x2710 DUP4 DUP2 PUSH2 0x328F JUMPI PUSH2 0x328E PUSH2 0x4C21 JUMP JUMPDEST JUMPDEST DIV SWAP3 POP PUSH1 0x4 DUP2 ADD SWAP1 POP JUMPDEST PUSH1 0x64 DUP4 LT PUSH2 0x32BC JUMPI PUSH1 0x64 DUP4 DUP2 PUSH2 0x32B2 JUMPI PUSH2 0x32B1 PUSH2 0x4C21 JUMP JUMPDEST JUMPDEST DIV SWAP3 POP PUSH1 0x2 DUP2 ADD SWAP1 POP JUMPDEST PUSH1 0xA DUP4 LT PUSH2 0x32CB JUMPI PUSH1 0x1 DUP2 ADD SWAP1 POP JUMPDEST DUP1 SWAP2 POP POP SWAP2 SWAP1 POP JUMP JUMPDEST PUSH0 DUP1 PUSH20 0xFFFFFFFFFFFFFFFFFFFFFFFFFFFFFFFFFFFFFFFF AND DUP4 PUSH20 0xFFFFFFFFFFFFFFFFFFFFFFFFFFFFFFFFFFFFFFFF AND EQ ISZERO DUP1 ISZERO PUSH2 0x338B JUMPI POP DUP3 PUSH20 0xFFFFFFFFFFFFFFFFFFFFFFFFFFFFFFFFFFFFFFFF AND DUP5 PUSH20 0xFFFFFFFFFFFFFFFFFFFFFFFFFFFFFFFFFFFFFFFF AND EQ DUP1 PUSH2 0x334C JUMPI POP PUSH2 0x334B DUP5 DUP5 PUSH2 0x18F9 JUMP JUMPDEST JUMPDEST DUP1 PUSH2 0x338A JUMPI POP DUP3 PUSH20 0xFFFFFFFFFFFFFFFFFFFFFFFFFFFFFFFFFFFFFFFF AND PUSH2 0x3372 DUP4 PUSH2 0x1B78 JUMP JUMPDEST PUSH20 0xFFFFFFFFFFFFFFFFFFFFFFFFFFFFFFFFFFFFFFFF AND EQ JUMPDEST JUMPDEST SWAP1 POP SWAP4 SWAP3 POP POP POP JUMP JUMPDEST PUSH0 PUSH1 0x40 MLOAD SWAP1 POP SWAP1 JUMP JUMPDEST PUSH0 DUP1 REVERT JUMPDEST PUSH0 DUP1 REVERT JUMPDEST PUSH0 PUSH32 0xFFFFFFFF00000000000000000000000000000000000000000000000000000000 DUP3 AND SWAP1 POP SWAP2 SWAP1 POP JUMP JUMPDEST PUSH2 0x33D9 DUP2 PUSH2 0x33A5 JUMP JUMPDEST DUP2 EQ PUSH2 0x33E3 JUMPI PUSH0 DUP1 REVERT JUMPDEST POP JUMP JUMPDEST PUSH0 DUP2 CALLDATALOAD SWAP1 POP PUSH2 0x33F4 DUP2 PUSH2 0x33D0 JUMP JUMPDEST SWAP3 SWAP2 POP POP JUMP JUMPDEST PUSH0 PUSH1 0x20 DUP3 DUP5 SUB SLT ISZERO PUSH2 0x340F JUMPI PUSH2 0x340E PUSH2 0x339D JUMP JUMPDEST JUMPDEST PUSH0 PUSH2 0x341C DUP5 DUP3 DUP6 ADD PUSH2 0x33E6 JUMP JUMPDEST SWAP2 POP POP SWAP3 SWAP2 POP POP JUMP JUMPDEST PUSH0 DUP2 ISZERO ISZERO SWAP1 POP SWAP2 SWAP1 POP JUMP JUMPDEST PUSH2 0x3439 DUP2 PUSH2 0x3425 JUMP JUMPDEST DUP3 MSTORE POP POP JUMP JUMPDEST PUSH0 PUSH1 0x20 DUP3 ADD SWAP1 POP PUSH2 0x3452 PUSH0 DUP4 ADD DUP5 PUSH2 0x3430 JUMP JUMPDEST SWAP3 SWAP2 POP POP JUMP JUMPDEST PUSH0 DUP2 MLOAD SWAP1 POP SWAP2 SWAP1 POP JUMP JUMPDEST PUSH0 DUP3 DUP3 MSTORE PUSH1 0x20 DUP3 ADD SWAP1 POP SWAP3 SWAP2 POP POP JUMP JUMPDEST DUP3 DUP2 DUP4 MCOPY PUSH0 DUP4 DUP4 ADD MSTORE POP POP POP JUMP JUMPDEST PUSH0 PUSH1 0x1F NOT PUSH1 0x1F DUP4 ADD AND SWAP1 POP SWAP2 SWAP1 POP JUMP JUMPDEST PUSH0 PUSH2 0x349A DUP3 PUSH2 0x3458 JUMP JUMPDEST PUSH2 0x34A4 DUP2 DUP6 PUSH2 0x3462 JUMP JUMPDEST SWAP4 POP PUSH2 0x34B4 DUP2 DUP6 PUSH1 0x20 DUP7 ADD PUSH2 0x3472 JUMP JUMPDEST PUSH2 0x34BD DUP2 PUSH2 0x3480 JUMP JUMPDEST DUP5 ADD SWAP2 POP POP SWAP3 SWAP2 POP POP JUMP JUMPDEST PUSH0 PUSH1 0x20 DUP3 ADD SWAP1 POP DUP2 DUP2 SUB PUSH0 DUP4 ADD MSTORE PUSH2 0x34E0 DUP2 DUP5 PUSH2 0x3490 JUMP JUMPDEST SWAP1 POP SWAP3 SWAP2 POP POP JUMP JUMPDEST PUSH0 DUP2 SWAP1 POP SWAP2 SWAP1 POP JUMP JUMPDEST PUSH2 0x34FA DUP2 PUSH2 0x34E8 JUMP JUMPDEST DUP2 EQ PUSH2 0x3504 JUMPI PUSH0 DUP1 REVERT JUMPDEST POP JUMP JUMPDEST PUSH0 DUP2 CALLDATALOAD SWAP1 POP PUSH2 0x3515 DUP2 PUSH2 0x34F1 JUMP JUMPDEST SWAP3 SWAP2 POP POP JUMP JUMPDEST PUSH0 PUSH1 0x20 DUP3 DUP5 SUB SLT ISZERO PUSH2 0x3530 JUMPI PUSH2 0x352F PUSH2 0x339D JUMP JUMPDEST JUMPDEST PUSH0 PUSH2 0x353D DUP5 DUP3 DUP6 ADD PUSH2 0x3507 JUMP JUMPDEST SWAP2 POP POP SWAP3 SWAP2 POP POP JUMP JUMPDEST PUSH0 PUSH20 0xFFFFFFFFFFFFFFFFFFFFFFFFFFFFFFFFFFFFFFFF DUP3 AND SWAP1 POP SWAP2 SWAP1 POP JUMP JUMPDEST PUSH0 PUSH2 0x356F DUP3 PUSH2 0x3546 JUMP JUMPDEST SWAP1 POP SWAP2 SWAP1 POP JUMP JUMPDEST PUSH2 0x357F DUP2 PUSH2 0x3565 JUMP JUMPDEST DUP3 MSTORE POP POP JUMP JUMPDEST PUSH0 PUSH1 0x20 DUP3 ADD SWAP1 POP PUSH2 0x3598 PUSH0 DUP4 ADD DUP5 PUSH2 0x3576 JUMP JUMPDEST SWAP3 SWAP2 POP POP JUMP JUMPDEST PUSH2 0x35A7 DUP2 PUSH2 0x3565 JUMP JUMPDEST DUP2 EQ PUSH2 0x35B1 JUMPI PUSH0 DUP1 REVERT JUMPDEST POP JUMP JUMPDEST PUSH0 DUP2 CALLDATALOAD SWAP1 POP PUSH2 0x35C2 DUP2 PUSH2 0x359E JUMP JUMPDEST SWAP3 SWAP2 POP POP JUMP JUMPDEST PUSH0 DUP1 PUSH1 0x40 DUP4 DUP6 SUB SLT ISZERO PUSH2 0x35DE JUMPI PUSH2 0x35DD PUSH2 0x339D JUMP JUMPDEST JUMPDEST PUSH0 PUSH2 0x35EB DUP6 DUP3 DUP7 ADD PUSH2 0x35B4 JUMP JUMPDEST SWAP3 POP POP PUSH1 0x20 PUSH2 0x35FC DUP6 DUP3 DUP7 ADD PUSH2 0x3507 JUMP JUMPDEST SWAP2 POP POP SWAP3 POP SWAP3 SWAP1 POP JUMP JUMPDEST PUSH2 0x360F DUP2 PUSH2 0x34E8 JUMP JUMPDEST DUP3 MSTORE POP POP JUMP JUMPDEST PUSH0 PUSH1 0x20 DUP3 ADD SWAP1 POP PUSH2 0x3628 PUSH0 DUP4 ADD DUP5 PUSH2 0x3606 JUMP JUMPDEST SWAP3 SWAP2 POP POP JUMP JUMPDEST PUSH0 DUP1 PUSH0 PUSH1 0x60 DUP5 DUP7 SUB SLT ISZERO PUSH2 0x3645 JUMPI PUSH2 0x3644 PUSH2 0x339D JUMP JUMPDEST JUMPDEST PUSH0 PUSH2 0x3652 DUP7 DUP3 DUP8 ADD PUSH2 0x35B4 JUMP JUMPDEST SWAP4 POP POP PUSH1 0x20 PUSH2 0x3663 DUP7 DUP3 DUP8 ADD PUSH2 0x35B4 JUMP JUMPDEST SWAP3 POP POP PUSH1 0x40 PUSH2 0x3674 DUP7 DUP3 DUP8 ADD PUSH2 0x3507 JUMP JUMPDEST SWAP2 POP POP SWAP3 POP SWAP3 POP SWAP3 JUMP JUMPDEST PUSH0 DUP1 REVERT JUMPDEST PUSH32 0x4E487B7100000000000000000000000000000000000000000000000000000000 PUSH0 MSTORE PUSH1 0x41 PUSH1 0x4 MSTORE PUSH1 0x24 PUSH0 REVERT JUMPDEST PUSH2 0x36B8 DUP3 PUSH2 0x3480 JUMP JUMPDEST DUP2 ADD DUP2 DUP2 LT PUSH8 0xFFFFFFFFFFFFFFFF DUP3 GT OR ISZERO PUSH2 0x36D7 JUMPI PUSH2 0x36D6 PUSH2 0x3682 JUMP JUMPDEST JUMPDEST DUP1 PUSH1 0x40 MSTORE POP POP POP JUMP JUMPDEST PUSH0 PUSH2 0x36E9 PUSH2 0x3394 JUMP JUMPDEST SWAP1 POP PUSH2 0x36F5 DUP3 DUP3 PUSH2 0x36AF JUMP JUMPDEST SWAP2 SWAP1 POP JUMP JUMPDEST PUSH0 PUSH8 0xFFFFFFFFFFFFFFFF DUP3 GT ISZERO PUSH2 0x3714 JUMPI PUSH2 0x3713 PUSH2 0x3682 JUMP JUMPDEST JUMPDEST PUSH1 0x20 DUP3 MUL SWAP1 POP PUSH1 0x20 DUP2 ADD SWAP1 POP SWAP2 SWAP1 POP JUMP JUMPDEST PUSH0 DUP1 REVERT JUMPDEST PUSH0 DUP2 SWAP1 POP SWAP2 SWAP1 POP JUMP JUMPDEST PUSH2 0x373B DUP2 PUSH2 0x3729 JUMP JUMPDEST DUP2 EQ PUSH2 0x3745 JUMPI PUSH0 DUP1 REVERT JUMPDEST POP JUMP JUMPDEST PUSH0 DUP2 CALLDATALOAD SWAP1 POP PUSH2 0x3756 DUP2 PUSH2 0x3732 JUMP JUMPDEST SWAP3 SWAP2 POP POP JUMP JUMPDEST PUSH0 PUSH2 0x376E PUSH2 0x3769 DUP5 PUSH2 0x36FA JUMP JUMPDEST PUSH2 0x36E0 JUMP JUMPDEST SWAP1 POP DUP1 DUP4 DUP3 MSTORE PUSH1 0x20 DUP3 ADD SWAP1 POP PUSH1 0x20 DUP5 MUL DUP4 ADD DUP6 DUP2 GT ISZERO PUSH2 0x3791 JUMPI PUSH2 0x3790 PUSH2 0x3725 JUMP JUMPDEST JUMPDEST DUP4 JUMPDEST DUP2 DUP2 LT ISZERO PUSH2 0x37BA JUMPI DUP1 PUSH2 0x37A6 DUP9 DUP3 PUSH2 0x3748 JUMP JUMPDEST DUP5 MSTORE PUSH1 0x20 DUP5 ADD SWAP4 POP POP PUSH1 0x20 DUP2 ADD SWAP1 POP PUSH2 0x3793 JUMP JUMPDEST POP POP POP SWAP4 SWAP3 POP POP POP JUMP JUMPDEST PUSH0 DUP3 PUSH1 0x1F DUP4 ADD SLT PUSH2 0x37D8 JUMPI PUSH2 0x37D7 PUSH2 0x367E JUMP JUMPDEST JUMPDEST DUP2 CALLDATALOAD PUSH2 0x37E8 DUP5 DUP3 PUSH1 0x20 DUP7 ADD PUSH2 0x375C JUMP JUMPDEST SWAP2 POP POP SWAP3 SWAP2 POP POP JUMP JUMPDEST PUSH0 DUP1 PUSH1 0x40 DUP4 DUP6 SUB SLT ISZERO PUSH2 0x3807 JUMPI PUSH2 0x3806 PUSH2 0x339D JUMP JUMPDEST JUMPDEST PUSH0 DUP4 ADD CALLDATALOAD PUSH8 0xFFFFFFFFFFFFFFFF DUP2 GT ISZERO PUSH2 0x3824 JUMPI PUSH2 0x3823 PUSH2 0x33A1 JUMP JUMPDEST JUMPDEST PUSH2 0x3830 DUP6 DUP3 DUP7 ADD PUSH2 0x37C4 JUMP JUMPDEST SWAP3 POP POP PUSH1 0x20 PUSH2 0x3841 DUP6 DUP3 DUP7 ADD PUSH2 0x3748 JUMP JUMPDEST SWAP2 POP POP SWAP3 POP SWAP3 SWAP1 POP JUMP JUMPDEST PUSH0 DUP1 REVERT JUMPDEST PUSH0 PUSH8 0xFFFFFFFFFFFFFFFF DUP3 GT ISZERO PUSH2 0x3869 JUMPI PUSH2 0x3868 PUSH2 0x3682 JUMP JUMPDEST JUMPDEST PUSH2 0x3872 DUP3 PUSH2 0x3480 JUMP JUMPDEST SWAP1 POP PUSH1 0x20 DUP2 ADD SWAP1 POP SWAP2 SWAP1 POP JUMP JUMPDEST DUP3 DUP2 DUP4 CALLDATACOPY PUSH0 DUP4 DUP4 ADD MSTORE POP POP POP JUMP JUMPDEST PUSH0 PUSH2 0x389F PUSH2 0x389A DUP5 PUSH2 0x384F JUMP JUMPDEST PUSH2 0x36E0 JUMP JUMPDEST SWAP1 POP DUP3 DUP2 MSTORE PUSH1 0x20 DUP2 ADD DUP5 DUP5 DUP5 ADD GT ISZERO PUSH2 0x38BB JUMPI PUSH2 0x38BA PUSH2 0x384B JUMP JUMPDEST JUMPDEST PUSH2 0x38C6 DUP5 DUP3 DUP6 PUSH2 0x387F JUMP JUMPDEST POP SWAP4 SWAP3 POP POP POP JUMP JUMPDEST PUSH0 DUP3 PUSH1 0x1F DUP4 ADD SLT PUSH2 0x38E2 JUMPI PUSH2 0x38E1 PUSH2 0x367E JUMP JUMPDEST JUMPDEST DUP2 CALLDATALOAD PUSH2 0x38F2 DUP5 DUP3 PUSH1 0x20 DUP7 ADD PUSH2 0x388D JUMP JUMPDEST SWAP2 POP POP SWAP3 SWAP2 POP POP JUMP JUMPDEST PUSH0 DUP1 PUSH0 DUP1 PUSH1 0x80 DUP6 DUP8 SUB SLT ISZERO PUSH2 0x3913 JUMPI PUSH2 0x3912 PUSH2 0x339D JUMP JUMPDEST JUMPDEST PUSH0 PUSH2 0x3920 DUP8 DUP3 DUP9 ADD PUSH2 0x35B4 JUMP JUMPDEST SWAP5 POP POP PUSH1 0x20 PUSH2 0x3931 DUP8 DUP3 DUP9 ADD PUSH2 0x3507 JUMP JUMPDEST SWAP4 POP POP PUSH1 0x40 DUP6 ADD CALLDATALOAD PUSH8 0xFFFFFFFFFFFFFFFF DUP2 GT ISZERO PUSH2 0x3952 JUMPI PUSH2 0x3951 PUSH2 0x33A1 JUMP JUMPDEST JUMPDEST PUSH2 0x395E DUP8 DUP3 DUP9 ADD PUSH2 0x38CE JUMP JUMPDEST SWAP3 POP POP PUSH1 0x60 DUP6 ADD CALLDATALOAD PUSH8 0xFFFFFFFFFFFFFFFF DUP2 GT ISZERO PUSH2 0x397F JUMPI PUSH2 0x397E PUSH2 0x33A1 JUMP JUMPDEST JUMPDEST PUSH2 0x398B DUP8 DUP3 DUP9 ADD PUSH2 0x37C4 JUMP JUMPDEST SWAP2 POP POP SWAP3 SWAP6 SWAP2 SWAP5 POP SWAP3 POP JUMP JUMPDEST PUSH0 PUSH1 0x20 DUP3 DUP5 SUB SLT ISZERO PUSH2 0x39AC JUMPI PUSH2 0x39AB PUSH2 0x339D JUMP JUMPDEST JUMPDEST PUSH0 PUSH2 0x39B9 DUP5 DUP3 DUP6 ADD PUSH2 0x3748 JUMP JUMPDEST SWAP2 POP POP SWAP3 SWAP2 POP POP JUMP JUMPDEST PUSH0 PUSH1 0x20 DUP3 DUP5 SUB SLT ISZERO PUSH2 0x39D7 JUMPI PUSH2 0x39D6 PUSH2 0x339D JUMP JUMPDEST JUMPDEST PUSH0 PUSH2 0x39E4 DUP5 DUP3 DUP6 ADD PUSH2 0x35B4 JUMP JUMPDEST SWAP2 POP POP SWAP3 SWAP2 POP POP JUMP JUMPDEST PUSH0 DUP1 REVERT JUMPDEST PUSH0 PUSH1 0x80 DUP3 DUP5 SUB SLT ISZERO PUSH2 0x3A06 JUMPI PUSH2 0x3A05 PUSH2 0x39ED JUMP JUMPDEST JUMPDEST DUP2 SWAP1 POP SWAP3 SWAP2 POP POP JUMP JUMPDEST PUSH0 PUSH1 0x20 DUP3 DUP5 SUB SLT ISZERO PUSH2 0x3A24 JUMPI PUSH2 0x3A23 PUSH2 0x339D JUMP JUMPDEST JUMPDEST PUSH0 DUP3 ADD CALLDATALOAD PUSH8 0xFFFFFFFFFFFFFFFF DUP2 GT ISZERO PUSH2 0x3A41 JUMPI PUSH2 0x3A40 PUSH2 0x33A1 JUMP JUMPDEST JUMPDEST PUSH2 0x3A4D DUP5 DUP3 DUP6 ADD PUSH2 0x39F1 JUMP JUMPDEST SWAP2 POP POP SWAP3 SWAP2 POP POP JUMP JUMPDEST PUSH2 0x3A5F DUP2 PUSH2 0x3425 JUMP JUMPDEST DUP2 EQ PUSH2 0x3A69 JUMPI PUSH0 DUP1 REVERT JUMPDEST POP JUMP JUMPDEST PUSH0 DUP2 CALLDATALOAD SWAP1 POP PUSH2 0x3A7A DUP2 PUSH2 0x3A56 JUMP JUMPDEST SWAP3 SWAP2 POP POP JUMP JUMPDEST PUSH0 DUP1 PUSH1 0x40 DUP4 DUP6 SUB SLT ISZERO PUSH2 0x3A96 JUMPI PUSH2 0x3A95 PUSH2 0x339D JUMP JUMPDEST JUMPDEST PUSH0 PUSH2 0x3AA3 DUP6 DUP3 DUP7 ADD PUSH2 0x35B4 JUMP JUMPDEST SWAP3 POP POP PUSH1 0x20 PUSH2 0x3AB4 DUP6 DUP3 DUP7 ADD PUSH2 0x3A6C JUMP JUMPDEST SWAP2 POP POP SWAP3 POP SWAP3 SWAP1 POP JUMP JUMPDEST PUSH0 PUSH8 0xFFFFFFFFFFFFFFFF DUP3 GT ISZERO PUSH2 0x3AD8 JUMPI PUSH2 0x3AD7 PUSH2 0x3682 JUMP JUMPDEST JUMPDEST PUSH2 0x3AE1 DUP3 PUSH2 0x3480 JUMP JUMPDEST SWAP1 POP PUSH1 0x20 DUP2 ADD SWAP1 POP SWAP2 SWAP1 POP JUMP JUMPDEST PUSH0 PUSH2 0x3B00 PUSH2 0x3AFB DUP5 PUSH2 0x3ABE JUMP JUMPDEST PUSH2 0x36E0 JUMP JUMPDEST SWAP1 POP DUP3 DUP2 MSTORE PUSH1 0x20 DUP2 ADD DUP5 DUP5 DUP5 ADD GT ISZERO PUSH2 0x3B1C JUMPI PUSH2 0x3B1B PUSH2 0x384B JUMP JUMPDEST JUMPDEST PUSH2 0x3B27 DUP5 DUP3 DUP6 PUSH2 0x387F JUMP JUMPDEST POP SWAP4 SWAP3 POP POP POP JUMP JUMPDEST PUSH0 DUP3 PUSH1 0x1F DUP4 ADD SLT PUSH2 0x3B43 JUMPI PUSH2 0x3B42 PUSH2 0x367E JUMP JUMPDEST JUMPDEST DUP2 CALLDATALOAD PUSH2 0x3B53 DUP5 DUP3 PUSH1 0x20 DUP7 ADD PUSH2 0x3AEE JUMP JUMPDEST SWAP2 POP POP SWAP3 SWAP2 POP POP JUMP JUMPDEST PUSH0 DUP1 PUSH0 DUP1 PUSH1 0x80 DUP6 DUP8 SUB SLT ISZERO PUSH2 0x3B74 JUMPI PUSH2 0x3B73 PUSH2 0x339D JUMP JUMPDEST JUMPDEST PUSH0 PUSH2 0x3B81 DUP8 DUP3 DUP9 ADD PUSH2 0x35B4 JUMP JUMPDEST SWAP5 POP POP PUSH1 0x20 PUSH2 0x3B92 DUP8 DUP3 DUP9 ADD PUSH2 0x35B4 JUMP JUMPDEST SWAP4 POP POP PUSH1 0x40 PUSH2 0x3BA3 DUP8 DUP3 DUP9 ADD PUSH2 0x3507 JUMP JUMPDEST SWAP3 POP POP PUSH1 0x60 DUP6 ADD CALLDATALOAD PUSH8 0xFFFFFFFFFFFFFFFF DUP2 GT ISZERO PUSH2 0x3BC4 JUMPI PUSH2 0x3BC3 PUSH2 0x33A1 JUMP JUMPDEST JUMPDEST PUSH2 0x3BD0 DUP8 DUP3 DUP9 ADD PUSH2 0x3B2F JUMP JUMPDEST SWAP2 POP POP SWAP3 SWAP6 SWAP2 SWAP5 POP SWAP3 POP JUMP JUMPDEST PUSH0 PUSH8 0xFFFFFFFFFFFFFFFF DUP3 GT ISZERO PUSH2 0x3BF6 JUMPI PUSH2 0x3BF5 PUSH2 0x3682 JUMP JUMPDEST JUMPDEST PUSH1 0x20 DUP3 MUL SWAP1 POP PUSH1 0x20 DUP2 ADD SWAP1 POP SWAP2 SWAP1 POP JUMP JUMPDEST PUSH0 PUSH2 0x3C19 PUSH2 0x3C14 DUP5 PUSH2 0x3BDC JUMP JUMPDEST PUSH2 0x36E0 JUMP JUMPDEST SWAP1 POP DUP1 DUP4 DUP3 MSTORE PUSH1 0x20 DUP3 ADD SWAP1 POP PUSH1 0x20 DUP5 MUL DUP4 ADD DUP6 DUP2 GT ISZERO PUSH2 0x3C3C JUMPI PUSH2 0x3C3B PUSH2 0x3725 JUMP JUMPDEST JUMPDEST DUP4 JUMPDEST DUP2 DUP2 LT ISZERO PUSH2 0x3C65 JUMPI DUP1 PUSH2 0x3C51 DUP9 DUP3 PUSH2 0x3507 JUMP JUMPDEST DUP5 MSTORE PUSH1 0x20 DUP5 ADD SWAP4 POP POP PUSH1 0x20 DUP2 ADD SWAP1 POP PUSH2 0x3C3E JUMP JUMPDEST POP POP POP SWAP4 SWAP3 POP POP POP JUMP JUMPDEST PUSH0 DUP3 PUSH1 0x1F DUP4 ADD SLT PUSH2 0x3C83 JUMPI PUSH2 0x3C82 PUSH2 0x367E JUMP JUMPDEST JUMPDEST DUP2 CALLDATALOAD PUSH2 0x3C93 DUP5 DUP3 PUSH1 0x20 DUP7 ADD PUSH2 0x3C07 JUMP JUMPDEST SWAP2 POP POP SWAP3 SWAP2 POP POP JUMP JUMPDEST PUSH0 PUSH8 0xFFFFFFFFFFFFFFFF DUP3 GT ISZERO PUSH2 0x3CB6 JUMPI PUSH2 0x3CB5 PUSH2 0x3682 JUMP JUMPDEST JUMPDEST PUSH1 0x20 DUP3 MUL SWAP1 POP PUSH1 0x20 DUP2 ADD SWAP1 POP SWAP2 SWAP1 POP JUMP JUMPDEST PUSH0 PUSH2 0x3CD9 PUSH2 0x3CD4 DUP5 PUSH2 0x3C9C JUMP JUMPDEST PUSH2 0x36E0 JUMP JUMPDEST SWAP1 POP DUP1 DUP4 DUP3 MSTORE PUSH1 0x20 DUP3 ADD SWAP1 POP PUSH1 0x20 DUP5 MUL DUP4 ADD DUP6 DUP2 GT ISZERO PUSH2 0x3CFC JUMPI PUSH2 0x3CFB PUSH2 0x3725 JUMP JUMPDEST JUMPDEST DUP4 JUMPDEST DUP2 DUP2 LT ISZERO PUSH2 0x3D43 JUMPI DUP1 CALLDATALOAD PUSH8 0xFFFFFFFFFFFFFFFF DUP2 GT ISZERO PUSH2 0x3D21 JUMPI PUSH2 0x3D20 PUSH2 0x367E JUMP JUMPDEST JUMPDEST DUP1 DUP7 ADD PUSH2 0x3D2E DUP10 DUP3 PUSH2 0x38CE JUMP JUMPDEST DUP6 MSTORE PUSH1 0x20 DUP6 ADD SWAP5 POP POP POP PUSH1 0x20 DUP2 ADD SWAP1 POP PUSH2 0x3CFE JUMP JUMPDEST POP POP POP SWAP4 SWAP3 POP POP POP JUMP JUMPDEST PUSH0 DUP3 PUSH1 0x1F DUP4 ADD SLT PUSH2 0x3D61 JUMPI PUSH2 0x3D60 PUSH2 0x367E JUMP JUMPDEST JUMPDEST DUP2 CALLDATALOAD PUSH2 0x3D71 DUP5 DUP3 PUSH1 0x20 DUP7 ADD PUSH2 0x3CC7 JUMP JUMPDEST SWAP2 POP POP SWAP3 SWAP2 POP POP JUMP JUMPDEST PUSH0 DUP1 PUSH0 PUSH1 0x60 DUP5 DUP7 SUB SLT ISZERO PUSH2 0x3D91 JUMPI PUSH2 0x3D90 PUSH2 0x339D JUMP JUMPDEST JUMPDEST PUSH0 PUSH2 0x3D9E DUP7 DUP3 DUP8 ADD PUSH2 0x35B4 JUMP JUMPDEST SWAP4 POP POP PUSH1 0x20 DUP5 ADD CALLDATALOAD PUSH8 0xFFFFFFFFFFFFFFFF DUP2 GT ISZERO PUSH2 0x3DBF JUMPI PUSH2 0x3DBE PUSH2 0x33A1 JUMP JUMPDEST JUMPDEST PUSH2 0x3DCB DUP7 DUP3 DUP8 ADD PUSH2 0x3C6F JUMP JUMPDEST SWAP3 POP POP PUSH1 0x40 DUP5 ADD CALLDATALOAD PUSH8 0xFFFFFFFFFFFFFFFF DUP2 GT ISZERO PUSH2 0x3DEC JUMPI PUSH2 0x3DEB PUSH2 0x33A1 JUMP JUMPDEST JUMPDEST PUSH2 0x3DF8 DUP7 DUP3 DUP8 ADD PUSH2 0x3D4D JUMP JUMPDEST SWAP2 POP POP SWAP3 POP SWAP3 POP SWAP3 JUMP JUMPDEST PUSH0 DUP1 PUSH1 0x40 DUP4 DUP6 SUB SLT ISZERO PUSH2 0x3E18 JUMPI PUSH2 0x3E17 PUSH2 0x339D JUMP JUMPDEST JUMPDEST PUSH0 PUSH2 0x3E25 DUP6 DUP3 DUP7 ADD PUSH2 0x35B4 JUMP JUMPDEST SWAP3 POP POP PUSH1 0x20 PUSH2 0x3E36 DUP6 DUP3 DUP7 ADD PUSH2 0x35B4 JUMP JUMPDEST SWAP2 POP POP SWAP3 POP SWAP3 SWAP1 POP JUMP JUMPDEST PUSH32 0x4E487B7100000000000000000000000000000000000000000000000000000000 PUSH0 MSTORE PUSH1 0x11 PUSH1 0x4 MSTORE PUSH1 0x24 PUSH0 REVERT JUMPDEST PUSH0 PUSH2 0x3E77 DUP3 PUSH2 0x34E8 JUMP JUMPDEST SWAP2 POP PUSH2 0x3E82 DUP4 PUSH2 0x34E8 JUMP JUMPDEST SWAP3 POP DUP3 DUP3 ADD SWAP1 POP DUP1 DUP3 GT ISZERO PUSH2 0x3E9A JUMPI PUSH2 0x3E99 PUSH2 0x3E40 JUMP JUMPDEST JUMPDEST SWAP3 SWAP2 POP POP JUMP JUMPDEST PUSH32 0x4E487B7100000000000000000000000000000000000000000000000000000000 PUSH0 MSTORE PUSH1 0x22 PUSH1 0x4 MSTORE PUSH1 0x24 PUSH0 REVERT JUMPDEST PUSH0 PUSH1 0x2 DUP3 DIV SWAP1 POP PUSH1 0x1 DUP3 AND DUP1 PUSH2 0x3EE4 JUMPI PUSH1 0x7F DUP3 AND SWAP2 POP JUMPDEST PUSH1 0x20 DUP3 LT DUP2 SUB PUSH2 0x3EF7 JUMPI PUSH2 0x3EF6 PUSH2 0x3EA0 JUMP JUMPDEST JUMPDEST POP SWAP2 SWAP1 POP JUMP JUMPDEST PUSH0 PUSH1 0x60 DUP3 ADD SWAP1 POP PUSH2 0x3F10 PUSH0 DUP4 ADD DUP7 PUSH2 0x3576 JUMP JUMPDEST PUSH2 0x3F1D PUSH1 0x20 DUP4 ADD DUP6 PUSH2 0x3606 JUMP JUMPDEST PUSH2 0x3F2A PUSH1 0x40 DUP4 ADD DUP5 PUSH2 0x3576 JUMP JUMPDEST SWAP5 SWAP4 POP POP POP POP JUMP JUMPDEST PUSH32 0x4E6F7420656E6F75676820657468657200000000000000000000000000000000 PUSH0 DUP3 ADD MSTORE POP JUMP JUMPDEST PUSH0 PUSH2 0x3F66 PUSH1 0x10 DUP4 PUSH2 0x3462 JUMP JUMPDEST SWAP2 POP PUSH2 0x3F71 DUP3 PUSH2 0x3F32 JUMP JUMPDEST PUSH1 0x20 DUP3 ADD SWAP1 POP SWAP2 SWAP1 POP JUMP JUMPDEST PUSH0 PUSH1 0x20 DUP3 ADD SWAP1 POP DUP2 DUP2 SUB PUSH0 DUP4 ADD MSTORE PUSH2 0x3F93 DUP2 PUSH2 0x3F5A JUMP JUMPDEST SWAP1 POP SWAP2 SWAP1 POP JUMP JUMPDEST PUSH32 0x4D696E74696E6720706861736520656E6465642E000000000000000000000000 PUSH0 DUP3 ADD MSTORE POP JUMP JUMPDEST PUSH0 PUSH2 0x3FCE PUSH1 0x14 DUP4 PUSH2 0x3462 JUMP JUMPDEST SWAP2 POP PUSH2 0x3FD9 DUP3 PUSH2 0x3F9A JUMP JUMPDEST PUSH1 0x20 DUP3 ADD SWAP1 POP SWAP2 SWAP1 POP JUMP JUMPDEST PUSH0 PUSH1 0x20 DUP3 ADD SWAP1 POP DUP2 DUP2 SUB PUSH0 DUP4 ADD MSTORE PUSH2 0x3FFB DUP2 PUSH2 0x3FC2 JUMP JUMPDEST SWAP1 POP SWAP2 SWAP1 POP JUMP JUMPDEST PUSH0 DUP2 PUSH1 0x60 SHL SWAP1 POP SWAP2 SWAP1 POP JUMP JUMPDEST PUSH0 PUSH2 0x4018 DUP3 PUSH2 0x4002 JUMP JUMPDEST SWAP1 POP SWAP2 SWAP1 POP JUMP JUMPDEST PUSH0 PUSH2 0x4029 DUP3 PUSH2 0x400E JUMP JUMPDEST SWAP1 POP SWAP2 SWAP1 POP JUMP JUMPDEST PUSH2 0x4041 PUSH2 0x403C DUP3 PUSH2 0x3565 JUMP JUMPDEST PUSH2 0x401F JUMP JUMPDEST DUP3 MSTORE POP POP JUMP JUMPDEST PUSH0 PUSH2 0x4052 DUP3 DUP5 PUSH2 0x4030 JUMP JUMPDEST PUSH1 0x14 DUP3 ADD SWAP2 POP DUP2 SWAP1 POP SWAP3 SWAP2 POP POP JUMP JUMPDEST PUSH32 0x4E6F7420612070617274206F6620416C6C6F776C697374000000000000000000 PUSH0 DUP3 ADD MSTORE POP JUMP JUMPDEST PUSH0 PUSH2 0x4095 PUSH1 0x17 DUP4 PUSH2 0x3462 JUMP JUMPDEST SWAP2 POP PUSH2 0x40A0 DUP3 PUSH2 0x4061 JUMP JUMPDEST PUSH1 0x20 DUP3 ADD SWAP1 POP SWAP2 SWAP1 POP JUMP JUMPDEST PUSH0 PUSH1 0x20 DUP3 ADD SWAP1 POP DUP2 DUP2 SUB PUSH0 DUP4 ADD MSTORE PUSH2 0x40C2 DUP2 PUSH2 0x4089 JUMP JUMPDEST SWAP1 POP SWAP2 SWAP1 POP JUMP JUMPDEST PUSH32 0x7075626C6963206D696E74206E6F74206C697665207965740000000000000000 PUSH0 DUP3 ADD MSTORE POP JUMP JUMPDEST PUSH0 PUSH2 0x40FD PUSH1 0x18 DUP4 PUSH2 0x3462 JUMP JUMPDEST SWAP2 POP PUSH2 0x4108 DUP3 PUSH2 0x40C9 JUMP JUMPDEST PUSH1 0x20 DUP3 ADD SWAP1 POP SWAP2 SWAP1 POP JUMP JUMPDEST PUSH0 PUSH1 0x20 DUP3 ADD SWAP1 POP DUP2 DUP2 SUB PUSH0 DUP4 ADD MSTORE PUSH2 0x412A DUP2 PUSH2 0x40F1 JUMP JUMPDEST SWAP1 POP SWAP2 SWAP1 POP JUMP JUMPDEST PUSH32 0x6D6178696D756D206E6674206D696E7420726561636865642E00000000000000 PUSH0 DUP3 ADD MSTORE POP JUMP JUMPDEST PUSH0 PUSH2 0x4165 PUSH1 0x19 DUP4 PUSH2 0x3462 JUMP JUMPDEST SWAP2 POP PUSH2 0x4170 DUP3 PUSH2 0x4131 JUMP JUMPDEST PUSH1 0x20 DUP3 ADD SWAP1 POP SWAP2 SWAP1 POP JUMP JUMPDEST PUSH0 PUSH1 0x20 DUP3 ADD SWAP1 POP DUP2 DUP2 SUB PUSH0 DUP4 ADD MSTORE PUSH2 0x4192 DUP2 PUSH2 0x4159 JUMP JUMPDEST SWAP1 POP SWAP2 SWAP1 POP JUMP JUMPDEST PUSH0 PUSH2 0x41A3 DUP3 PUSH2 0x34E8 JUMP JUMPDEST SWAP2 POP PUSH32 0xFFFFFFFFFFFFFFFFFFFFFFFFFFFFFFFFFFFFFFFFFFFFFFFFFFFFFFFFFFFFFFFF DUP3 SUB PUSH2 0x41D5 JUMPI PUSH2 0x41D4 PUSH2 0x3E40 JUMP JUMPDEST JUMPDEST PUSH1 0x1 DUP3 ADD SWAP1 POP SWAP2 SWAP1 POP JUMP JUMPDEST PUSH0 DUP1 REVERT JUMPDEST PUSH0 DUP1 REVERT JUMPDEST PUSH0 DUP1 REVERT JUMPDEST PUSH0 DUP1 DUP4 CALLDATALOAD PUSH1 0x1 PUSH1 0x20 SUB DUP5 CALLDATASIZE SUB SUB DUP2 SLT PUSH2 0x4208 JUMPI PUSH2 0x4207 PUSH2 0x41E0 JUMP JUMPDEST JUMPDEST DUP1 DUP5 ADD SWAP3 POP DUP3 CALLDATALOAD SWAP2 POP PUSH8 0xFFFFFFFFFFFFFFFF DUP3 GT ISZERO PUSH2 0x422A JUMPI PUSH2 0x4229 PUSH2 0x41E4 JUMP JUMPDEST JUMPDEST PUSH1 0x20 DUP4 ADD SWAP3 POP PUSH1 0x1 DUP3 MUL CALLDATASIZE SUB DUP4 SGT ISZERO PUSH2 0x4246 JUMPI PUSH2 0x4245 PUSH2 0x41E8 JUMP JUMPDEST JUMPDEST POP SWAP3 POP SWAP3 SWAP1 POP JUMP JUMPDEST PUSH0 DUP2 SWAP1 POP SWAP3 SWAP2 POP POP JUMP JUMPDEST PUSH0 PUSH2 0x4263 DUP4 DUP6 PUSH2 0x424E JUMP JUMPDEST SWAP4 POP PUSH2 0x4270 DUP4 DUP6 DUP5 PUSH2 0x387F JUMP JUMPDEST DUP3 DUP5 ADD SWAP1 POP SWAP4 SWAP3 POP POP POP JUMP JUMPDEST PUSH0 PUSH2 0x4288 DUP3 DUP5 DUP7 PUSH2 0x4258 JUMP JUMPDEST SWAP2 POP DUP2 SWAP1 POP SWAP4 SWAP3 POP POP POP JUMP JUMPDEST PUSH2 0x429D DUP2 PUSH2 0x3729 JUMP JUMPDEST DUP3 MSTORE POP POP JUMP JUMPDEST PUSH0 PUSH1 0x80 DUP3 ADD SWAP1 POP PUSH2 0x42B6 PUSH0 DUP4 ADD DUP8 PUSH2 0x4294 JUMP JUMPDEST PUSH2 0x42C3 PUSH1 0x20 DUP4 ADD DUP7 PUSH2 0x3576 JUMP JUMPDEST PUSH2 0x42D0 PUSH1 0x40 DUP4 ADD DUP6 PUSH2 0x3606 JUMP JUMPDEST PUSH2 0x42DD PUSH1 0x60 DUP4 ADD DUP5 PUSH2 0x4294 JUMP JUMPDEST SWAP6 SWAP5 POP POP POP POP POP JUMP JUMPDEST PUSH0 DUP1 DUP4 CALLDATALOAD PUSH1 0x1 PUSH1 0x20 SUB DUP5 CALLDATASIZE SUB SUB DUP2 SLT PUSH2 0x4302 JUMPI PUSH2 0x4301 PUSH2 0x41E0 JUMP JUMPDEST JUMPDEST DUP1 DUP5 ADD SWAP3 POP DUP3 CALLDATALOAD SWAP2 POP PUSH8 0xFFFFFFFFFFFFFFFF DUP3 GT ISZERO PUSH2 0x4324 JUMPI PUSH2 0x4323 PUSH2 0x41E4 JUMP JUMPDEST JUMPDEST PUSH1 0x20 DUP4 ADD SWAP3 POP PUSH1 0x1 DUP3 MUL CALLDATASIZE SUB DUP4 SGT ISZERO PUSH2 0x4340 JUMPI PUSH2 0x433F PUSH2 0x41E8 JUMP JUMPDEST JUMPDEST POP SWAP3 POP SWAP3 SWAP1 POP JUMP JUMPDEST PUSH32 0x57726F6E67207369676E61747572650000000000000000000000000000000000 PUSH0 DUP3 ADD MSTORE POP JUMP JUMPDEST PUSH0 PUSH2 0x437C PUSH1 0xF DUP4 PUSH2 0x3462 JUMP JUMPDEST SWAP2 POP PUSH2 0x4387 DUP3 PUSH2 0x4348 JUMP JUMPDEST PUSH1 0x20 DUP3 ADD SWAP1 POP SWAP2 SWAP1 POP JUMP JUMPDEST PUSH0 PUSH1 0x20 DUP3 ADD SWAP1 POP DUP2 DUP2 SUB PUSH0 DUP4 ADD MSTORE PUSH2 0x43A9 DUP2 PUSH2 0x4370 JUMP JUMPDEST SWAP1 POP SWAP2 SWAP1 POP JUMP JUMPDEST PUSH32 0x696E76616C696420696E70757400000000000000000000000000000000000000 PUSH0 DUP3 ADD MSTORE POP JUMP JUMPDEST PUSH0 PUSH2 0x43E4 PUSH1 0xD DUP4 PUSH2 0x3462 JUMP JUMPDEST SWAP2 POP PUSH2 0x43EF DUP3 PUSH2 0x43B0 JUMP JUMPDEST PUSH1 0x20 DUP3 ADD SWAP1 POP SWAP2 SWAP1 POP JUMP JUMPDEST PUSH0 PUSH1 0x20 DUP3 ADD SWAP1 POP DUP2 DUP2 SUB PUSH0 DUP4 ADD MSTORE PUSH2 0x4411 DUP2 PUSH2 0x43D8 JUMP JUMPDEST SWAP1 POP SWAP2 SWAP1 POP JUMP JUMPDEST PUSH32 0x4E487B7100000000000000000000000000000000000000000000000000000000 PUSH0 MSTORE PUSH1 0x32 PUSH1 0x4 MSTORE PUSH1 0x24 PUSH0 REVERT JUMPDEST PUSH32 0x6E667420737570706C7920726561636865640000000000000000000000000000 PUSH0 DUP3 ADD MSTORE POP JUMP JUMPDEST PUSH0 PUSH2 0x4479 PUSH1 0x12 DUP4 PUSH2 0x3462 JUMP JUMPDEST SWAP2 POP PUSH2 0x4484 DUP3 PUSH2 0x4445 JUMP JUMPDEST PUSH1 0x20 DUP3 ADD SWAP1 POP SWAP2 SWAP1 POP JUMP JUMPDEST PUSH0 PUSH1 0x20 DUP3 ADD SWAP1 POP DUP2 DUP2 SUB PUSH0 DUP4 ADD MSTORE PUSH2 0x44A6 DUP2 PUSH2 0x446D JUMP JUMPDEST SWAP1 POP SWAP2 SWAP1 POP JUMP JUMPDEST PUSH32 0x746F6B656E20616C7265616479206D696E746564000000000000000000000000 PUSH0 DUP3 ADD MSTORE POP JUMP JUMPDEST PUSH0 PUSH2 0x44E1 PUSH1 0x14 DUP4 PUSH2 0x3462 JUMP JUMPDEST SWAP2 POP PUSH2 0x44EC DUP3 PUSH2 0x44AD JUMP JUMPDEST PUSH1 0x20 DUP3 ADD SWAP1 POP SWAP2 SWAP1 POP JUMP JUMPDEST PUSH0 PUSH1 0x20 DUP3 ADD SWAP1 POP DUP2 DUP2 SUB PUSH0 DUP4 ADD MSTORE PUSH2 0x450E DUP2 PUSH2 0x44D5 JUMP JUMPDEST SWAP1 POP SWAP2 SWAP1 POP JUMP JUMPDEST PUSH0 DUP2 MLOAD SWAP1 POP SWAP2 SWAP1 POP JUMP JUMPDEST PUSH0 DUP3 DUP3 MSTORE PUSH1 0x20 DUP3 ADD SWAP1 POP SWAP3 SWAP2 POP POP JUMP JUMPDEST PUSH0 PUSH2 0x4539 DUP3 PUSH2 0x4515 JUMP JUMPDEST PUSH2 0x4543 DUP2 DUP6 PUSH2 0x451F JUMP JUMPDEST SWAP4 POP PUSH2 0x4553 DUP2 DUP6 PUSH1 0x20 DUP7 ADD PUSH2 0x3472 JUMP JUMPDEST PUSH2 0x455C DUP2 PUSH2 0x3480 JUMP JUMPDEST DUP5 ADD SWAP2 POP POP SWAP3 SWAP2 POP POP JUMP JUMPDEST PUSH0 PUSH1 0x80 DUP3 ADD SWAP1 POP PUSH2 0x457A PUSH0 DUP4 ADD DUP8 PUSH2 0x3576 JUMP JUMPDEST PUSH2 0x4587 PUSH1 0x20 DUP4 ADD DUP7 PUSH2 0x3576 JUMP JUMPDEST PUSH2 0x4594 PUSH1 0x40 DUP4 ADD DUP6 PUSH2 0x3606 JUMP JUMPDEST DUP2 DUP2 SUB PUSH1 0x60 DUP4 ADD MSTORE PUSH2 0x45A6 DUP2 DUP5 PUSH2 0x452F JUMP JUMPDEST SWAP1 POP SWAP6 SWAP5 POP POP POP POP POP JUMP JUMPDEST PUSH0 DUP2 MLOAD SWAP1 POP PUSH2 0x45BF DUP2 PUSH2 0x33D0 JUMP JUMPDEST SWAP3 SWAP2 POP POP JUMP JUMPDEST PUSH0 PUSH1 0x20 DUP3 DUP5 SUB SLT ISZERO PUSH2 0x45DA JUMPI PUSH2 0x45D9 PUSH2 0x339D JUMP JUMPDEST JUMPDEST PUSH0 PUSH2 0x45E7 DUP5 DUP3 DUP6 ADD PUSH2 0x45B1 JUMP JUMPDEST SWAP2 POP POP SWAP3 SWAP2 POP POP JUMP JUMPDEST PUSH0 DUP2 SWAP1 POP SWAP3 SWAP2 POP POP JUMP JUMPDEST PUSH0 PUSH2 0x4604 DUP3 PUSH2 0x3458 JUMP JUMPDEST PUSH2 0x460E DUP2 DUP6 PUSH2 0x45F0 JUMP JUMPDEST SWAP4 POP PUSH2 0x461E DUP2 DUP6 PUSH1 0x20 DUP7 ADD PUSH2 0x3472 JUMP JUMPDEST DUP1 DUP5 ADD SWAP2 POP POP SWAP3 SWAP2 POP POP JUMP JUMPDEST PUSH0 PUSH2 0x4635 DUP3 DUP6 PUSH2 0x45FA JUMP JUMPDEST SWAP2 POP PUSH2 0x4641 DUP3 DUP5 PUSH2 0x45FA JUMP JUMPDEST SWAP2 POP DUP2 SWAP1 POP SWAP4 SWAP3 POP POP POP JUMP JUMPDEST PUSH0 DUP2 SWAP1 POP DUP2 PUSH0 MSTORE PUSH1 0x20 PUSH0 KECCAK256 SWAP1 POP SWAP2 SWAP1 POP JUMP JUMPDEST PUSH0 PUSH1 0x20 PUSH1 0x1F DUP4 ADD DIV SWAP1 POP SWAP2 SWAP1 POP JUMP JUMPDEST PUSH0 DUP3 DUP3 SHL SWAP1 POP SWAP3 SWAP2 POP POP JUMP JUMPDEST PUSH0 PUSH1 0x8 DUP4 MUL PUSH2 0x46A9 PUSH32 0xFFFFFFFFFFFFFFFFFFFFFFFFFFFFFFFFFFFFFFFFFFFFFFFFFFFFFFFFFFFFFFFF DUP3 PUSH2 0x466E JUMP JUMPDEST PUSH2 0x46B3 DUP7 DUP4 PUSH2 0x466E JUMP JUMPDEST SWAP6 POP DUP1 NOT DUP5 AND SWAP4 POP DUP1 DUP7 AND DUP5 OR SWAP3 POP POP POP SWAP4 SWAP3 POP POP POP JUMP JUMPDEST PUSH0 DUP2 SWAP1 POP SWAP2 SWAP1 POP JUMP JUMPDEST PUSH0 PUSH2 0x46EE PUSH2 0x46E9 PUSH2 0x46E4 DUP5 PUSH2 0x34E8 JUMP JUMPDEST PUSH2 0x46CB JUMP JUMPDEST PUSH2 0x34E8 JUMP JUMPDEST SWAP1 POP SWAP2 SWAP1 POP JUMP JUMPDEST PUSH0 DUP2 SWAP1 POP SWAP2 SWAP1 POP JUMP JUMPDEST PUSH2 0x4707 DUP4 PUSH2 0x46D4 JUMP JUMPDEST PUSH2 0x471B PUSH2 0x4713 DUP3 PUSH2 0x46F5 JUMP JUMPDEST DUP5 DUP5 SLOAD PUSH2 0x467A JUMP JUMPDEST DUP3 SSTORE POP POP POP POP JUMP JUMPDEST PUSH0 SWAP1 JUMP JUMPDEST PUSH2 0x472F PUSH2 0x4723 JUMP JUMPDEST PUSH2 0x473A DUP2 DUP5 DUP5 PUSH2 0x46FE JUMP JUMPDEST POP POP POP JUMP JUMPDEST JUMPDEST DUP2 DUP2 LT ISZERO PUSH2 0x475D JUMPI PUSH2 0x4752 PUSH0 DUP3 PUSH2 0x4727 JUMP JUMPDEST PUSH1 0x1 DUP2 ADD SWAP1 POP PUSH2 0x4740 JUMP JUMPDEST POP POP JUMP JUMPDEST PUSH1 0x1F DUP3 GT ISZERO PUSH2 0x47A2 JUMPI PUSH2 0x4773 DUP2 PUSH2 0x464D JUMP JUMPDEST PUSH2 0x477C DUP5 PUSH2 0x465F JUMP JUMPDEST DUP2 ADD PUSH1 0x20 DUP6 LT ISZERO PUSH2 0x478B JUMPI DUP2 SWAP1 POP JUMPDEST PUSH2 0x479F PUSH2 0x4797 DUP6 PUSH2 0x465F JUMP JUMPDEST DUP4 ADD DUP3 PUSH2 0x473F JUMP JUMPDEST POP POP JUMPDEST POP POP POP JUMP JUMPDEST PUSH0 DUP3 DUP3 SHR SWAP1 POP SWAP3 SWAP2 POP POP JUMP JUMPDEST PUSH0 PUSH2 0x47C2 PUSH0 NOT DUP5 PUSH1 0x8 MUL PUSH2 0x47A7 JUMP JUMPDEST NOT DUP1 DUP4 AND SWAP2 POP POP SWAP3 SWAP2 POP POP JUMP JUMPDEST PUSH0 PUSH2 0x47DA DUP4 DUP4 PUSH2 0x47B3 JUMP JUMPDEST SWAP2 POP DUP3 PUSH1 0x2 MUL DUP3 OR SWAP1 POP SWAP3 SWAP2 POP POP JUMP JUMPDEST PUSH2 0x47F3 DUP3 PUSH2 0x3458 JUMP JUMPDEST PUSH8 0xFFFFFFFFFFFFFFFF DUP2 GT ISZERO PUSH2 0x480C JUMPI PUSH2 0x480B PUSH2 0x3682 JUMP JUMPDEST JUMPDEST PUSH2 0x4816 DUP3 SLOAD PUSH2 0x3ECD JUMP JUMPDEST PUSH2 0x4821 DUP3 DUP3 DUP6 PUSH2 0x4761 JUMP JUMPDEST PUSH0 PUSH1 0x20 SWAP1 POP PUSH1 0x1F DUP4 GT PUSH1 0x1 DUP2 EQ PUSH2 0x4852 JUMPI PUSH0 DUP5 ISZERO PUSH2 0x4840 JUMPI DUP3 DUP8 ADD MLOAD SWAP1 POP JUMPDEST PUSH2 0x484A DUP6 DUP3 PUSH2 0x47CF JUMP JUMPDEST DUP7 SSTORE POP PUSH2 0x48B1 JUMP JUMPDEST PUSH1 0x1F NOT DUP5 AND PUSH2 0x4860 DUP7 PUSH2 0x464D JUMP JUMPDEST PUSH0 JUMPDEST DUP3 DUP2 LT ISZERO PUSH2 0x4887 JUMPI DUP5 DUP10 ADD MLOAD DUP3 SSTORE PUSH1 0x1 DUP3 ADD SWAP2 POP PUSH1 0x20 DUP6 ADD SWAP5 POP PUSH1 0x20 DUP2 ADD SWAP1 POP PUSH2 0x4862 JUMP JUMPDEST DUP7 DUP4 LT ISZERO PUSH2 0x48A4 JUMPI DUP5 DUP10 ADD MLOAD PUSH2 0x48A0 PUSH1 0x1F DUP10 AND DUP3 PUSH2 0x47B3 JUMP JUMPDEST DUP4 SSTORE POP JUMPDEST PUSH1 0x1 PUSH1 0x2 DUP9 MUL ADD DUP9 SSTORE POP POP POP JUMPDEST POP POP POP POP POP POP JUMP JUMPDEST PUSH32 0x1901000000000000000000000000000000000000000000000000000000000000 PUSH0 DUP3 ADD MSTORE POP JUMP JUMPDEST PUSH0 PUSH2 0x48ED PUSH1 0x2 DUP4 PUSH2 0x45F0 JUMP JUMPDEST SWAP2 POP PUSH2 0x48F8 DUP3 PUSH2 0x48B9 JUMP JUMPDEST PUSH1 0x2 DUP3 ADD SWAP1 POP SWAP2 SWAP1 POP JUMP JUMPDEST PUSH0 DUP2 SWAP1 POP SWAP2 SWAP1 POP JUMP JUMPDEST PUSH2 0x491D PUSH2 0x4918 DUP3 PUSH2 0x3729 JUMP JUMPDEST PUSH2 0x4903 JUMP JUMPDEST DUP3 MSTORE POP POP JUMP JUMPDEST PUSH0 PUSH2 0x492D DUP3 PUSH2 0x48E1 JUMP JUMPDEST SWAP2 POP PUSH2 0x4939 DUP3 DUP6 PUSH2 0x490C JUMP JUMPDEST PUSH1 0x20 DUP3 ADD SWAP2 POP PUSH2 0x4949 DUP3 DUP5 PUSH2 0x490C JUMP JUMPDEST PUSH1 0x20 DUP3 ADD SWAP2 POP DUP2 SWAP1 POP SWAP4 SWAP3 POP POP POP JUMP JUMPDEST PUSH32 0x4E487B7100000000000000000000000000000000000000000000000000000000 PUSH0 MSTORE PUSH1 0x21 PUSH1 0x4 MSTORE PUSH1 0x24 PUSH0 REVERT JUMPDEST PUSH32 0x45434453413A20696E76616C6964207369676E61747572650000000000000000 PUSH0 DUP3 ADD MSTORE POP JUMP JUMPDEST PUSH0 PUSH2 0x49BA PUSH1 0x18 DUP4 PUSH2 0x3462 JUMP JUMPDEST SWAP2 POP PUSH2 0x49C5 DUP3 PUSH2 0x4986 JUMP JUMPDEST PUSH1 0x20 DUP3 ADD SWAP1 POP SWAP2 SWAP1 POP JUMP JUMPDEST PUSH0 PUSH1 0x20 DUP3 ADD SWAP1 POP DUP2 DUP2 SUB PUSH0 DUP4 ADD MSTORE PUSH2 0x49E7 DUP2 PUSH2 0x49AE JUMP JUMPDEST SWAP1 POP SWAP2 SWAP1 POP JUMP JUMPDEST PUSH32 0x45434453413A20696E76616C6964207369676E6174757265206C656E67746800 PUSH0 DUP3 ADD MSTORE POP JUMP JUMPDEST PUSH0 PUSH2 0x4A22 PUSH1 0x1F DUP4 PUSH2 0x3462 JUMP JUMPDEST SWAP2 POP PUSH2 0x4A2D DUP3 PUSH2 0x49EE JUMP JUMPDEST PUSH1 0x20 DUP3 ADD SWAP1 POP SWAP2 SWAP1 POP JUMP JUMPDEST PUSH0 PUSH1 0x20 DUP3 ADD SWAP1 POP DUP2 DUP2 SUB PUSH0 DUP4 ADD MSTORE PUSH2 0x4A4F DUP2 PUSH2 0x4A16 JUMP JUMPDEST SWAP1 POP SWAP2 SWAP1 POP JUMP JUMPDEST PUSH32 0x45434453413A20696E76616C6964207369676E6174757265202773272076616C PUSH0 DUP3 ADD MSTORE PUSH32 0x7565000000000000000000000000000000000000000000000000000000000000 PUSH1 0x20 DUP3 ADD MSTORE POP JUMP JUMPDEST PUSH0 PUSH2 0x4AB0 PUSH1 0x22 DUP4 PUSH2 0x3462 JUMP JUMPDEST SWAP2 POP PUSH2 0x4ABB DUP3 PUSH2 0x4A56 JUMP JUMPDEST PUSH1 0x40 DUP3 ADD SWAP1 POP SWAP2 SWAP1 POP JUMP JUMPDEST PUSH0 PUSH1 0x20 DUP3 ADD SWAP1 POP DUP2 DUP2 SUB PUSH0 DUP4 ADD MSTORE PUSH2 0x4ADD DUP2 PUSH2 0x4AA4 JUMP JUMPDEST SWAP1 POP SWAP2 SWAP1 POP JUMP JUMPDEST PUSH32 0x45434453413A20696E76616C6964207369676E6174757265202776272076616C PUSH0 DUP3 ADD MSTORE PUSH32 0x7565000000000000000000000000000000000000000000000000000000000000 PUSH1 0x20 DUP3 ADD MSTORE POP JUMP JUMPDEST PUSH0 PUSH2 0x4B3E PUSH1 0x22 DUP4 PUSH2 0x3462 JUMP JUMPDEST SWAP2 POP PUSH2 0x4B49 DUP3 PUSH2 0x4AE4 JUMP JUMPDEST PUSH1 0x40 DUP3 ADD SWAP1 POP SWAP2 SWAP1 POP JUMP JUMPDEST PUSH0 PUSH1 0x20 DUP3 ADD SWAP1 POP DUP2 DUP2 SUB PUSH0 DUP4 ADD MSTORE PUSH2 0x4B6B DUP2 PUSH2 0x4B32 JUMP JUMPDEST SWAP1 POP SWAP2 SWAP1 POP JUMP JUMPDEST PUSH0 PUSH1 0xA0 DUP3 ADD SWAP1 POP PUSH2 0x4B85 PUSH0 DUP4 ADD DUP9 PUSH2 0x4294 JUMP JUMPDEST PUSH2 0x4B92 PUSH1 0x20 DUP4 ADD DUP8 PUSH2 0x4294 JUMP JUMPDEST PUSH2 0x4B9F PUSH1 0x40 DUP4 ADD DUP7 PUSH2 0x4294 JUMP JUMPDEST PUSH2 0x4BAC PUSH1 0x60 DUP4 ADD DUP6 PUSH2 0x3606 JUMP JUMPDEST PUSH2 0x4BB9 PUSH1 0x80 DUP4 ADD DUP5 PUSH2 0x3576 JUMP JUMPDEST SWAP7 SWAP6 POP POP POP POP POP POP JUMP JUMPDEST PUSH0 PUSH1 0xFF DUP3 AND SWAP1 POP SWAP2 SWAP1 POP JUMP JUMPDEST PUSH2 0x4BD8 DUP2 PUSH2 0x4BC3 JUMP JUMPDEST DUP3 MSTORE POP POP JUMP JUMPDEST PUSH0 PUSH1 0x80 DUP3 ADD SWAP1 POP PUSH2 0x4BF1 PUSH0 DUP4 ADD DUP8 PUSH2 0x4294 JUMP JUMPDEST PUSH2 0x4BFE PUSH1 0x20 DUP4 ADD DUP7 PUSH2 0x4BCF JUMP JUMPDEST PUSH2 0x4C0B PUSH1 0x40 DUP4 ADD DUP6 PUSH2 0x4294 JUMP JUMPDEST PUSH2 0x4C18 PUSH1 0x60 DUP4 ADD DUP5 PUSH2 0x4294 JUMP JUMPDEST SWAP6 SWAP5 POP POP POP POP POP JUMP JUMPDEST PUSH32 0x4E487B7100000000000000000000000000000000000000000000000000000000 PUSH0 MSTORE PUSH1 0x12 PUSH1 0x4 MSTORE PUSH1 0x24 PUSH0 REVERT JUMPDEST PUSH0 PUSH1 0x40 DUP3 ADD SWAP1 POP PUSH2 0x4C61 PUSH0 DUP4 ADD DUP6 PUSH2 0x3576 JUMP JUMPDEST PUSH2 0x4C6E PUSH1 0x20 DUP4 ADD DUP5 PUSH2 0x3606 JUMP JUMPDEST SWAP4 SWAP3 POP POP POP JUMP INVALID LOG2 PUSH5 0x6970667358 0x22 SLT KECCAK256 0xCD SIGNEXTEND 0xAC PC 0x23 SWAP9 JUMPDEST CHAINID 0xC6 CALLDATASIZE DUP14 SSTORE 0xC9 DUP14 SELFDESTRUCT CHAINID 0xB3 PUSH11 0x958556061F4A2550020CC3 0x26 0xD6 SSTORE PUSH5 0x736F6C6343 STOP ADDMOD BYTE STOP CALLER "
		},
		"gasEstimates": {
			"creation": {
				"codeDepositCost": "3925400",
				"executionCost": "infinite",
				"totalCost": "infinite"
			},
			"external": {
				"airdrop(address,uint256[],string[])": "infinite",
				"approve(address,uint256)": "infinite",
				"balanceOf(address)": "infinite",
				"burn(uint256)": "infinite",
				"fpAllowListEndTime()": "2491",
				"fpAllowListMintLive()": "2651",
				"fpAllowListPrice()": "2559",
				"fpAllowMint(address,uint256,string,bytes32[])": "infinite",
				"getApproved(uint256)": "infinite",
				"isApprovedForAll(address,address)": "infinite",
				"max_supply()": "2492",
				"maximumSpMint()": "2492",
				"mintStatus(uint256)": "2831",
				"name()": "infinite",
				"owner()": "2655",
				"ownerOf(uint256)": "infinite",
				"pause()": "infinite",
				"paused()": "2584",
				"publicMint((address,uint256,string,bytes))": "infinite",
				"publicMintLive()": "2534",
				"publicMintPrice()": "2513",
				"redeemPublicMintVoucher((address,uint256,string,bytes))": "infinite",
				"renounceOwnership()": "infinite",
				"safeTransferFrom(address,address,uint256)": "infinite",
				"safeTransferFrom(address,address,uint256,bytes)": "infinite",
				"setApprovalForAll(address,bool)": "infinite",
				"setFpAllowListEndTime()": "infinite",
				"setFpAllowListPrice(uint256)": "infinite",
				"setFpAllowListRoot(bytes32)": "infinite",
				"setMaximumSpMint(uint256)": "infinite",
				"setPublicMintPrice(uint256)": "infinite",
				"setSpAllowListEndTime()": "infinite",
				"setSpAllowListPrice(uint256)": "infinite",
				"setSpAllowListRoot(bytes32)": "infinite",
				"spAllowListEndTime()": "2493",
				"spAllowListMintLive()": "2584",
				"spAllowListPrice()": "2494",
				"spAllowMint(address,uint256,string,bytes32[])": "infinite",
				"spMinterTotal(address)": "2870",
				"supportsInterface(bytes4)": "946",
				"symbol()": "infinite",
				"toggleFpAllowListMintLive()": "infinite",
				"togglePublicMintLive()": "infinite",
				"toggleSpAllowListMintLive()": "infinite",
				"tokenURI(uint256)": "infinite",
				"totalMinted()": "2470",
				"transferFrom(address,address,uint256)": "infinite",
				"transferOwnership(address)": "infinite",
				"unpause()": "infinite",
				"verifyFpAllowList(bytes32[],bytes32)": "infinite",
				"verifySpAllowList(bytes32[],bytes32)": "infinite",
				"withdraw(address)": "infinite"
			},
			"internal": {
				"_update(address,uint256,address)": "infinite",
				"mint(address,uint256,string memory)": "infinite"
			}
		},
		"methodIdentifiers": {
			"airdrop(address,uint256[],string[])": "d7192b9a",
			"approve(address,uint256)": "095ea7b3",
			"balanceOf(address)": "70a08231",
			"burn(uint256)": "42966c68",
			"fpAllowListEndTime()": "dba66062",
			"fpAllowListMintLive()": "728917d4",
			"fpAllowListPrice()": "3d016e59",
			"fpAllowMint(address,uint256,string,bytes32[])": "72f9efcf",
			"getApproved(uint256)": "081812fc",
			"isApprovedForAll(address,address)": "e985e9c5",
			"max_supply()": "8a333b50",
			"maximumSpMint()": "cb98652d",
			"mintStatus(uint256)": "3f1cdbdf",
			"name()": "06fdde03",
			"owner()": "8da5cb5b",
			"ownerOf(uint256)": "6352211e",
			"pause()": "8456cb59",
			"paused()": "5c975abb",
			"publicMint((address,uint256,string,bytes))": "cd64154a",
			"publicMintLive()": "27c7dde7",
			"publicMintPrice()": "dc53fd92",
			"redeemPublicMintVoucher((address,uint256,string,bytes))": "849084d3",
			"renounceOwnership()": "715018a6",
			"safeTransferFrom(address,address,uint256)": "42842e0e",
			"safeTransferFrom(address,address,uint256,bytes)": "b88d4fde",
			"setApprovalForAll(address,bool)": "a22cb465",
			"setFpAllowListEndTime()": "16d1534a",
			"setFpAllowListPrice(uint256)": "ae0614f1",
			"setFpAllowListRoot(bytes32)": "3fa9d0e4",
			"setMaximumSpMint(uint256)": "4a763496",
			"setPublicMintPrice(uint256)": "5d82cf6e",
			"setSpAllowListEndTime()": "064608e2",
			"setSpAllowListPrice(uint256)": "2f4f52ed",
			"setSpAllowListRoot(bytes32)": "4a2eb4b7",
			"spAllowListEndTime()": "6770ec83",
			"spAllowListMintLive()": "5145ae2a",
			"spAllowListPrice()": "197348b7",
			"spAllowMint(address,uint256,string,bytes32[])": "345c911b",
			"spMinterTotal(address)": "8143c261",
			"supportsInterface(bytes4)": "01ffc9a7",
			"symbol()": "95d89b41",
			"toggleFpAllowListMintLive()": "4ee95582",
			"togglePublicMintLive()": "afe206d4",
			"toggleSpAllowListMintLive()": "badc6643",
			"tokenURI(uint256)": "c87b56dd",
			"totalMinted()": "a2309ff8",
			"transferFrom(address,address,uint256)": "23b872dd",
			"transferOwnership(address)": "f2fde38b",
			"unpause()": "3f4ba83a",
			"verifyFpAllowList(bytes32[],bytes32)": "48c04722",
			"verifySpAllowList(bytes32[],bytes32)": "2747fa19",
			"withdraw(address)": "51cff8d9"
		}
	},
	"abi": [
		{
			"inputs": [
				{
					"internalType": "address",
					"name": "initialOwner",
					"type": "address"
				}
			],
			"stateMutability": "nonpayable",
			"type": "constructor"
		},
		{
			"inputs": [
				{
					"internalType": "address",
					"name": "sender",
					"type": "address"
				},
				{
					"internalType": "uint256",
					"name": "tokenId",
					"type": "uint256"
				},
				{
					"internalType": "address",
					"name": "owner",
					"type": "address"
				}
			],
			"name": "ERC721IncorrectOwner",
			"type": "error"
		},
		{
			"inputs": [
				{
					"internalType": "address",
					"name": "operator",
					"type": "address"
				},
				{
					"internalType": "uint256",
					"name": "tokenId",
					"type": "uint256"
				}
			],
			"name": "ERC721InsufficientApproval",
			"type": "error"
		},
		{
			"inputs": [
				{
					"internalType": "address",
					"name": "approver",
					"type": "address"
				}
			],
			"name": "ERC721InvalidApprover",
			"type": "error"
		},
		{
			"inputs": [
				{
					"internalType": "address",
					"name": "operator",
					"type": "address"
				}
			],
			"name": "ERC721InvalidOperator",
			"type": "error"
		},
		{
			"inputs": [
				{
					"internalType": "address",
					"name": "owner",
					"type": "address"
				}
			],
			"name": "ERC721InvalidOwner",
			"type": "error"
		},
		{
			"inputs": [
				{
					"internalType": "address",
					"name": "receiver",
					"type": "address"
				}
			],
			"name": "ERC721InvalidReceiver",
			"type": "error"
		},
		{
			"inputs": [
				{
					"internalType": "address",
					"name": "sender",
					"type": "address"
				}
			],
			"name": "ERC721InvalidSender",
			"type": "error"
		},
		{
			"inputs": [
				{
					"internalType": "uint256",
					"name": "tokenId",
					"type": "uint256"
				}
			],
			"name": "ERC721NonexistentToken",
			"type": "error"
		},
		{
			"inputs": [],
			"name": "EnforcedPause",
			"type": "error"
		},
		{
			"inputs": [],
			"name": "ExpectedPause",
			"type": "error"
		},
		{
			"inputs": [
				{
					"internalType": "address",
					"name": "owner",
					"type": "address"
				}
			],
			"name": "OwnableInvalidOwner",
			"type": "error"
		},
		{
			"inputs": [
				{
					"internalType": "address",
					"name": "account",
					"type": "address"
				}
			],
			"name": "OwnableUnauthorizedAccount",
			"type": "error"
		},
		{
			"anonymous": false,
			"inputs": [
				{
					"indexed": true,
					"internalType": "address",
					"name": "owner",
					"type": "address"
				},
				{
					"indexed": true,
					"internalType": "address",
					"name": "approved",
					"type": "address"
				},
				{
					"indexed": true,
					"internalType": "uint256",
					"name": "tokenId",
					"type": "uint256"
				}
			],
			"name": "Approval",
			"type": "event"
		},
		{
			"anonymous": false,
			"inputs": [
				{
					"indexed": true,
					"internalType": "address",
					"name": "owner",
					"type": "address"
				},
				{
					"indexed": true,
					"internalType": "address",
					"name": "operator",
					"type": "address"
				},
				{
					"indexed": false,
					"internalType": "bool",
					"name": "approved",
					"type": "bool"
				}
			],
			"name": "ApprovalForAll",
			"type": "event"
		},
		{
			"anonymous": false,
			"inputs": [
				{
					"indexed": false,
					"internalType": "uint256",
					"name": "_fromTokenId",
					"type": "uint256"
				},
				{
					"indexed": false,
					"internalType": "uint256",
					"name": "_toTokenId",
					"type": "uint256"
				}
			],
			"name": "BatchMetadataUpdate",
			"type": "event"
		},
		{
			"anonymous": false,
			"inputs": [
				{
					"indexed": false,
					"internalType": "uint256",
					"name": "_tokenId",
					"type": "uint256"
				}
			],
			"name": "MetadataUpdate",
			"type": "event"
		},
		{
			"anonymous": false,
			"inputs": [
				{
					"indexed": true,
					"internalType": "address",
					"name": "previousOwner",
					"type": "address"
				},
				{
					"indexed": true,
					"internalType": "address",
					"name": "newOwner",
					"type": "address"
				}
			],
			"name": "OwnershipTransferred",
			"type": "event"
		},
		{
			"anonymous": false,
			"inputs": [
				{
					"indexed": false,
					"internalType": "address",
					"name": "account",
					"type": "address"
				}
			],
			"name": "Paused",
			"type": "event"
		},
		{
			"anonymous": false,
			"inputs": [
				{
					"indexed": true,
					"internalType": "address",
					"name": "from",
					"type": "address"
				},
				{
					"indexed": true,
					"internalType": "address",
					"name": "to",
					"type": "address"
				},
				{
					"indexed": true,
					"internalType": "uint256",
					"name": "tokenId",
					"type": "uint256"
				}
			],
			"name": "Transfer",
			"type": "event"
		},
		{
			"anonymous": false,
			"inputs": [
				{
					"indexed": false,
					"internalType": "address",
					"name": "account",
					"type": "address"
				}
			],
			"name": "Unpaused",
			"type": "event"
		},
		{
			"inputs": [
				{
					"internalType": "address",
					"name": "to",
					"type": "address"
				},
				{
					"internalType": "uint256[]",
					"name": "tokenIds",
					"type": "uint256[]"
				},
				{
					"internalType": "string[]",
					"name": "uris",
					"type": "string[]"
				}
			],
			"name": "airdrop",
			"outputs": [],
			"stateMutability": "nonpayable",
			"type": "function"
		},
		{
			"inputs": [
				{
					"internalType": "address",
					"name": "to",
					"type": "address"
				},
				{
					"internalType": "uint256",
					"name": "tokenId",
					"type": "uint256"
				}
			],
			"name": "approve",
			"outputs": [],
			"stateMutability": "nonpayable",
			"type": "function"
		},
		{
			"inputs": [
				{
					"internalType": "address",
					"name": "owner",
					"type": "address"
				}
			],
			"name": "balanceOf",
			"outputs": [
				{
					"internalType": "uint256",
					"name": "",
					"type": "uint256"
				}
			],
			"stateMutability": "view",
			"type": "function"
		},
		{
			"inputs": [
				{
					"internalType": "uint256",
					"name": "tokenId",
					"type": "uint256"
				}
			],
			"name": "burn",
			"outputs": [],
			"stateMutability": "nonpayable",
			"type": "function"
		},
		{
			"inputs": [],
			"name": "fpAllowListEndTime",
			"outputs": [
				{
					"internalType": "uint256",
					"name": "",
					"type": "uint256"
				}
			],
			"stateMutability": "view",
			"type": "function"
		},
		{
			"inputs": [],
			"name": "fpAllowListMintLive",
			"outputs": [
				{
					"internalType": "bool",
					"name": "",
					"type": "bool"
				}
			],
			"stateMutability": "view",
			"type": "function"
		},
		{
			"inputs": [],
			"name": "fpAllowListPrice",
			"outputs": [
				{
					"internalType": "uint256",
					"name": "",
					"type": "uint256"
				}
			],
			"stateMutability": "view",
			"type": "function"
		},
		{
			"inputs": [
				{
					"internalType": "address",
					"name": "minter",
					"type": "address"
				},
				{
					"internalType": "uint256",
					"name": "tokenId",
					"type": "uint256"
				},
				{
					"internalType": "string",
					"name": "uri",
					"type": "string"
				},
				{
					"internalType": "bytes32[]",
					"name": "proof",
					"type": "bytes32[]"
				}
			],
			"name": "fpAllowMint",
			"outputs": [],
			"stateMutability": "payable",
			"type": "function"
		},
		{
			"inputs": [
				{
					"internalType": "uint256",
					"name": "tokenId",
					"type": "uint256"
				}
			],
			"name": "getApproved",
			"outputs": [
				{
					"internalType": "address",
					"name": "",
					"type": "address"
				}
			],
			"stateMutability": "view",
			"type": "function"
		},
		{
			"inputs": [
				{
					"internalType": "address",
					"name": "owner",
					"type": "address"
				},
				{
					"internalType": "address",
					"name": "operator",
					"type": "address"
				}
			],
			"name": "isApprovedForAll",
			"outputs": [
				{
					"internalType": "bool",
					"name": "",
					"type": "bool"
				}
			],
			"stateMutability": "view",
			"type": "function"
		},
		{
			"inputs": [],
			"name": "max_supply",
			"outputs": [
				{
					"internalType": "uint256",
					"name": "",
					"type": "uint256"
				}
			],
			"stateMutability": "view",
			"type": "function"
		},
		{
			"inputs": [],
			"name": "maximumSpMint",
			"outputs": [
				{
					"internalType": "uint256",
					"name": "",
					"type": "uint256"
				}
			],
			"stateMutability": "view",
			"type": "function"
		},
		{
			"inputs": [
				{
					"internalType": "uint256",
					"name": "",
					"type": "uint256"
				}
			],
			"name": "mintStatus",
			"outputs": [
				{
					"internalType": "bool",
					"name": "",
					"type": "bool"
				}
			],
			"stateMutability": "view",
			"type": "function"
		},
		{
			"inputs": [],
			"name": "name",
			"outputs": [
				{
					"internalType": "string",
					"name": "",
					"type": "string"
				}
			],
			"stateMutability": "view",
			"type": "function"
		},
		{
			"inputs": [],
			"name": "owner",
			"outputs": [
				{
					"internalType": "address",
					"name": "",
					"type": "address"
				}
			],
			"stateMutability": "view",
			"type": "function"
		},
		{
			"inputs": [
				{
					"internalType": "uint256",
					"name": "tokenId",
					"type": "uint256"
				}
			],
			"name": "ownerOf",
			"outputs": [
				{
					"internalType": "address",
					"name": "",
					"type": "address"
				}
			],
			"stateMutability": "view",
			"type": "function"
		},
		{
			"inputs": [],
			"name": "pause",
			"outputs": [],
			"stateMutability": "nonpayable",
			"type": "function"
		},
		{
			"inputs": [],
			"name": "paused",
			"outputs": [
				{
					"internalType": "bool",
					"name": "",
					"type": "bool"
				}
			],
			"stateMutability": "view",
			"type": "function"
		},
		{
			"inputs": [
				{
					"components": [
						{
							"internalType": "address",
							"name": "minter",
							"type": "address"
						},
						{
							"internalType": "uint256",
							"name": "tokenId",
							"type": "uint256"
						},
						{
							"internalType": "string",
							"name": "uri",
							"type": "string"
						},
						{
							"internalType": "bytes",
							"name": "signature",
							"type": "bytes"
						}
					],
					"internalType": "struct Army.PublicMintVoucher",
					"name": "voucher",
					"type": "tuple"
				}
			],
			"name": "publicMint",
			"outputs": [],
			"stateMutability": "payable",
			"type": "function"
		},
		{
			"inputs": [],
			"name": "publicMintLive",
			"outputs": [
				{
					"internalType": "bool",
					"name": "",
					"type": "bool"
				}
			],
			"stateMutability": "view",
			"type": "function"
		},
		{
			"inputs": [],
			"name": "publicMintPrice",
			"outputs": [
				{
					"internalType": "uint256",
					"name": "",
					"type": "uint256"
				}
			],
			"stateMutability": "view",
			"type": "function"
		},
		{
			"inputs": [
				{
					"components": [
						{
							"internalType": "address",
							"name": "minter",
							"type": "address"
						},
						{
							"internalType": "uint256",
							"name": "tokenId",
							"type": "uint256"
						},
						{
							"internalType": "string",
							"name": "uri",
							"type": "string"
						},
						{
							"internalType": "bytes",
							"name": "signature",
							"type": "bytes"
						}
					],
					"internalType": "struct Army.PublicMintVoucher",
					"name": "voucher",
					"type": "tuple"
				}
			],
			"name": "redeemPublicMintVoucher",
			"outputs": [
				{
					"internalType": "address",
					"name": "",
					"type": "address"
				}
			],
			"stateMutability": "view",
			"type": "function"
		},
		{
			"inputs": [],
			"name": "renounceOwnership",
			"outputs": [],
			"stateMutability": "nonpayable",
			"type": "function"
		},
		{
			"inputs": [
				{
					"internalType": "address",
					"name": "from",
					"type": "address"
				},
				{
					"internalType": "address",
					"name": "to",
					"type": "address"
				},
				{
					"internalType": "uint256",
					"name": "tokenId",
					"type": "uint256"
				}
			],
			"name": "safeTransferFrom",
			"outputs": [],
			"stateMutability": "nonpayable",
			"type": "function"
		},
		{
			"inputs": [
				{
					"internalType": "address",
					"name": "from",
					"type": "address"
				},
				{
					"internalType": "address",
					"name": "to",
					"type": "address"
				},
				{
					"internalType": "uint256",
					"name": "tokenId",
					"type": "uint256"
				},
				{
					"internalType": "bytes",
					"name": "data",
					"type": "bytes"
				}
			],
			"name": "safeTransferFrom",
			"outputs": [],
			"stateMutability": "nonpayable",
			"type": "function"
		},
		{
			"inputs": [
				{
					"internalType": "address",
					"name": "operator",
					"type": "address"
				},
				{
					"internalType": "bool",
					"name": "approved",
					"type": "bool"
				}
			],
			"name": "setApprovalForAll",
			"outputs": [],
			"stateMutability": "nonpayable",
			"type": "function"
		},
		{
			"inputs": [],
			"name": "setFpAllowListEndTime",
			"outputs": [],
			"stateMutability": "nonpayable",
			"type": "function"
		},
		{
			"inputs": [
				{
					"internalType": "uint256",
					"name": "price",
					"type": "uint256"
				}
			],
			"name": "setFpAllowListPrice",
			"outputs": [],
			"stateMutability": "nonpayable",
			"type": "function"
		},
		{
			"inputs": [
				{
					"internalType": "bytes32",
					"name": "_root",
					"type": "bytes32"
				}
			],
			"name": "setFpAllowListRoot",
			"outputs": [],
			"stateMutability": "nonpayable",
			"type": "function"
		},
		{
			"inputs": [
				{
					"internalType": "uint256",
					"name": "amount",
					"type": "uint256"
				}
			],
			"name": "setMaximumSpMint",
			"outputs": [],
			"stateMutability": "nonpayable",
			"type": "function"
		},
		{
			"inputs": [
				{
					"internalType": "uint256",
					"name": "price",
					"type": "uint256"
				}
			],
			"name": "setPublicMintPrice",
			"outputs": [],
			"stateMutability": "nonpayable",
			"type": "function"
		},
		{
			"inputs": [],
			"name": "setSpAllowListEndTime",
			"outputs": [],
			"stateMutability": "nonpayable",
			"type": "function"
		},
		{
			"inputs": [
				{
					"internalType": "uint256",
					"name": "price",
					"type": "uint256"
				}
			],
			"name": "setSpAllowListPrice",
			"outputs": [],
			"stateMutability": "nonpayable",
			"type": "function"
		},
		{
			"inputs": [
				{
					"internalType": "bytes32",
					"name": "_root",
					"type": "bytes32"
				}
			],
			"name": "setSpAllowListRoot",
			"outputs": [],
			"stateMutability": "nonpayable",
			"type": "function"
		},
		{
			"inputs": [],
			"name": "spAllowListEndTime",
			"outputs": [
				{
					"internalType": "uint256",
					"name": "",
					"type": "uint256"
				}
			],
			"stateMutability": "view",
			"type": "function"
		},
		{
			"inputs": [],
			"name": "spAllowListMintLive",
			"outputs": [
				{
					"internalType": "bool",
					"name": "",
					"type": "bool"
				}
			],
			"stateMutability": "view",
			"type": "function"
		},
		{
			"inputs": [],
			"name": "spAllowListPrice",
			"outputs": [
				{
					"internalType": "uint256",
					"name": "",
					"type": "uint256"
				}
			],
			"stateMutability": "view",
			"type": "function"
		},
		{
			"inputs": [
				{
					"internalType": "address",
					"name": "minter",
					"type": "address"
				},
				{
					"internalType": "uint256",
					"name": "tokenId",
					"type": "uint256"
				},
				{
					"internalType": "string",
					"name": "uri",
					"type": "string"
				},
				{
					"internalType": "bytes32[]",
					"name": "proof",
					"type": "bytes32[]"
				}
			],
			"name": "spAllowMint",
			"outputs": [],
			"stateMutability": "payable",
			"type": "function"
		},
		{
			"inputs": [
				{
					"internalType": "address",
					"name": "",
					"type": "address"
				}
			],
			"name": "spMinterTotal",
			"outputs": [
				{
					"internalType": "uint256",
					"name": "",
					"type": "uint256"
				}
			],
			"stateMutability": "view",
			"type": "function"
		},
		{
			"inputs": [
				{
					"internalType": "bytes4",
					"name": "interfaceId",
					"type": "bytes4"
				}
			],
			"name": "supportsInterface",
			"outputs": [
				{
					"internalType": "bool",
					"name": "",
					"type": "bool"
				}
			],
			"stateMutability": "view",
			"type": "function"
		},
		{
			"inputs": [],
			"name": "symbol",
			"outputs": [
				{
					"internalType": "string",
					"name": "",
					"type": "string"
				}
			],
			"stateMutability": "view",
			"type": "function"
		},
		{
			"inputs": [],
			"name": "toggleFpAllowListMintLive",
			"outputs": [],
			"stateMutability": "nonpayable",
			"type": "function"
		},
		{
			"inputs": [],
			"name": "togglePublicMintLive",
			"outputs": [],
			"stateMutability": "nonpayable",
			"type": "function"
		},
		{
			"inputs": [],
			"name": "toggleSpAllowListMintLive",
			"outputs": [],
			"stateMutability": "nonpayable",
			"type": "function"
		},
		{
			"inputs": [
				{
					"internalType": "uint256",
					"name": "tokenId",
					"type": "uint256"
				}
			],
			"name": "tokenURI",
			"outputs": [
				{
					"internalType": "string",
					"name": "",
					"type": "string"
				}
			],
			"stateMutability": "view",
			"type": "function"
		},
		{
			"inputs": [],
			"name": "totalMinted",
			"outputs": [
				{
					"internalType": "uint256",
					"name": "",
					"type": "uint256"
				}
			],
			"stateMutability": "view",
			"type": "function"
		},
		{
			"inputs": [
				{
					"internalType": "address",
					"name": "from",
					"type": "address"
				},
				{
					"internalType": "address",
					"name": "to",
					"type": "address"
				},
				{
					"internalType": "uint256",
					"name": "tokenId",
					"type": "uint256"
				}
			],
			"name": "transferFrom",
			"outputs": [],
			"stateMutability": "nonpayable",
			"type": "function"
		},
		{
			"inputs": [
				{
					"internalType": "address",
					"name": "newOwner",
					"type": "address"
				}
			],
			"name": "transferOwnership",
			"outputs": [],
			"stateMutability": "nonpayable",
			"type": "function"
		},
		{
			"inputs": [],
			"name": "unpause",
			"outputs": [],
			"stateMutability": "nonpayable",
			"type": "function"
		},
		{
			"inputs": [
				{
					"internalType": "bytes32[]",
					"name": "proof",
					"type": "bytes32[]"
				},
				{
					"internalType": "bytes32",
					"name": "leaf",
					"type": "bytes32"
				}
			],
			"name": "verifyFpAllowList",
			"outputs": [
				{
					"internalType": "bool",
					"name": "",
					"type": "bool"
				}
			],
			"stateMutability": "view",
			"type": "function"
		},
		{
			"inputs": [
				{
					"internalType": "bytes32[]",
					"name": "proof",
					"type": "bytes32[]"
				},
				{
					"internalType": "bytes32",
					"name": "leaf",
					"type": "bytes32"
				}
			],
			"name": "verifySpAllowList",
			"outputs": [
				{
					"internalType": "bool",
					"name": "",
					"type": "bool"
				}
			],
			"stateMutability": "view",
			"type": "function"
		},
		{
			"inputs": [
				{
					"internalType": "address",
					"name": "to",
					"type": "address"
				}
			],
			"name": "withdraw",
			"outputs": [],
			"stateMutability": "nonpayable",
			"type": "function"
		}
	]
}